{
  "contractName": "Prescriptions",
  "abi": [
    {
      "inputs": [],
      "payable": false,
      "stateMutability": "nonpayable",
      "type": "constructor"
    },
    {
      "constant": true,
      "inputs": [
        {
          "internalType": "uint256",
          "name": "",
          "type": "uint256"
        }
      ],
      "name": "prescription",
      "outputs": [
        {
          "internalType": "address",
          "name": "physician",
          "type": "address"
        },
        {
          "internalType": "address",
          "name": "insured",
          "type": "address"
        },
        {
          "internalType": "address",
          "name": "pharmacist",
          "type": "address"
        },
        {
          "internalType": "bool",
          "name": "pharmacistEqualsInsured",
          "type": "bool"
        },
        {
          "internalType": "string",
          "name": "medicine_name",
          "type": "string"
        },
        {
          "internalType": "string",
          "name": "medicine_amount",
          "type": "string"
        }
      ],
      "payable": false,
      "stateMutability": "view",
      "type": "function"
    },
    {
      "constant": true,
      "inputs": [
        {
          "internalType": "address",
          "name": "",
          "type": "address"
        },
        {
          "internalType": "uint256",
          "name": "",
          "type": "uint256"
        }
      ],
      "name": "prescriptionInsured",
      "outputs": [
        {
          "internalType": "uint256",
          "name": "",
          "type": "uint256"
        }
      ],
      "payable": false,
      "stateMutability": "view",
      "type": "function"
    },
    {
      "constant": true,
      "inputs": [
        {
          "internalType": "address",
          "name": "",
          "type": "address"
        },
        {
          "internalType": "uint256",
          "name": "",
          "type": "uint256"
        }
      ],
      "name": "prescriptionPharmacist",
      "outputs": [
        {
          "internalType": "uint256",
          "name": "",
          "type": "uint256"
        }
      ],
      "payable": false,
      "stateMutability": "view",
      "type": "function"
    },
    {
      "constant": true,
      "inputs": [
        {
          "internalType": "address",
          "name": "",
          "type": "address"
        },
        {
          "internalType": "uint256",
          "name": "",
          "type": "uint256"
        }
      ],
      "name": "prescriptionPhysisician",
      "outputs": [
        {
          "internalType": "uint256",
          "name": "",
          "type": "uint256"
        }
      ],
      "payable": false,
      "stateMutability": "view",
      "type": "function"
    },
    {
      "constant": true,
      "inputs": [],
      "name": "verifying_institution",
      "outputs": [
        {
          "internalType": "address",
          "name": "",
          "type": "address"
        }
      ],
      "payable": false,
      "stateMutability": "view",
      "type": "function"
    },
    {
      "constant": false,
      "inputs": [
        {
          "internalType": "address",
          "name": "smart_contract_key",
          "type": "address"
        }
      ],
      "name": "establishConnectionToUserSmartContract",
      "outputs": [],
      "payable": false,
      "stateMutability": "nonpayable",
      "type": "function"
    },
    {
      "constant": false,
      "inputs": [
        {
          "components": [
            {
              "internalType": "address",
              "name": "physician",
              "type": "address"
            },
            {
              "internalType": "address",
              "name": "insured",
              "type": "address"
            },
            {
              "internalType": "address",
              "name": "pharmacist",
              "type": "address"
            },
            {
              "internalType": "bool",
              "name": "pharmacistEqualsInsured",
              "type": "bool"
            },
            {
              "internalType": "string",
              "name": "medicine_name",
              "type": "string"
            },
            {
              "internalType": "string",
              "name": "medicine_amount",
              "type": "string"
            }
          ],
          "internalType": "struct Prescriptions.Prescription",
          "name": "prescription_",
          "type": "tuple"
        }
      ],
      "name": "newPrescription",
      "outputs": [],
      "payable": false,
      "stateMutability": "nonpayable",
      "type": "function"
    },
    {
      "constant": false,
      "inputs": [
        {
          "components": [
            {
              "internalType": "address",
              "name": "physician",
              "type": "address"
            },
            {
              "internalType": "address",
              "name": "insured",
              "type": "address"
            },
            {
              "internalType": "address",
              "name": "pharmacist",
              "type": "address"
            },
            {
              "internalType": "bool",
              "name": "pharmacistEqualsInsured",
              "type": "bool"
            },
            {
              "internalType": "string",
              "name": "medicine_name",
              "type": "string"
            },
            {
              "internalType": "string",
              "name": "medicine_amount",
              "type": "string"
            }
          ],
          "internalType": "struct Prescriptions.Prescription",
          "name": "prescription_",
          "type": "tuple"
        },
        {
          "internalType": "uint256",
          "name": "prescription_id_",
          "type": "uint256"
        }
      ],
      "name": "transferPrescriptionToPharmacist",
      "outputs": [],
      "payable": false,
      "stateMutability": "nonpayable",
      "type": "function"
    },
    {
      "constant": false,
      "inputs": [
        {
          "internalType": "uint256",
          "name": "prescription_id_",
          "type": "uint256"
        }
      ],
      "name": "redeemPrescription",
      "outputs": [],
      "payable": false,
      "stateMutability": "nonpayable",
      "type": "function"
    },
    {
      "constant": false,
      "inputs": [
        {
          "internalType": "uint256",
          "name": "prescription_id_",
          "type": "uint256"
        }
      ],
      "name": "getPrescription",
      "outputs": [
        {
          "components": [
            {
              "internalType": "address",
              "name": "physician",
              "type": "address"
            },
            {
              "internalType": "address",
              "name": "insured",
              "type": "address"
            },
            {
              "internalType": "address",
              "name": "pharmacist",
              "type": "address"
            },
            {
              "internalType": "bool",
              "name": "pharmacistEqualsInsured",
              "type": "bool"
            },
            {
              "internalType": "string",
              "name": "medicine_name",
              "type": "string"
            },
            {
              "internalType": "string",
              "name": "medicine_amount",
              "type": "string"
            }
          ],
          "internalType": "struct Prescriptions.Prescription",
          "name": "",
          "type": "tuple"
        }
      ],
      "payable": false,
      "stateMutability": "nonpayable",
      "type": "function"
    },
    {
      "constant": false,
      "inputs": [
        {
          "internalType": "address",
          "name": "public_key",
          "type": "address"
        }
      ],
      "name": "getPhysisicianPrescriptionsIDs",
      "outputs": [
        {
          "internalType": "uint256[]",
          "name": "",
          "type": "uint256[]"
        }
      ],
      "payable": false,
      "stateMutability": "nonpayable",
      "type": "function"
    },
    {
      "constant": false,
      "inputs": [
        {
          "internalType": "address",
          "name": "public_key",
          "type": "address"
        }
      ],
      "name": "getInsuredPrescriptionsIDs",
      "outputs": [
        {
          "internalType": "uint256[]",
          "name": "",
          "type": "uint256[]"
        }
      ],
      "payable": false,
      "stateMutability": "nonpayable",
      "type": "function"
    },
    {
      "constant": false,
      "inputs": [
        {
          "internalType": "address",
          "name": "public_key",
          "type": "address"
        }
      ],
      "name": "getPharmacistPrescriptionsIDs",
      "outputs": [
        {
          "internalType": "uint256[]",
          "name": "",
          "type": "uint256[]"
        }
      ],
      "payable": false,
      "stateMutability": "nonpayable",
      "type": "function"
    }
  ],
  "bytecode": "0x608060405234801561001057600080fd5b50336000806101000a81548173ffffffffffffffffffffffffffffffffffffffff021916908373ffffffffffffffffffffffffffffffffffffffff1602179055506000600281905550612557806100686000396000f3fe608060405234801561001057600080fd5b50600436106100cf5760003560e01c8063828f362c1161008c578063b1b7d5e211610066578063b1b7d5e214610227578063b73c03f814610257578063be03178314610287578063fb589cdd146102b7576100cf565b8063828f362c146101d3578063a6127293146101ef578063b16928a41461020b576100cf565b8063066c4e82146100d45780631ea72e8c14610104578063287eda05146101345780636f16af10146101695780637649d20e1461019957806381eceeb7146101b5575b600080fd5b6100ee60048036036100e99190810190611a95565b6102e7565b6040516100fb9190612196565b60405180910390f35b61011e60048036036101199190810190611a95565b61037e565b60405161012b9190612196565b60405180910390f35b61014e60048036036101499190810190611bb8565b610415565b60405161016096959493929190612127565b60405180910390f35b610183600480360361017e9190810190611bb8565b6105ee565b6040516101909190612302565b60405180910390f35b6101b360048036036101ae9190810190611b23565b61087c565b005b6101bd610d1f565b6040516101ca919061210c565b60405180910390f35b6101ed60048036036101e89190810190611b64565b610d44565b005b61020960048036036102049190810190611a95565b6113c6565b005b61022560048036036102209190810190611bb8565b611499565b005b610241600480360361023c9190810190611abe565b6116e1565b60405161024e9190612324565b60405180910390f35b610271600480360361026c9190810190611abe565b61170f565b60405161027e9190612324565b60405180910390f35b6102a1600480360361029c9190810190611a95565b61173d565b6040516102ae9190612196565b60405180910390f35b6102d160048036036102cc9190810190611abe565b6117d4565b6040516102de9190612324565b60405180910390f35b6060600460008373ffffffffffffffffffffffffffffffffffffffff1673ffffffffffffffffffffffffffffffffffffffff16815260200190815260200160002080548060200260200160405190810160405280929190818152602001828054801561037257602002820191906000526020600020905b81548152602001906001019080831161035e575b50505050509050919050565b6060600560008373ffffffffffffffffffffffffffffffffffffffff1673ffffffffffffffffffffffffffffffffffffffff16815260200190815260200160002080548060200260200160405190810160405280929190818152602001828054801561040957602002820191906000526020600020905b8154815260200190600101908083116103f5575b50505050509050919050565b60036020528060005260406000206000915090508060000160009054906101000a900473ffffffffffffffffffffffffffffffffffffffff16908060010160009054906101000a900473ffffffffffffffffffffffffffffffffffffffff16908060020160009054906101000a900473ffffffffffffffffffffffffffffffffffffffff16908060020160149054906101000a900460ff1690806003018054600181600116156101000203166002900480601f0160208091040260200160405190810160405280929190818152602001828054600181600116156101000203166002900480156105465780601f1061051b57610100808354040283529160200191610546565b820191906000526020600020905b81548152906001019060200180831161052957829003601f168201915b505050505090806004018054600181600116156101000203166002900480601f0160208091040260200160405190810160405280929190818152602001828054600181600116156101000203166002900480156105e45780601f106105b9576101008083540402835291602001916105e4565b820191906000526020600020905b8154815290600101906020018083116105c757829003601f168201915b5050505050905086565b6105f6611802565b600360008381526020019081526020016000206040518060c00160405290816000820160009054906101000a900473ffffffffffffffffffffffffffffffffffffffff1673ffffffffffffffffffffffffffffffffffffffff1673ffffffffffffffffffffffffffffffffffffffff1681526020016001820160009054906101000a900473ffffffffffffffffffffffffffffffffffffffff1673ffffffffffffffffffffffffffffffffffffffff1673ffffffffffffffffffffffffffffffffffffffff1681526020016002820160009054906101000a900473ffffffffffffffffffffffffffffffffffffffff1673ffffffffffffffffffffffffffffffffffffffff1673ffffffffffffffffffffffffffffffffffffffff1681526020016002820160149054906101000a900460ff16151515158152602001600382018054600181600116156101000203166002900480601f0160208091040260200160405190810160405280929190818152602001828054600181600116156101000203166002900480156107ca5780601f1061079f576101008083540402835291602001916107ca565b820191906000526020600020905b8154815290600101906020018083116107ad57829003601f168201915b50505050508152602001600482018054600181600116156101000203166002900480601f01602080910402602001604051908101604052809291908181526020018280546001816001161561010002031660029004801561086c5780601f106108415761010080835404028352916020019161086c565b820191906000526020600020905b81548152906001019060200180831161084f57829003601f168201915b5050505050815250509050919050565b60011515600160009054906101000a900473ffffffffffffffffffffffffffffffffffffffff1673ffffffffffffffffffffffffffffffffffffffff1663f7350e60336040518263ffffffff1660e01b81526004016108db9190612226565b60206040518083038186803b1580156108f357600080fd5b505afa158015610907573d6000803e3d6000fd5b505050506040513d601f19601f8201168201806040525061092b9190810190611afa565b15151461096d576040517f08c379a0000000000000000000000000000000000000000000000000000000008152600401610964906122e2565b60405180910390fd5b60011515600160009054906101000a900473ffffffffffffffffffffffffffffffffffffffff1673ffffffffffffffffffffffffffffffffffffffff1663f7350e6083602001516040518263ffffffff1660e01b81526004016109d091906122b4565b60206040518083038186803b1580156109e857600080fd5b505afa1580156109fc573d6000803e3d6000fd5b505050506040513d601f19601f82011682018060405250610a209190810190611afa565b151514610a62576040517f08c379a0000000000000000000000000000000000000000000000000000000008152600401610a5990612254565b60405180910390fd5b6040518060c00160405280826000015173ffffffffffffffffffffffffffffffffffffffff168152602001826020015173ffffffffffffffffffffffffffffffffffffffff168152602001826040015173ffffffffffffffffffffffffffffffffffffffff168152602001826060015115158152602001826080015181526020018260a0015181525060036000600254815260200190815260200160002060008201518160000160006101000a81548173ffffffffffffffffffffffffffffffffffffffff021916908373ffffffffffffffffffffffffffffffffffffffff16021790555060208201518160010160006101000a81548173ffffffffffffffffffffffffffffffffffffffff021916908373ffffffffffffffffffffffffffffffffffffffff16021790555060408201518160020160006101000a81548173ffffffffffffffffffffffffffffffffffffffff021916908373ffffffffffffffffffffffffffffffffffffffff16021790555060608201518160020160146101000a81548160ff0219169083151502179055506080820151816003019080519060200190610c1192919061187c565b5060a0820151816004019080519060200190610c2e92919061187c565b5090505060046000826000015173ffffffffffffffffffffffffffffffffffffffff1673ffffffffffffffffffffffffffffffffffffffff168152602001908152602001600020600254908060018154018082558091505090600182039060005260206000200160009091929091909150555060056000826020015173ffffffffffffffffffffffffffffffffffffffff1673ffffffffffffffffffffffffffffffffffffffff168152602001908152602001600020600254908060018154018082558091505090600182039060005260206000200160009091929091909150555060016002540160028190555050565b6000809054906101000a900473ffffffffffffffffffffffffffffffffffffffff1681565b816020015173ffffffffffffffffffffffffffffffffffffffff163373ffffffffffffffffffffffffffffffffffffffff1614610db6576040517f08c379a0000000000000000000000000000000000000000000000000000000008152600401610dad90612294565b60405180910390fd5b60011515600160009054906101000a900473ffffffffffffffffffffffffffffffffffffffff1673ffffffffffffffffffffffffffffffffffffffff1663f7350e6084602001516040518263ffffffff1660e01b8152600401610e1991906122b4565b60206040518083038186803b158015610e3157600080fd5b505afa158015610e45573d6000803e3d6000fd5b505050506040513d601f19601f82011682018060405250610e699190810190611afa565b151514610eab576040517f08c379a0000000000000000000000000000000000000000000000000000000008152600401610ea2906121b8565b60405180910390fd5b60011515600160009054906101000a900473ffffffffffffffffffffffffffffffffffffffff1673ffffffffffffffffffffffffffffffffffffffff1663f7350e6084604001516040518263ffffffff1660e01b8152600401610f0e91906121f8565b60206040518083038186803b158015610f2657600080fd5b505afa158015610f3a573d6000803e3d6000fd5b505050506040513d601f19601f82011682018060405250610f5e9190810190611afa565b151514610fa0576040517f08c379a0000000000000000000000000000000000000000000000000000000008152600401610f9790612274565b60405180910390fd5b6040518060c00160405280836000015173ffffffffffffffffffffffffffffffffffffffff168152602001836020015173ffffffffffffffffffffffffffffffffffffffff168152602001836040015173ffffffffffffffffffffffffffffffffffffffff168152602001836060015115158152602001836080015181526020018360a001518152506003600083815260200190815260200160002060008201518160000160006101000a81548173ffffffffffffffffffffffffffffffffffffffff021916908373ffffffffffffffffffffffffffffffffffffffff16021790555060208201518160010160006101000a81548173ffffffffffffffffffffffffffffffffffffffff021916908373ffffffffffffffffffffffffffffffffffffffff16021790555060408201518160020160006101000a81548173ffffffffffffffffffffffffffffffffffffffff021916908373ffffffffffffffffffffffffffffffffffffffff16021790555060608201518160020160146101000a81548160ff021916908315150217905550608082015181600301908051906020019061114d92919061187c565b5060a082015181600401908051906020019061116a92919061187c565b5090505060066000836040015173ffffffffffffffffffffffffffffffffffffffff1673ffffffffffffffffffffffffffffffffffffffff16815260200190815260200160002081908060018154018082558091505090600182039060005260206000200160009091929091909150555060008090506000600560003373ffffffffffffffffffffffffffffffffffffffff1673ffffffffffffffffffffffffffffffffffffffff16815260200190815260200160002080549050905060008090505b8181101561135357600560003373ffffffffffffffffffffffffffffffffffffffff1673ffffffffffffffffffffffffffffffffffffffff168152602001908152602001600020818154811061127f57fe5b906000526020600020015484141561134657600560003373ffffffffffffffffffffffffffffffffffffffff1673ffffffffffffffffffffffffffffffffffffffff16815260200190815260200160002060018303815481106112de57fe5b9060005260206000200154600560003373ffffffffffffffffffffffffffffffffffffffff1673ffffffffffffffffffffffffffffffffffffffff168152602001908152602001600020828154811061133357fe5b9060005260206000200181905550600192505b808060010191505061122d565b506001151582151514156113c057600560003373ffffffffffffffffffffffffffffffffffffffff1673ffffffffffffffffffffffffffffffffffffffff1681526020019081526020016000208054806113a957fe5b600190038181906000526020600020016000905590555b50505050565b6000809054906101000a900473ffffffffffffffffffffffffffffffffffffffff1673ffffffffffffffffffffffffffffffffffffffff163373ffffffffffffffffffffffffffffffffffffffff1614611455576040517f08c379a000000000000000000000000000000000000000000000000000000000815260040161144c906121d8565b60405180910390fd5b80600160006101000a81548173ffffffffffffffffffffffffffffffffffffffff021916908373ffffffffffffffffffffffffffffffffffffffff16021790555050565b60008090506000600660003373ffffffffffffffffffffffffffffffffffffffff1673ffffffffffffffffffffffffffffffffffffffff16815260200190815260200160002080549050905060008090505b8181101561166f57600660003373ffffffffffffffffffffffffffffffffffffffff1673ffffffffffffffffffffffffffffffffffffffff168152602001908152602001600020818154811061153d57fe5b906000526020600020015484141561166257600660003373ffffffffffffffffffffffffffffffffffffffff1673ffffffffffffffffffffffffffffffffffffffff168152602001908152602001600020600183038154811061159c57fe5b9060005260206000200154600660003373ffffffffffffffffffffffffffffffffffffffff1673ffffffffffffffffffffffffffffffffffffffff16815260200190815260200160002082815481106115f157fe5b9060005260206000200181905550600660003373ffffffffffffffffffffffffffffffffffffffff1673ffffffffffffffffffffffffffffffffffffffff16815260200190815260200160002080548061164757fe5b60019003818190600052602060002001600090559055600192505b80806001019150506114eb565b506001151582151514156116dc57600660003373ffffffffffffffffffffffffffffffffffffffff1673ffffffffffffffffffffffffffffffffffffffff1681526020019081526020016000208054806116c557fe5b600190038181906000526020600020016000905590555b505050565b600460205281600052604060002081815481106116fa57fe5b90600052602060002001600091509150505481565b6005602052816000526040600020818154811061172857fe5b90600052602060002001600091509150505481565b6060600660008373ffffffffffffffffffffffffffffffffffffffff1673ffffffffffffffffffffffffffffffffffffffff1681526020019081526020016000208054806020026020016040519081016040528092919081815260200182805480156117c857602002820191906000526020600020905b8154815260200190600101908083116117b4575b50505050509050919050565b600660205281600052604060002081815481106117ed57fe5b90600052602060002001600091509150505481565b6040518060c00160405280600073ffffffffffffffffffffffffffffffffffffffff168152602001600073ffffffffffffffffffffffffffffffffffffffff168152602001600073ffffffffffffffffffffffffffffffffffffffff16815260200160001515815260200160608152602001606081525090565b828054600181600116156101000203166002900490600052602060002090601f016020900481019282601f106118bd57805160ff19168380011785556118eb565b828001600101855582156118eb579182015b828111156118ea5782518255916020019190600101906118cf565b5b5090506118f891906118fc565b5090565b61191e91905b8082111561191a576000816000905550600101611902565b5090565b90565b600081359050611930816124cf565b92915050565b600081359050611945816124e6565b92915050565b60008151905061195a816124e6565b92915050565b600082601f83011261197157600080fd5b813561198461197f8261236c565b61233f565b915080825260208301602083018583830111156119a057600080fd5b6119ab83828461247c565b50505092915050565b600060c082840312156119c657600080fd5b6119d060c061233f565b905060006119e084828501611921565b60008301525060206119f484828501611921565b6020830152506040611a0884828501611921565b6040830152506060611a1c84828501611936565b606083015250608082013567ffffffffffffffff811115611a3c57600080fd5b611a4884828501611960565b60808301525060a082013567ffffffffffffffff811115611a6857600080fd5b611a7484828501611960565b60a08301525092915050565b600081359050611a8f816124fd565b92915050565b600060208284031215611aa757600080fd5b6000611ab584828501611921565b91505092915050565b60008060408385031215611ad157600080fd5b6000611adf85828601611921565b9250506020611af085828601611a80565b9150509250929050565b600060208284031215611b0c57600080fd5b6000611b1a8482850161194b565b91505092915050565b600060208284031215611b3557600080fd5b600082013567ffffffffffffffff811115611b4f57600080fd5b611b5b848285016119b4565b91505092915050565b60008060408385031215611b7757600080fd5b600083013567ffffffffffffffff811115611b9157600080fd5b611b9d858286016119b4565b9250506020611bae85828601611a80565b9150509250929050565b600060208284031215611bca57600080fd5b6000611bd884828501611a80565b91505092915050565b6000611bed83836120ee565b60208301905092915050565b611c0281612446565b82525050565b611c11816123fe565b82525050565b611c20816123fe565b82525050565b6000611c31826123a8565b611c3b81856123cb565b9350611c4683612398565b8060005b83811015611c77578151611c5e8882611be1565b9750611c69836123be565b925050600181019050611c4a565b5085935050505092915050565b611c8d81612410565b82525050565b611c9c81612410565b82525050565b6000611cad826123b3565b611cb781856123dc565b9350611cc781856020860161248b565b611cd0816124be565b840191505092915050565b6000611ce6826123b3565b611cf081856123ed565b9350611d0081856020860161248b565b611d09816124be565b840191505092915050565b6000611d216039836123ed565b91507f596f7520646f6e2774206861766520746865207072656d697373696f6e20746f60008301527f207472616e73666572206120707265736372697074696f6e21000000000000006020830152604082019050919050565b6000611d87604f836123ed565b91507f4f6e6c79207468652076657269667920696e737469747574696f6e206861732060008301527f746865207072656d697373696f6e20746f20636f6e6e6563742070726573637260208301527f697074696f6e20746f20757365722100000000000000000000000000000000006040830152606082019050919050565b6000611e13600a836123ed565b91507f706861726d6163697374000000000000000000000000000000000000000000006000830152602082019050919050565b6000611e536009836123ed565b91507f70687973696369616e00000000000000000000000000000000000000000000006000830152602082019050919050565b6000611e93602b836123ed565b91507f5468697320696e7375726564206973206e6f742072656769737465726564206f60008301527f72207665726966696564210000000000000000000000000000000000000000006020830152604082019050919050565b6000611ef9602e836123ed565b91507f5468697320706861726d6163697374206973206e6f742072656769737465726560008301527f64206f72207665726966696564210000000000000000000000000000000000006020830152604082019050919050565b6000611f5f603e836123ed565b91507f54686520707265736372697074696f6e20796f752074727920746f207472616e60008301527f73666572206973206e6f7420796f757220707265736372697074696f6e2100006020830152604082019050919050565b6000611fc56007836123ed565b91507f696e7375726564000000000000000000000000000000000000000000000000006000830152602082019050919050565b60006120056037836123ed565b91507f596f7520646f6e2774206861766520746865207072656d697373696f6e20746f60008301527f20637265617465206120707265736372697074696f6e210000000000000000006020830152604082019050919050565b600060c0830160008301516120766000860182611c08565b5060208301516120896020860182611c08565b50604083015161209c6040860182611c08565b5060608301516120af6060860182611c84565b50608083015184820360808601526120c78282611ca2565b91505060a083015184820360a08601526120e18282611ca2565b9150508091505092915050565b6120f78161243c565b82525050565b6121068161243c565b82525050565b60006020820190506121216000830184611c17565b92915050565b600060c08201905061213c6000830189611c17565b6121496020830188611c17565b6121566040830187611c17565b6121636060830186611c93565b81810360808301526121758185611cdb565b905081810360a08301526121898184611cdb565b9050979650505050505050565b600060208201905081810360008301526121b08184611c26565b905092915050565b600060208201905081810360008301526121d181611d14565b9050919050565b600060208201905081810360008301526121f181611d7a565b9050919050565b6000604082019050818103600083015261221181611e06565b90506122206020830184611c17565b92915050565b6000604082019050818103600083015261223f81611e46565b905061224e6020830184611bf9565b92915050565b6000602082019050818103600083015261226d81611e86565b9050919050565b6000602082019050818103600083015261228d81611eec565b9050919050565b600060208201905081810360008301526122ad81611f52565b9050919050565b600060408201905081810360008301526122cd81611fb8565b90506122dc6020830184611c17565b92915050565b600060208201905081810360008301526122fb81611ff8565b9050919050565b6000602082019050818103600083015261231c818461205e565b905092915050565b600060208201905061233960008301846120fd565b92915050565b6000604051905081810181811067ffffffffffffffff8211171561236257600080fd5b8060405250919050565b600067ffffffffffffffff82111561238357600080fd5b601f19601f8301169050602081019050919050565b6000819050602082019050919050565b600081519050919050565b600081519050919050565b6000602082019050919050565b600082825260208201905092915050565b600082825260208201905092915050565b600082825260208201905092915050565b60006124098261241c565b9050919050565b60008115159050919050565b600073ffffffffffffffffffffffffffffffffffffffff82169050919050565b6000819050919050565b600061245182612458565b9050919050565b60006124638261246a565b9050919050565b60006124758261241c565b9050919050565b82818337600083830152505050565b60005b838110156124a957808201518184015260208101905061248e565b838111156124b8576000848401525b50505050565b6000601f19601f8301169050919050565b6124d8816123fe565b81146124e357600080fd5b50565b6124ef81612410565b81146124fa57600080fd5b50565b6125068161243c565b811461251157600080fd5b5056fea365627a7a72315820d16bf7bd0f3d515a89501ea253534cb8701bac7e54ad9818646cbb7ef74fb1c86c6578706572696d656e74616cf564736f6c63430005100040",
  "source": "// SPDX-License-Identifier: MIT\npragma solidity >=0.4.21 <0.7.0;\npragma experimental ABIEncoderV2;\n\n// Import Smart Contract User to interact and call functions of it\nimport \"./User.sol\";\n\ncontract Prescriptions {\n\n    // Variable that stores the address of the user who created the smart contract\n    address public verifying_institution;\n\n    User UserContract;\n    uint prescription_id;\n\n    constructor () public {\n        verifying_institution = msg.sender;\n        prescription_id = 0;\n    }\n\n    struct Prescription {\n        address physician;\n        address insured;\n        address pharmacist;\n\n        bool pharmacistEqualsInsured;\n\n        string medicine_name;\n        string medicine_amount;\n\n        // bool charges_free;\n        // bool charges_mandatory;\n    }\n\n    mapping(uint => Prescription) public prescription;\n    mapping(address => uint[]) public prescriptionPhysisician;\n    mapping(address => uint[]) public prescriptionInsured;\n    mapping(address => uint[]) public prescriptionPharmacist;\n    \n    function establishConnectionToUserSmartContract(address smart_contract_key) public {\n        require(msg.sender == verifying_institution, \"Only the verify institution has the premission to connect prescription to user!\");\n        UserContract = User(smart_contract_key);\n    }\n\n    function newPrescription(Prescription memory prescription_) public{\n        require(UserContract.checkVerification('physician', msg.sender) == true, \"You don't have the premission to create a prescription!\");\n        require(UserContract.checkVerification('insured', prescription_.insured) == true, \"This insured is not registered or verified!\");\n\n        prescription[prescription_id] = Prescription(prescription_.physician, prescription_.insured, prescription_.pharmacist, prescription_.pharmacistEqualsInsured, prescription_.medicine_name, prescription_.medicine_amount);\n        prescriptionPhysisician[prescription_.physician].push(prescription_id);\n        prescriptionInsured[prescription_.insured].push(prescription_id);\n        prescription_id = prescription_id + 1;\n    }\n\n    function transferPrescriptionToPharmacist(Prescription memory prescription_, uint prescription_id_) public {\n        require(msg.sender == prescription_.insured, \"The prescription you try to transfer is not your prescription!\");\n        require(UserContract.checkVerification('insured', prescription_.insured) == true, \"You don't have the premission to transfer a prescription!\");\n        require(UserContract.checkVerification('pharmacist', prescription_.pharmacist) == true, \"This pharmacist is not registered or verified!\");\n    \n        prescription[prescription_id_] = Prescription(prescription_.physician, prescription_.insured, prescription_.pharmacist, prescription_.pharmacistEqualsInsured, prescription_.medicine_name, prescription_.medicine_amount);\n        prescriptionPharmacist[prescription_.pharmacist].push(prescription_id_);\n\n        bool swap = false;\n        uint prescriptionInsuredLength;\n        prescriptionInsuredLength = prescriptionInsured[msg.sender].length;\n\n        for(uint i=0; i < prescriptionInsuredLength; i++){\n            if(prescription_id_ == prescriptionInsured[msg.sender][i]){\n                prescriptionInsured[msg.sender][i] = prescriptionInsured[msg.sender][prescriptionInsuredLength-1];\n                swap = true;\n            }\n        } \n        \n        if(swap == true){\n            prescriptionInsured[msg.sender].pop();\n        }\n    }\n\n    function redeemPrescription(uint prescription_id_) public {\n        bool swap = false;\n        uint prescriptionPharmacistLength;\n        prescriptionPharmacistLength = prescriptionPharmacist[msg.sender].length;\n\n        for(uint i=0; i < prescriptionPharmacistLength; i++){\n            if(prescription_id_ == prescriptionPharmacist[msg.sender][i]){\n                prescriptionPharmacist[msg.sender][i] = prescriptionPharmacist[msg.sender][prescriptionPharmacistLength-1];\n                prescriptionPharmacist[msg.sender].pop();\n                swap = true;\n            }\n        } \n\n        if(swap == true){\n            prescriptionPharmacist[msg.sender].pop();\n        }\n    }\n\n    function getPrescription(uint prescription_id_) public returns (Prescription memory){\n        return prescription[prescription_id_];\n    }\n\n    function getPhysisicianPrescriptionsIDs(address public_key) public returns (uint[] memory){\n        return prescriptionPhysisician[public_key];\n    }\n\n    function getInsuredPrescriptionsIDs(address public_key) public returns (uint[] memory){\n        return prescriptionInsured[public_key];\n    }\n\n    function getPharmacistPrescriptionsIDs(address public_key) public returns (uint[] memory){\n        return prescriptionPharmacist[public_key];\n    }\n}\n",
  "sourcePath": "/Users/valentin/Documents/Programmdaten/Visual_Studio/5_Semester/Integrationsseminar/blockchain_e_prescription/contracts/Prescriptions.sol",
  "compiler": {
    "name": "solc",
    "version": "0.5.16+commit.9c3226ce.Emscripten.clang"
  },
  "schemaVersion": "3.3.2",
  "updatedAt": "2021-01-04T20:32:42.933Z",
  "networkType": "ethereum",
  "devdoc": {
    "methods": {}
  },
  "userdoc": {
    "methods": {}
  }
}