{
  "contractName": "Prescriptions",
  "abi": [
    {
      "inputs": [],
      "payable": false,
      "stateMutability": "nonpayable",
      "type": "constructor"
    },
    {
      "constant": true,
      "inputs": [],
      "name": "verifying_institution",
      "outputs": [
        {
          "internalType": "address",
          "name": "",
          "type": "address"
        }
      ],
      "payable": false,
      "stateMutability": "view",
      "type": "function"
    },
    {
      "constant": false,
      "inputs": [
        {
          "internalType": "address",
          "name": "smart_contract_key",
          "type": "address"
        }
      ],
      "name": "establishConnectionToUserSmartContract",
      "outputs": [],
      "payable": false,
      "stateMutability": "nonpayable",
      "type": "function"
    },
    {
      "constant": true,
      "inputs": [
        {
          "internalType": "address",
          "name": "public_key",
          "type": "address"
        }
      ],
      "name": "checkInsured",
      "outputs": [
        {
          "internalType": "bool",
          "name": "",
          "type": "bool"
        }
      ],
      "payable": false,
      "stateMutability": "view",
      "type": "function"
    }
  ],
  "bytecode": "0x608060405234801561001057600080fd5b50336000806101000a81548173ffffffffffffffffffffffffffffffffffffffff021916908373ffffffffffffffffffffffffffffffffffffffff1602179055506103a0806100606000396000f3fe608060405234801561001057600080fd5b50600436106100415760003560e01c80630f807a421461004657806381eceeb7146100a2578063a6127293146100ec575b600080fd5b6100886004803603602081101561005c57600080fd5b81019080803573ffffffffffffffffffffffffffffffffffffffff169060200190929190505050610130565b604051808215151515815260200191505060405180910390f35b6100aa610213565b604051808273ffffffffffffffffffffffffffffffffffffffff1673ffffffffffffffffffffffffffffffffffffffff16815260200191505060405180910390f35b61012e6004803603602081101561010257600080fd5b81019080803573ffffffffffffffffffffffffffffffffffffffff169060200190929190505050610238565b005b6000600160009054906101000a900473ffffffffffffffffffffffffffffffffffffffff1673ffffffffffffffffffffffffffffffffffffffff166327b52abc836040518263ffffffff1660e01b8152600401808273ffffffffffffffffffffffffffffffffffffffff1673ffffffffffffffffffffffffffffffffffffffff16815260200191505060206040518083038186803b1580156101d157600080fd5b505afa1580156101e5573d6000803e3d6000fd5b505050506040513d60208110156101fb57600080fd5b81019080805190602001909291905050509050919050565b6000809054906101000a900473ffffffffffffffffffffffffffffffffffffffff1681565b6000809054906101000a900473ffffffffffffffffffffffffffffffffffffffff1673ffffffffffffffffffffffffffffffffffffffff163373ffffffffffffffffffffffffffffffffffffffff16146102dd576040517f08c379a000000000000000000000000000000000000000000000000000000000815260040180806020018281038252604a815260200180610322604a913960600191505060405180910390fd5b80600160006101000a81548173ffffffffffffffffffffffffffffffffffffffff021916908373ffffffffffffffffffffffffffffffffffffffff1602179055505056fe4f6e6c79207468652076657269667920696e737469747574696f6e206861732074686520726967687420746f20636f6e6e65637420707265736372697074696f6e20746f207573657221a265627a7a72315820a3c310dbbc3af4a8ccef81592da096a3eb04020e01a4eee3cbae1d09da1b023d64736f6c63430005100032",
  "source": "// SPDX-License-Identifier: MIT\npragma solidity >=0.4.21 <0.7.0;\n\nimport \"./User.sol\";\n\ncontract Prescriptions {\n    address public verifying_institution;\n    User UserContract;\n\n    constructor () public {\n        verifying_institution = msg.sender;\n    }\n\n    struct Prescription {\n        address physician;\n        address patient;\n\n        string medicine_name;\n        string medicine_amount;\n\n        // bool charges_free;\n        // bool charges_mandatory;\n    }\n\n    function establishConnectionToUserSmartContract(address smart_contract_key) public {\n        require(msg.sender == verifying_institution, \"Only the verify institution has the right to connect prescription to user!\");\n        UserContract = User(smart_contract_key);\n    }\n\n    function checkInsured(address public_key) public view returns(bool){\n        return UserContract.checkInsuredVerification(public_key);\n    }\n}\n",
  "sourcePath": "/Users/valentin/Documents/Programmdaten/Visual_Studio/5_Semester/Integrationsseminar/blockchain_e_prescription/contracts/Prescriptions.sol",
  "compiler": {
    "name": "solc",
    "version": "0.5.16+commit.9c3226ce.Emscripten.clang"
  },
  "schemaVersion": "3.3.2",
  "updatedAt": "2020-12-27T12:19:47.174Z",
  "networkType": "ethereum",
  "devdoc": {
    "methods": {}
  },
  "userdoc": {
    "methods": {}
  }
}