{
  "contractName": "Prescriptions",
  "abi": [
    {
      "constant": false,
      "inputs": [],
      "name": "newPrescription",
      "outputs": [],
      "payable": false,
      "stateMutability": "nonpayable",
      "type": "function"
    }
  ],
  "bytecode": "0x6080604052348015600f57600080fd5b50606c80601d6000396000f3fe6080604052348015600f57600080fd5b506004361060285760003560e01c8063abe6c5cc14602d575b600080fd5b60336035565b005b56fea265627a7a723158205ac1a72e74385ef6bd0ceafe52e3af5a1ac2a6bfd983068efcc465afcdbdd24b64736f6c63430005100032",
  "source": "// SPDX-License-Identifier: MIT\npragma solidity >=0.4.21 <0.7.0;\n\ncontract Prescriptions {\n\n    struct Prescription {\n        address physician;\n        address patient;\n\n        string medicine_name;\n        string medicine_amount;\n\n        // bool charges_free;\n        // bool charges_mandatory;\n    }\n\n\n    function newPrescription() public {\n        \n    }\n}\n",
  "sourcePath": "/Users/valentin/Documents/Programmdaten/Visual_Studio/5_Semester/Integrationsseminar/blockchain_e_prescription/contracts/Prescriptions.sol",
  "compiler": {
    "name": "solc",
    "version": "0.5.16+commit.9c3226ce.Emscripten.clang"
  },
  "schemaVersion": "3.3.2",
  "updatedAt": "2020-12-27T11:08:00.852Z",
  "networkType": "ethereum",
  "devdoc": {
    "methods": {}
  },
  "userdoc": {
    "methods": {}
  }
}