{
  "contractName": "Prescriptions",
  "abi": [
    {
      "inputs": [],
      "payable": false,
      "stateMutability": "nonpayable",
      "type": "constructor"
    },
    {
      "constant": true,
      "inputs": [
        {
          "internalType": "address",
          "name": "",
          "type": "address"
        },
        {
          "internalType": "uint256",
          "name": "",
          "type": "uint256"
        }
      ],
      "name": "prescriptions_patient",
      "outputs": [
        {
          "internalType": "address",
          "name": "physician",
          "type": "address"
        },
        {
          "internalType": "address",
          "name": "patient",
          "type": "address"
        },
        {
          "internalType": "string",
          "name": "medicine_name",
          "type": "string"
        },
        {
          "internalType": "string",
          "name": "medicine_amount",
          "type": "string"
        }
      ],
      "payable": false,
      "stateMutability": "view",
      "type": "function"
    },
    {
      "constant": true,
      "inputs": [
        {
          "internalType": "address",
          "name": "",
          "type": "address"
        },
        {
          "internalType": "uint256",
          "name": "",
          "type": "uint256"
        }
      ],
      "name": "prescriptions_physician",
      "outputs": [
        {
          "internalType": "address",
          "name": "physician",
          "type": "address"
        },
        {
          "internalType": "address",
          "name": "patient",
          "type": "address"
        },
        {
          "internalType": "string",
          "name": "medicine_name",
          "type": "string"
        },
        {
          "internalType": "string",
          "name": "medicine_amount",
          "type": "string"
        }
      ],
      "payable": false,
      "stateMutability": "view",
      "type": "function"
    },
    {
      "constant": true,
      "inputs": [],
      "name": "verifying_institution",
      "outputs": [
        {
          "internalType": "address",
          "name": "",
          "type": "address"
        }
      ],
      "payable": false,
      "stateMutability": "view",
      "type": "function"
    },
    {
      "constant": false,
      "inputs": [
        {
          "internalType": "address",
          "name": "smart_contract_key",
          "type": "address"
        }
      ],
      "name": "establishConnectionToUserSmartContract",
      "outputs": [],
      "payable": false,
      "stateMutability": "nonpayable",
      "type": "function"
    },
    {
      "constant": false,
      "inputs": [
        {
          "components": [
            {
              "internalType": "address",
              "name": "physician",
              "type": "address"
            },
            {
              "internalType": "address",
              "name": "patient",
              "type": "address"
            },
            {
              "internalType": "string",
              "name": "medicine_name",
              "type": "string"
            },
            {
              "internalType": "string",
              "name": "medicine_amount",
              "type": "string"
            }
          ],
          "internalType": "struct Prescriptions.Prescription",
          "name": "prescription_",
          "type": "tuple"
        }
      ],
      "name": "newPrescription",
      "outputs": [],
      "payable": false,
      "stateMutability": "nonpayable",
      "type": "function"
    },
    {
      "constant": true,
      "inputs": [
        {
          "internalType": "address",
          "name": "public_key",
          "type": "address"
        }
      ],
      "name": "getPrescriptions",
      "outputs": [
        {
          "components": [
            {
              "internalType": "address",
              "name": "physician",
              "type": "address"
            },
            {
              "internalType": "address",
              "name": "patient",
              "type": "address"
            },
            {
              "internalType": "string",
              "name": "medicine_name",
              "type": "string"
            },
            {
              "internalType": "string",
              "name": "medicine_amount",
              "type": "string"
            }
          ],
          "internalType": "struct Prescriptions.Prescription[]",
          "name": "",
          "type": "tuple[]"
        }
      ],
      "payable": false,
      "stateMutability": "view",
      "type": "function"
    }
  ],
  "bytecode": "0x608060405234801561001057600080fd5b50336000806101000a81548173ffffffffffffffffffffffffffffffffffffffff021916908373ffffffffffffffffffffffffffffffffffffffff160217905550611480806100606000396000f3fe608060405234801561001057600080fd5b50600436106100625760003560e01c8063295a0a3814610067578063582454ca1461009a57806381eceeb7146100cd578063a6127293146100eb578063f8f3f38214610107578063fb2d5c7314610137575b600080fd5b610081600480360361007c9190810190610dcd565b610153565b6040516100919493929190611193565b60405180910390f35b6100b460048036036100af9190810190610dcd565b61030d565b6040516100c49493929190611193565b60405180910390f35b6100d56104c7565b6040516100e2919061115d565b60405180910390f35b61010560048036036101009190810190610da4565b6104ec565b005b610121600480360361011c9190810190610da4565b6105bf565b60405161012e91906111e6565b60405180910390f35b610151600480360361014c9190810190610e32565b61084d565b005b6002602052816000526040600020818154811061016c57fe5b9060005260206000209060040201600091509150508060000160009054906101000a900473ffffffffffffffffffffffffffffffffffffffff16908060010160009054906101000a900473ffffffffffffffffffffffffffffffffffffffff1690806002018054600181600116156101000203166002900480601f0160208091040260200160405190810160405280929190818152602001828054600181600116156101000203166002900480156102655780601f1061023a57610100808354040283529160200191610265565b820191906000526020600020905b81548152906001019060200180831161024857829003601f168201915b505050505090806003018054600181600116156101000203166002900480601f0160208091040260200160405190810160405280929190818152602001828054600181600116156101000203166002900480156103035780601f106102d857610100808354040283529160200191610303565b820191906000526020600020905b8154815290600101906020018083116102e657829003601f168201915b5050505050905084565b6003602052816000526040600020818154811061032657fe5b9060005260206000209060040201600091509150508060000160009054906101000a900473ffffffffffffffffffffffffffffffffffffffff16908060010160009054906101000a900473ffffffffffffffffffffffffffffffffffffffff1690806002018054600181600116156101000203166002900480601f01602080910402602001604051908101604052809291908181526020018280546001816001161561010002031660029004801561041f5780601f106103f45761010080835404028352916020019161041f565b820191906000526020600020905b81548152906001019060200180831161040257829003601f168201915b505050505090806003018054600181600116156101000203166002900480601f0160208091040260200160405190810160405280929190818152602001828054600181600116156101000203166002900480156104bd5780601f10610492576101008083540402835291602001916104bd565b820191906000526020600020905b8154815290600101906020018083116104a057829003601f168201915b5050505050905084565b6000809054906101000a900473ffffffffffffffffffffffffffffffffffffffff1681565b6000809054906101000a900473ffffffffffffffffffffffffffffffffffffffff1673ffffffffffffffffffffffffffffffffffffffff163373ffffffffffffffffffffffffffffffffffffffff161461057b576040517f08c379a000000000000000000000000000000000000000000000000000000000815260040161057290611208565b60405180910390fd5b80600160006101000a81548173ffffffffffffffffffffffffffffffffffffffff021916908373ffffffffffffffffffffffffffffffffffffffff16021790555050565b6060600260008373ffffffffffffffffffffffffffffffffffffffff1673ffffffffffffffffffffffffffffffffffffffff168152602001908152602001600020805480602002602001604051908101604052809291908181526020016000905b8282101561084257838290600052602060002090600402016040518060800160405290816000820160009054906101000a900473ffffffffffffffffffffffffffffffffffffffff1673ffffffffffffffffffffffffffffffffffffffff1673ffffffffffffffffffffffffffffffffffffffff1681526020016001820160009054906101000a900473ffffffffffffffffffffffffffffffffffffffff1673ffffffffffffffffffffffffffffffffffffffff1673ffffffffffffffffffffffffffffffffffffffff168152602001600282018054600181600116156101000203166002900480601f0160208091040260200160405190810160405280929190818152602001828054600181600116156101000203166002900480156107885780601f1061075d57610100808354040283529160200191610788565b820191906000526020600020905b81548152906001019060200180831161076b57829003601f168201915b50505050508152602001600382018054600181600116156101000203166002900480601f01602080910402602001604051908101604052809291908181526020018280546001816001161561010002031660029004801561082a5780601f106107ff5761010080835404028352916020019161082a565b820191906000526020600020905b81548152906001019060200180831161080d57829003601f168201915b50505050508152505081526020019060010190610620565b505050509050919050565b60011515600160009054906101000a900473ffffffffffffffffffffffffffffffffffffffff1673ffffffffffffffffffffffffffffffffffffffff1663c2b85314336040518263ffffffff1660e01b81526004016108ac9190611178565b60206040518083038186803b1580156108c457600080fd5b505afa1580156108d8573d6000803e3d6000fd5b505050506040513d601f19601f820116820180604052506108fc9190810190610e09565b15151461093e576040517f08c379a000000000000000000000000000000000000000000000000000000000815260040161093590611248565b60405180910390fd5b60011515600160009054906101000a900473ffffffffffffffffffffffffffffffffffffffff1673ffffffffffffffffffffffffffffffffffffffff166327b52abc83602001516040518263ffffffff1660e01b81526004016109a1919061115d565b60206040518083038186803b1580156109b957600080fd5b505afa1580156109cd573d6000803e3d6000fd5b505050506040513d601f19601f820116820180604052506109f19190810190610e09565b151514610a33576040517f08c379a0000000000000000000000000000000000000000000000000000000008152600401610a2a90611228565b60405180910390fd5b600260003373ffffffffffffffffffffffffffffffffffffffff1673ffffffffffffffffffffffffffffffffffffffff1681526020019081526020016000206040518060800160405280836000015173ffffffffffffffffffffffffffffffffffffffff168152602001836020015173ffffffffffffffffffffffffffffffffffffffff1681526020018360400151815260200183606001518152509080600181540180825580915050906001820390600052602060002090600402016000909192909190915060008201518160000160006101000a81548173ffffffffffffffffffffffffffffffffffffffff021916908373ffffffffffffffffffffffffffffffffffffffff16021790555060208201518160010160006101000a81548173ffffffffffffffffffffffffffffffffffffffff021916908373ffffffffffffffffffffffffffffffffffffffff1602179055506040820151816002019080519060200190610ba4929190610bc8565b506060820151816003019080519060200190610bc1929190610bc8565b5050505050565b828054600181600116156101000203166002900490600052602060002090601f016020900481019282601f10610c0957805160ff1916838001178555610c37565b82800160010185558215610c37579182015b82811115610c36578251825591602001919060010190610c1b565b5b509050610c449190610c48565b5090565b610c6a91905b80821115610c66576000816000905550600101610c4e565b5090565b90565b600081359050610c7c816113f8565b92915050565b600081519050610c918161140f565b92915050565b600082601f830112610ca857600080fd5b8135610cbb610cb682611295565b611268565b91508082526020830160208301858383011115610cd757600080fd5b610ce28382846113a5565b50505092915050565b600060808284031215610cfd57600080fd5b610d076080611268565b90506000610d1784828501610c6d565b6000830152506020610d2b84828501610c6d565b602083015250604082013567ffffffffffffffff811115610d4b57600080fd5b610d5784828501610c97565b604083015250606082013567ffffffffffffffff811115610d7757600080fd5b610d8384828501610c97565b60608301525092915050565b600081359050610d9e81611426565b92915050565b600060208284031215610db657600080fd5b6000610dc484828501610c6d565b91505092915050565b60008060408385031215610de057600080fd5b6000610dee85828601610c6d565b9250506020610dff85828601610d8f565b9150509250929050565b600060208284031215610e1b57600080fd5b6000610e2984828501610c82565b91505092915050565b600060208284031215610e4457600080fd5b600082013567ffffffffffffffff811115610e5e57600080fd5b610e6a84828501610ceb565b91505092915050565b6000610e7f83836110f3565b905092915050565b610e908161136f565b82525050565b610e9f81611327565b82525050565b610eae81611327565b82525050565b6000610ebf826112d1565b610ec981856112f4565b935083602082028501610edb856112c1565b8060005b85811015610f175784840389528151610ef88582610e73565b9450610f03836112e7565b925060208a01995050600181019050610edf565b50829750879550505050505092915050565b6000610f34826112dc565b610f3e8185611305565b9350610f4e8185602086016113b4565b610f57816113e7565b840191505092915050565b6000610f6d826112dc565b610f778185611316565b9350610f878185602086016113b4565b610f90816113e7565b840191505092915050565b6000610fa8604a83611316565b91507f4f6e6c79207468652076657269667920696e737469747574696f6e206861732060008301527f74686520726967687420746f20636f6e6e65637420707265736372697074696f60208301527f6e20746f207573657221000000000000000000000000000000000000000000006040830152606082019050919050565b6000611034602b83611316565b91507f546869732070617469656e74206973206e6f742072656769737465726564206f60008301527f72207665726966696564210000000000000000000000000000000000000000006020830152604082019050919050565b600061109a603283611316565b91507f596f7520646f6e277420686176652074686520726967687420746f206372656160008301527f7465206120707265736372697074696f6e2100000000000000000000000000006020830152604082019050919050565b600060808301600083015161110b6000860182610e96565b50602083015161111e6020860182610e96565b50604083015184820360408601526111368282610f29565b915050606083015184820360608601526111508282610f29565b9150508091505092915050565b60006020820190506111726000830184610ea5565b92915050565b600060208201905061118d6000830184610e87565b92915050565b60006080820190506111a86000830187610ea5565b6111b56020830186610ea5565b81810360408301526111c78185610f62565b905081810360608301526111db8184610f62565b905095945050505050565b600060208201905081810360008301526112008184610eb4565b905092915050565b6000602082019050818103600083015261122181610f9b565b9050919050565b6000602082019050818103600083015261124181611027565b9050919050565b600060208201905081810360008301526112618161108d565b9050919050565b6000604051905081810181811067ffffffffffffffff8211171561128b57600080fd5b8060405250919050565b600067ffffffffffffffff8211156112ac57600080fd5b601f19601f8301169050602081019050919050565b6000819050602082019050919050565b600081519050919050565b600081519050919050565b6000602082019050919050565b600082825260208201905092915050565b600082825260208201905092915050565b600082825260208201905092915050565b600061133282611345565b9050919050565b60008115159050919050565b600073ffffffffffffffffffffffffffffffffffffffff82169050919050565b6000819050919050565b600061137a82611381565b9050919050565b600061138c82611393565b9050919050565b600061139e82611345565b9050919050565b82818337600083830152505050565b60005b838110156113d25780820151818401526020810190506113b7565b838111156113e1576000848401525b50505050565b6000601f19601f8301169050919050565b61140181611327565b811461140c57600080fd5b50565b61141881611339565b811461142357600080fd5b50565b61142f81611365565b811461143a57600080fd5b5056fea365627a7a723158203649e9861ce4262ddb0ed33b7a645e7c4a96906177d2bc6fa61ba5e9627786636c6578706572696d656e74616cf564736f6c63430005100040",
  "source": "// SPDX-License-Identifier: MIT\npragma solidity >=0.4.21 <0.7.0;\npragma experimental ABIEncoderV2;\n\nimport \"./User.sol\";\n\ncontract Prescriptions {\n    address public verifying_institution;\n    User UserContract;\n\n    constructor () public {\n        verifying_institution = msg.sender;\n    }\n\n    struct Prescription {\n        address physician;\n        address patient;\n\n        string medicine_name;\n        string medicine_amount;\n\n        // bool charges_free;\n        // bool charges_mandatory;\n    }\n\n    mapping(address => Prescription[]) public prescriptions_physician;\n    mapping(address => Prescription[]) public prescriptions_patient;\n    \n    function establishConnectionToUserSmartContract(address smart_contract_key) public {\n        require(msg.sender == verifying_institution, \"Only the verify institution has the right to connect prescription to user!\");\n        UserContract = User(smart_contract_key);\n    }\n\n    function newPrescription(Prescription memory prescription_) public{\n        require(UserContract.checkPhysicianVerification(msg.sender) == true, \"You don't have the right to create a prescription!\");\n        require(UserContract.checkInsuredVerification(prescription_.patient) == true, \"This patient is not registered or verified!\");\n        prescriptions_physician[msg.sender].push(Prescription(prescription_.physician, prescription_.patient, prescription_.medicine_name, prescription_.medicine_amount));\n    }\n\n    function getPrescriptions(address public_key) public view returns (Prescription[] memory){\n        return prescriptions_physician[public_key];\n    }\n}\n",
  "sourcePath": "/Users/valentin/Documents/Programmdaten/Visual_Studio/5_Semester/Integrationsseminar/blockchain_e_prescription/contracts/Prescriptions.sol",
  "compiler": {
    "name": "solc",
    "version": "0.5.16+commit.9c3226ce.Emscripten.clang"
  },
  "schemaVersion": "3.3.2",
  "updatedAt": "2020-12-28T14:10:01.424Z",
  "networkType": "ethereum",
  "devdoc": {
    "methods": {}
  },
  "userdoc": {
    "methods": {}
  }
}