{
  "contractName": "Prescriptions",
  "abi": [
    {
      "inputs": [],
      "payable": false,
      "stateMutability": "nonpayable",
      "type": "constructor"
    },
    {
      "constant": true,
      "inputs": [],
      "name": "smart_contract_user",
      "outputs": [
        {
          "internalType": "address",
          "name": "",
          "type": "address"
        }
      ],
      "payable": false,
      "stateMutability": "view",
      "type": "function"
    },
    {
      "constant": true,
      "inputs": [],
      "name": "verifying_institution",
      "outputs": [
        {
          "internalType": "address",
          "name": "",
          "type": "address"
        }
      ],
      "payable": false,
      "stateMutability": "view",
      "type": "function"
    },
    {
      "constant": false,
      "inputs": [
        {
          "internalType": "address",
          "name": "smart_contract_key",
          "type": "address"
        }
      ],
      "name": "setAddressOfSmartContractUser",
      "outputs": [],
      "payable": false,
      "stateMutability": "nonpayable",
      "type": "function"
    }
  ],
  "bytecode": "0x608060405234801561001057600080fd5b50336000806101000a81548173ffffffffffffffffffffffffffffffffffffffff021916908373ffffffffffffffffffffffffffffffffffffffff1602179055506102d1806100606000396000f3fe608060405234801561001057600080fd5b50600436106100415760003560e01c80637cb580851461004657806381eceeb71461008a5780639270a0ad146100d4575b600080fd5b6100886004803603602081101561005c57600080fd5b81019080803573ffffffffffffffffffffffffffffffffffffffff16906020019092919050505061011e565b005b610092610207565b604051808273ffffffffffffffffffffffffffffffffffffffff1673ffffffffffffffffffffffffffffffffffffffff16815260200191505060405180910390f35b6100dc61022c565b604051808273ffffffffffffffffffffffffffffffffffffffff1673ffffffffffffffffffffffffffffffffffffffff16815260200191505060405180910390f35b6000809054906101000a900473ffffffffffffffffffffffffffffffffffffffff1673ffffffffffffffffffffffffffffffffffffffff163373ffffffffffffffffffffffffffffffffffffffff16146101c3576040517f08c379a000000000000000000000000000000000000000000000000000000000815260040180806020018281038252604a815260200180610253604a913960600191505060405180910390fd5b80600160006101000a81548173ffffffffffffffffffffffffffffffffffffffff021916908373ffffffffffffffffffffffffffffffffffffffff16021790555050565b6000809054906101000a900473ffffffffffffffffffffffffffffffffffffffff1681565b600160009054906101000a900473ffffffffffffffffffffffffffffffffffffffff168156fe4f6e6c79207468652076657269667920696e737469747574696f6e206861732074686520726967687420746f20636f6e6e65637420707265736372697074696f6e20746f207573657221a265627a7a723158200710d82af80d2dcfaa9b2673a8b15aa9892feec2993ad1accc7ad2005a0e8ac864736f6c63430005100032",
  "source": "// SPDX-License-Identifier: MIT\npragma solidity >=0.4.21 <0.7.0;\n\ncontract Prescriptions {\n    address public verifying_institution;\n    address public smart_contract_user;\n\n    constructor () public {\n        verifying_institution = msg.sender;\n    }\n\n    struct Prescription {\n        address physician;\n        address patient;\n\n        string medicine_name;\n        string medicine_amount;\n\n        // bool charges_free;\n        // bool charges_mandatory;\n    }\n\n    function setAddressOfSmartContractUser(address smart_contract_key) public {\n        require(msg.sender == verifying_institution, \"Only the verify institution has the right to connect prescription to user!\");\n        smart_contract_user = smart_contract_key;\n    }\n}\n",
  "sourcePath": "/Users/valentin/Documents/Programmdaten/Visual_Studio/5_Semester/Integrationsseminar/blockchain_e_prescription/contracts/Prescriptions.sol",
  "compiler": {
    "name": "solc",
    "version": "0.5.16+commit.9c3226ce.Emscripten.clang"
  },
  "schemaVersion": "3.3.2",
  "updatedAt": "2020-12-27T11:45:14.511Z",
  "networkType": "ethereum",
  "devdoc": {
    "methods": {}
  },
  "userdoc": {
    "methods": {}
  }
}