{
  "contractName": "Prescription",
  "abi": [
    {
      "constant": true,
      "inputs": [],
      "name": "getInsurance",
      "outputs": [
        {
          "internalType": "string",
          "name": "",
          "type": "string"
        }
      ],
      "payable": false,
      "stateMutability": "view",
      "type": "function"
    },
    {
      "constant": false,
      "inputs": [
        {
          "internalType": "string",
          "name": "givenInsurance",
          "type": "string"
        }
      ],
      "name": "setInsurance",
      "outputs": [],
      "payable": false,
      "stateMutability": "nonpayable",
      "type": "function"
    }
  ],
  "bytecode": "0x6080604052604051806020016040528060008152506000908051906020019061002992919061003c565b5034801561003657600080fd5b506100e1565b828054600181600116156101000203166002900490600052602060002090601f016020900481019282601f1061007d57805160ff19168380011785556100ab565b828001600101855582156100ab579182015b828111156100aa57825182559160200191906001019061008f565b5b5090506100b891906100bc565b5090565b6100de91905b808211156100da5760008160009055506001016100c2565b5090565b90565b61030f806100f06000396000f3fe608060405234801561001057600080fd5b50600436106100365760003560e01c8063267a8da01461003b578063bf5348d4146100be575b600080fd5b610043610179565b6040518080602001828103825283818151815260200191508051906020019080838360005b83811015610083578082015181840152602081019050610068565b50505050905090810190601f1680156100b05780820380516001836020036101000a031916815260200191505b509250505060405180910390f35b610177600480360360208110156100d457600080fd5b81019080803590602001906401000000008111156100f157600080fd5b82018360208201111561010357600080fd5b8035906020019184600183028401116401000000008311171561012557600080fd5b91908080601f016020809104026020016040519081016040528093929190818152602001838380828437600081840152601f19601f82011690508083019250505050505050919291929050505061021b565b005b606060008054600181600116156101000203166002900480601f0160208091040260200160405190810160405280929190818152602001828054600181600116156101000203166002900480156102115780601f106101e657610100808354040283529160200191610211565b820191906000526020600020905b8154815290600101906020018083116101f457829003601f168201915b5050505050905090565b8060009080519060200190610231929190610235565b5050565b828054600181600116156101000203166002900490600052602060002090601f016020900481019282601f1061027657805160ff19168380011785556102a4565b828001600101855582156102a4579182015b828111156102a3578251825591602001919060010190610288565b5b5090506102b191906102b5565b5090565b6102d791905b808211156102d35760008160009055506001016102bb565b5090565b9056fea265627a7a72315820e4fca87671edb5a6af71cafa6dff768ef7caa1c0d61c91f86068c8d080611fe864736f6c63430005100032",
  "source": "// SPDX-License-Identifier: MIT\npragma solidity >=0.4.21 <0.7.0;\n\ncontract Prescription {\n  string insurance = \"\";\n\n  // string insured_surname = \"\";\n  // string insured_name = \"\";\n  // string insured_street = \"\";\n  // string insured_street_number = \"\";\n  // uint insured_post_code = null;\n  // string insured_city = \"\";\n\n  function getInsurance() public view returns (string memory) {\n    return insurance;\n  }\n\n  function setInsurance(string memory givenInsurance) public {\n    insurance = givenInsurance;\n  }\n}\n",
  "sourcePath": "/Users/valentin/Documents/Programmdaten/Visual_Studio/5_Semester/Integrationsseminar/blockchain_e_prescription/contracts/Prescription.sol",
  "compiler": {
    "name": "solc",
    "version": "0.5.16+commit.9c3226ce.Emscripten.clang"
  },
  "schemaVersion": "3.3.2",
  "updatedAt": "2020-12-12T20:57:45.096Z",
  "devdoc": {
    "methods": {}
  },
  "userdoc": {
    "methods": {}
  }
}