{
  "contractName": "Prescriptions",
  "abi": [
    {
      "inputs": [],
      "payable": false,
      "stateMutability": "nonpayable",
      "type": "constructor"
    },
    {
      "constant": true,
      "inputs": [
        {
          "internalType": "uint256",
          "name": "",
          "type": "uint256"
        }
      ],
      "name": "prescription",
      "outputs": [
        {
          "internalType": "address",
          "name": "physician",
          "type": "address"
        },
        {
          "internalType": "address",
          "name": "insured",
          "type": "address"
        },
        {
          "internalType": "address",
          "name": "pharmacist",
          "type": "address"
        },
        {
          "internalType": "bool",
          "name": "pharmacistEqualsInsured",
          "type": "bool"
        },
        {
          "internalType": "string",
          "name": "medicine_name",
          "type": "string"
        },
        {
          "internalType": "string",
          "name": "medicine_amount",
          "type": "string"
        }
      ],
      "payable": false,
      "stateMutability": "view",
      "type": "function"
    },
    {
      "constant": true,
      "inputs": [
        {
          "internalType": "address",
          "name": "",
          "type": "address"
        },
        {
          "internalType": "uint256",
          "name": "",
          "type": "uint256"
        }
      ],
      "name": "prescriptionInsured",
      "outputs": [
        {
          "internalType": "uint256",
          "name": "",
          "type": "uint256"
        }
      ],
      "payable": false,
      "stateMutability": "view",
      "type": "function"
    },
    {
      "constant": true,
      "inputs": [
        {
          "internalType": "address",
          "name": "",
          "type": "address"
        },
        {
          "internalType": "uint256",
          "name": "",
          "type": "uint256"
        }
      ],
      "name": "prescriptionPharmacist",
      "outputs": [
        {
          "internalType": "uint256",
          "name": "",
          "type": "uint256"
        }
      ],
      "payable": false,
      "stateMutability": "view",
      "type": "function"
    },
    {
      "constant": true,
      "inputs": [],
      "name": "verifying_institution",
      "outputs": [
        {
          "internalType": "address",
          "name": "",
          "type": "address"
        }
      ],
      "payable": false,
      "stateMutability": "view",
      "type": "function"
    },
    {
      "constant": false,
      "inputs": [
        {
          "internalType": "address",
          "name": "smart_contract_key",
          "type": "address"
        }
      ],
      "name": "establishConnectionToUserSmartContract",
      "outputs": [],
      "payable": false,
      "stateMutability": "nonpayable",
      "type": "function"
    },
    {
      "constant": false,
      "inputs": [
        {
          "components": [
            {
              "internalType": "address",
              "name": "physician",
              "type": "address"
            },
            {
              "internalType": "address",
              "name": "insured",
              "type": "address"
            },
            {
              "internalType": "address",
              "name": "pharmacist",
              "type": "address"
            },
            {
              "internalType": "bool",
              "name": "pharmacistEqualsInsured",
              "type": "bool"
            },
            {
              "internalType": "string",
              "name": "medicine_name",
              "type": "string"
            },
            {
              "internalType": "string",
              "name": "medicine_amount",
              "type": "string"
            }
          ],
          "internalType": "struct Prescriptions.Prescription",
          "name": "prescription_",
          "type": "tuple"
        }
      ],
      "name": "newPrescription",
      "outputs": [],
      "payable": false,
      "stateMutability": "nonpayable",
      "type": "function"
    },
    {
      "constant": false,
      "inputs": [
        {
          "components": [
            {
              "internalType": "address",
              "name": "physician",
              "type": "address"
            },
            {
              "internalType": "address",
              "name": "insured",
              "type": "address"
            },
            {
              "internalType": "address",
              "name": "pharmacist",
              "type": "address"
            },
            {
              "internalType": "bool",
              "name": "pharmacistEqualsInsured",
              "type": "bool"
            },
            {
              "internalType": "string",
              "name": "medicine_name",
              "type": "string"
            },
            {
              "internalType": "string",
              "name": "medicine_amount",
              "type": "string"
            }
          ],
          "internalType": "struct Prescriptions.Prescription",
          "name": "prescription_",
          "type": "tuple"
        },
        {
          "internalType": "uint256",
          "name": "prescription_id_",
          "type": "uint256"
        }
      ],
      "name": "transferPrescriptionToPharmacist",
      "outputs": [],
      "payable": false,
      "stateMutability": "nonpayable",
      "type": "function"
    },
    {
      "constant": false,
      "inputs": [
        {
          "internalType": "uint256",
          "name": "prescription_id_",
          "type": "uint256"
        }
      ],
      "name": "redeemPrescription",
      "outputs": [],
      "payable": false,
      "stateMutability": "nonpayable",
      "type": "function"
    },
    {
      "constant": false,
      "inputs": [
        {
          "internalType": "uint256",
          "name": "prescription_id_",
          "type": "uint256"
        }
      ],
      "name": "getPrescription",
      "outputs": [
        {
          "components": [
            {
              "internalType": "address",
              "name": "physician",
              "type": "address"
            },
            {
              "internalType": "address",
              "name": "insured",
              "type": "address"
            },
            {
              "internalType": "address",
              "name": "pharmacist",
              "type": "address"
            },
            {
              "internalType": "bool",
              "name": "pharmacistEqualsInsured",
              "type": "bool"
            },
            {
              "internalType": "string",
              "name": "medicine_name",
              "type": "string"
            },
            {
              "internalType": "string",
              "name": "medicine_amount",
              "type": "string"
            }
          ],
          "internalType": "struct Prescriptions.Prescription",
          "name": "",
          "type": "tuple"
        }
      ],
      "payable": false,
      "stateMutability": "nonpayable",
      "type": "function"
    },
    {
      "constant": false,
      "inputs": [
        {
          "internalType": "address",
          "name": "public_key",
          "type": "address"
        }
      ],
      "name": "getInsuredPrescriptionsIDs",
      "outputs": [
        {
          "internalType": "uint256[]",
          "name": "",
          "type": "uint256[]"
        }
      ],
      "payable": false,
      "stateMutability": "nonpayable",
      "type": "function"
    },
    {
      "constant": false,
      "inputs": [
        {
          "internalType": "address",
          "name": "public_key",
          "type": "address"
        }
      ],
      "name": "getPharmacistPrescriptionsIDs",
      "outputs": [
        {
          "internalType": "uint256[]",
          "name": "",
          "type": "uint256[]"
        }
      ],
      "payable": false,
      "stateMutability": "nonpayable",
      "type": "function"
    }
  ],
  "bytecode": "0x608060405234801561001057600080fd5b50336000806101000a81548173ffffffffffffffffffffffffffffffffffffffff021916908373ffffffffffffffffffffffffffffffffffffffff1602179055506000600281905550611b6d806100686000396000f3fe608060405234801561001057600080fd5b50600436106100a95760003560e01c8063828f362c11610071578063828f362c1461017d578063a612729314610199578063b16928a4146101b5578063b73c03f8146101d1578063be03178314610201578063fb589cdd14610231576100a9565b80631ea72e8c146100ae578063287eda05146100de5780636f16af10146101135780637649d20e1461014357806381eceeb71461015f575b600080fd5b6100c860048036036100c391908101906112ab565b610261565b6040516100d5919061183a565b60405180910390f35b6100f860048036036100f391908101906113ce565b6102f8565b60405161010a969594939291906117cb565b60405180910390f35b61012d600480360361012891908101906113ce565b6104d1565b60405161013a9190611918565b60405180910390f35b61015d60048036036101589190810190611339565b61075f565b005b610167610b93565b60405161017491906117b0565b60405180910390f35b6101976004803603610192919081019061137a565b610bb8565b005b6101b360048036036101ae91908101906112ab565b610df7565b005b6101cf60048036036101ca91908101906113ce565b610eca565b005b6101eb60048036036101e691908101906112d4565b610f25565b6040516101f8919061193a565b60405180910390f35b61021b600480360361021691908101906112ab565b610f53565b604051610228919061183a565b60405180910390f35b61024b600480360361024691908101906112d4565b610fea565b604051610258919061193a565b60405180910390f35b6060600460008373ffffffffffffffffffffffffffffffffffffffff1673ffffffffffffffffffffffffffffffffffffffff1681526020019081526020016000208054806020026020016040519081016040528092919081815260200182805480156102ec57602002820191906000526020600020905b8154815260200190600101908083116102d8575b50505050509050919050565b60036020528060005260406000206000915090508060000160009054906101000a900473ffffffffffffffffffffffffffffffffffffffff16908060010160009054906101000a900473ffffffffffffffffffffffffffffffffffffffff16908060020160009054906101000a900473ffffffffffffffffffffffffffffffffffffffff16908060020160149054906101000a900460ff1690806003018054600181600116156101000203166002900480601f0160208091040260200160405190810160405280929190818152602001828054600181600116156101000203166002900480156104295780601f106103fe57610100808354040283529160200191610429565b820191906000526020600020905b81548152906001019060200180831161040c57829003601f168201915b505050505090806004018054600181600116156101000203166002900480601f0160208091040260200160405190810160405280929190818152602001828054600181600116156101000203166002900480156104c75780601f1061049c576101008083540402835291602001916104c7565b820191906000526020600020905b8154815290600101906020018083116104aa57829003601f168201915b5050505050905086565b6104d9611018565b600360008381526020019081526020016000206040518060c00160405290816000820160009054906101000a900473ffffffffffffffffffffffffffffffffffffffff1673ffffffffffffffffffffffffffffffffffffffff1673ffffffffffffffffffffffffffffffffffffffff1681526020016001820160009054906101000a900473ffffffffffffffffffffffffffffffffffffffff1673ffffffffffffffffffffffffffffffffffffffff1673ffffffffffffffffffffffffffffffffffffffff1681526020016002820160009054906101000a900473ffffffffffffffffffffffffffffffffffffffff1673ffffffffffffffffffffffffffffffffffffffff1673ffffffffffffffffffffffffffffffffffffffff1681526020016002820160149054906101000a900460ff16151515158152602001600382018054600181600116156101000203166002900480601f0160208091040260200160405190810160405280929190818152602001828054600181600116156101000203166002900480156106ad5780601f10610682576101008083540402835291602001916106ad565b820191906000526020600020905b81548152906001019060200180831161069057829003601f168201915b50505050508152602001600482018054600181600116156101000203166002900480601f01602080910402602001604051908101604052809291908181526020018280546001816001161561010002031660029004801561074f5780601f106107245761010080835404028352916020019161074f565b820191906000526020600020905b81548152906001019060200180831161073257829003601f168201915b5050505050815250509050919050565b60011515600160009054906101000a900473ffffffffffffffffffffffffffffffffffffffff1673ffffffffffffffffffffffffffffffffffffffff1663f7350e60336040518263ffffffff1660e01b81526004016107be919061187c565b60206040518083038186803b1580156107d657600080fd5b505afa1580156107ea573d6000803e3d6000fd5b505050506040513d601f19601f8201168201806040525061080e9190810190611310565b151514610850576040517f08c379a0000000000000000000000000000000000000000000000000000000008152600401610847906118f8565b60405180910390fd5b60011515600160009054906101000a900473ffffffffffffffffffffffffffffffffffffffff1673ffffffffffffffffffffffffffffffffffffffff1663f7350e6083602001516040518263ffffffff1660e01b81526004016108b391906118ca565b60206040518083038186803b1580156108cb57600080fd5b505afa1580156108df573d6000803e3d6000fd5b505050506040513d601f19601f820116820180604052506109039190810190611310565b151514610945576040517f08c379a000000000000000000000000000000000000000000000000000000000815260040161093c906118aa565b60405180910390fd5b6040518060c00160405280826000015173ffffffffffffffffffffffffffffffffffffffff168152602001826020015173ffffffffffffffffffffffffffffffffffffffff168152602001826040015173ffffffffffffffffffffffffffffffffffffffff168152602001826060015115158152602001826080015181526020018260a0015181525060036000600254815260200190815260200160002060008201518160000160006101000a81548173ffffffffffffffffffffffffffffffffffffffff021916908373ffffffffffffffffffffffffffffffffffffffff16021790555060208201518160010160006101000a81548173ffffffffffffffffffffffffffffffffffffffff021916908373ffffffffffffffffffffffffffffffffffffffff16021790555060408201518160020160006101000a81548173ffffffffffffffffffffffffffffffffffffffff021916908373ffffffffffffffffffffffffffffffffffffffff16021790555060608201518160020160146101000a81548160ff0219169083151502179055506080820151816003019080519060200190610af4929190611092565b5060a0820151816004019080519060200190610b11929190611092565b5090505060046000826020015173ffffffffffffffffffffffffffffffffffffffff1673ffffffffffffffffffffffffffffffffffffffff168152602001908152602001600020600254908060018154018082558091505090600182039060005260206000200160009091929091909150555060016002540160028190555050565b6000809054906101000a900473ffffffffffffffffffffffffffffffffffffffff1681565b6040518060c00160405280836000015173ffffffffffffffffffffffffffffffffffffffff168152602001836020015173ffffffffffffffffffffffffffffffffffffffff168152602001836040015173ffffffffffffffffffffffffffffffffffffffff168152602001836060015115158152602001836080015181526020018360a001518152506003600083815260200190815260200160002060008201518160000160006101000a81548173ffffffffffffffffffffffffffffffffffffffff021916908373ffffffffffffffffffffffffffffffffffffffff16021790555060208201518160010160006101000a81548173ffffffffffffffffffffffffffffffffffffffff021916908373ffffffffffffffffffffffffffffffffffffffff16021790555060408201518160020160006101000a81548173ffffffffffffffffffffffffffffffffffffffff021916908373ffffffffffffffffffffffffffffffffffffffff16021790555060608201518160020160146101000a81548160ff0219169083151502179055506080820151816003019080519060200190610d65929190611092565b5060a0820151816004019080519060200190610d82929190611092565b5090505060056000836040015173ffffffffffffffffffffffffffffffffffffffff1673ffffffffffffffffffffffffffffffffffffffff1681526020019081526020016000208190806001815401808255809150509060018203906000526020600020016000909192909190915055505050565b6000809054906101000a900473ffffffffffffffffffffffffffffffffffffffff1673ffffffffffffffffffffffffffffffffffffffff163373ffffffffffffffffffffffffffffffffffffffff1614610e86576040517f08c379a0000000000000000000000000000000000000000000000000000000008152600401610e7d9061185c565b60405180910390fd5b80600160006101000a81548173ffffffffffffffffffffffffffffffffffffffff021916908373ffffffffffffffffffffffffffffffffffffffff16021790555050565b600560003373ffffffffffffffffffffffffffffffffffffffff1673ffffffffffffffffffffffffffffffffffffffff1681526020019081526020016000208181548110610f1457fe5b906000526020600020016000905550565b60046020528160005260406000208181548110610f3e57fe5b90600052602060002001600091509150505481565b6060600560008373ffffffffffffffffffffffffffffffffffffffff1673ffffffffffffffffffffffffffffffffffffffff168152602001908152602001600020805480602002602001604051908101604052809291908181526020018280548015610fde57602002820191906000526020600020905b815481526020019060010190808311610fca575b50505050509050919050565b6005602052816000526040600020818154811061100357fe5b90600052602060002001600091509150505481565b6040518060c00160405280600073ffffffffffffffffffffffffffffffffffffffff168152602001600073ffffffffffffffffffffffffffffffffffffffff168152602001600073ffffffffffffffffffffffffffffffffffffffff16815260200160001515815260200160608152602001606081525090565b828054600181600116156101000203166002900490600052602060002090601f016020900481019282601f106110d357805160ff1916838001178555611101565b82800160010185558215611101579182015b828111156111005782518255916020019190600101906110e5565b5b50905061110e9190611112565b5090565b61113491905b80821115611130576000816000905550600101611118565b5090565b90565b60008135905061114681611ae5565b92915050565b60008135905061115b81611afc565b92915050565b60008151905061117081611afc565b92915050565b600082601f83011261118757600080fd5b813561119a61119582611982565b611955565b915080825260208301602083018583830111156111b657600080fd5b6111c1838284611a92565b50505092915050565b600060c082840312156111dc57600080fd5b6111e660c0611955565b905060006111f684828501611137565b600083015250602061120a84828501611137565b602083015250604061121e84828501611137565b60408301525060606112328482850161114c565b606083015250608082013567ffffffffffffffff81111561125257600080fd5b61125e84828501611176565b60808301525060a082013567ffffffffffffffff81111561127e57600080fd5b61128a84828501611176565b60a08301525092915050565b6000813590506112a581611b13565b92915050565b6000602082840312156112bd57600080fd5b60006112cb84828501611137565b91505092915050565b600080604083850312156112e757600080fd5b60006112f585828601611137565b925050602061130685828601611296565b9150509250929050565b60006020828403121561132257600080fd5b600061133084828501611161565b91505092915050565b60006020828403121561134b57600080fd5b600082013567ffffffffffffffff81111561136557600080fd5b611371848285016111ca565b91505092915050565b6000806040838503121561138d57600080fd5b600083013567ffffffffffffffff8111156113a757600080fd5b6113b3858286016111ca565b92505060206113c485828601611296565b9150509250929050565b6000602082840312156113e057600080fd5b60006113ee84828501611296565b91505092915050565b60006114038383611792565b60208301905092915050565b61141881611a5c565b82525050565b61142781611a14565b82525050565b61143681611a14565b82525050565b6000611447826119be565b61145181856119e1565b935061145c836119ae565b8060005b8381101561148d57815161147488826113f7565b975061147f836119d4565b925050600181019050611460565b5085935050505092915050565b6114a381611a26565b82525050565b6114b281611a26565b82525050565b60006114c3826119c9565b6114cd81856119f2565b93506114dd818560208601611aa1565b6114e681611ad4565b840191505092915050565b60006114fc826119c9565b6115068185611a03565b9350611516818560208601611aa1565b61151f81611ad4565b840191505092915050565b6000611537604f83611a03565b91507f4f6e6c79207468652076657269667920696e737469747574696f6e206861732060008301527f746865207072656d697373696f6e20746f20636f6e6e6563742070726573637260208301527f697074696f6e20746f20757365722100000000000000000000000000000000006040830152606082019050919050565b60006115c3600983611a03565b91507f70687973696369616e00000000000000000000000000000000000000000000006000830152602082019050919050565b6000611603602b83611a03565b91507f5468697320696e7375726564206973206e6f742072656769737465726564206f60008301527f72207665726966696564210000000000000000000000000000000000000000006020830152604082019050919050565b6000611669600783611a03565b91507f696e7375726564000000000000000000000000000000000000000000000000006000830152602082019050919050565b60006116a9603783611a03565b91507f596f7520646f6e2774206861766520746865207072656d697373696f6e20746f60008301527f20637265617465206120707265736372697074696f6e210000000000000000006020830152604082019050919050565b600060c08301600083015161171a600086018261141e565b50602083015161172d602086018261141e565b506040830151611740604086018261141e565b506060830151611753606086018261149a565b506080830151848203608086015261176b82826114b8565b91505060a083015184820360a086015261178582826114b8565b9150508091505092915050565b61179b81611a52565b82525050565b6117aa81611a52565b82525050565b60006020820190506117c5600083018461142d565b92915050565b600060c0820190506117e0600083018961142d565b6117ed602083018861142d565b6117fa604083018761142d565b61180760608301866114a9565b818103608083015261181981856114f1565b905081810360a083015261182d81846114f1565b9050979650505050505050565b60006020820190508181036000830152611854818461143c565b905092915050565b600060208201905081810360008301526118758161152a565b9050919050565b60006040820190508181036000830152611895816115b6565b90506118a4602083018461140f565b92915050565b600060208201905081810360008301526118c3816115f6565b9050919050565b600060408201905081810360008301526118e38161165c565b90506118f2602083018461142d565b92915050565b600060208201905081810360008301526119118161169c565b9050919050565b600060208201905081810360008301526119328184611702565b905092915050565b600060208201905061194f60008301846117a1565b92915050565b6000604051905081810181811067ffffffffffffffff8211171561197857600080fd5b8060405250919050565b600067ffffffffffffffff82111561199957600080fd5b601f19601f8301169050602081019050919050565b6000819050602082019050919050565b600081519050919050565b600081519050919050565b6000602082019050919050565b600082825260208201905092915050565b600082825260208201905092915050565b600082825260208201905092915050565b6000611a1f82611a32565b9050919050565b60008115159050919050565b600073ffffffffffffffffffffffffffffffffffffffff82169050919050565b6000819050919050565b6000611a6782611a6e565b9050919050565b6000611a7982611a80565b9050919050565b6000611a8b82611a32565b9050919050565b82818337600083830152505050565b60005b83811015611abf578082015181840152602081019050611aa4565b83811115611ace576000848401525b50505050565b6000601f19601f8301169050919050565b611aee81611a14565b8114611af957600080fd5b50565b611b0581611a26565b8114611b1057600080fd5b50565b611b1c81611a52565b8114611b2757600080fd5b5056fea365627a7a7231582077bcd4286ddd5e919017183eb2affe76dccb276d0b8a39c85c9b96a2c02ddf7e6c6578706572696d656e74616cf564736f6c63430005100040",
  "source": "// SPDX-License-Identifier: MIT\npragma solidity >=0.4.21 <0.7.0;\npragma experimental ABIEncoderV2;\n\nimport \"./User.sol\";\n\ncontract Prescriptions {\n    address public verifying_institution;\n    User UserContract;\n    uint prescription_id;\n\n    constructor () public {\n        verifying_institution = msg.sender;\n        prescription_id = 0;\n    }\n\n    struct Prescription {\n        address physician;\n        address insured;\n        address pharmacist;\n\n        bool pharmacistEqualsInsured;\n\n        string medicine_name;\n        string medicine_amount;\n\n        // bool charges_free;\n        // bool charges_mandatory;\n    }\n\n    mapping(uint => Prescription) public prescription;\n    mapping(address => uint[]) public prescriptionInsured;\n    mapping(address => uint[]) public prescriptionPharmacist;\n    \n    function establishConnectionToUserSmartContract(address smart_contract_key) public {\n        require(msg.sender == verifying_institution, \"Only the verify institution has the premission to connect prescription to user!\");\n        UserContract = User(smart_contract_key);\n    }\n\n    function newPrescription(Prescription memory prescription_) public{\n        require(UserContract.checkVerification('physician', msg.sender) == true, \"You don't have the premission to create a prescription!\");\n        require(UserContract.checkVerification('insured', prescription_.insured) == true, \"This insured is not registered or verified!\");\n\n        prescription[prescription_id] = Prescription(prescription_.physician, prescription_.insured, prescription_.pharmacist, prescription_.pharmacistEqualsInsured, prescription_.medicine_name, prescription_.medicine_amount);\n        prescriptionInsured[prescription_.insured].push(prescription_id);\n        prescription_id = prescription_id + 1;\n    }\n\n    function transferPrescriptionToPharmacist(Prescription memory prescription_, uint prescription_id_) public {\n        // require(prescriptionInsured[msg.sender].length <= prescription_id_, \"There's no prescription under that number\");\n        // require(UserContract.checkVerification('physician', prescription_.pharmacist) == true, \"This pharmacist is not registered or verified!\");\n\n        prescription[prescription_id_] = Prescription(prescription_.physician, prescription_.insured, prescription_.pharmacist, prescription_.pharmacistEqualsInsured, prescription_.medicine_name, prescription_.medicine_amount);\n        prescriptionPharmacist[prescription_.pharmacist].push(prescription_id_);\n        // delete prescriptionInsured[msg.sender][prescription_id_];\n    }\n\n    function redeemPrescription(uint prescription_id_) public {\n        delete prescriptionPharmacist[msg.sender][prescription_id_];\n    }\n\n    function getPrescription(uint prescription_id_) public returns (Prescription memory){\n        return prescription[prescription_id_];\n    }\n\n    function getInsuredPrescriptionsIDs(address public_key) public returns (uint[] memory){\n        return prescriptionInsured[public_key];\n    }\n\n    function getPharmacistPrescriptionsIDs(address public_key) public returns (uint[] memory){\n        return prescriptionPharmacist[public_key];\n    }\n}\n",
  "sourcePath": "/Users/valentin/Documents/Programmdaten/Visual_Studio/5_Semester/Integrationsseminar/blockchain_e_prescription/contracts/Prescriptions.sol",
  "compiler": {
    "name": "solc",
    "version": "0.5.16+commit.9c3226ce.Emscripten.clang"
  },
  "schemaVersion": "3.3.2",
  "updatedAt": "2020-12-31T08:59:28.032Z",
  "networkType": "ethereum",
  "devdoc": {
    "methods": {}
  },
  "userdoc": {
    "methods": {}
  }
}