{
  "contractName": "Prescriptions",
  "abi": [
    {
      "inputs": [],
      "payable": false,
      "stateMutability": "nonpayable",
      "type": "constructor"
    },
    {
      "constant": true,
      "inputs": [
        {
          "internalType": "address",
          "name": "",
          "type": "address"
        },
        {
          "internalType": "uint256",
          "name": "",
          "type": "uint256"
        }
      ],
      "name": "prescriptions_patient",
      "outputs": [
        {
          "internalType": "address",
          "name": "physician",
          "type": "address"
        },
        {
          "internalType": "address",
          "name": "patient",
          "type": "address"
        },
        {
          "internalType": "string",
          "name": "medicine_name",
          "type": "string"
        },
        {
          "internalType": "string",
          "name": "medicine_amount",
          "type": "string"
        }
      ],
      "payable": false,
      "stateMutability": "view",
      "type": "function"
    },
    {
      "constant": true,
      "inputs": [
        {
          "internalType": "address",
          "name": "",
          "type": "address"
        },
        {
          "internalType": "uint256",
          "name": "",
          "type": "uint256"
        }
      ],
      "name": "prescriptions_physician",
      "outputs": [
        {
          "internalType": "address",
          "name": "physician",
          "type": "address"
        },
        {
          "internalType": "address",
          "name": "patient",
          "type": "address"
        },
        {
          "internalType": "string",
          "name": "medicine_name",
          "type": "string"
        },
        {
          "internalType": "string",
          "name": "medicine_amount",
          "type": "string"
        }
      ],
      "payable": false,
      "stateMutability": "view",
      "type": "function"
    },
    {
      "constant": true,
      "inputs": [],
      "name": "verifying_institution",
      "outputs": [
        {
          "internalType": "address",
          "name": "",
          "type": "address"
        }
      ],
      "payable": false,
      "stateMutability": "view",
      "type": "function"
    },
    {
      "constant": false,
      "inputs": [
        {
          "internalType": "address",
          "name": "smart_contract_key",
          "type": "address"
        }
      ],
      "name": "establishConnectionToUserSmartContract",
      "outputs": [],
      "payable": false,
      "stateMutability": "nonpayable",
      "type": "function"
    },
    {
      "constant": false,
      "inputs": [
        {
          "components": [
            {
              "internalType": "address",
              "name": "physician",
              "type": "address"
            },
            {
              "internalType": "address",
              "name": "patient",
              "type": "address"
            },
            {
              "internalType": "string",
              "name": "medicine_name",
              "type": "string"
            },
            {
              "internalType": "string",
              "name": "medicine_amount",
              "type": "string"
            }
          ],
          "internalType": "struct Prescriptions.Prescription",
          "name": "prescription_",
          "type": "tuple"
        }
      ],
      "name": "newPrescription",
      "outputs": [],
      "payable": false,
      "stateMutability": "nonpayable",
      "type": "function"
    },
    {
      "constant": true,
      "inputs": [
        {
          "internalType": "address",
          "name": "public_key",
          "type": "address"
        }
      ],
      "name": "getPrescriptions",
      "outputs": [
        {
          "components": [
            {
              "internalType": "address",
              "name": "physician",
              "type": "address"
            },
            {
              "internalType": "address",
              "name": "patient",
              "type": "address"
            },
            {
              "internalType": "string",
              "name": "medicine_name",
              "type": "string"
            },
            {
              "internalType": "string",
              "name": "medicine_amount",
              "type": "string"
            }
          ],
          "internalType": "struct Prescriptions.Prescription[]",
          "name": "",
          "type": "tuple[]"
        }
      ],
      "payable": false,
      "stateMutability": "view",
      "type": "function"
    }
  ],
  "bytecode": "0x608060405234801561001057600080fd5b50336000806101000a81548173ffffffffffffffffffffffffffffffffffffffff021916908373ffffffffffffffffffffffffffffffffffffffff160217905550611541806100606000396000f3fe608060405234801561001057600080fd5b50600436106100625760003560e01c8063295a0a3814610067578063582454ca1461009a57806381eceeb7146100cd578063a6127293146100eb578063f8f3f38214610107578063fb2d5c7314610137575b600080fd5b610081600480360361007c9190810190610dcd565b610153565b60405161009194939291906111f8565b60405180910390f35b6100b460048036036100af9190810190610dcd565b61030d565b6040516100c494939291906111f8565b60405180910390f35b6100d56104c7565b6040516100e291906111dd565b60405180910390f35b61010560048036036101009190810190610da4565b6104ec565b005b610121600480360361011c9190810190610da4565b6105bf565b60405161012e919061124b565b60405180910390f35b610151600480360361014c9190810190610e32565b61084d565b005b6002602052816000526040600020818154811061016c57fe5b9060005260206000209060040201600091509150508060000160009054906101000a900473ffffffffffffffffffffffffffffffffffffffff16908060010160009054906101000a900473ffffffffffffffffffffffffffffffffffffffff1690806002018054600181600116156101000203166002900480601f0160208091040260200160405190810160405280929190818152602001828054600181600116156101000203166002900480156102655780601f1061023a57610100808354040283529160200191610265565b820191906000526020600020905b81548152906001019060200180831161024857829003601f168201915b505050505090806003018054600181600116156101000203166002900480601f0160208091040260200160405190810160405280929190818152602001828054600181600116156101000203166002900480156103035780601f106102d857610100808354040283529160200191610303565b820191906000526020600020905b8154815290600101906020018083116102e657829003601f168201915b5050505050905084565b6003602052816000526040600020818154811061032657fe5b9060005260206000209060040201600091509150508060000160009054906101000a900473ffffffffffffffffffffffffffffffffffffffff16908060010160009054906101000a900473ffffffffffffffffffffffffffffffffffffffff1690806002018054600181600116156101000203166002900480601f01602080910402602001604051908101604052809291908181526020018280546001816001161561010002031660029004801561041f5780601f106103f45761010080835404028352916020019161041f565b820191906000526020600020905b81548152906001019060200180831161040257829003601f168201915b505050505090806003018054600181600116156101000203166002900480601f0160208091040260200160405190810160405280929190818152602001828054600181600116156101000203166002900480156104bd5780601f10610492576101008083540402835291602001916104bd565b820191906000526020600020905b8154815290600101906020018083116104a057829003601f168201915b5050505050905084565b6000809054906101000a900473ffffffffffffffffffffffffffffffffffffffff1681565b6000809054906101000a900473ffffffffffffffffffffffffffffffffffffffff1673ffffffffffffffffffffffffffffffffffffffff163373ffffffffffffffffffffffffffffffffffffffff161461057b576040517f08c379a00000000000000000000000000000000000000000000000000000000081526004016105729061126d565b60405180910390fd5b80600160006101000a81548173ffffffffffffffffffffffffffffffffffffffff021916908373ffffffffffffffffffffffffffffffffffffffff16021790555050565b6060600260008373ffffffffffffffffffffffffffffffffffffffff1673ffffffffffffffffffffffffffffffffffffffff168152602001908152602001600020805480602002602001604051908101604052809291908181526020016000905b8282101561084257838290600052602060002090600402016040518060800160405290816000820160009054906101000a900473ffffffffffffffffffffffffffffffffffffffff1673ffffffffffffffffffffffffffffffffffffffff1673ffffffffffffffffffffffffffffffffffffffff1681526020016001820160009054906101000a900473ffffffffffffffffffffffffffffffffffffffff1673ffffffffffffffffffffffffffffffffffffffff1673ffffffffffffffffffffffffffffffffffffffff168152602001600282018054600181600116156101000203166002900480601f0160208091040260200160405190810160405280929190818152602001828054600181600116156101000203166002900480156107885780601f1061075d57610100808354040283529160200191610788565b820191906000526020600020905b81548152906001019060200180831161076b57829003601f168201915b50505050508152602001600382018054600181600116156101000203166002900480601f01602080910402602001604051908101604052809291908181526020018280546001816001161561010002031660029004801561082a5780601f106107ff5761010080835404028352916020019161082a565b820191906000526020600020905b81548152906001019060200180831161080d57829003601f168201915b50505050508152505081526020019060010190610620565b505050509050919050565b60011515600160009054906101000a900473ffffffffffffffffffffffffffffffffffffffff1673ffffffffffffffffffffffffffffffffffffffff1663f7350e60336040518263ffffffff1660e01b81526004016108ac91906112ad565b60206040518083038186803b1580156108c457600080fd5b505afa1580156108d8573d6000803e3d6000fd5b505050506040513d601f19601f820116820180604052506108fc9190810190610e09565b15151461093e576040517f08c379a0000000000000000000000000000000000000000000000000000000008152600401610935906112db565b60405180910390fd5b60011515600160009054906101000a900473ffffffffffffffffffffffffffffffffffffffff1673ffffffffffffffffffffffffffffffffffffffff1663f7350e6083602001516040518263ffffffff1660e01b81526004016109a191906112fb565b60206040518083038186803b1580156109b957600080fd5b505afa1580156109cd573d6000803e3d6000fd5b505050506040513d601f19601f820116820180604052506109f19190810190610e09565b151514610a33576040517f08c379a0000000000000000000000000000000000000000000000000000000008152600401610a2a9061128d565b60405180910390fd5b600260003373ffffffffffffffffffffffffffffffffffffffff1673ffffffffffffffffffffffffffffffffffffffff1681526020019081526020016000206040518060800160405280836000015173ffffffffffffffffffffffffffffffffffffffff168152602001836020015173ffffffffffffffffffffffffffffffffffffffff1681526020018360400151815260200183606001518152509080600181540180825580915050906001820390600052602060002090600402016000909192909190915060008201518160000160006101000a81548173ffffffffffffffffffffffffffffffffffffffff021916908373ffffffffffffffffffffffffffffffffffffffff16021790555060208201518160010160006101000a81548173ffffffffffffffffffffffffffffffffffffffff021916908373ffffffffffffffffffffffffffffffffffffffff1602179055506040820151816002019080519060200190610ba4929190610bc8565b506060820151816003019080519060200190610bc1929190610bc8565b5050505050565b828054600181600116156101000203166002900490600052602060002090601f016020900481019282601f10610c0957805160ff1916838001178555610c37565b82800160010185558215610c37579182015b82811115610c36578251825591602001919060010190610c1b565b5b509050610c449190610c48565b5090565b610c6a91905b80821115610c66576000816000905550600101610c4e565b5090565b90565b600081359050610c7c816114b9565b92915050565b600081519050610c91816114d0565b92915050565b600082601f830112610ca857600080fd5b8135610cbb610cb682611356565b611329565b91508082526020830160208301858383011115610cd757600080fd5b610ce2838284611466565b50505092915050565b600060808284031215610cfd57600080fd5b610d076080611329565b90506000610d1784828501610c6d565b6000830152506020610d2b84828501610c6d565b602083015250604082013567ffffffffffffffff811115610d4b57600080fd5b610d5784828501610c97565b604083015250606082013567ffffffffffffffff811115610d7757600080fd5b610d8384828501610c97565b60608301525092915050565b600081359050610d9e816114e7565b92915050565b600060208284031215610db657600080fd5b6000610dc484828501610c6d565b91505092915050565b60008060408385031215610de057600080fd5b6000610dee85828601610c6d565b9250506020610dff85828601610d8f565b9150509250929050565b600060208284031215610e1b57600080fd5b6000610e2984828501610c82565b91505092915050565b600060208284031215610e4457600080fd5b600082013567ffffffffffffffff811115610e5e57600080fd5b610e6a84828501610ceb565b91505092915050565b6000610e7f8383611173565b905092915050565b610e9081611430565b82525050565b610e9f816113e8565b82525050565b610eae816113e8565b82525050565b6000610ebf82611392565b610ec981856113b5565b935083602082028501610edb85611382565b8060005b85811015610f175784840389528151610ef88582610e73565b9450610f03836113a8565b925060208a01995050600181019050610edf565b50829750879550505050505092915050565b6000610f348261139d565b610f3e81856113c6565b9350610f4e818560208601611475565b610f57816114a8565b840191505092915050565b6000610f6d8261139d565b610f7781856113d7565b9350610f87818560208601611475565b610f90816114a8565b840191505092915050565b6000610fa8604a836113d7565b91507f4f6e6c79207468652076657269667920696e737469747574696f6e206861732060008301527f74686520726967687420746f20636f6e6e65637420707265736372697074696f60208301527f6e20746f207573657221000000000000000000000000000000000000000000006040830152606082019050919050565b6000611034602b836113d7565b91507f546869732070617469656e74206973206e6f742072656769737465726564206f60008301527f72207665726966696564210000000000000000000000000000000000000000006020830152604082019050919050565b600061109a6009836113d7565b91507f70687973696369616e00000000000000000000000000000000000000000000006000830152602082019050919050565b60006110da6032836113d7565b91507f596f7520646f6e277420686176652074686520726967687420746f206372656160008301527f7465206120707265736372697074696f6e2100000000000000000000000000006020830152604082019050919050565b60006111406007836113d7565b91507f696e7375726564000000000000000000000000000000000000000000000000006000830152602082019050919050565b600060808301600083015161118b6000860182610e96565b50602083015161119e6020860182610e96565b50604083015184820360408601526111b68282610f29565b915050606083015184820360608601526111d08282610f29565b9150508091505092915050565b60006020820190506111f26000830184610ea5565b92915050565b600060808201905061120d6000830187610ea5565b61121a6020830186610ea5565b818103604083015261122c8185610f62565b905081810360608301526112408184610f62565b905095945050505050565b600060208201905081810360008301526112658184610eb4565b905092915050565b6000602082019050818103600083015261128681610f9b565b9050919050565b600060208201905081810360008301526112a681611027565b9050919050565b600060408201905081810360008301526112c68161108d565b90506112d56020830184610e87565b92915050565b600060208201905081810360008301526112f4816110cd565b9050919050565b6000604082019050818103600083015261131481611133565b90506113236020830184610ea5565b92915050565b6000604051905081810181811067ffffffffffffffff8211171561134c57600080fd5b8060405250919050565b600067ffffffffffffffff82111561136d57600080fd5b601f19601f8301169050602081019050919050565b6000819050602082019050919050565b600081519050919050565b600081519050919050565b6000602082019050919050565b600082825260208201905092915050565b600082825260208201905092915050565b600082825260208201905092915050565b60006113f382611406565b9050919050565b60008115159050919050565b600073ffffffffffffffffffffffffffffffffffffffff82169050919050565b6000819050919050565b600061143b82611442565b9050919050565b600061144d82611454565b9050919050565b600061145f82611406565b9050919050565b82818337600083830152505050565b60005b83811015611493578082015181840152602081019050611478565b838111156114a2576000848401525b50505050565b6000601f19601f8301169050919050565b6114c2816113e8565b81146114cd57600080fd5b50565b6114d9816113fa565b81146114e457600080fd5b50565b6114f081611426565b81146114fb57600080fd5b5056fea365627a7a72315820980e8863e3a41a0171e78fadf66b4c3c282fa11da12e5bffe90453fa775f70156c6578706572696d656e74616cf564736f6c63430005100040",
  "source": "// SPDX-License-Identifier: MIT\npragma solidity >=0.4.21 <0.7.0;\npragma experimental ABIEncoderV2;\n\nimport \"./User.sol\";\n\ncontract Prescriptions {\n    address public verifying_institution;\n    User UserContract;\n\n    constructor () public {\n        verifying_institution = msg.sender;\n    }\n\n    struct Prescription {\n        address physician;\n        address patient;\n\n        string medicine_name;\n        string medicine_amount;\n\n        // bool charges_free;\n        // bool charges_mandatory;\n    }\n\n    mapping(address => Prescription[]) public prescriptions_physician;\n    mapping(address => Prescription[]) public prescriptions_patient;\n    \n    function establishConnectionToUserSmartContract(address smart_contract_key) public {\n        require(msg.sender == verifying_institution, \"Only the verify institution has the right to connect prescription to user!\");\n        UserContract = User(smart_contract_key);\n    }\n\n    function newPrescription(Prescription memory prescription_) public{\n        require(UserContract.checkVerification('physician', msg.sender) == true, \"You don't have the right to create a prescription!\");\n        require(UserContract.checkVerification('insured', prescription_.patient) == true, \"This patient is not registered or verified!\");\n        prescriptions_physician[msg.sender].push(Prescription(prescription_.physician, prescription_.patient, prescription_.medicine_name, prescription_.medicine_amount));\n    }\n\n    function getPrescriptions(address public_key) public view returns (Prescription[] memory){\n        return prescriptions_physician[public_key];\n    }\n}\n",
  "sourcePath": "/Users/valentin/Documents/Programmdaten/Visual_Studio/5_Semester/Integrationsseminar/blockchain_e_prescription/contracts/Prescriptions.sol",
  "compiler": {
    "name": "solc",
    "version": "0.5.16+commit.9c3226ce.Emscripten.clang"
  },
  "schemaVersion": "3.3.2",
  "updatedAt": "2020-12-28T20:00:43.922Z",
  "networkType": "ethereum",
  "devdoc": {
    "methods": {}
  },
  "userdoc": {
    "methods": {}
  }
}