{
  "contractName": "Prescriptions",
  "abi": [
    {
      "inputs": [],
      "payable": false,
      "stateMutability": "nonpayable",
      "type": "constructor"
    },
    {
      "constant": true,
      "inputs": [
        {
          "internalType": "uint256",
          "name": "",
          "type": "uint256"
        }
      ],
      "name": "prescription",
      "outputs": [
        {
          "internalType": "address",
          "name": "physician",
          "type": "address"
        },
        {
          "internalType": "address",
          "name": "insured",
          "type": "address"
        },
        {
          "internalType": "address",
          "name": "pharmacist",
          "type": "address"
        },
        {
          "internalType": "bool",
          "name": "pharmacistEqualsInsured",
          "type": "bool"
        },
        {
          "internalType": "string",
          "name": "medicine_name",
          "type": "string"
        },
        {
          "internalType": "string",
          "name": "medicine_amount",
          "type": "string"
        }
      ],
      "payable": false,
      "stateMutability": "view",
      "type": "function"
    },
    {
      "constant": true,
      "inputs": [
        {
          "internalType": "address",
          "name": "",
          "type": "address"
        },
        {
          "internalType": "uint256",
          "name": "",
          "type": "uint256"
        }
      ],
      "name": "prescriptionInsured",
      "outputs": [
        {
          "internalType": "uint256",
          "name": "",
          "type": "uint256"
        }
      ],
      "payable": false,
      "stateMutability": "view",
      "type": "function"
    },
    {
      "constant": true,
      "inputs": [
        {
          "internalType": "address",
          "name": "",
          "type": "address"
        },
        {
          "internalType": "uint256",
          "name": "",
          "type": "uint256"
        }
      ],
      "name": "prescriptionPharmacist",
      "outputs": [
        {
          "internalType": "uint256",
          "name": "",
          "type": "uint256"
        }
      ],
      "payable": false,
      "stateMutability": "view",
      "type": "function"
    },
    {
      "constant": true,
      "inputs": [],
      "name": "verifying_institution",
      "outputs": [
        {
          "internalType": "address",
          "name": "",
          "type": "address"
        }
      ],
      "payable": false,
      "stateMutability": "view",
      "type": "function"
    },
    {
      "constant": false,
      "inputs": [
        {
          "internalType": "address",
          "name": "smart_contract_key",
          "type": "address"
        }
      ],
      "name": "establishConnectionToUserSmartContract",
      "outputs": [],
      "payable": false,
      "stateMutability": "nonpayable",
      "type": "function"
    },
    {
      "constant": false,
      "inputs": [
        {
          "components": [
            {
              "internalType": "address",
              "name": "physician",
              "type": "address"
            },
            {
              "internalType": "address",
              "name": "insured",
              "type": "address"
            },
            {
              "internalType": "address",
              "name": "pharmacist",
              "type": "address"
            },
            {
              "internalType": "bool",
              "name": "pharmacistEqualsInsured",
              "type": "bool"
            },
            {
              "internalType": "string",
              "name": "medicine_name",
              "type": "string"
            },
            {
              "internalType": "string",
              "name": "medicine_amount",
              "type": "string"
            }
          ],
          "internalType": "struct Prescriptions.Prescription",
          "name": "prescription_",
          "type": "tuple"
        }
      ],
      "name": "newPrescription",
      "outputs": [],
      "payable": false,
      "stateMutability": "nonpayable",
      "type": "function"
    },
    {
      "constant": false,
      "inputs": [
        {
          "components": [
            {
              "internalType": "address",
              "name": "physician",
              "type": "address"
            },
            {
              "internalType": "address",
              "name": "insured",
              "type": "address"
            },
            {
              "internalType": "address",
              "name": "pharmacist",
              "type": "address"
            },
            {
              "internalType": "bool",
              "name": "pharmacistEqualsInsured",
              "type": "bool"
            },
            {
              "internalType": "string",
              "name": "medicine_name",
              "type": "string"
            },
            {
              "internalType": "string",
              "name": "medicine_amount",
              "type": "string"
            }
          ],
          "internalType": "struct Prescriptions.Prescription",
          "name": "prescription_",
          "type": "tuple"
        },
        {
          "internalType": "uint256",
          "name": "prescription_id_",
          "type": "uint256"
        }
      ],
      "name": "transferPrescriptionToPharmacist",
      "outputs": [],
      "payable": false,
      "stateMutability": "nonpayable",
      "type": "function"
    },
    {
      "constant": false,
      "inputs": [
        {
          "internalType": "uint256",
          "name": "prescription_id_",
          "type": "uint256"
        }
      ],
      "name": "getPrescription",
      "outputs": [
        {
          "components": [
            {
              "internalType": "address",
              "name": "physician",
              "type": "address"
            },
            {
              "internalType": "address",
              "name": "insured",
              "type": "address"
            },
            {
              "internalType": "address",
              "name": "pharmacist",
              "type": "address"
            },
            {
              "internalType": "bool",
              "name": "pharmacistEqualsInsured",
              "type": "bool"
            },
            {
              "internalType": "string",
              "name": "medicine_name",
              "type": "string"
            },
            {
              "internalType": "string",
              "name": "medicine_amount",
              "type": "string"
            }
          ],
          "internalType": "struct Prescriptions.Prescription",
          "name": "",
          "type": "tuple"
        }
      ],
      "payable": false,
      "stateMutability": "nonpayable",
      "type": "function"
    },
    {
      "constant": false,
      "inputs": [
        {
          "internalType": "address",
          "name": "public_key",
          "type": "address"
        }
      ],
      "name": "getInsuredPrescriptionsIDs",
      "outputs": [
        {
          "internalType": "uint256[]",
          "name": "",
          "type": "uint256[]"
        }
      ],
      "payable": false,
      "stateMutability": "nonpayable",
      "type": "function"
    },
    {
      "constant": false,
      "inputs": [
        {
          "internalType": "address",
          "name": "public_key",
          "type": "address"
        }
      ],
      "name": "getPharmacistPrescriptionsIDs",
      "outputs": [
        {
          "internalType": "uint256[]",
          "name": "",
          "type": "uint256[]"
        }
      ],
      "payable": false,
      "stateMutability": "nonpayable",
      "type": "function"
    }
  ],
  "bytecode": "0x608060405234801561001057600080fd5b50336000806101000a81548173ffffffffffffffffffffffffffffffffffffffff021916908373ffffffffffffffffffffffffffffffffffffffff1602179055506000600281905550611aeb806100686000396000f3fe608060405234801561001057600080fd5b506004361061009e5760003560e01c8063828f362c11610066578063828f362c14610172578063a61272931461018e578063b73c03f8146101aa578063be031783146101da578063fb589cdd1461020a5761009e565b80631ea72e8c146100a3578063287eda05146100d35780636f16af10146101085780637649d20e1461013857806381eceeb714610154575b600080fd5b6100bd60048036036100b89190810190611229565b61023a565b6040516100ca91906117b8565b60405180910390f35b6100ed60048036036100e8919081019061134c565b6102d1565b6040516100ff96959493929190611749565b60405180910390f35b610122600480360361011d919081019061134c565b6104aa565b60405161012f9190611896565b60405180910390f35b610152600480360361014d91908101906112b7565b610738565b005b61015c610b6c565b604051610169919061172e565b60405180910390f35b61018c600480360361018791908101906112f8565b610b91565b005b6101a860048036036101a39190810190611229565b610dd0565b005b6101c460048036036101bf9190810190611252565b610ea3565b6040516101d191906118b8565b60405180910390f35b6101f460048036036101ef9190810190611229565b610ed1565b60405161020191906117b8565b60405180910390f35b610224600480360361021f9190810190611252565b610f68565b60405161023191906118b8565b60405180910390f35b6060600460008373ffffffffffffffffffffffffffffffffffffffff1673ffffffffffffffffffffffffffffffffffffffff1681526020019081526020016000208054806020026020016040519081016040528092919081815260200182805480156102c557602002820191906000526020600020905b8154815260200190600101908083116102b1575b50505050509050919050565b60036020528060005260406000206000915090508060000160009054906101000a900473ffffffffffffffffffffffffffffffffffffffff16908060010160009054906101000a900473ffffffffffffffffffffffffffffffffffffffff16908060020160009054906101000a900473ffffffffffffffffffffffffffffffffffffffff16908060020160149054906101000a900460ff1690806003018054600181600116156101000203166002900480601f0160208091040260200160405190810160405280929190818152602001828054600181600116156101000203166002900480156104025780601f106103d757610100808354040283529160200191610402565b820191906000526020600020905b8154815290600101906020018083116103e557829003601f168201915b505050505090806004018054600181600116156101000203166002900480601f0160208091040260200160405190810160405280929190818152602001828054600181600116156101000203166002900480156104a05780601f10610475576101008083540402835291602001916104a0565b820191906000526020600020905b81548152906001019060200180831161048357829003601f168201915b5050505050905086565b6104b2610f96565b600360008381526020019081526020016000206040518060c00160405290816000820160009054906101000a900473ffffffffffffffffffffffffffffffffffffffff1673ffffffffffffffffffffffffffffffffffffffff1673ffffffffffffffffffffffffffffffffffffffff1681526020016001820160009054906101000a900473ffffffffffffffffffffffffffffffffffffffff1673ffffffffffffffffffffffffffffffffffffffff1673ffffffffffffffffffffffffffffffffffffffff1681526020016002820160009054906101000a900473ffffffffffffffffffffffffffffffffffffffff1673ffffffffffffffffffffffffffffffffffffffff1673ffffffffffffffffffffffffffffffffffffffff1681526020016002820160149054906101000a900460ff16151515158152602001600382018054600181600116156101000203166002900480601f0160208091040260200160405190810160405280929190818152602001828054600181600116156101000203166002900480156106865780601f1061065b57610100808354040283529160200191610686565b820191906000526020600020905b81548152906001019060200180831161066957829003601f168201915b50505050508152602001600482018054600181600116156101000203166002900480601f0160208091040260200160405190810160405280929190818152602001828054600181600116156101000203166002900480156107285780601f106106fd57610100808354040283529160200191610728565b820191906000526020600020905b81548152906001019060200180831161070b57829003601f168201915b5050505050815250509050919050565b60011515600160009054906101000a900473ffffffffffffffffffffffffffffffffffffffff1673ffffffffffffffffffffffffffffffffffffffff1663f7350e60336040518263ffffffff1660e01b815260040161079791906117fa565b60206040518083038186803b1580156107af57600080fd5b505afa1580156107c3573d6000803e3d6000fd5b505050506040513d601f19601f820116820180604052506107e7919081019061128e565b151514610829576040517f08c379a000000000000000000000000000000000000000000000000000000000815260040161082090611876565b60405180910390fd5b60011515600160009054906101000a900473ffffffffffffffffffffffffffffffffffffffff1673ffffffffffffffffffffffffffffffffffffffff1663f7350e6083602001516040518263ffffffff1660e01b815260040161088c9190611848565b60206040518083038186803b1580156108a457600080fd5b505afa1580156108b8573d6000803e3d6000fd5b505050506040513d601f19601f820116820180604052506108dc919081019061128e565b15151461091e576040517f08c379a000000000000000000000000000000000000000000000000000000000815260040161091590611828565b60405180910390fd5b6040518060c00160405280826000015173ffffffffffffffffffffffffffffffffffffffff168152602001826020015173ffffffffffffffffffffffffffffffffffffffff168152602001826040015173ffffffffffffffffffffffffffffffffffffffff168152602001826060015115158152602001826080015181526020018260a0015181525060036000600254815260200190815260200160002060008201518160000160006101000a81548173ffffffffffffffffffffffffffffffffffffffff021916908373ffffffffffffffffffffffffffffffffffffffff16021790555060208201518160010160006101000a81548173ffffffffffffffffffffffffffffffffffffffff021916908373ffffffffffffffffffffffffffffffffffffffff16021790555060408201518160020160006101000a81548173ffffffffffffffffffffffffffffffffffffffff021916908373ffffffffffffffffffffffffffffffffffffffff16021790555060608201518160020160146101000a81548160ff0219169083151502179055506080820151816003019080519060200190610acd929190611010565b5060a0820151816004019080519060200190610aea929190611010565b5090505060046000826020015173ffffffffffffffffffffffffffffffffffffffff1673ffffffffffffffffffffffffffffffffffffffff168152602001908152602001600020600254908060018154018082558091505090600182039060005260206000200160009091929091909150555060016002540160028190555050565b6000809054906101000a900473ffffffffffffffffffffffffffffffffffffffff1681565b6040518060c00160405280836000015173ffffffffffffffffffffffffffffffffffffffff168152602001836020015173ffffffffffffffffffffffffffffffffffffffff168152602001836040015173ffffffffffffffffffffffffffffffffffffffff168152602001836060015115158152602001836080015181526020018360a001518152506003600083815260200190815260200160002060008201518160000160006101000a81548173ffffffffffffffffffffffffffffffffffffffff021916908373ffffffffffffffffffffffffffffffffffffffff16021790555060208201518160010160006101000a81548173ffffffffffffffffffffffffffffffffffffffff021916908373ffffffffffffffffffffffffffffffffffffffff16021790555060408201518160020160006101000a81548173ffffffffffffffffffffffffffffffffffffffff021916908373ffffffffffffffffffffffffffffffffffffffff16021790555060608201518160020160146101000a81548160ff0219169083151502179055506080820151816003019080519060200190610d3e929190611010565b5060a0820151816004019080519060200190610d5b929190611010565b5090505060056000836040015173ffffffffffffffffffffffffffffffffffffffff1673ffffffffffffffffffffffffffffffffffffffff1681526020019081526020016000208190806001815401808255809150509060018203906000526020600020016000909192909190915055505050565b6000809054906101000a900473ffffffffffffffffffffffffffffffffffffffff1673ffffffffffffffffffffffffffffffffffffffff163373ffffffffffffffffffffffffffffffffffffffff1614610e5f576040517f08c379a0000000000000000000000000000000000000000000000000000000008152600401610e56906117da565b60405180910390fd5b80600160006101000a81548173ffffffffffffffffffffffffffffffffffffffff021916908373ffffffffffffffffffffffffffffffffffffffff16021790555050565b60046020528160005260406000208181548110610ebc57fe5b90600052602060002001600091509150505481565b6060600560008373ffffffffffffffffffffffffffffffffffffffff1673ffffffffffffffffffffffffffffffffffffffff168152602001908152602001600020805480602002602001604051908101604052809291908181526020018280548015610f5c57602002820191906000526020600020905b815481526020019060010190808311610f48575b50505050509050919050565b60056020528160005260406000208181548110610f8157fe5b90600052602060002001600091509150505481565b6040518060c00160405280600073ffffffffffffffffffffffffffffffffffffffff168152602001600073ffffffffffffffffffffffffffffffffffffffff168152602001600073ffffffffffffffffffffffffffffffffffffffff16815260200160001515815260200160608152602001606081525090565b828054600181600116156101000203166002900490600052602060002090601f016020900481019282601f1061105157805160ff191683800117855561107f565b8280016001018555821561107f579182015b8281111561107e578251825591602001919060010190611063565b5b50905061108c9190611090565b5090565b6110b291905b808211156110ae576000816000905550600101611096565b5090565b90565b6000813590506110c481611a63565b92915050565b6000813590506110d981611a7a565b92915050565b6000815190506110ee81611a7a565b92915050565b600082601f83011261110557600080fd5b813561111861111382611900565b6118d3565b9150808252602083016020830185838301111561113457600080fd5b61113f838284611a10565b50505092915050565b600060c0828403121561115a57600080fd5b61116460c06118d3565b90506000611174848285016110b5565b6000830152506020611188848285016110b5565b602083015250604061119c848285016110b5565b60408301525060606111b0848285016110ca565b606083015250608082013567ffffffffffffffff8111156111d057600080fd5b6111dc848285016110f4565b60808301525060a082013567ffffffffffffffff8111156111fc57600080fd5b611208848285016110f4565b60a08301525092915050565b60008135905061122381611a91565b92915050565b60006020828403121561123b57600080fd5b6000611249848285016110b5565b91505092915050565b6000806040838503121561126557600080fd5b6000611273858286016110b5565b925050602061128485828601611214565b9150509250929050565b6000602082840312156112a057600080fd5b60006112ae848285016110df565b91505092915050565b6000602082840312156112c957600080fd5b600082013567ffffffffffffffff8111156112e357600080fd5b6112ef84828501611148565b91505092915050565b6000806040838503121561130b57600080fd5b600083013567ffffffffffffffff81111561132557600080fd5b61133185828601611148565b925050602061134285828601611214565b9150509250929050565b60006020828403121561135e57600080fd5b600061136c84828501611214565b91505092915050565b60006113818383611710565b60208301905092915050565b611396816119da565b82525050565b6113a581611992565b82525050565b6113b481611992565b82525050565b60006113c58261193c565b6113cf818561195f565b93506113da8361192c565b8060005b8381101561140b5781516113f28882611375565b97506113fd83611952565b9250506001810190506113de565b5085935050505092915050565b611421816119a4565b82525050565b611430816119a4565b82525050565b600061144182611947565b61144b8185611970565b935061145b818560208601611a1f565b61146481611a52565b840191505092915050565b600061147a82611947565b6114848185611981565b9350611494818560208601611a1f565b61149d81611a52565b840191505092915050565b60006114b5604f83611981565b91507f4f6e6c79207468652076657269667920696e737469747574696f6e206861732060008301527f746865207072656d697373696f6e20746f20636f6e6e6563742070726573637260208301527f697074696f6e20746f20757365722100000000000000000000000000000000006040830152606082019050919050565b6000611541600983611981565b91507f70687973696369616e00000000000000000000000000000000000000000000006000830152602082019050919050565b6000611581602b83611981565b91507f5468697320696e7375726564206973206e6f742072656769737465726564206f60008301527f72207665726966696564210000000000000000000000000000000000000000006020830152604082019050919050565b60006115e7600783611981565b91507f696e7375726564000000000000000000000000000000000000000000000000006000830152602082019050919050565b6000611627603783611981565b91507f596f7520646f6e2774206861766520746865207072656d697373696f6e20746f60008301527f20637265617465206120707265736372697074696f6e210000000000000000006020830152604082019050919050565b600060c083016000830151611698600086018261139c565b5060208301516116ab602086018261139c565b5060408301516116be604086018261139c565b5060608301516116d16060860182611418565b50608083015184820360808601526116e98282611436565b91505060a083015184820360a08601526117038282611436565b9150508091505092915050565b611719816119d0565b82525050565b611728816119d0565b82525050565b600060208201905061174360008301846113ab565b92915050565b600060c08201905061175e60008301896113ab565b61176b60208301886113ab565b61177860408301876113ab565b6117856060830186611427565b8181036080830152611797818561146f565b905081810360a08301526117ab818461146f565b9050979650505050505050565b600060208201905081810360008301526117d281846113ba565b905092915050565b600060208201905081810360008301526117f3816114a8565b9050919050565b6000604082019050818103600083015261181381611534565b9050611822602083018461138d565b92915050565b6000602082019050818103600083015261184181611574565b9050919050565b60006040820190508181036000830152611861816115da565b905061187060208301846113ab565b92915050565b6000602082019050818103600083015261188f8161161a565b9050919050565b600060208201905081810360008301526118b08184611680565b905092915050565b60006020820190506118cd600083018461171f565b92915050565b6000604051905081810181811067ffffffffffffffff821117156118f657600080fd5b8060405250919050565b600067ffffffffffffffff82111561191757600080fd5b601f19601f8301169050602081019050919050565b6000819050602082019050919050565b600081519050919050565b600081519050919050565b6000602082019050919050565b600082825260208201905092915050565b600082825260208201905092915050565b600082825260208201905092915050565b600061199d826119b0565b9050919050565b60008115159050919050565b600073ffffffffffffffffffffffffffffffffffffffff82169050919050565b6000819050919050565b60006119e5826119ec565b9050919050565b60006119f7826119fe565b9050919050565b6000611a09826119b0565b9050919050565b82818337600083830152505050565b60005b83811015611a3d578082015181840152602081019050611a22565b83811115611a4c576000848401525b50505050565b6000601f19601f8301169050919050565b611a6c81611992565b8114611a7757600080fd5b50565b611a83816119a4565b8114611a8e57600080fd5b50565b611a9a816119d0565b8114611aa557600080fd5b5056fea365627a7a7231582036f34621619bb83e6a15f8a7af618b4da9530a7859796f2e7968f310500f77366c6578706572696d656e74616cf564736f6c63430005100040",
  "source": "// SPDX-License-Identifier: MIT\npragma solidity >=0.4.21 <0.7.0;\npragma experimental ABIEncoderV2;\n\nimport \"./User.sol\";\n\ncontract Prescriptions {\n    address public verifying_institution;\n    User UserContract;\n    uint prescription_id;\n\n    constructor () public {\n        verifying_institution = msg.sender;\n        prescription_id = 0;\n    }\n\n    struct Prescription {\n        address physician;\n        address insured;\n        address pharmacist;\n\n        bool pharmacistEqualsInsured;\n\n        string medicine_name;\n        string medicine_amount;\n\n        // bool charges_free;\n        // bool charges_mandatory;\n    }\n\n    mapping(uint => Prescription) public prescription;\n    mapping(address => uint[]) public prescriptionInsured;\n    mapping(address => uint[]) public prescriptionPharmacist;\n    \n    function establishConnectionToUserSmartContract(address smart_contract_key) public {\n        require(msg.sender == verifying_institution, \"Only the verify institution has the premission to connect prescription to user!\");\n        UserContract = User(smart_contract_key);\n    }\n\n    function newPrescription(Prescription memory prescription_) public{\n        require(UserContract.checkVerification('physician', msg.sender) == true, \"You don't have the premission to create a prescription!\");\n        require(UserContract.checkVerification('insured', prescription_.insured) == true, \"This insured is not registered or verified!\");\n\n        prescription[prescription_id] = Prescription(prescription_.physician, prescription_.insured, prescription_.pharmacist, prescription_.pharmacistEqualsInsured, prescription_.medicine_name, prescription_.medicine_amount);\n        prescriptionInsured[prescription_.insured].push(prescription_id);\n        prescription_id = prescription_id + 1;\n    }\n\n    function transferPrescriptionToPharmacist(Prescription memory prescription_, uint prescription_id_) public {\n        // require(prescriptionInsured[msg.sender].length <= prescription_id_, \"There's no prescription under that number\");\n        // require(UserContract.checkVerification('physician', prescription_.pharmacist) == true, \"This pharmacist is not registered or verified!\");\n\n        prescription[prescription_id_] = Prescription(prescription_.physician, prescription_.insured, prescription_.pharmacist, prescription_.pharmacistEqualsInsured, prescription_.medicine_name, prescription_.medicine_amount);\n        prescriptionPharmacist[prescription_.pharmacist].push(prescription_id_);\n        // delete prescriptionInsured[msg.sender][prescription_id_];\n    }\n\n    function getPrescription(uint prescription_id_) public returns (Prescription memory){\n        return prescription[prescription_id_];\n    }\n\n    function getInsuredPrescriptionsIDs(address public_key) public returns (uint[] memory){\n        return prescriptionInsured[public_key];\n    }\n\n    function getPharmacistPrescriptionsIDs(address public_key) public returns (uint[] memory){\n        return prescriptionPharmacist[public_key];\n    }\n}\n",
  "sourcePath": "/Users/valentin/Documents/Programmdaten/Visual_Studio/5_Semester/Integrationsseminar/blockchain_e_prescription/contracts/Prescriptions.sol",
  "compiler": {
    "name": "solc",
    "version": "0.5.16+commit.9c3226ce.Emscripten.clang"
  },
  "schemaVersion": "3.3.2",
  "updatedAt": "2020-12-30T19:33:34.555Z",
  "networkType": "ethereum",
  "devdoc": {
    "methods": {}
  },
  "userdoc": {
    "methods": {}
  }
}