{
  "contractName": "Prescriptions",
  "abi": [
    {
      "inputs": [],
      "payable": false,
      "stateMutability": "nonpayable",
      "type": "constructor"
    },
    {
      "constant": true,
      "inputs": [
        {
          "internalType": "uint256",
          "name": "",
          "type": "uint256"
        }
      ],
      "name": "prescription",
      "outputs": [
        {
          "internalType": "address",
          "name": "physician",
          "type": "address"
        },
        {
          "internalType": "address",
          "name": "insured",
          "type": "address"
        },
        {
          "internalType": "address",
          "name": "pharmacist",
          "type": "address"
        },
        {
          "internalType": "bool",
          "name": "pharmacistEqualsInsured",
          "type": "bool"
        },
        {
          "internalType": "string",
          "name": "status",
          "type": "string"
        },
        {
          "internalType": "string",
          "name": "medicine_name",
          "type": "string"
        },
        {
          "internalType": "string",
          "name": "medicine_amount",
          "type": "string"
        }
      ],
      "payable": false,
      "stateMutability": "view",
      "type": "function"
    },
    {
      "constant": true,
      "inputs": [
        {
          "internalType": "address",
          "name": "",
          "type": "address"
        },
        {
          "internalType": "uint256",
          "name": "",
          "type": "uint256"
        }
      ],
      "name": "prescriptionInsured",
      "outputs": [
        {
          "internalType": "uint256",
          "name": "",
          "type": "uint256"
        }
      ],
      "payable": false,
      "stateMutability": "view",
      "type": "function"
    },
    {
      "constant": true,
      "inputs": [
        {
          "internalType": "address",
          "name": "",
          "type": "address"
        },
        {
          "internalType": "uint256",
          "name": "",
          "type": "uint256"
        }
      ],
      "name": "prescriptionPharmacist",
      "outputs": [
        {
          "internalType": "uint256",
          "name": "",
          "type": "uint256"
        }
      ],
      "payable": false,
      "stateMutability": "view",
      "type": "function"
    },
    {
      "constant": true,
      "inputs": [
        {
          "internalType": "address",
          "name": "",
          "type": "address"
        },
        {
          "internalType": "uint256",
          "name": "",
          "type": "uint256"
        }
      ],
      "name": "prescriptionPhysician",
      "outputs": [
        {
          "internalType": "uint256",
          "name": "",
          "type": "uint256"
        }
      ],
      "payable": false,
      "stateMutability": "view",
      "type": "function"
    },
    {
      "constant": true,
      "inputs": [],
      "name": "verifying_institution",
      "outputs": [
        {
          "internalType": "address",
          "name": "",
          "type": "address"
        }
      ],
      "payable": false,
      "stateMutability": "view",
      "type": "function"
    },
    {
      "constant": false,
      "inputs": [
        {
          "internalType": "address",
          "name": "smart_contract_key",
          "type": "address"
        }
      ],
      "name": "establishConnectionToUserSmartContract",
      "outputs": [],
      "payable": false,
      "stateMutability": "nonpayable",
      "type": "function"
    },
    {
      "constant": false,
      "inputs": [
        {
          "components": [
            {
              "internalType": "address",
              "name": "physician",
              "type": "address"
            },
            {
              "internalType": "address",
              "name": "insured",
              "type": "address"
            },
            {
              "internalType": "address",
              "name": "pharmacist",
              "type": "address"
            },
            {
              "internalType": "bool",
              "name": "pharmacistEqualsInsured",
              "type": "bool"
            },
            {
              "internalType": "string",
              "name": "status",
              "type": "string"
            },
            {
              "internalType": "string",
              "name": "medicine_name",
              "type": "string"
            },
            {
              "internalType": "string",
              "name": "medicine_amount",
              "type": "string"
            }
          ],
          "internalType": "struct Prescriptions.Prescription",
          "name": "prescription_",
          "type": "tuple"
        }
      ],
      "name": "newPrescription",
      "outputs": [],
      "payable": false,
      "stateMutability": "nonpayable",
      "type": "function"
    },
    {
      "constant": false,
      "inputs": [
        {
          "internalType": "uint256",
          "name": "prescription_id_",
          "type": "uint256"
        },
        {
          "internalType": "address",
          "name": "pharmacist",
          "type": "address"
        }
      ],
      "name": "transferPrescriptionToPharmacist",
      "outputs": [],
      "payable": false,
      "stateMutability": "nonpayable",
      "type": "function"
    },
    {
      "constant": false,
      "inputs": [
        {
          "internalType": "uint256",
          "name": "prescription_id_",
          "type": "uint256"
        }
      ],
      "name": "redeemPrescription",
      "outputs": [],
      "payable": false,
      "stateMutability": "nonpayable",
      "type": "function"
    },
    {
      "constant": false,
      "inputs": [
        {
          "internalType": "uint256",
          "name": "prescription_id_",
          "type": "uint256"
        }
      ],
      "name": "getPrescription",
      "outputs": [
        {
          "components": [
            {
              "internalType": "address",
              "name": "physician",
              "type": "address"
            },
            {
              "internalType": "address",
              "name": "insured",
              "type": "address"
            },
            {
              "internalType": "address",
              "name": "pharmacist",
              "type": "address"
            },
            {
              "internalType": "bool",
              "name": "pharmacistEqualsInsured",
              "type": "bool"
            },
            {
              "internalType": "string",
              "name": "status",
              "type": "string"
            },
            {
              "internalType": "string",
              "name": "medicine_name",
              "type": "string"
            },
            {
              "internalType": "string",
              "name": "medicine_amount",
              "type": "string"
            }
          ],
          "internalType": "struct Prescriptions.Prescription",
          "name": "",
          "type": "tuple"
        }
      ],
      "payable": false,
      "stateMutability": "nonpayable",
      "type": "function"
    },
    {
      "constant": false,
      "inputs": [
        {
          "internalType": "address",
          "name": "public_key",
          "type": "address"
        }
      ],
      "name": "getPhysicianPrescriptionsIDs",
      "outputs": [
        {
          "internalType": "uint256[]",
          "name": "",
          "type": "uint256[]"
        }
      ],
      "payable": false,
      "stateMutability": "nonpayable",
      "type": "function"
    },
    {
      "constant": false,
      "inputs": [
        {
          "internalType": "address",
          "name": "public_key",
          "type": "address"
        }
      ],
      "name": "getInsuredPrescriptionsIDs",
      "outputs": [
        {
          "internalType": "uint256[]",
          "name": "",
          "type": "uint256[]"
        }
      ],
      "payable": false,
      "stateMutability": "nonpayable",
      "type": "function"
    },
    {
      "constant": false,
      "inputs": [
        {
          "internalType": "address",
          "name": "public_key",
          "type": "address"
        }
      ],
      "name": "getPharmacistPrescriptionsIDs",
      "outputs": [
        {
          "internalType": "uint256[]",
          "name": "",
          "type": "uint256[]"
        }
      ],
      "payable": false,
      "stateMutability": "nonpayable",
      "type": "function"
    }
  ],
  "bytecode": "0x608060405234801561001057600080fd5b50336000806101000a81548173ffffffffffffffffffffffffffffffffffffffff021916908373ffffffffffffffffffffffffffffffffffffffff1602179055506000600281905550612bd8806100686000396000f3fe608060405234801561001057600080fd5b50600436106100cf5760003560e01c806381eceeb71161008c578063b16928a411610066578063b16928a41461023c578063b73c03f814610258578063be03178314610288578063fb589cdd146102b8576100cf565b806381eceeb7146101d2578063a6127293146101f0578063a6d5dcd21461020c576100cf565b80631d1a34da146100d45780631ea72e8c146100f0578063287eda05146101205780634315f10f14610156578063626d7f6a146101865780636f16af10146101a2575b600080fd5b6100ee60048036036100e991908101906121f7565b6102e8565b005b61010a600480360361010591908101906120ff565b610afb565b6040516101179190612817565b60405180910390f35b61013a600480360361013591908101906121ce565b610b92565b60405161014d9796959493929190612793565b60405180910390f35b610170600480360361016b9190810190612128565b610e09565b60405161017d91906129a5565b60405180910390f35b6101a0600480360361019b919081019061218d565b610e37565b005b6101bc60048036036101b791908101906121ce565b611332565b6040516101c99190612983565b60405180910390f35b6101da611662565b6040516101e79190612778565b60405180910390f35b61020a600480360361020591908101906120ff565b611687565b005b610226600480360361022191908101906120ff565b61175a565b6040516102339190612817565b60405180910390f35b610256600480360361025191908101906121ce565b6117f1565b005b610272600480360361026d9190810190612128565b611d46565b60405161027f91906129a5565b60405180910390f35b6102a2600480360361029d91908101906120ff565b611d74565b6040516102af9190612817565b60405180910390f35b6102d260048036036102cd9190810190612128565b611e0b565b6040516102df91906129a5565b60405180910390f35b6102f0611e39565b600660008481526020019081526020016000206040518060e00160405290816000820160009054906101000a900473ffffffffffffffffffffffffffffffffffffffff1673ffffffffffffffffffffffffffffffffffffffff1673ffffffffffffffffffffffffffffffffffffffff1681526020016001820160009054906101000a900473ffffffffffffffffffffffffffffffffffffffff1673ffffffffffffffffffffffffffffffffffffffff1673ffffffffffffffffffffffffffffffffffffffff1681526020016002820160009054906101000a900473ffffffffffffffffffffffffffffffffffffffff1673ffffffffffffffffffffffffffffffffffffffff1673ffffffffffffffffffffffffffffffffffffffff1681526020016002820160149054906101000a900460ff16151515158152602001600382018054600181600116156101000203166002900480601f0160208091040260200160405190810160405280929190818152602001828054600181600116156101000203166002900480156104c45780601f10610499576101008083540402835291602001916104c4565b820191906000526020600020905b8154815290600101906020018083116104a757829003601f168201915b50505050508152602001600482018054600181600116156101000203166002900480601f0160208091040260200160405190810160405280929190818152602001828054600181600116156101000203166002900480156105665780601f1061053b57610100808354040283529160200191610566565b820191906000526020600020905b81548152906001019060200180831161054957829003601f168201915b50505050508152602001600582018054600181600116156101000203166002900480601f0160208091040260200160405190810160405280929190818152602001828054600181600116156101000203166002900480156106085780601f106105dd57610100808354040283529160200191610608565b820191906000526020600020905b8154815290600101906020018083116105eb57829003601f168201915b5050505050815250509050806020015173ffffffffffffffffffffffffffffffffffffffff163373ffffffffffffffffffffffffffffffffffffffff1614610685576040517f08c379a000000000000000000000000000000000000000000000000000000000815260040161067c90612915565b60405180910390fd5b60011515600160009054906101000a900473ffffffffffffffffffffffffffffffffffffffff1673ffffffffffffffffffffffffffffffffffffffff1663f7350e6083602001516040518263ffffffff1660e01b81526004016106e89190612935565b60206040518083038186803b15801561070057600080fd5b505afa158015610714573d6000803e3d6000fd5b505050506040513d601f19601f820116820180604052506107389190810190612164565b15151461077a576040517f08c379a000000000000000000000000000000000000000000000000000000000815260040161077190612839565b60405180910390fd5b60011515600160009054906101000a900473ffffffffffffffffffffffffffffffffffffffff1673ffffffffffffffffffffffffffffffffffffffff1663f7350e60846040518263ffffffff1660e01b81526004016107d99190612879565b60206040518083038186803b1580156107f157600080fd5b505afa158015610805573d6000803e3d6000fd5b505050506040513d601f19601f820116820180604052506108299190810190612164565b15151461086b576040517f08c379a0000000000000000000000000000000000000000000000000000000008152600401610862906128f5565b60405180910390fd5b6040518060e00160405280826000015173ffffffffffffffffffffffffffffffffffffffff168152602001826020015173ffffffffffffffffffffffffffffffffffffffff1681526020018373ffffffffffffffffffffffffffffffffffffffff1681526020018260600151151581526020016040518060400160405280600a81526020017f506861726d61636973740000000000000000000000000000000000000000000081525081526020018260a0015181526020018260c001518152506006600085815260200190815260200160002060008201518160000160006101000a81548173ffffffffffffffffffffffffffffffffffffffff021916908373ffffffffffffffffffffffffffffffffffffffff16021790555060208201518160010160006101000a81548173ffffffffffffffffffffffffffffffffffffffff021916908373ffffffffffffffffffffffffffffffffffffffff16021790555060408201518160020160006101000a81548173ffffffffffffffffffffffffffffffffffffffff021916908373ffffffffffffffffffffffffffffffffffffffff16021790555060608201518160020160146101000a81548160ff0219169083151502179055506080820151816003019080519060200190610a4f929190611eba565b5060a0820151816004019080519060200190610a6c929190611eba565b5060c0820151816005019080519060200190610a89929190611eba565b50905050600560008373ffffffffffffffffffffffffffffffffffffffff1673ffffffffffffffffffffffffffffffffffffffff168152602001908152602001600020839080600181540180825580915050906001820390600052602060002001600090919290919091505550505050565b6060600460008373ffffffffffffffffffffffffffffffffffffffff1673ffffffffffffffffffffffffffffffffffffffff168152602001908152602001600020805480602002602001604051908101604052809291908181526020018280548015610b8657602002820191906000526020600020905b815481526020019060010190808311610b72575b50505050509050919050565b60066020528060005260406000206000915090508060000160009054906101000a900473ffffffffffffffffffffffffffffffffffffffff16908060010160009054906101000a900473ffffffffffffffffffffffffffffffffffffffff16908060020160009054906101000a900473ffffffffffffffffffffffffffffffffffffffff16908060020160149054906101000a900460ff1690806003018054600181600116156101000203166002900480601f016020809104026020016040519081016040528092919081815260200182805460018160011615610100020316600290048015610cc35780601f10610c9857610100808354040283529160200191610cc3565b820191906000526020600020905b815481529060010190602001808311610ca657829003601f168201915b505050505090806004018054600181600116156101000203166002900480601f016020809104026020016040519081016040528092919081815260200182805460018160011615610100020316600290048015610d615780601f10610d3657610100808354040283529160200191610d61565b820191906000526020600020905b815481529060010190602001808311610d4457829003601f168201915b505050505090806005018054600181600116156101000203166002900480601f016020809104026020016040519081016040528092919081815260200182805460018160011615610100020316600290048015610dff5780601f10610dd457610100808354040283529160200191610dff565b820191906000526020600020905b815481529060010190602001808311610de257829003601f168201915b5050505050905087565b60036020528160005260406000208181548110610e2257fe5b90600052602060002001600091509150505481565b60011515600160009054906101000a900473ffffffffffffffffffffffffffffffffffffffff1673ffffffffffffffffffffffffffffffffffffffff1663f7350e60336040518263ffffffff1660e01b8152600401610e9691906128a7565b60206040518083038186803b158015610eae57600080fd5b505afa158015610ec2573d6000803e3d6000fd5b505050506040513d601f19601f82011682018060405250610ee69190810190612164565b151514610f28576040517f08c379a0000000000000000000000000000000000000000000000000000000008152600401610f1f90612963565b60405180910390fd5b60011515600160009054906101000a900473ffffffffffffffffffffffffffffffffffffffff1673ffffffffffffffffffffffffffffffffffffffff1663f7350e6083602001516040518263ffffffff1660e01b8152600401610f8b9190612935565b60206040518083038186803b158015610fa357600080fd5b505afa158015610fb7573d6000803e3d6000fd5b505050506040513d601f19601f82011682018060405250610fdb9190810190612164565b15151461101d576040517f08c379a0000000000000000000000000000000000000000000000000000000008152600401611014906128d5565b60405180910390fd5b6040518060e00160405280826000015173ffffffffffffffffffffffffffffffffffffffff168152602001826020015173ffffffffffffffffffffffffffffffffffffffff168152602001826040015173ffffffffffffffffffffffffffffffffffffffff1681526020018260600151151581526020016040518060400160405280600781526020017f50617469656e740000000000000000000000000000000000000000000000000081525081526020018260a0015181526020018260c0015181525060066000600254815260200190815260200160002060008201518160000160006101000a81548173ffffffffffffffffffffffffffffffffffffffff021916908373ffffffffffffffffffffffffffffffffffffffff16021790555060208201518160010160006101000a81548173ffffffffffffffffffffffffffffffffffffffff021916908373ffffffffffffffffffffffffffffffffffffffff16021790555060408201518160020160006101000a81548173ffffffffffffffffffffffffffffffffffffffff021916908373ffffffffffffffffffffffffffffffffffffffff16021790555060608201518160020160146101000a81548160ff0219169083151502179055506080820151816003019080519060200190611207929190611eba565b5060a0820151816004019080519060200190611224929190611eba565b5060c0820151816005019080519060200190611241929190611eba565b5090505060036000826000015173ffffffffffffffffffffffffffffffffffffffff1673ffffffffffffffffffffffffffffffffffffffff168152602001908152602001600020600254908060018154018082558091505090600182039060005260206000200160009091929091909150555060046000826020015173ffffffffffffffffffffffffffffffffffffffff1673ffffffffffffffffffffffffffffffffffffffff168152602001908152602001600020600254908060018154018082558091505090600182039060005260206000200160009091929091909150555060016002540160028190555050565b61133a611e39565b600660008381526020019081526020016000206040518060e00160405290816000820160009054906101000a900473ffffffffffffffffffffffffffffffffffffffff1673ffffffffffffffffffffffffffffffffffffffff1673ffffffffffffffffffffffffffffffffffffffff1681526020016001820160009054906101000a900473ffffffffffffffffffffffffffffffffffffffff1673ffffffffffffffffffffffffffffffffffffffff1673ffffffffffffffffffffffffffffffffffffffff1681526020016002820160009054906101000a900473ffffffffffffffffffffffffffffffffffffffff1673ffffffffffffffffffffffffffffffffffffffff1673ffffffffffffffffffffffffffffffffffffffff1681526020016002820160149054906101000a900460ff16151515158152602001600382018054600181600116156101000203166002900480601f01602080910402602001604051908101604052809291908181526020018280546001816001161561010002031660029004801561150e5780601f106114e35761010080835404028352916020019161150e565b820191906000526020600020905b8154815290600101906020018083116114f157829003601f168201915b50505050508152602001600482018054600181600116156101000203166002900480601f0160208091040260200160405190810160405280929190818152602001828054600181600116156101000203166002900480156115b05780601f10611585576101008083540402835291602001916115b0565b820191906000526020600020905b81548152906001019060200180831161159357829003601f168201915b50505050508152602001600582018054600181600116156101000203166002900480601f0160208091040260200160405190810160405280929190818152602001828054600181600116156101000203166002900480156116525780601f1061162757610100808354040283529160200191611652565b820191906000526020600020905b81548152906001019060200180831161163557829003601f168201915b5050505050815250509050919050565b6000809054906101000a900473ffffffffffffffffffffffffffffffffffffffff1681565b6000809054906101000a900473ffffffffffffffffffffffffffffffffffffffff1673ffffffffffffffffffffffffffffffffffffffff163373ffffffffffffffffffffffffffffffffffffffff1614611716576040517f08c379a000000000000000000000000000000000000000000000000000000000815260040161170d90612859565b60405180910390fd5b80600160006101000a81548173ffffffffffffffffffffffffffffffffffffffff021916908373ffffffffffffffffffffffffffffffffffffffff16021790555050565b6060600360008373ffffffffffffffffffffffffffffffffffffffff1673ffffffffffffffffffffffffffffffffffffffff1681526020019081526020016000208054806020026020016040519081016040528092919081815260200182805480156117e557602002820191906000526020600020905b8154815260200190600101908083116117d1575b50505050509050919050565b6117f9611e39565b600660008381526020019081526020016000206040518060e00160405290816000820160009054906101000a900473ffffffffffffffffffffffffffffffffffffffff1673ffffffffffffffffffffffffffffffffffffffff1673ffffffffffffffffffffffffffffffffffffffff1681526020016001820160009054906101000a900473ffffffffffffffffffffffffffffffffffffffff1673ffffffffffffffffffffffffffffffffffffffff1673ffffffffffffffffffffffffffffffffffffffff1681526020016002820160009054906101000a900473ffffffffffffffffffffffffffffffffffffffff1673ffffffffffffffffffffffffffffffffffffffff1673ffffffffffffffffffffffffffffffffffffffff1681526020016002820160149054906101000a900460ff16151515158152602001600382018054600181600116156101000203166002900480601f0160208091040260200160405190810160405280929190818152602001828054600181600116156101000203166002900480156119cd5780601f106119a2576101008083540402835291602001916119cd565b820191906000526020600020905b8154815290600101906020018083116119b057829003601f168201915b50505050508152602001600482018054600181600116156101000203166002900480601f016020809104026020016040519081016040528092919081815260200182805460018160011615610100020316600290048015611a6f5780601f10611a4457610100808354040283529160200191611a6f565b820191906000526020600020905b815481529060010190602001808311611a5257829003601f168201915b50505050508152602001600582018054600181600116156101000203166002900480601f016020809104026020016040519081016040528092919081815260200182805460018160011615610100020316600290048015611b115780601f10611ae657610100808354040283529160200191611b11565b820191906000526020600020905b815481529060010190602001808311611af457829003601f168201915b50505050508152505090506040518060e00160405280826000015173ffffffffffffffffffffffffffffffffffffffff168152602001826020015173ffffffffffffffffffffffffffffffffffffffff168152602001826040015173ffffffffffffffffffffffffffffffffffffffff1681526020018260600151151581526020016040518060400160405280600881526020017f52656465656d656400000000000000000000000000000000000000000000000081525081526020018260a0015181526020018260c001518152506006600084815260200190815260200160002060008201518160000160006101000a81548173ffffffffffffffffffffffffffffffffffffffff021916908373ffffffffffffffffffffffffffffffffffffffff16021790555060208201518160010160006101000a81548173ffffffffffffffffffffffffffffffffffffffff021916908373ffffffffffffffffffffffffffffffffffffffff16021790555060408201518160020160006101000a81548173ffffffffffffffffffffffffffffffffffffffff021916908373ffffffffffffffffffffffffffffffffffffffff16021790555060608201518160020160146101000a81548160ff0219169083151502179055506080820151816003019080519060200190611d04929190611eba565b5060a0820151816004019080519060200190611d21929190611eba565b5060c0820151816005019080519060200190611d3e929190611eba565b509050505050565b60046020528160005260406000208181548110611d5f57fe5b90600052602060002001600091509150505481565b6060600560008373ffffffffffffffffffffffffffffffffffffffff1673ffffffffffffffffffffffffffffffffffffffff168152602001908152602001600020805480602002602001604051908101604052809291908181526020018280548015611dff57602002820191906000526020600020905b815481526020019060010190808311611deb575b50505050509050919050565b60056020528160005260406000208181548110611e2457fe5b90600052602060002001600091509150505481565b6040518060e00160405280600073ffffffffffffffffffffffffffffffffffffffff168152602001600073ffffffffffffffffffffffffffffffffffffffff168152602001600073ffffffffffffffffffffffffffffffffffffffff1681526020016000151581526020016060815260200160608152602001606081525090565b828054600181600116156101000203166002900490600052602060002090601f016020900481019282601f10611efb57805160ff1916838001178555611f29565b82800160010185558215611f29579182015b82811115611f28578251825591602001919060010190611f0d565b5b509050611f369190611f3a565b5090565b611f5c91905b80821115611f58576000816000905550600101611f40565b5090565b90565b600081359050611f6e81612b50565b92915050565b600081359050611f8381612b67565b92915050565b600081519050611f9881612b67565b92915050565b600082601f830112611faf57600080fd5b8135611fc2611fbd826129ed565b6129c0565b91508082526020830160208301858383011115611fde57600080fd5b611fe9838284612afd565b50505092915050565b600060e0828403121561200457600080fd5b61200e60e06129c0565b9050600061201e84828501611f5f565b600083015250602061203284828501611f5f565b602083015250604061204684828501611f5f565b604083015250606061205a84828501611f74565b606083015250608082013567ffffffffffffffff81111561207a57600080fd5b61208684828501611f9e565b60808301525060a082013567ffffffffffffffff8111156120a657600080fd5b6120b284828501611f9e565b60a08301525060c082013567ffffffffffffffff8111156120d257600080fd5b6120de84828501611f9e565b60c08301525092915050565b6000813590506120f981612b7e565b92915050565b60006020828403121561211157600080fd5b600061211f84828501611f5f565b91505092915050565b6000806040838503121561213b57600080fd5b600061214985828601611f5f565b925050602061215a858286016120ea565b9150509250929050565b60006020828403121561217657600080fd5b600061218484828501611f89565b91505092915050565b60006020828403121561219f57600080fd5b600082013567ffffffffffffffff8111156121b957600080fd5b6121c584828501611ff2565b91505092915050565b6000602082840312156121e057600080fd5b60006121ee848285016120ea565b91505092915050565b6000806040838503121561220a57600080fd5b6000612218858286016120ea565b925050602061222985828601611f5f565b9150509250929050565b600061223f838361275a565b60208301905092915050565b61225481612ac7565b82525050565b61226381612a7f565b82525050565b61227281612a7f565b82525050565b600061228382612a29565b61228d8185612a4c565b935061229883612a19565b8060005b838110156122c95781516122b08882612233565b97506122bb83612a3f565b92505060018101905061229c565b5085935050505092915050565b6122df81612a91565b82525050565b6122ee81612a91565b82525050565b60006122ff82612a34565b6123098185612a5d565b9350612319818560208601612b0c565b61232281612b3f565b840191505092915050565b600061233882612a34565b6123428185612a6e565b9350612352818560208601612b0c565b61235b81612b3f565b840191505092915050565b6000612373603983612a6e565b91507f596f7520646f6e2774206861766520746865207072656d697373696f6e20746f60008301527f207472616e73666572206120707265736372697074696f6e21000000000000006020830152604082019050919050565b60006123d9604f83612a6e565b91507f4f6e6c79207468652076657269667920696e737469747574696f6e206861732060008301527f746865207072656d697373696f6e20746f20636f6e6e6563742070726573637260208301527f697074696f6e20746f20757365722100000000000000000000000000000000006040830152606082019050919050565b6000612465600a83612a6e565b91507f706861726d6163697374000000000000000000000000000000000000000000006000830152602082019050919050565b60006124a5600983612a6e565b91507f70687973696369616e00000000000000000000000000000000000000000000006000830152602082019050919050565b60006124e5602b83612a6e565b91507f5468697320696e7375726564206973206e6f742072656769737465726564206f60008301527f72207665726966696564210000000000000000000000000000000000000000006020830152604082019050919050565b600061254b602e83612a6e565b91507f5468697320706861726d6163697374206973206e6f742072656769737465726560008301527f64206f72207665726966696564210000000000000000000000000000000000006020830152604082019050919050565b60006125b1603e83612a6e565b91507f54686520707265736372697074696f6e20796f752074727920746f207472616e60008301527f73666572206973206e6f7420796f757220707265736372697074696f6e2100006020830152604082019050919050565b6000612617600783612a6e565b91507f696e7375726564000000000000000000000000000000000000000000000000006000830152602082019050919050565b6000612657603783612a6e565b91507f596f7520646f6e2774206861766520746865207072656d697373696f6e20746f60008301527f20637265617465206120707265736372697074696f6e210000000000000000006020830152604082019050919050565b600060e0830160008301516126c8600086018261225a565b5060208301516126db602086018261225a565b5060408301516126ee604086018261225a565b50606083015161270160608601826122d6565b506080830151848203608086015261271982826122f4565b91505060a083015184820360a086015261273382826122f4565b91505060c083015184820360c086015261274d82826122f4565b9150508091505092915050565b61276381612abd565b82525050565b61277281612abd565b82525050565b600060208201905061278d6000830184612269565b92915050565b600060e0820190506127a8600083018a612269565b6127b56020830189612269565b6127c26040830188612269565b6127cf60608301876122e5565b81810360808301526127e1818661232d565b905081810360a08301526127f5818561232d565b905081810360c0830152612809818461232d565b905098975050505050505050565b600060208201905081810360008301526128318184612278565b905092915050565b6000602082019050818103600083015261285281612366565b9050919050565b60006020820190508181036000830152612872816123cc565b9050919050565b6000604082019050818103600083015261289281612458565b90506128a16020830184612269565b92915050565b600060408201905081810360008301526128c081612498565b90506128cf602083018461224b565b92915050565b600060208201905081810360008301526128ee816124d8565b9050919050565b6000602082019050818103600083015261290e8161253e565b9050919050565b6000602082019050818103600083015261292e816125a4565b9050919050565b6000604082019050818103600083015261294e8161260a565b905061295d6020830184612269565b92915050565b6000602082019050818103600083015261297c8161264a565b9050919050565b6000602082019050818103600083015261299d81846126b0565b905092915050565b60006020820190506129ba6000830184612769565b92915050565b6000604051905081810181811067ffffffffffffffff821117156129e357600080fd5b8060405250919050565b600067ffffffffffffffff821115612a0457600080fd5b601f19601f8301169050602081019050919050565b6000819050602082019050919050565b600081519050919050565b600081519050919050565b6000602082019050919050565b600082825260208201905092915050565b600082825260208201905092915050565b600082825260208201905092915050565b6000612a8a82612a9d565b9050919050565b60008115159050919050565b600073ffffffffffffffffffffffffffffffffffffffff82169050919050565b6000819050919050565b6000612ad282612ad9565b9050919050565b6000612ae482612aeb565b9050919050565b6000612af682612a9d565b9050919050565b82818337600083830152505050565b60005b83811015612b2a578082015181840152602081019050612b0f565b83811115612b39576000848401525b50505050565b6000601f19601f8301169050919050565b612b5981612a7f565b8114612b6457600080fd5b50565b612b7081612a91565b8114612b7b57600080fd5b50565b612b8781612abd565b8114612b9257600080fd5b5056fea365627a7a72315820e0b78ecbc15842d1b308c793d2bcd07ba0762d80cd1e71d2a5e7eced94e70f6d6c6578706572696d656e74616cf564736f6c63430005100040",
  "source": "/**\n * @author Valentin Mueller <https://github.com/ValentinFFM>\n */\n\n// SPDX-License-Identifier: MIT\npragma solidity >=0.4.21 <0.7.0;\n\n// Experimental function is necessary to allow mappings with structs.\npragma experimental ABIEncoderV2;\n\n// Import of Smart Contract \"User\" to interact with the functionalities of it\nimport \"./User.sol\";\n\n/**\n    The Smart Contract Prescriptions is responsible for storing the information of all prescriptions.\n    Furthermore it provides all necessary functions to interact with prescriptions.\n */\ncontract Prescriptions {\n\n    address public verifying_institution;\n    User UserContract;\n    uint prescription_id;\n\n    // Assigns the creator of the smart contract as verifying institution and sets the first prescription_id.\n    constructor () public {\n        verifying_institution = msg.sender;\n        prescription_id = 0;\n    }\n\n    // Defining struct that contains all variables that are needed for a prescription.\n    struct Prescription {\n        address physician;\n        address insured;\n        address pharmacist;\n\n        bool pharmacistEqualsInsured;\n        string status;\n\n        string medicine_name;\n        string medicine_amount;\n\n        // bool charges_free;\n        // bool charges_mandatory;\n    }\n\n    // For every user group the public keys of the users are mapped to an array containing prescription-ids.\n    mapping(address => uint[]) public prescriptionPhysician;\n    mapping(address => uint[]) public prescriptionInsured;\n    mapping(address => uint[]) public prescriptionPharmacist;\n\n    // Mapping prescription-ids to the corresponding prescription struct.\n    mapping(uint => Prescription) public prescription;\n\n    // Function for connecting the Smart Contract user to the Smart Contract prescription.\n    function establishConnectionToUserSmartContract(address smart_contract_key) public {\n        require(msg.sender == verifying_institution, \"Only the verify institution has the premission to connect prescription to user!\");\n        UserContract = User(smart_contract_key);\n    }\n\n    function newPrescription(Prescription memory prescription_) public{\n        require(UserContract.checkVerification('physician', msg.sender) == true, \"You don't have the premission to create a prescription!\");\n        require(UserContract.checkVerification('insured', prescription_.insured) == true, \"This insured is not registered or verified!\");\n\n        prescription[prescription_id] = Prescription(prescription_.physician, prescription_.insured, prescription_.pharmacist, prescription_.pharmacistEqualsInsured, 'Patient', prescription_.medicine_name, prescription_.medicine_amount);\n        prescriptionPhysician[prescription_.physician].push(prescription_id);\n        prescriptionInsured[prescription_.insured].push(prescription_id);\n        prescription_id = prescription_id + 1;\n    }\n\n    function transferPrescriptionToPharmacist(uint prescription_id_, address pharmacist) public {\n        Prescription memory prescription_ = prescription[prescription_id_];\n\n        require(msg.sender == prescription_.insured, \"The prescription you try to transfer is not your prescription!\");\n        require(UserContract.checkVerification('insured', prescription_.insured) == true, \"You don't have the premission to transfer a prescription!\");\n        require(UserContract.checkVerification('pharmacist', pharmacist) == true, \"This pharmacist is not registered or verified!\");\n    \n        prescription[prescription_id_] = Prescription(prescription_.physician, prescription_.insured, pharmacist, prescription_.pharmacistEqualsInsured, 'Pharmacist', prescription_.medicine_name, prescription_.medicine_amount);\n        prescriptionPharmacist[pharmacist].push(prescription_id_);\n\n        // bool swap = false;\n        // uint prescriptionInsuredLength;\n        // prescriptionInsuredLength = prescriptionInsured[msg.sender].length;\n\n        // Swaps the last prescription from the array of the insured with the prescription, that is sent to the pharmacist.\n        // for(uint i=0; i < prescriptionInsuredLength; i++){\n        //     if(prescription_id_ == prescriptionInsured[msg.sender][i]){\n        //         uint transferedPrescription = prescriptionInsured[msg.sender][i];\n        //         prescriptionInsured[msg.sender][i] = prescriptionInsured[msg.sender][prescriptionInsuredLength-1];\n        //         prescriptionInsured[msg.sender][prescriptionInsuredLength-1] = transferedPrescription;\n        //         swap = true;\n        //     }\n        // } \n        \n        // Last prescription (which was previously swapped) gets deleted from the array of the insured to prevent that the insured can send a prescription twice.\n        // if(swap == true){\n        //     prescriptionInsured[msg.sender].pop();\n        // }\n    }\n\n    function redeemPrescription(uint prescription_id_) public {\n        Prescription memory prescription_ = prescription[prescription_id_];\n        prescription[prescription_id_] = Prescription(prescription_.physician, prescription_.insured, prescription_.pharmacist, prescription_.pharmacistEqualsInsured, 'Redeemed', prescription_.medicine_name, prescription_.medicine_amount);\n\n        // bool swap = false;\n        // uint prescriptionPharmacistLength;\n        // prescriptionPharmacistLength = prescriptionPharmacist[msg.sender].length;\n\n        // Swaps the last prescription from the array of the pharmacist with the prescription, that should be deleted.\n        // for(uint i=0; i < prescriptionPharmacistLength; i++){\n        //     if(prescription_id_ == prescriptionPharmacist[msg.sender][i]){\n        //         prescriptionPharmacist[msg.sender][i] = prescriptionPharmacist[msg.sender][prescriptionPharmacistLength-1];\n        //         prescriptionPharmacist[msg.sender].pop();\n        //         swap = true;\n        //     }\n        // } \n\n        // Last prescription (which was previously swapped) gets deleted from the array of the pharmacist to prevent that the pharmacist can redeem a prescription twice.\n        // if(swap == true){\n        //     prescriptionPharmacist[msg.sender].pop();\n        // }\n    }\n\n    function getPrescription(uint prescription_id_) public returns (Prescription memory){\n        return prescription[prescription_id_];\n    }\n\n    function getPhysicianPrescriptionsIDs(address public_key) public returns (uint[] memory){\n        return prescriptionPhysician[public_key];\n    }\n\n    function getInsuredPrescriptionsIDs(address public_key) public returns (uint[] memory){\n        return prescriptionInsured[public_key];\n    }\n\n    function getPharmacistPrescriptionsIDs(address public_key) public returns (uint[] memory){\n        return prescriptionPharmacist[public_key];\n    }\n}\n",
  "sourcePath": "/Users/valentin/Documents/Programmdaten/Visual_Studio/5_Semester/Integrationsseminar/blockchain_e_prescription/contracts/Prescriptions.sol",
  "compiler": {
    "name": "solc",
    "version": "0.5.16+commit.9c3226ce.Emscripten.clang"
  },
  "schemaVersion": "3.3.2",
  "updatedAt": "2021-01-13T20:23:50.806Z",
  "networkType": "ethereum",
  "devdoc": {
    "methods": {}
  },
  "userdoc": {
    "methods": {},
    "notice": "The Smart Contract Prescriptions is responsible for storing the information of all prescriptions. Furthermore it provides all necessary functions to interact with prescriptions."
  }
}