{
  "contractName": "Prescriptions",
  "abi": [
    {
      "inputs": [],
      "payable": false,
      "stateMutability": "nonpayable",
      "type": "constructor"
    },
    {
      "constant": true,
      "inputs": [
        {
          "internalType": "uint256",
          "name": "",
          "type": "uint256"
        }
      ],
      "name": "prescription",
      "outputs": [
        {
          "internalType": "address",
          "name": "physician",
          "type": "address"
        },
        {
          "internalType": "address",
          "name": "insured",
          "type": "address"
        },
        {
          "internalType": "address",
          "name": "pharmacist",
          "type": "address"
        },
        {
          "internalType": "bool",
          "name": "pharmacistEqualsInsured",
          "type": "bool"
        },
        {
          "internalType": "string",
          "name": "medicine_name",
          "type": "string"
        },
        {
          "internalType": "string",
          "name": "medicine_amount",
          "type": "string"
        }
      ],
      "payable": false,
      "stateMutability": "view",
      "type": "function"
    },
    {
      "constant": true,
      "inputs": [
        {
          "internalType": "address",
          "name": "",
          "type": "address"
        },
        {
          "internalType": "uint256",
          "name": "",
          "type": "uint256"
        }
      ],
      "name": "prescriptionInsured",
      "outputs": [
        {
          "internalType": "uint256",
          "name": "",
          "type": "uint256"
        }
      ],
      "payable": false,
      "stateMutability": "view",
      "type": "function"
    },
    {
      "constant": true,
      "inputs": [
        {
          "internalType": "address",
          "name": "",
          "type": "address"
        },
        {
          "internalType": "uint256",
          "name": "",
          "type": "uint256"
        }
      ],
      "name": "prescriptionPharmacist",
      "outputs": [
        {
          "internalType": "uint256",
          "name": "",
          "type": "uint256"
        }
      ],
      "payable": false,
      "stateMutability": "view",
      "type": "function"
    },
    {
      "constant": true,
      "inputs": [],
      "name": "verifying_institution",
      "outputs": [
        {
          "internalType": "address",
          "name": "",
          "type": "address"
        }
      ],
      "payable": false,
      "stateMutability": "view",
      "type": "function"
    },
    {
      "constant": false,
      "inputs": [
        {
          "internalType": "address",
          "name": "smart_contract_key",
          "type": "address"
        }
      ],
      "name": "establishConnectionToUserSmartContract",
      "outputs": [],
      "payable": false,
      "stateMutability": "nonpayable",
      "type": "function"
    },
    {
      "constant": false,
      "inputs": [
        {
          "components": [
            {
              "internalType": "address",
              "name": "physician",
              "type": "address"
            },
            {
              "internalType": "address",
              "name": "insured",
              "type": "address"
            },
            {
              "internalType": "address",
              "name": "pharmacist",
              "type": "address"
            },
            {
              "internalType": "bool",
              "name": "pharmacistEqualsInsured",
              "type": "bool"
            },
            {
              "internalType": "string",
              "name": "medicine_name",
              "type": "string"
            },
            {
              "internalType": "string",
              "name": "medicine_amount",
              "type": "string"
            }
          ],
          "internalType": "struct Prescriptions.Prescription",
          "name": "prescription_",
          "type": "tuple"
        }
      ],
      "name": "newPrescription",
      "outputs": [],
      "payable": false,
      "stateMutability": "nonpayable",
      "type": "function"
    },
    {
      "constant": false,
      "inputs": [
        {
          "components": [
            {
              "internalType": "address",
              "name": "physician",
              "type": "address"
            },
            {
              "internalType": "address",
              "name": "insured",
              "type": "address"
            },
            {
              "internalType": "address",
              "name": "pharmacist",
              "type": "address"
            },
            {
              "internalType": "bool",
              "name": "pharmacistEqualsInsured",
              "type": "bool"
            },
            {
              "internalType": "string",
              "name": "medicine_name",
              "type": "string"
            },
            {
              "internalType": "string",
              "name": "medicine_amount",
              "type": "string"
            }
          ],
          "internalType": "struct Prescriptions.Prescription",
          "name": "prescription_",
          "type": "tuple"
        },
        {
          "internalType": "uint256",
          "name": "prescription_id_",
          "type": "uint256"
        }
      ],
      "name": "transferPrescriptionToPharmacist",
      "outputs": [],
      "payable": false,
      "stateMutability": "nonpayable",
      "type": "function"
    },
    {
      "constant": false,
      "inputs": [
        {
          "internalType": "uint256",
          "name": "prescription_id_",
          "type": "uint256"
        }
      ],
      "name": "getPrescription",
      "outputs": [
        {
          "components": [
            {
              "internalType": "address",
              "name": "physician",
              "type": "address"
            },
            {
              "internalType": "address",
              "name": "insured",
              "type": "address"
            },
            {
              "internalType": "address",
              "name": "pharmacist",
              "type": "address"
            },
            {
              "internalType": "bool",
              "name": "pharmacistEqualsInsured",
              "type": "bool"
            },
            {
              "internalType": "string",
              "name": "medicine_name",
              "type": "string"
            },
            {
              "internalType": "string",
              "name": "medicine_amount",
              "type": "string"
            }
          ],
          "internalType": "struct Prescriptions.Prescription",
          "name": "",
          "type": "tuple"
        }
      ],
      "payable": false,
      "stateMutability": "nonpayable",
      "type": "function"
    },
    {
      "constant": false,
      "inputs": [
        {
          "internalType": "address",
          "name": "public_key",
          "type": "address"
        }
      ],
      "name": "getInsuredPrescriptionsIDs",
      "outputs": [
        {
          "internalType": "uint256[]",
          "name": "",
          "type": "uint256[]"
        }
      ],
      "payable": false,
      "stateMutability": "nonpayable",
      "type": "function"
    }
  ],
  "bytecode": "0x608060405234801561001057600080fd5b50336000806101000a81548173ffffffffffffffffffffffffffffffffffffffff021916908373ffffffffffffffffffffffffffffffffffffffff1602179055506000600281905550611d24806100686000396000f3fe608060405234801561001057600080fd5b50600436106100935760003560e01c806381eceeb71161006657806381eceeb714610149578063828f362c14610167578063a612729314610183578063b73c03f81461019f578063fb589cdd146101cf57610093565b80631ea72e8c14610098578063287eda05146100c85780636f16af10146100fd5780637649d20e1461012d575b600080fd5b6100b260048036036100ad9190810190611328565b6101ff565b6040516100bf9190611983565b60405180910390f35b6100e260048036036100dd919081019061144b565b610296565b6040516100f496959493929190611914565b60405180910390f35b6101176004803603610112919081019061144b565b61046f565b6040516101249190611acf565b60405180910390f35b610147600480360361014291908101906113b6565b6106fd565b005b610151610b31565b60405161015e91906118f9565b60405180910390f35b610181600480360361017c91908101906113f7565b610b56565b005b61019d60048036036101989190810190611328565b610f66565b005b6101b960048036036101b49190810190611351565b611039565b6040516101c69190611af1565b60405180910390f35b6101e960048036036101e49190810190611351565b611067565b6040516101f69190611af1565b60405180910390f35b6060600460008373ffffffffffffffffffffffffffffffffffffffff1673ffffffffffffffffffffffffffffffffffffffff16815260200190815260200160002080548060200260200160405190810160405280929190818152602001828054801561028a57602002820191906000526020600020905b815481526020019060010190808311610276575b50505050509050919050565b60036020528060005260406000206000915090508060000160009054906101000a900473ffffffffffffffffffffffffffffffffffffffff16908060010160009054906101000a900473ffffffffffffffffffffffffffffffffffffffff16908060020160009054906101000a900473ffffffffffffffffffffffffffffffffffffffff16908060020160149054906101000a900460ff1690806003018054600181600116156101000203166002900480601f0160208091040260200160405190810160405280929190818152602001828054600181600116156101000203166002900480156103c75780601f1061039c576101008083540402835291602001916103c7565b820191906000526020600020905b8154815290600101906020018083116103aa57829003601f168201915b505050505090806004018054600181600116156101000203166002900480601f0160208091040260200160405190810160405280929190818152602001828054600181600116156101000203166002900480156104655780601f1061043a57610100808354040283529160200191610465565b820191906000526020600020905b81548152906001019060200180831161044857829003601f168201915b5050505050905086565b610477611095565b600360008381526020019081526020016000206040518060c00160405290816000820160009054906101000a900473ffffffffffffffffffffffffffffffffffffffff1673ffffffffffffffffffffffffffffffffffffffff1673ffffffffffffffffffffffffffffffffffffffff1681526020016001820160009054906101000a900473ffffffffffffffffffffffffffffffffffffffff1673ffffffffffffffffffffffffffffffffffffffff1673ffffffffffffffffffffffffffffffffffffffff1681526020016002820160009054906101000a900473ffffffffffffffffffffffffffffffffffffffff1673ffffffffffffffffffffffffffffffffffffffff1673ffffffffffffffffffffffffffffffffffffffff1681526020016002820160149054906101000a900460ff16151515158152602001600382018054600181600116156101000203166002900480601f01602080910402602001604051908101604052809291908181526020018280546001816001161561010002031660029004801561064b5780601f106106205761010080835404028352916020019161064b565b820191906000526020600020905b81548152906001019060200180831161062e57829003601f168201915b50505050508152602001600482018054600181600116156101000203166002900480601f0160208091040260200160405190810160405280929190818152602001828054600181600116156101000203166002900480156106ed5780601f106106c2576101008083540402835291602001916106ed565b820191906000526020600020905b8154815290600101906020018083116106d057829003601f168201915b5050505050815250509050919050565b60011515600160009054906101000a900473ffffffffffffffffffffffffffffffffffffffff1673ffffffffffffffffffffffffffffffffffffffff1663f7350e60336040518263ffffffff1660e01b815260040161075c9190611a13565b60206040518083038186803b15801561077457600080fd5b505afa158015610788573d6000803e3d6000fd5b505050506040513d601f19601f820116820180604052506107ac919081019061138d565b1515146107ee576040517f08c379a00000000000000000000000000000000000000000000000000000000081526004016107e590611aaf565b60405180910390fd5b60011515600160009054906101000a900473ffffffffffffffffffffffffffffffffffffffff1673ffffffffffffffffffffffffffffffffffffffff1663f7350e6083602001516040518263ffffffff1660e01b81526004016108519190611a81565b60206040518083038186803b15801561086957600080fd5b505afa15801561087d573d6000803e3d6000fd5b505050506040513d601f19601f820116820180604052506108a1919081019061138d565b1515146108e3576040517f08c379a00000000000000000000000000000000000000000000000000000000081526004016108da90611a41565b60405180910390fd5b6040518060c00160405280826000015173ffffffffffffffffffffffffffffffffffffffff168152602001826020015173ffffffffffffffffffffffffffffffffffffffff168152602001826040015173ffffffffffffffffffffffffffffffffffffffff168152602001826060015115158152602001826080015181526020018260a0015181525060036000600254815260200190815260200160002060008201518160000160006101000a81548173ffffffffffffffffffffffffffffffffffffffff021916908373ffffffffffffffffffffffffffffffffffffffff16021790555060208201518160010160006101000a81548173ffffffffffffffffffffffffffffffffffffffff021916908373ffffffffffffffffffffffffffffffffffffffff16021790555060408201518160020160006101000a81548173ffffffffffffffffffffffffffffffffffffffff021916908373ffffffffffffffffffffffffffffffffffffffff16021790555060608201518160020160146101000a81548160ff0219169083151502179055506080820151816003019080519060200190610a9292919061110f565b5060a0820151816004019080519060200190610aaf92919061110f565b5090505060046000826020015173ffffffffffffffffffffffffffffffffffffffff1673ffffffffffffffffffffffffffffffffffffffff168152602001908152602001600020600254908060018154018082558091505090600182039060005260206000200160009091929091909150555060016002540160028190555050565b6000809054906101000a900473ffffffffffffffffffffffffffffffffffffffff1681565b80600460003373ffffffffffffffffffffffffffffffffffffffff1673ffffffffffffffffffffffffffffffffffffffff1681526020019081526020016000208054905010610bda576040517f08c379a0000000000000000000000000000000000000000000000000000000008152600401610bd1906119c5565b60405180910390fd5b60011515600160009054906101000a900473ffffffffffffffffffffffffffffffffffffffff1673ffffffffffffffffffffffffffffffffffffffff1663f7350e6084604001516040518263ffffffff1660e01b8152600401610c3d91906119e5565b60206040518083038186803b158015610c5557600080fd5b505afa158015610c69573d6000803e3d6000fd5b505050506040513d601f19601f82011682018060405250610c8d919081019061138d565b151514610ccf576040517f08c379a0000000000000000000000000000000000000000000000000000000008152600401610cc690611a61565b60405180910390fd5b6040518060c00160405280836000015173ffffffffffffffffffffffffffffffffffffffff168152602001836020015173ffffffffffffffffffffffffffffffffffffffff168152602001836040015173ffffffffffffffffffffffffffffffffffffffff168152602001836060015115158152602001836080015181526020018360a001518152506003600083815260200190815260200160002060008201518160000160006101000a81548173ffffffffffffffffffffffffffffffffffffffff021916908373ffffffffffffffffffffffffffffffffffffffff16021790555060208201518160010160006101000a81548173ffffffffffffffffffffffffffffffffffffffff021916908373ffffffffffffffffffffffffffffffffffffffff16021790555060408201518160020160006101000a81548173ffffffffffffffffffffffffffffffffffffffff021916908373ffffffffffffffffffffffffffffffffffffffff16021790555060608201518160020160146101000a81548160ff0219169083151502179055506080820151816003019080519060200190610e7c92919061110f565b5060a0820151816004019080519060200190610e9992919061110f565b5090505060056000836040015173ffffffffffffffffffffffffffffffffffffffff1673ffffffffffffffffffffffffffffffffffffffff168152602001908152602001600020819080600181540180825580915050906001820390600052602060002001600090919290919091505550600460003373ffffffffffffffffffffffffffffffffffffffff1673ffffffffffffffffffffffffffffffffffffffff1681526020019081526020016000208181548110610f5457fe5b90600052602060002001600090555050565b6000809054906101000a900473ffffffffffffffffffffffffffffffffffffffff1673ffffffffffffffffffffffffffffffffffffffff163373ffffffffffffffffffffffffffffffffffffffff1614610ff5576040517f08c379a0000000000000000000000000000000000000000000000000000000008152600401610fec906119a5565b60405180910390fd5b80600160006101000a81548173ffffffffffffffffffffffffffffffffffffffff021916908373ffffffffffffffffffffffffffffffffffffffff16021790555050565b6004602052816000526040600020818154811061105257fe5b90600052602060002001600091509150505481565b6005602052816000526040600020818154811061108057fe5b90600052602060002001600091509150505481565b6040518060c00160405280600073ffffffffffffffffffffffffffffffffffffffff168152602001600073ffffffffffffffffffffffffffffffffffffffff168152602001600073ffffffffffffffffffffffffffffffffffffffff16815260200160001515815260200160608152602001606081525090565b828054600181600116156101000203166002900490600052602060002090601f016020900481019282601f1061115057805160ff191683800117855561117e565b8280016001018555821561117e579182015b8281111561117d578251825591602001919060010190611162565b5b50905061118b919061118f565b5090565b6111b191905b808211156111ad576000816000905550600101611195565b5090565b90565b6000813590506111c381611c9c565b92915050565b6000813590506111d881611cb3565b92915050565b6000815190506111ed81611cb3565b92915050565b600082601f83011261120457600080fd5b813561121761121282611b39565b611b0c565b9150808252602083016020830185838301111561123357600080fd5b61123e838284611c49565b50505092915050565b600060c0828403121561125957600080fd5b61126360c0611b0c565b90506000611273848285016111b4565b6000830152506020611287848285016111b4565b602083015250604061129b848285016111b4565b60408301525060606112af848285016111c9565b606083015250608082013567ffffffffffffffff8111156112cf57600080fd5b6112db848285016111f3565b60808301525060a082013567ffffffffffffffff8111156112fb57600080fd5b611307848285016111f3565b60a08301525092915050565b60008135905061132281611cca565b92915050565b60006020828403121561133a57600080fd5b6000611348848285016111b4565b91505092915050565b6000806040838503121561136457600080fd5b6000611372858286016111b4565b925050602061138385828601611313565b9150509250929050565b60006020828403121561139f57600080fd5b60006113ad848285016111de565b91505092915050565b6000602082840312156113c857600080fd5b600082013567ffffffffffffffff8111156113e257600080fd5b6113ee84828501611247565b91505092915050565b6000806040838503121561140a57600080fd5b600083013567ffffffffffffffff81111561142457600080fd5b61143085828601611247565b925050602061144185828601611313565b9150509250929050565b60006020828403121561145d57600080fd5b600061146b84828501611313565b91505092915050565b600061148083836118db565b60208301905092915050565b61149581611c13565b82525050565b6114a481611bcb565b82525050565b6114b381611bcb565b82525050565b60006114c482611b75565b6114ce8185611b98565b93506114d983611b65565b8060005b8381101561150a5781516114f18882611474565b97506114fc83611b8b565b9250506001810190506114dd565b5085935050505092915050565b61152081611bdd565b82525050565b61152f81611bdd565b82525050565b600061154082611b80565b61154a8185611ba9565b935061155a818560208601611c58565b61156381611c8b565b840191505092915050565b600061157982611b80565b6115838185611bba565b9350611593818560208601611c58565b61159c81611c8b565b840191505092915050565b60006115b4604f83611bba565b91507f4f6e6c79207468652076657269667920696e737469747574696f6e206861732060008301527f746865207072656d697373696f6e20746f20636f6e6e6563742070726573637260208301527f697074696f6e20746f20757365722100000000000000000000000000000000006040830152606082019050919050565b6000611640602983611bba565b91507f54686572652773206e6f20707265736372697074696f6e20756e64657220746860008301527f6174206e756d62657200000000000000000000000000000000000000000000006020830152604082019050919050565b60006116a6600983611bba565b91507f70687973696369616e00000000000000000000000000000000000000000000006000830152602082019050919050565b60006116e6602b83611bba565b91507f5468697320696e7375726564206973206e6f742072656769737465726564206f60008301527f72207665726966696564210000000000000000000000000000000000000000006020830152604082019050919050565b600061174c602e83611bba565b91507f5468697320706861726d6163697374206973206e6f742072656769737465726560008301527f64206f72207665726966696564210000000000000000000000000000000000006020830152604082019050919050565b60006117b2600783611bba565b91507f696e7375726564000000000000000000000000000000000000000000000000006000830152602082019050919050565b60006117f2603783611bba565b91507f596f7520646f6e2774206861766520746865207072656d697373696f6e20746f60008301527f20637265617465206120707265736372697074696f6e210000000000000000006020830152604082019050919050565b600060c083016000830151611863600086018261149b565b506020830151611876602086018261149b565b506040830151611889604086018261149b565b50606083015161189c6060860182611517565b50608083015184820360808601526118b48282611535565b91505060a083015184820360a08601526118ce8282611535565b9150508091505092915050565b6118e481611c09565b82525050565b6118f381611c09565b82525050565b600060208201905061190e60008301846114aa565b92915050565b600060c08201905061192960008301896114aa565b61193660208301886114aa565b61194360408301876114aa565b6119506060830186611526565b8181036080830152611962818561156e565b905081810360a0830152611976818461156e565b9050979650505050505050565b6000602082019050818103600083015261199d81846114b9565b905092915050565b600060208201905081810360008301526119be816115a7565b9050919050565b600060208201905081810360008301526119de81611633565b9050919050565b600060408201905081810360008301526119fe81611699565b9050611a0d60208301846114aa565b92915050565b60006040820190508181036000830152611a2c81611699565b9050611a3b602083018461148c565b92915050565b60006020820190508181036000830152611a5a816116d9565b9050919050565b60006020820190508181036000830152611a7a8161173f565b9050919050565b60006040820190508181036000830152611a9a816117a5565b9050611aa960208301846114aa565b92915050565b60006020820190508181036000830152611ac8816117e5565b9050919050565b60006020820190508181036000830152611ae9818461184b565b905092915050565b6000602082019050611b0660008301846118ea565b92915050565b6000604051905081810181811067ffffffffffffffff82111715611b2f57600080fd5b8060405250919050565b600067ffffffffffffffff821115611b5057600080fd5b601f19601f8301169050602081019050919050565b6000819050602082019050919050565b600081519050919050565b600081519050919050565b6000602082019050919050565b600082825260208201905092915050565b600082825260208201905092915050565b600082825260208201905092915050565b6000611bd682611be9565b9050919050565b60008115159050919050565b600073ffffffffffffffffffffffffffffffffffffffff82169050919050565b6000819050919050565b6000611c1e82611c25565b9050919050565b6000611c3082611c37565b9050919050565b6000611c4282611be9565b9050919050565b82818337600083830152505050565b60005b83811015611c76578082015181840152602081019050611c5b565b83811115611c85576000848401525b50505050565b6000601f19601f8301169050919050565b611ca581611bcb565b8114611cb057600080fd5b50565b611cbc81611bdd565b8114611cc757600080fd5b50565b611cd381611c09565b8114611cde57600080fd5b5056fea365627a7a72315820c77d13c13b40f753351402585188532231c50d2bc19d9f7f4890d33346710ee86c6578706572696d656e74616cf564736f6c63430005100040",
  "source": "// SPDX-License-Identifier: MIT\npragma solidity >=0.4.21 <0.7.0;\npragma experimental ABIEncoderV2;\n\nimport \"./User.sol\";\n\ncontract Prescriptions {\n    address public verifying_institution;\n    User UserContract;\n    uint prescription_id;\n\n    constructor () public {\n        verifying_institution = msg.sender;\n        prescription_id = 0;\n    }\n\n    struct Prescription {\n        address physician;\n        address insured;\n        address pharmacist;\n\n        bool pharmacistEqualsInsured;\n\n        string medicine_name;\n        string medicine_amount;\n\n        // bool charges_free;\n        // bool charges_mandatory;\n    }\n\n    mapping(uint => Prescription) public prescription;\n    mapping(address => uint[]) public prescriptionInsured;\n    mapping(address => uint[]) public prescriptionPharmacist;\n    \n    function establishConnectionToUserSmartContract(address smart_contract_key) public {\n        require(msg.sender == verifying_institution, \"Only the verify institution has the premission to connect prescription to user!\");\n        UserContract = User(smart_contract_key);\n    }\n\n    function newPrescription(Prescription memory prescription_) public{\n        require(UserContract.checkVerification('physician', msg.sender) == true, \"You don't have the premission to create a prescription!\");\n        require(UserContract.checkVerification('insured', prescription_.insured) == true, \"This insured is not registered or verified!\");\n\n        prescription[prescription_id] = Prescription(prescription_.physician, prescription_.insured, prescription_.pharmacist, prescription_.pharmacistEqualsInsured, prescription_.medicine_name, prescription_.medicine_amount);\n        prescriptionInsured[prescription_.insured].push(prescription_id);\n        prescription_id = prescription_id + 1;\n    }\n\n    function transferPrescriptionToPharmacist(Prescription memory prescription_, uint prescription_id_) public {\n        require(prescriptionInsured[msg.sender].length < prescription_id_, \"There's no prescription under that number\");\n        require(UserContract.checkVerification('physician', prescription_.pharmacist) == true, \"This pharmacist is not registered or verified!\");\n\n        prescription[prescription_id_] = Prescription(prescription_.physician, prescription_.insured, prescription_.pharmacist, prescription_.pharmacistEqualsInsured, prescription_.medicine_name, prescription_.medicine_amount);\n        prescriptionPharmacist[prescription_.pharmacist].push(prescription_id_);\n        delete prescriptionInsured[msg.sender][prescription_id_];\n    }\n\n    function getPrescription(uint prescription_id_) public returns (Prescription memory){\n        return prescription[prescription_id_];\n    }\n\n    function getInsuredPrescriptionsIDs(address public_key) public returns (uint[] memory){\n        return prescriptionInsured[public_key];\n    }\n}\n",
  "sourcePath": "/Users/valentin/Documents/Programmdaten/Visual_Studio/5_Semester/Integrationsseminar/blockchain_e_prescription/contracts/Prescriptions.sol",
  "compiler": {
    "name": "solc",
    "version": "0.5.16+commit.9c3226ce.Emscripten.clang"
  },
  "schemaVersion": "3.3.2",
  "updatedAt": "2020-12-30T16:18:06.691Z",
  "networkType": "ethereum",
  "devdoc": {
    "methods": {}
  },
  "userdoc": {
    "methods": {}
  }
}