{
  "contractName": "User",
  "abi": [
    {
      "constant": true,
      "inputs": [
        {
          "internalType": "string",
          "name": "",
          "type": "string"
        }
      ],
      "name": "insureds",
      "outputs": [
        {
          "internalType": "uint256",
          "name": "insurance_number",
          "type": "uint256"
        },
        {
          "internalType": "uint256",
          "name": "insured_status",
          "type": "uint256"
        },
        {
          "internalType": "string",
          "name": "surname",
          "type": "string"
        },
        {
          "internalType": "string",
          "name": "name",
          "type": "string"
        },
        {
          "internalType": "string",
          "name": "birth_date",
          "type": "string"
        },
        {
          "internalType": "string",
          "name": "street",
          "type": "string"
        },
        {
          "internalType": "string",
          "name": "street_number",
          "type": "string"
        },
        {
          "internalType": "uint256",
          "name": "post_code",
          "type": "uint256"
        },
        {
          "internalType": "string",
          "name": "city",
          "type": "string"
        }
      ],
      "payable": false,
      "stateMutability": "view",
      "type": "function"
    },
    {
      "constant": true,
      "inputs": [
        {
          "internalType": "uint256",
          "name": "",
          "type": "uint256"
        }
      ],
      "name": "physicians",
      "outputs": [
        {
          "internalType": "uint256",
          "name": "business_number",
          "type": "uint256"
        },
        {
          "internalType": "string",
          "name": "job_title",
          "type": "string"
        },
        {
          "internalType": "string",
          "name": "surname",
          "type": "string"
        },
        {
          "internalType": "string",
          "name": "name",
          "type": "string"
        },
        {
          "internalType": "string",
          "name": "street",
          "type": "string"
        },
        {
          "internalType": "string",
          "name": "street_number",
          "type": "string"
        },
        {
          "internalType": "uint256",
          "name": "post_code",
          "type": "uint256"
        },
        {
          "internalType": "string",
          "name": "city",
          "type": "string"
        },
        {
          "internalType": "string",
          "name": "telephone_number",
          "type": "string"
        }
      ],
      "payable": false,
      "stateMutability": "view",
      "type": "function"
    },
    {
      "constant": false,
      "inputs": [
        {
          "internalType": "string",
          "name": "insured_number_",
          "type": "string"
        },
        {
          "components": [
            {
              "internalType": "uint256",
              "name": "insurance_number",
              "type": "uint256"
            },
            {
              "internalType": "uint256",
              "name": "insured_status",
              "type": "uint256"
            },
            {
              "internalType": "string",
              "name": "surname",
              "type": "string"
            },
            {
              "internalType": "string",
              "name": "name",
              "type": "string"
            },
            {
              "internalType": "string",
              "name": "birth_date",
              "type": "string"
            },
            {
              "internalType": "string",
              "name": "street",
              "type": "string"
            },
            {
              "internalType": "string",
              "name": "street_number",
              "type": "string"
            },
            {
              "internalType": "uint256",
              "name": "post_code",
              "type": "uint256"
            },
            {
              "internalType": "string",
              "name": "city",
              "type": "string"
            }
          ],
          "internalType": "struct User.Insured",
          "name": "insured_",
          "type": "tuple"
        }
      ],
      "name": "addNewInsured",
      "outputs": [],
      "payable": false,
      "stateMutability": "nonpayable",
      "type": "function"
    },
    {
      "constant": false,
      "inputs": [
        {
          "internalType": "uint256",
          "name": "physician_number_",
          "type": "uint256"
        },
        {
          "components": [
            {
              "internalType": "uint256",
              "name": "business_number",
              "type": "uint256"
            },
            {
              "internalType": "string",
              "name": "job_title",
              "type": "string"
            },
            {
              "internalType": "string",
              "name": "surname",
              "type": "string"
            },
            {
              "internalType": "string",
              "name": "name",
              "type": "string"
            },
            {
              "internalType": "string",
              "name": "street",
              "type": "string"
            },
            {
              "internalType": "string",
              "name": "street_number",
              "type": "string"
            },
            {
              "internalType": "uint256",
              "name": "post_code",
              "type": "uint256"
            },
            {
              "internalType": "string",
              "name": "city",
              "type": "string"
            },
            {
              "internalType": "string",
              "name": "telephone_number",
              "type": "string"
            }
          ],
          "internalType": "struct User.Physician",
          "name": "physician_",
          "type": "tuple"
        }
      ],
      "name": "addNewPhysician",
      "outputs": [],
      "payable": false,
      "stateMutability": "nonpayable",
      "type": "function"
    },
    {
      "constant": true,
      "inputs": [
        {
          "internalType": "string",
          "name": "insured_number_",
          "type": "string"
        }
      ],
      "name": "checkInsuredExistance",
      "outputs": [
        {
          "internalType": "bool",
          "name": "",
          "type": "bool"
        }
      ],
      "payable": false,
      "stateMutability": "view",
      "type": "function"
    },
    {
      "constant": true,
      "inputs": [
        {
          "internalType": "uint256",
          "name": "physician_number_",
          "type": "uint256"
        }
      ],
      "name": "checkPhysicianExistance",
      "outputs": [
        {
          "internalType": "bool",
          "name": "",
          "type": "bool"
        }
      ],
      "payable": false,
      "stateMutability": "view",
      "type": "function"
    }
  ],
  "bytecode": "0x608060405234801561001057600080fd5b50611666806100206000396000f3fe608060405234801561001057600080fd5b50600436106100625760003560e01c8063016b85bd14610067578063382a6ea21461008357806345b02883146100bb57806389b6683e146100eb578063e0a3f8bf14610107578063fcf7a03d1461013f575b600080fd5b610081600480360361007c9190810190611269565b61016f565b005b61009d60048036036100989190810190611152565b6102ce565b6040516100b299989796959493929190611435565b60405180910390f35b6100d560048036036100d09190810190611240565b6106c2565b6040516100e2919061135c565b60405180910390f35b610105600480360361010091908101906111d4565b6106f5565b005b610121600480360361011c9190810190611240565b61084c565b60405161013699989796959493929190611377565b60405180910390f35b61015960048036036101549190810190611193565b610cc2565b604051610166919061135c565b60405180910390f35b60405180610120016040528082600001518152602001826020015181526020018260400151815260200182606001518152602001826080015181526020018260a0015181526020018260c0015181526020018260e0015181526020018261010001518152506001600084815260200190815260200160002060008201518160000155602082015181600101908051906020019061020d929190610d00565b50604082015181600201908051906020019061022a929190610d00565b506060820151816003019080519060200190610247929190610d00565b506080820151816004019080519060200190610264929190610d00565b5060a0820151816005019080519060200190610281929190610d00565b5060c0820151816006015560e08201518160070190805190602001906102a8929190610d00565b506101008201518160080190805190602001906102c6929190610d00565b509050505050565b600081805160208101820180518482526020830160208501208183528095505050505050600091509050806000015490806001015490806002018054600181600116156101000203166002900480601f01602080910402602001604051908101604052809291908181526020018280546001816001161561010002031660029004801561039c5780601f106103715761010080835404028352916020019161039c565b820191906000526020600020905b81548152906001019060200180831161037f57829003601f168201915b505050505090806003018054600181600116156101000203166002900480601f01602080910402602001604051908101604052809291908181526020018280546001816001161561010002031660029004801561043a5780601f1061040f5761010080835404028352916020019161043a565b820191906000526020600020905b81548152906001019060200180831161041d57829003601f168201915b505050505090806004018054600181600116156101000203166002900480601f0160208091040260200160405190810160405280929190818152602001828054600181600116156101000203166002900480156104d85780601f106104ad576101008083540402835291602001916104d8565b820191906000526020600020905b8154815290600101906020018083116104bb57829003601f168201915b505050505090806005018054600181600116156101000203166002900480601f0160208091040260200160405190810160405280929190818152602001828054600181600116156101000203166002900480156105765780601f1061054b57610100808354040283529160200191610576565b820191906000526020600020905b81548152906001019060200180831161055957829003601f168201915b505050505090806006018054600181600116156101000203166002900480601f0160208091040260200160405190810160405280929190818152602001828054600181600116156101000203166002900480156106145780601f106105e957610100808354040283529160200191610614565b820191906000526020600020905b8154815290600101906020018083116105f757829003601f168201915b505050505090806007015490806008018054600181600116156101000203166002900480601f0160208091040260200160405190810160405280929190818152602001828054600181600116156101000203166002900480156106b85780601f1061068d576101008083540402835291602001916106b8565b820191906000526020600020905b81548152906001019060200180831161069b57829003601f168201915b5050505050905089565b600080600160008481526020019081526020016000206000015411156106eb57600190506106f0565b600090505b919050565b60405180610120016040528082600001518152602001826020015181526020018260400151815260200182606001518152602001826080015181526020018260a0015181526020018260c0015181526020018260e00151815260200182610100015181525060008360405161076a9190611345565b9081526020016040518091039020600082015181600001556020820151816001015560408201518160020190805190602001906107a8929190610d00565b5060608201518160030190805190602001906107c5929190610d00565b5060808201518160040190805190602001906107e2929190610d00565b5060a08201518160050190805190602001906107ff929190610d00565b5060c082015181600601908051906020019061081c929190610d00565b5060e08201518160070155610100820151816008019080519060200190610844929190610d00565b509050505050565b6001602052806000526040600020600091509050806000015490806001018054600181600116156101000203166002900480601f0160208091040260200160405190810160405280929190818152602001828054600181600116156101000203166002900480156108fe5780601f106108d3576101008083540402835291602001916108fe565b820191906000526020600020905b8154815290600101906020018083116108e157829003601f168201915b505050505090806002018054600181600116156101000203166002900480601f01602080910402602001604051908101604052809291908181526020018280546001816001161561010002031660029004801561099c5780601f106109715761010080835404028352916020019161099c565b820191906000526020600020905b81548152906001019060200180831161097f57829003601f168201915b505050505090806003018054600181600116156101000203166002900480601f016020809104026020016040519081016040528092919081815260200182805460018160011615610100020316600290048015610a3a5780601f10610a0f57610100808354040283529160200191610a3a565b820191906000526020600020905b815481529060010190602001808311610a1d57829003601f168201915b505050505090806004018054600181600116156101000203166002900480601f016020809104026020016040519081016040528092919081815260200182805460018160011615610100020316600290048015610ad85780601f10610aad57610100808354040283529160200191610ad8565b820191906000526020600020905b815481529060010190602001808311610abb57829003601f168201915b505050505090806005018054600181600116156101000203166002900480601f016020809104026020016040519081016040528092919081815260200182805460018160011615610100020316600290048015610b765780601f10610b4b57610100808354040283529160200191610b76565b820191906000526020600020905b815481529060010190602001808311610b5957829003601f168201915b505050505090806006015490806007018054600181600116156101000203166002900480601f016020809104026020016040519081016040528092919081815260200182805460018160011615610100020316600290048015610c1a5780601f10610bef57610100808354040283529160200191610c1a565b820191906000526020600020905b815481529060010190602001808311610bfd57829003601f168201915b505050505090806008018054600181600116156101000203166002900480601f016020809104026020016040519081016040528092919081815260200182805460018160011615610100020316600290048015610cb85780601f10610c8d57610100808354040283529160200191610cb8565b820191906000526020600020905b815481529060010190602001808311610c9b57829003601f168201915b5050505050905089565b600080600083604051610cd59190611345565b9081526020016040518091039020600001541115610cf65760019050610cfb565b600090505b919050565b828054600181600116156101000203166002900490600052602060002090601f016020900481019282601f10610d4157805160ff1916838001178555610d6f565b82800160010185558215610d6f579182015b82811115610d6e578251825591602001919060010190610d53565b5b509050610d7c9190610d80565b5090565b610da291905b80821115610d9e576000816000905550600101610d86565b5090565b90565b600082601f830112610db657600080fd5b8135610dc9610dc482611519565b6114ec565b91508082526020830160208301858383011115610de557600080fd5b610df08382846115b9565b50505092915050565b600082601f830112610e0a57600080fd5b8135610e1d610e1882611545565b6114ec565b91508082526020830160208301858383011115610e3957600080fd5b610e448382846115b9565b50505092915050565b60006101208284031215610e6057600080fd5b610e6b6101206114ec565b90506000610e7b8482850161113d565b6000830152506020610e8f8482850161113d565b602083015250604082013567ffffffffffffffff811115610eaf57600080fd5b610ebb84828501610da5565b604083015250606082013567ffffffffffffffff811115610edb57600080fd5b610ee784828501610da5565b606083015250608082013567ffffffffffffffff811115610f0757600080fd5b610f1384828501610da5565b60808301525060a082013567ffffffffffffffff811115610f3357600080fd5b610f3f84828501610da5565b60a08301525060c082013567ffffffffffffffff811115610f5f57600080fd5b610f6b84828501610da5565b60c08301525060e0610f7f8482850161113d565b60e08301525061010082013567ffffffffffffffff811115610fa057600080fd5b610fac84828501610da5565b6101008301525092915050565b60006101208284031215610fcc57600080fd5b610fd76101206114ec565b90506000610fe78482850161113d565b600083015250602082013567ffffffffffffffff81111561100757600080fd5b61101384828501610da5565b602083015250604082013567ffffffffffffffff81111561103357600080fd5b61103f84828501610da5565b604083015250606082013567ffffffffffffffff81111561105f57600080fd5b61106b84828501610da5565b606083015250608082013567ffffffffffffffff81111561108b57600080fd5b61109784828501610da5565b60808301525060a082013567ffffffffffffffff8111156110b757600080fd5b6110c384828501610da5565b60a08301525060c06110d78482850161113d565b60c08301525060e082013567ffffffffffffffff8111156110f757600080fd5b61110384828501610da5565b60e08301525061010082013567ffffffffffffffff81111561112457600080fd5b61113084828501610da5565b6101008301525092915050565b60008135905061114c8161160c565b92915050565b60006020828403121561116457600080fd5b600082013567ffffffffffffffff81111561117e57600080fd5b61118a84828501610da5565b91505092915050565b6000602082840312156111a557600080fd5b600082013567ffffffffffffffff8111156111bf57600080fd5b6111cb84828501610df9565b91505092915050565b600080604083850312156111e757600080fd5b600083013567ffffffffffffffff81111561120157600080fd5b61120d85828601610df9565b925050602083013567ffffffffffffffff81111561122a57600080fd5b61123685828601610e4d565b9150509250929050565b60006020828403121561125257600080fd5b60006112608482850161113d565b91505092915050565b6000806040838503121561127c57600080fd5b600061128a8582860161113d565b925050602083013567ffffffffffffffff8111156112a757600080fd5b6112b385828601610fb9565b9150509250929050565b6112c6816115a3565b82525050565b60006112d78261157c565b6112e18185611598565b93506112f18185602086016115c8565b80840191505092915050565b600061130882611571565b6113128185611587565b93506113228185602086016115c8565b61132b816115fb565b840191505092915050565b61133f816115af565b82525050565b600061135182846112cc565b915081905092915050565b600060208201905061137160008301846112bd565b92915050565b60006101208201905061138d600083018c611336565b818103602083015261139f818b6112fd565b905081810360408301526113b3818a6112fd565b905081810360608301526113c781896112fd565b905081810360808301526113db81886112fd565b905081810360a08301526113ef81876112fd565b90506113fe60c0830186611336565b81810360e083015261141081856112fd565b905081810361010083015261142581846112fd565b90509a9950505050505050505050565b60006101208201905061144b600083018c611336565b611458602083018b611336565b818103604083015261146a818a6112fd565b9050818103606083015261147e81896112fd565b9050818103608083015261149281886112fd565b905081810360a08301526114a681876112fd565b905081810360c08301526114ba81866112fd565b90506114c960e0830185611336565b8181036101008301526114dc81846112fd565b90509a9950505050505050505050565b6000604051905081810181811067ffffffffffffffff8211171561150f57600080fd5b8060405250919050565b600067ffffffffffffffff82111561153057600080fd5b601f19601f8301169050602081019050919050565b600067ffffffffffffffff82111561155c57600080fd5b601f19601f8301169050602081019050919050565b600081519050919050565b600081519050919050565b600082825260208201905092915050565b600081905092915050565b60008115159050919050565b6000819050919050565b82818337600083830152505050565b60005b838110156115e65780820151818401526020810190506115cb565b838111156115f5576000848401525b50505050565b6000601f19601f8301169050919050565b611615816115af565b811461162057600080fd5b5056fea365627a7a723158205788c950e80b7171773d41bfdcee0e1873f92faeed1e7ed14a78b464147871516c6578706572696d656e74616cf564736f6c63430005100040",
  "source": "// SPDX-License-Identifier: MIT\n\n// Defining the solidity version that is used and allowing experimental functions to allow using structs as datatype within the function call\npragma solidity >=0.4.21 <0.7.0;\npragma experimental ABIEncoderV2;\n\ncontract User {\n\n    // Defining datatype insured to store all necessary data related to the insured\n    struct Insured {\n        uint insurance_number;\n        uint insured_status;\n        \n        string surname;\n        string name;\n        string birth_date;\n\n        string street;\n        string street_number;\n        uint post_code;\n        string city;\n    }\n\n    // Defining datatype physician to store all necessary data related to the physician\n    struct Physician {\n        uint business_number;\n\n        string job_title;\n        string surname;\n        string name;\n\n        string street;\n        string street_number;\n        uint post_code;\n        string city;\n\n        string telephone_number; \n    }\n\n    // Insured Number mapped on the related insured object with all data of the insured\n    mapping(string => Insured) public insureds;\n\n    // Physician Number mapped on the related physician object with all data of the physician\n    mapping(uint => Physician) public physicians;\n\n    // Function to add a new Insured\n    function addNewInsured(string memory insured_number_, Insured memory insured_)  public{\n        insureds[insured_number_] = Insured(insured_.insurance_number, insured_.insured_status, insured_.surname, insured_.name, insured_.birth_date, insured_.street, insured_.street_number, insured_.post_code, insured_.city);\n    }\n\n    // Function to add a new Physician\n    function addNewPhysician(uint physician_number_, Physician memory physician_) public{\n        physicians[physician_number_] = Physician(physician_.business_number, physician_.job_title, physician_.surname, physician_.name, physician_.street, physician_.street_number, physician_.post_code, physician_.city, physician_.telephone_number);\n    }\n\n    // Function returns true, if insured with the insured_number_ exists\n    function checkInsuredExistance(string memory insured_number_) public view returns(bool){\n        if(insureds[insured_number_].insurance_number > 0){\n            return true;\n        } else {\n            return false;\n        }\n    }\n\n    // Function returns true, if insured with the physician_number_ exists\n    function checkPhysicianExistance(uint physician_number_) public view returns(bool){\n        if(physicians[physician_number_].business_number > 0){\n            return true;\n        } else {\n            return false;\n        }\n    }\n}",
  "sourcePath": "/Users/valentin/Documents/Programmdaten/Visual_Studio/5_Semester/Integrationsseminar/blockchain_e_prescription/contracts/User.sol",
  "compiler": {
    "name": "solc",
    "version": "0.5.16+commit.9c3226ce.Emscripten.clang"
  },
  "schemaVersion": "3.3.2",
  "updatedAt": "2020-12-19T12:52:58.171Z",
  "networkType": "ethereum",
  "devdoc": {
    "methods": {}
  },
  "userdoc": {
    "methods": {}
  }
}