{
  "contractName": "User",
  "abi": [
    {
      "inputs": [],
      "payable": false,
      "stateMutability": "nonpayable",
      "type": "constructor"
    },
    {
      "constant": true,
      "inputs": [
        {
          "internalType": "address",
          "name": "",
          "type": "address"
        }
      ],
      "name": "insureds",
      "outputs": [
        {
          "internalType": "string",
          "name": "surname",
          "type": "string"
        },
        {
          "internalType": "string",
          "name": "name",
          "type": "string"
        },
        {
          "internalType": "string",
          "name": "street",
          "type": "string"
        },
        {
          "internalType": "string",
          "name": "street_number",
          "type": "string"
        },
        {
          "internalType": "uint256",
          "name": "post_code",
          "type": "uint256"
        },
        {
          "internalType": "string",
          "name": "city",
          "type": "string"
        },
        {
          "internalType": "string",
          "name": "birth_date",
          "type": "string"
        },
        {
          "internalType": "string",
          "name": "insurance",
          "type": "string"
        },
        {
          "internalType": "uint256",
          "name": "insurance_number",
          "type": "uint256"
        },
        {
          "internalType": "uint256",
          "name": "insured_number",
          "type": "uint256"
        },
        {
          "internalType": "uint256",
          "name": "insured_status",
          "type": "uint256"
        }
      ],
      "payable": false,
      "stateMutability": "view",
      "type": "function"
    },
    {
      "constant": true,
      "inputs": [
        {
          "internalType": "uint256",
          "name": "",
          "type": "uint256"
        }
      ],
      "name": "physicians",
      "outputs": [
        {
          "internalType": "uint256",
          "name": "business_number",
          "type": "uint256"
        },
        {
          "internalType": "string",
          "name": "job_title",
          "type": "string"
        },
        {
          "internalType": "string",
          "name": "surname",
          "type": "string"
        },
        {
          "internalType": "string",
          "name": "name",
          "type": "string"
        },
        {
          "internalType": "string",
          "name": "street",
          "type": "string"
        },
        {
          "internalType": "string",
          "name": "street_number",
          "type": "string"
        },
        {
          "internalType": "uint256",
          "name": "post_code",
          "type": "uint256"
        },
        {
          "internalType": "string",
          "name": "city",
          "type": "string"
        },
        {
          "internalType": "string",
          "name": "telephone_number",
          "type": "string"
        }
      ],
      "payable": false,
      "stateMutability": "view",
      "type": "function"
    },
    {
      "constant": true,
      "inputs": [],
      "name": "verifying_institution",
      "outputs": [
        {
          "internalType": "address",
          "name": "",
          "type": "address"
        }
      ],
      "payable": false,
      "stateMutability": "view",
      "type": "function"
    },
    {
      "constant": false,
      "inputs": [
        {
          "components": [
            {
              "internalType": "string",
              "name": "surname",
              "type": "string"
            },
            {
              "internalType": "string",
              "name": "name",
              "type": "string"
            },
            {
              "internalType": "string",
              "name": "street",
              "type": "string"
            },
            {
              "internalType": "string",
              "name": "street_number",
              "type": "string"
            },
            {
              "internalType": "uint256",
              "name": "post_code",
              "type": "uint256"
            },
            {
              "internalType": "string",
              "name": "city",
              "type": "string"
            },
            {
              "internalType": "string",
              "name": "birth_date",
              "type": "string"
            },
            {
              "internalType": "string",
              "name": "insurance",
              "type": "string"
            },
            {
              "internalType": "uint256",
              "name": "insurance_number",
              "type": "uint256"
            },
            {
              "internalType": "uint256",
              "name": "insured_number",
              "type": "uint256"
            },
            {
              "internalType": "uint256",
              "name": "insured_status",
              "type": "uint256"
            }
          ],
          "internalType": "struct User.Insured",
          "name": "insured_",
          "type": "tuple"
        }
      ],
      "name": "addNewInsured",
      "outputs": [],
      "payable": false,
      "stateMutability": "nonpayable",
      "type": "function"
    },
    {
      "constant": false,
      "inputs": [
        {
          "internalType": "uint256",
          "name": "physician_number_",
          "type": "uint256"
        },
        {
          "components": [
            {
              "internalType": "uint256",
              "name": "business_number",
              "type": "uint256"
            },
            {
              "internalType": "string",
              "name": "job_title",
              "type": "string"
            },
            {
              "internalType": "string",
              "name": "surname",
              "type": "string"
            },
            {
              "internalType": "string",
              "name": "name",
              "type": "string"
            },
            {
              "internalType": "string",
              "name": "street",
              "type": "string"
            },
            {
              "internalType": "string",
              "name": "street_number",
              "type": "string"
            },
            {
              "internalType": "uint256",
              "name": "post_code",
              "type": "uint256"
            },
            {
              "internalType": "string",
              "name": "city",
              "type": "string"
            },
            {
              "internalType": "string",
              "name": "telephone_number",
              "type": "string"
            }
          ],
          "internalType": "struct User.Physician",
          "name": "physician_",
          "type": "tuple"
        }
      ],
      "name": "addNewPhysician",
      "outputs": [],
      "payable": false,
      "stateMutability": "nonpayable",
      "type": "function"
    },
    {
      "constant": true,
      "inputs": [
        {
          "internalType": "address",
          "name": "public_key",
          "type": "address"
        }
      ],
      "name": "checkInsuredExistance",
      "outputs": [
        {
          "internalType": "bool",
          "name": "",
          "type": "bool"
        }
      ],
      "payable": false,
      "stateMutability": "view",
      "type": "function"
    },
    {
      "constant": true,
      "inputs": [
        {
          "internalType": "uint256",
          "name": "physician_number_",
          "type": "uint256"
        }
      ],
      "name": "checkPhysicianExistance",
      "outputs": [
        {
          "internalType": "bool",
          "name": "",
          "type": "bool"
        }
      ],
      "payable": false,
      "stateMutability": "view",
      "type": "function"
    }
  ],
  "bytecode": "0x608060405234801561001057600080fd5b50336000806101000a81548173ffffffffffffffffffffffffffffffffffffffff021916908373ffffffffffffffffffffffffffffffffffffffff160217905550611763806100606000396000f3fe608060405234801561001057600080fd5b506004361061007d5760003560e01c8063a178fda51161005b578063a178fda5146100ec578063c863b9e514610108578063dfb8981514610142578063e0a3f8bf146101725761007d565b8063016b85bd1461008257806345b028831461009e57806381eceeb7146100ce575b600080fd5b61009c60048036036100979190810190611358565b6101aa565b005b6100b860048036036100b3919081019061132f565b610309565b6040516100c5919061142d565b60405180910390f35b6100d661033c565b6040516100e39190611412565b60405180910390f35b610106600480360361010191908101906112ee565b610361565b005b610122600480360361011d91908101906112c5565b610517565b6040516101399b9a99989796959493929190611448565b60405180910390f35b61015c600480360361015791908101906112c5565b610999565b604051610169919061142d565b60405180910390f35b61018c6004803603610187919081019061132f565b6109f8565b6040516101a199989796959493929190611524565b60405180910390f35b60405180610120016040528082600001518152602001826020015181526020018260400151815260200182606001518152602001826080015181526020018260a0015181526020018260c0015181526020018260e00151815260200182610100015181525060026000848152602001908152602001600020600082015181600001556020820151816001019080519060200190610248929190610e6e565b506040820151816002019080519060200190610265929190610e6e565b506060820151816003019080519060200190610282929190610e6e565b50608082015181600401908051906020019061029f929190610e6e565b5060a08201518160050190805190602001906102bc929190610e6e565b5060c0820151816006015560e08201518160070190805190602001906102e3929190610e6e565b50610100820151816008019080519060200190610301929190610e6e565b509050505050565b600080600260008481526020019081526020016000206000015411156103325760019050610337565b600090505b919050565b6000809054906101000a900473ffffffffffffffffffffffffffffffffffffffff1681565b60405180610160016040528082600001518152602001826020015181526020018260400151815260200182606001518152602001826080015181526020018260a0015181526020018260c0015181526020018260e00151815260200182610100015181526020018261012001518152602001826101400151815250600160003373ffffffffffffffffffffffffffffffffffffffff1673ffffffffffffffffffffffffffffffffffffffff1681526020019081526020016000206000820151816000019080519060200190610437929190610e6e565b506020820151816001019080519060200190610454929190610e6e565b506040820151816002019080519060200190610471929190610e6e565b50606082015181600301908051906020019061048e929190610e6e565b506080820151816004015560a08201518160050190805190602001906104b5929190610e6e565b5060c08201518160060190805190602001906104d2929190610e6e565b5060e08201518160070190805190602001906104ef929190610e6e565b506101008201518160080155610120820151816009015561014082015181600a015590505050565b6001602052806000526040600020600091509050806000018054600181600116156101000203166002900480601f0160208091040260200160405190810160405280929190818152602001828054600181600116156101000203166002900480156105c35780601f10610598576101008083540402835291602001916105c3565b820191906000526020600020905b8154815290600101906020018083116105a657829003601f168201915b505050505090806001018054600181600116156101000203166002900480601f0160208091040260200160405190810160405280929190818152602001828054600181600116156101000203166002900480156106615780601f1061063657610100808354040283529160200191610661565b820191906000526020600020905b81548152906001019060200180831161064457829003601f168201915b505050505090806002018054600181600116156101000203166002900480601f0160208091040260200160405190810160405280929190818152602001828054600181600116156101000203166002900480156106ff5780601f106106d4576101008083540402835291602001916106ff565b820191906000526020600020905b8154815290600101906020018083116106e257829003601f168201915b505050505090806003018054600181600116156101000203166002900480601f01602080910402602001604051908101604052809291908181526020018280546001816001161561010002031660029004801561079d5780601f106107725761010080835404028352916020019161079d565b820191906000526020600020905b81548152906001019060200180831161078057829003601f168201915b505050505090806004015490806005018054600181600116156101000203166002900480601f0160208091040260200160405190810160405280929190818152602001828054600181600116156101000203166002900480156108415780601f1061081657610100808354040283529160200191610841565b820191906000526020600020905b81548152906001019060200180831161082457829003601f168201915b505050505090806006018054600181600116156101000203166002900480601f0160208091040260200160405190810160405280929190818152602001828054600181600116156101000203166002900480156108df5780601f106108b4576101008083540402835291602001916108df565b820191906000526020600020905b8154815290600101906020018083116108c257829003601f168201915b505050505090806007018054600181600116156101000203166002900480601f01602080910402602001604051908101604052809291908181526020018280546001816001161561010002031660029004801561097d5780601f106109525761010080835404028352916020019161097d565b820191906000526020600020905b81548152906001019060200180831161096057829003601f168201915b50505050509080600801549080600901549080600a015490508b565b600080600160008473ffffffffffffffffffffffffffffffffffffffff1673ffffffffffffffffffffffffffffffffffffffff1681526020019081526020016000206008015411156109ee57600190506109f3565b600090505b919050565b6002602052806000526040600020600091509050806000015490806001018054600181600116156101000203166002900480601f016020809104026020016040519081016040528092919081815260200182805460018160011615610100020316600290048015610aaa5780601f10610a7f57610100808354040283529160200191610aaa565b820191906000526020600020905b815481529060010190602001808311610a8d57829003601f168201915b505050505090806002018054600181600116156101000203166002900480601f016020809104026020016040519081016040528092919081815260200182805460018160011615610100020316600290048015610b485780601f10610b1d57610100808354040283529160200191610b48565b820191906000526020600020905b815481529060010190602001808311610b2b57829003601f168201915b505050505090806003018054600181600116156101000203166002900480601f016020809104026020016040519081016040528092919081815260200182805460018160011615610100020316600290048015610be65780601f10610bbb57610100808354040283529160200191610be6565b820191906000526020600020905b815481529060010190602001808311610bc957829003601f168201915b505050505090806004018054600181600116156101000203166002900480601f016020809104026020016040519081016040528092919081815260200182805460018160011615610100020316600290048015610c845780601f10610c5957610100808354040283529160200191610c84565b820191906000526020600020905b815481529060010190602001808311610c6757829003601f168201915b505050505090806005018054600181600116156101000203166002900480601f016020809104026020016040519081016040528092919081815260200182805460018160011615610100020316600290048015610d225780601f10610cf757610100808354040283529160200191610d22565b820191906000526020600020905b815481529060010190602001808311610d0557829003601f168201915b505050505090806006015490806007018054600181600116156101000203166002900480601f016020809104026020016040519081016040528092919081815260200182805460018160011615610100020316600290048015610dc65780601f10610d9b57610100808354040283529160200191610dc6565b820191906000526020600020905b815481529060010190602001808311610da957829003601f168201915b505050505090806008018054600181600116156101000203166002900480601f016020809104026020016040519081016040528092919081815260200182805460018160011615610100020316600290048015610e645780601f10610e3957610100808354040283529160200191610e64565b820191906000526020600020905b815481529060010190602001808311610e4757829003601f168201915b5050505050905089565b828054600181600116156101000203166002900490600052602060002090601f016020900481019282601f10610eaf57805160ff1916838001178555610edd565b82800160010185558215610edd579182015b82811115610edc578251825591602001919060010190610ec1565b5b509050610eea9190610eee565b5090565b610f1091905b80821115610f0c576000816000905550600101610ef4565b5090565b90565b600081359050610f22816116f2565b92915050565b600082601f830112610f3957600080fd5b8135610f4c610f478261160f565b6115e2565b91508082526020830160208301858383011115610f6857600080fd5b610f7383828461169f565b50505092915050565b60006101608284031215610f8f57600080fd5b610f9a6101606115e2565b9050600082013567ffffffffffffffff811115610fb657600080fd5b610fc284828501610f28565b600083015250602082013567ffffffffffffffff811115610fe257600080fd5b610fee84828501610f28565b602083015250604082013567ffffffffffffffff81111561100e57600080fd5b61101a84828501610f28565b604083015250606082013567ffffffffffffffff81111561103a57600080fd5b61104684828501610f28565b606083015250608061105a848285016112b0565b60808301525060a082013567ffffffffffffffff81111561107a57600080fd5b61108684828501610f28565b60a08301525060c082013567ffffffffffffffff8111156110a657600080fd5b6110b284828501610f28565b60c08301525060e082013567ffffffffffffffff8111156110d257600080fd5b6110de84828501610f28565b60e0830152506101006110f3848285016112b0565b61010083015250610120611109848285016112b0565b6101208301525061014061111f848285016112b0565b6101408301525092915050565b6000610120828403121561113f57600080fd5b61114a6101206115e2565b9050600061115a848285016112b0565b600083015250602082013567ffffffffffffffff81111561117a57600080fd5b61118684828501610f28565b602083015250604082013567ffffffffffffffff8111156111a657600080fd5b6111b284828501610f28565b604083015250606082013567ffffffffffffffff8111156111d257600080fd5b6111de84828501610f28565b606083015250608082013567ffffffffffffffff8111156111fe57600080fd5b61120a84828501610f28565b60808301525060a082013567ffffffffffffffff81111561122a57600080fd5b61123684828501610f28565b60a08301525060c061124a848285016112b0565b60c08301525060e082013567ffffffffffffffff81111561126a57600080fd5b61127684828501610f28565b60e08301525061010082013567ffffffffffffffff81111561129757600080fd5b6112a384828501610f28565b6101008301525092915050565b6000813590506112bf81611709565b92915050565b6000602082840312156112d757600080fd5b60006112e584828501610f13565b91505092915050565b60006020828403121561130057600080fd5b600082013567ffffffffffffffff81111561131a57600080fd5b61132684828501610f7c565b91505092915050565b60006020828403121561134157600080fd5b600061134f848285016112b0565b91505092915050565b6000806040838503121561136b57600080fd5b6000611379858286016112b0565b925050602083013567ffffffffffffffff81111561139657600080fd5b6113a28582860161112c565b9150509250929050565b6113b581611657565b82525050565b6113c481611669565b82525050565b60006113d58261163b565b6113df8185611646565b93506113ef8185602086016116ae565b6113f8816116e1565b840191505092915050565b61140c81611695565b82525050565b600060208201905061142760008301846113ac565b92915050565b600060208201905061144260008301846113bb565b92915050565b6000610160820190508181036000830152611463818e6113ca565b90508181036020830152611477818d6113ca565b9050818103604083015261148b818c6113ca565b9050818103606083015261149f818b6113ca565b90506114ae608083018a611403565b81810360a08301526114c081896113ca565b905081810360c08301526114d481886113ca565b905081810360e08301526114e881876113ca565b90506114f8610100830186611403565b611506610120830185611403565b611514610140830184611403565b9c9b505050505050505050505050565b60006101208201905061153a600083018c611403565b818103602083015261154c818b6113ca565b90508181036040830152611560818a6113ca565b9050818103606083015261157481896113ca565b9050818103608083015261158881886113ca565b905081810360a083015261159c81876113ca565b90506115ab60c0830186611403565b81810360e08301526115bd81856113ca565b90508181036101008301526115d281846113ca565b90509a9950505050505050505050565b6000604051905081810181811067ffffffffffffffff8211171561160557600080fd5b8060405250919050565b600067ffffffffffffffff82111561162657600080fd5b601f19601f8301169050602081019050919050565b600081519050919050565b600082825260208201905092915050565b600061166282611675565b9050919050565b60008115159050919050565b600073ffffffffffffffffffffffffffffffffffffffff82169050919050565b6000819050919050565b82818337600083830152505050565b60005b838110156116cc5780820151818401526020810190506116b1565b838111156116db576000848401525b50505050565b6000601f19601f8301169050919050565b6116fb81611657565b811461170657600080fd5b50565b61171281611695565b811461171d57600080fd5b5056fea365627a7a723158204f53cce995c5dbfafbbe9b95303b785c08b563d30efd9c01baa0cf20b223e0c76c6578706572696d656e74616cf564736f6c63430005100040",
  "source": "// SPDX-License-Identifier: MIT\n\n// Defining the solidity version that is used and allowing experimental functions to allow using structs as datatype within the function call\npragma solidity >=0.4.21 <0.7.0;\npragma experimental ABIEncoderV2;\n\ncontract User {\n    address public verifying_institution;\n\n    constructor () public {\n        verifying_institution = msg.sender;\n    }\n\n\n    // Defining datatype insured to store all necessary data related to the insured\n    struct Insured {\n        string surname;\n        string name;\n        string street;\n        string street_number;\n        uint post_code;\n        string city;\n\n        string birth_date;\n\n        string insurance;\n        uint insurance_number;\n        uint insured_number;\n        uint insured_status;\n    }\n\n    // Defining datatype physician to store all necessary data related to the physician\n    struct Physician {\n        uint business_number;\n\n        string job_title;\n        string surname;\n        string name;\n\n        string street;\n        string street_number;\n        uint post_code;\n        string city;\n\n        string telephone_number; \n    }\n\n    // Insured Number mapped on the related insured object with all data of the insured\n    mapping(address => Insured) public insureds;\n\n    // Physician Number mapped on the related physician object with all data of the physician\n    mapping(uint => Physician) public physicians;\n\n    // Function to add a new Insured\n    function addNewInsured(Insured memory insured_)  public{\n        insureds[msg.sender] = Insured(insured_.surname, insured_.name, insured_.street, insured_.street_number, insured_.post_code, insured_.city, insured_.birth_date, insured_.insurance, insured_.insurance_number, insured_.insured_number, insured_.insured_status);\n    }\n\n    // Function to add a new Physician\n    function addNewPhysician(uint physician_number_, Physician memory physician_) public{\n        physicians[physician_number_] = Physician(physician_.business_number, physician_.job_title, physician_.surname, physician_.name, physician_.street, physician_.street_number, physician_.post_code, physician_.city, physician_.telephone_number);\n    }\n\n    // Function returns true, if insured with the insured_number_ exists\n    function checkInsuredExistance(address public_key) public view returns(bool){\n        if(insureds[public_key].insurance_number > 0){\n            return true;\n        } else {\n            return false;\n        }\n    }\n\n    // Function returns true, if insured with the physician_number_ exists\n    function checkPhysicianExistance(uint physician_number_) public view returns(bool){\n        if(physicians[physician_number_].business_number > 0){\n            return true;\n        } else {\n            return false;\n        }\n    }\n}",
  "sourcePath": "/Users/valentin/Documents/Programmdaten/Visual_Studio/5_Semester/Integrationsseminar/blockchain_e_prescription/contracts/User.sol",
  "compiler": {
    "name": "solc",
    "version": "0.5.16+commit.9c3226ce.Emscripten.clang"
  },
  "schemaVersion": "3.3.2",
  "updatedAt": "2020-12-27T07:32:01.158Z",
  "networkType": "ethereum",
  "devdoc": {
    "methods": {}
  },
  "userdoc": {
    "methods": {}
  }
}