{
  "contractName": "User",
  "abi": [
    {
      "inputs": [],
      "payable": false,
      "stateMutability": "nonpayable",
      "type": "constructor"
    },
    {
      "constant": true,
      "inputs": [
        {
          "internalType": "address",
          "name": "",
          "type": "address"
        }
      ],
      "name": "insureds",
      "outputs": [
        {
          "internalType": "string",
          "name": "surname",
          "type": "string"
        },
        {
          "internalType": "string",
          "name": "name",
          "type": "string"
        },
        {
          "internalType": "string",
          "name": "street",
          "type": "string"
        },
        {
          "internalType": "string",
          "name": "street_number",
          "type": "string"
        },
        {
          "internalType": "uint256",
          "name": "post_code",
          "type": "uint256"
        },
        {
          "internalType": "string",
          "name": "city",
          "type": "string"
        },
        {
          "internalType": "string",
          "name": "birth_date",
          "type": "string"
        },
        {
          "internalType": "string",
          "name": "insurance",
          "type": "string"
        },
        {
          "internalType": "uint256",
          "name": "insurance_number",
          "type": "uint256"
        },
        {
          "internalType": "uint256",
          "name": "insured_number",
          "type": "uint256"
        },
        {
          "internalType": "uint256",
          "name": "insured_status",
          "type": "uint256"
        },
        {
          "internalType": "bool",
          "name": "verified",
          "type": "bool"
        }
      ],
      "payable": false,
      "stateMutability": "view",
      "type": "function"
    },
    {
      "constant": true,
      "inputs": [
        {
          "internalType": "address",
          "name": "",
          "type": "address"
        }
      ],
      "name": "physicians",
      "outputs": [
        {
          "internalType": "string",
          "name": "job_title",
          "type": "string"
        },
        {
          "internalType": "string",
          "name": "surname",
          "type": "string"
        },
        {
          "internalType": "string",
          "name": "name",
          "type": "string"
        },
        {
          "internalType": "uint256",
          "name": "physician_number",
          "type": "uint256"
        },
        {
          "internalType": "string",
          "name": "street",
          "type": "string"
        },
        {
          "internalType": "string",
          "name": "street_number",
          "type": "string"
        },
        {
          "internalType": "uint256",
          "name": "post_code",
          "type": "uint256"
        },
        {
          "internalType": "string",
          "name": "city",
          "type": "string"
        },
        {
          "internalType": "string",
          "name": "telephone_number",
          "type": "string"
        },
        {
          "internalType": "uint256",
          "name": "business_number",
          "type": "uint256"
        },
        {
          "internalType": "bool",
          "name": "verified",
          "type": "bool"
        }
      ],
      "payable": false,
      "stateMutability": "view",
      "type": "function"
    },
    {
      "constant": true,
      "inputs": [],
      "name": "verifying_institution",
      "outputs": [
        {
          "internalType": "address",
          "name": "",
          "type": "address"
        }
      ],
      "payable": false,
      "stateMutability": "view",
      "type": "function"
    },
    {
      "constant": false,
      "inputs": [
        {
          "components": [
            {
              "internalType": "string",
              "name": "surname",
              "type": "string"
            },
            {
              "internalType": "string",
              "name": "name",
              "type": "string"
            },
            {
              "internalType": "string",
              "name": "street",
              "type": "string"
            },
            {
              "internalType": "string",
              "name": "street_number",
              "type": "string"
            },
            {
              "internalType": "uint256",
              "name": "post_code",
              "type": "uint256"
            },
            {
              "internalType": "string",
              "name": "city",
              "type": "string"
            },
            {
              "internalType": "string",
              "name": "birth_date",
              "type": "string"
            },
            {
              "internalType": "string",
              "name": "insurance",
              "type": "string"
            },
            {
              "internalType": "uint256",
              "name": "insurance_number",
              "type": "uint256"
            },
            {
              "internalType": "uint256",
              "name": "insured_number",
              "type": "uint256"
            },
            {
              "internalType": "uint256",
              "name": "insured_status",
              "type": "uint256"
            },
            {
              "internalType": "bool",
              "name": "verified",
              "type": "bool"
            }
          ],
          "internalType": "struct User.Insured",
          "name": "insured_",
          "type": "tuple"
        }
      ],
      "name": "addNewInsured",
      "outputs": [],
      "payable": false,
      "stateMutability": "nonpayable",
      "type": "function"
    },
    {
      "constant": false,
      "inputs": [
        {
          "internalType": "address",
          "name": "public_key",
          "type": "address"
        }
      ],
      "name": "verifyInsured",
      "outputs": [
        {
          "internalType": "bool",
          "name": "",
          "type": "bool"
        }
      ],
      "payable": false,
      "stateMutability": "nonpayable",
      "type": "function"
    },
    {
      "constant": true,
      "inputs": [
        {
          "internalType": "address",
          "name": "public_key",
          "type": "address"
        }
      ],
      "name": "getInsured",
      "outputs": [
        {
          "components": [
            {
              "internalType": "string",
              "name": "surname",
              "type": "string"
            },
            {
              "internalType": "string",
              "name": "name",
              "type": "string"
            },
            {
              "internalType": "string",
              "name": "street",
              "type": "string"
            },
            {
              "internalType": "string",
              "name": "street_number",
              "type": "string"
            },
            {
              "internalType": "uint256",
              "name": "post_code",
              "type": "uint256"
            },
            {
              "internalType": "string",
              "name": "city",
              "type": "string"
            },
            {
              "internalType": "string",
              "name": "birth_date",
              "type": "string"
            },
            {
              "internalType": "string",
              "name": "insurance",
              "type": "string"
            },
            {
              "internalType": "uint256",
              "name": "insurance_number",
              "type": "uint256"
            },
            {
              "internalType": "uint256",
              "name": "insured_number",
              "type": "uint256"
            },
            {
              "internalType": "uint256",
              "name": "insured_status",
              "type": "uint256"
            },
            {
              "internalType": "bool",
              "name": "verified",
              "type": "bool"
            }
          ],
          "internalType": "struct User.Insured",
          "name": "",
          "type": "tuple"
        }
      ],
      "payable": false,
      "stateMutability": "view",
      "type": "function"
    },
    {
      "constant": false,
      "inputs": [
        {
          "components": [
            {
              "internalType": "string",
              "name": "job_title",
              "type": "string"
            },
            {
              "internalType": "string",
              "name": "surname",
              "type": "string"
            },
            {
              "internalType": "string",
              "name": "name",
              "type": "string"
            },
            {
              "internalType": "uint256",
              "name": "physician_number",
              "type": "uint256"
            },
            {
              "internalType": "string",
              "name": "street",
              "type": "string"
            },
            {
              "internalType": "string",
              "name": "street_number",
              "type": "string"
            },
            {
              "internalType": "uint256",
              "name": "post_code",
              "type": "uint256"
            },
            {
              "internalType": "string",
              "name": "city",
              "type": "string"
            },
            {
              "internalType": "string",
              "name": "telephone_number",
              "type": "string"
            },
            {
              "internalType": "uint256",
              "name": "business_number",
              "type": "uint256"
            },
            {
              "internalType": "bool",
              "name": "verified",
              "type": "bool"
            }
          ],
          "internalType": "struct User.Physician",
          "name": "physician_",
          "type": "tuple"
        }
      ],
      "name": "addNewPhysician",
      "outputs": [],
      "payable": false,
      "stateMutability": "nonpayable",
      "type": "function"
    },
    {
      "constant": false,
      "inputs": [
        {
          "internalType": "address",
          "name": "public_key",
          "type": "address"
        }
      ],
      "name": "verifyPhysician",
      "outputs": [
        {
          "internalType": "bool",
          "name": "",
          "type": "bool"
        }
      ],
      "payable": false,
      "stateMutability": "nonpayable",
      "type": "function"
    },
    {
      "constant": true,
      "inputs": [
        {
          "internalType": "address",
          "name": "public_key",
          "type": "address"
        }
      ],
      "name": "getPhysician",
      "outputs": [
        {
          "components": [
            {
              "internalType": "string",
              "name": "job_title",
              "type": "string"
            },
            {
              "internalType": "string",
              "name": "surname",
              "type": "string"
            },
            {
              "internalType": "string",
              "name": "name",
              "type": "string"
            },
            {
              "internalType": "uint256",
              "name": "physician_number",
              "type": "uint256"
            },
            {
              "internalType": "string",
              "name": "street",
              "type": "string"
            },
            {
              "internalType": "string",
              "name": "street_number",
              "type": "string"
            },
            {
              "internalType": "uint256",
              "name": "post_code",
              "type": "uint256"
            },
            {
              "internalType": "string",
              "name": "city",
              "type": "string"
            },
            {
              "internalType": "string",
              "name": "telephone_number",
              "type": "string"
            },
            {
              "internalType": "uint256",
              "name": "business_number",
              "type": "uint256"
            },
            {
              "internalType": "bool",
              "name": "verified",
              "type": "bool"
            }
          ],
          "internalType": "struct User.Physician",
          "name": "",
          "type": "tuple"
        }
      ],
      "payable": false,
      "stateMutability": "view",
      "type": "function"
    },
    {
      "constant": true,
      "inputs": [
        {
          "internalType": "string",
          "name": "role",
          "type": "string"
        },
        {
          "internalType": "address",
          "name": "public_key",
          "type": "address"
        }
      ],
      "name": "checkVerification",
      "outputs": [
        {
          "internalType": "bool",
          "name": "",
          "type": "bool"
        }
      ],
      "payable": false,
      "stateMutability": "view",
      "type": "function"
    },
    {
      "constant": true,
      "inputs": [
        {
          "internalType": "string",
          "name": "role",
          "type": "string"
        },
        {
          "internalType": "address",
          "name": "public_key",
          "type": "address"
        }
      ],
      "name": "checkExistence",
      "outputs": [
        {
          "internalType": "bool",
          "name": "",
          "type": "bool"
        }
      ],
      "payable": false,
      "stateMutability": "view",
      "type": "function"
    }
  ],
  "bytecode": "0x608060405234801561001057600080fd5b50336000806101000a81548173ffffffffffffffffffffffffffffffffffffffff021916908373ffffffffffffffffffffffffffffffffffffffff1602179055506131ab806100606000396000f3fe608060405234801561001057600080fd5b50600436106100a95760003560e01c8063c11dd80811610071578063c11dd80814610164578063c5ffff4714610194578063c863b9e5146101c4578063e669845a146101ff578063f5860dfc14610239578063f7350e6014610269576100a9565b80630ee60c57146100ae5780631ee952ad146100de5780634b7b98421461010e5780636e98f9f31461012a57806381eceeb714610146575b600080fd5b6100c860048036036100c39190810190612672565b610299565b6040516100d59190612d1a565b60405180910390f35b6100f860048036036100f39190810190612672565b61040f565b6040516101059190612f9e565b60405180910390f35b610128600480360361012391908101906126ef565b610961565b005b610144600480360361013f9190810190612730565b610b41565b005b61014e610d0b565b60405161015b9190612cff565b60405180910390f35b61017e60048036036101799190810190612672565b610d30565b60405161018b9190612f7c565b60405180910390f35b6101ae60048036036101a9919081019061269b565b61128c565b6040516101bb9190612d1a565b60405180910390f35b6101de60048036036101d99190810190612672565b6113f3565b6040516101f69c9b9a99989796959493929190612d35565b60405180910390f35b61021960048036036102149190810190612672565b611888565b6040516102309b9a99989796959493929190612e20565b60405180910390f35b610253600480360361024e9190810190612672565b611d17565b6040516102609190612d1a565b60405180910390f35b610283600480360361027e919081019061269b565b611e8c565b6040516102909190612d1a565b60405180910390f35b60008060009054906101000a900473ffffffffffffffffffffffffffffffffffffffff1673ffffffffffffffffffffffffffffffffffffffff163373ffffffffffffffffffffffffffffffffffffffff161461032a576040517f08c379a000000000000000000000000000000000000000000000000000000000815260040161032190612f1c565b60405180910390fd5b6000600260008473ffffffffffffffffffffffffffffffffffffffff1673ffffffffffffffffffffffffffffffffffffffff16815260200190815260200160002060030154116103af576040517f08c379a00000000000000000000000000000000000000000000000000000000081526004016103a690612efc565b60405180910390fd5b6001600260008473ffffffffffffffffffffffffffffffffffffffff1673ffffffffffffffffffffffffffffffffffffffff168152602001908152602001600020600a0160006101000a81548160ff021916908315150217905550919050565b6104176120b1565b6000600260008473ffffffffffffffffffffffffffffffffffffffff1673ffffffffffffffffffffffffffffffffffffffff16815260200190815260200160002060030154111561095b57600260008373ffffffffffffffffffffffffffffffffffffffff1673ffffffffffffffffffffffffffffffffffffffff16815260200190815260200160002060405180610160016040529081600082018054600181600116156101000203166002900480601f0160208091040260200160405190810160405280929190818152602001828054600181600116156101000203166002900480156105465780601f1061051b57610100808354040283529160200191610546565b820191906000526020600020905b81548152906001019060200180831161052957829003601f168201915b50505050508152602001600182018054600181600116156101000203166002900480601f0160208091040260200160405190810160405280929190818152602001828054600181600116156101000203166002900480156105e85780601f106105bd576101008083540402835291602001916105e8565b820191906000526020600020905b8154815290600101906020018083116105cb57829003601f168201915b50505050508152602001600282018054600181600116156101000203166002900480601f01602080910402602001604051908101604052809291908181526020018280546001816001161561010002031660029004801561068a5780601f1061065f5761010080835404028352916020019161068a565b820191906000526020600020905b81548152906001019060200180831161066d57829003601f168201915b5050505050815260200160038201548152602001600482018054600181600116156101000203166002900480601f0160208091040260200160405190810160405280929190818152602001828054600181600116156101000203166002900480156107365780601f1061070b57610100808354040283529160200191610736565b820191906000526020600020905b81548152906001019060200180831161071957829003601f168201915b50505050508152602001600582018054600181600116156101000203166002900480601f0160208091040260200160405190810160405280929190818152602001828054600181600116156101000203166002900480156107d85780601f106107ad576101008083540402835291602001916107d8565b820191906000526020600020905b8154815290600101906020018083116107bb57829003601f168201915b5050505050815260200160068201548152602001600782018054600181600116156101000203166002900480601f0160208091040260200160405190810160405280929190818152602001828054600181600116156101000203166002900480156108845780601f1061085957610100808354040283529160200191610884565b820191906000526020600020905b81548152906001019060200180831161086757829003601f168201915b50505050508152602001600882018054600181600116156101000203166002900480601f0160208091040260200160405190810160405280929190818152602001828054600181600116156101000203166002900480156109265780601f106108fb57610100808354040283529160200191610926565b820191906000526020600020905b81548152906001019060200180831161090957829003601f168201915b5050505050815260200160098201548152602001600a820160009054906101000a900460ff161515151581525050905061095c565b5b919050565b60405180610180016040528082600001518152602001826020015181526020018260400151815260200182606001518152602001826080015181526020018260a0015181526020018260c0015181526020018260e00151815260200182610100015181526020018261012001518152602001826101400151815260200160001515815250600160003373ffffffffffffffffffffffffffffffffffffffff1673ffffffffffffffffffffffffffffffffffffffff1681526020019081526020016000206000820151816000019080519060200190610a4092919061210d565b506020820151816001019080519060200190610a5d92919061210d565b506040820151816002019080519060200190610a7a92919061210d565b506060820151816003019080519060200190610a9792919061210d565b506080820151816004015560a0820151816005019080519060200190610abe92919061210d565b5060c0820151816006019080519060200190610adb92919061210d565b5060e0820151816007019080519060200190610af892919061210d565b506101008201518160080155610120820151816009015561014082015181600a015561016082015181600b0160006101000a81548160ff02191690831515021790555090505050565b60405180610160016040528082600001518152602001826020015181526020018260400151815260200182606001518152602001826080015181526020018260a0015181526020018260c0015181526020018260e0015181526020018261010001518152602001826101200151815260200160001515815250600260003373ffffffffffffffffffffffffffffffffffffffff1673ffffffffffffffffffffffffffffffffffffffff1681526020019081526020016000206000820151816000019080519060200190610c1592919061210d565b506020820151816001019080519060200190610c3292919061210d565b506040820151816002019080519060200190610c4f92919061210d565b50606082015181600301556080820151816004019080519060200190610c7692919061210d565b5060a0820151816005019080519060200190610c9392919061210d565b5060c0820151816006015560e0820151816007019080519060200190610cba92919061210d565b50610100820151816008019080519060200190610cd892919061210d565b50610120820151816009015561014082015181600a0160006101000a81548160ff02191690831515021790555090505050565b6000809054906101000a900473ffffffffffffffffffffffffffffffffffffffff1681565b610d3861218d565b6000600160008473ffffffffffffffffffffffffffffffffffffffff1673ffffffffffffffffffffffffffffffffffffffff16815260200190815260200160002060090154111561128657600160008373ffffffffffffffffffffffffffffffffffffffff1673ffffffffffffffffffffffffffffffffffffffff16815260200190815260200160002060405180610180016040529081600082018054600181600116156101000203166002900480601f016020809104026020016040519081016040528092919081815260200182805460018160011615610100020316600290048015610e675780601f10610e3c57610100808354040283529160200191610e67565b820191906000526020600020905b815481529060010190602001808311610e4a57829003601f168201915b50505050508152602001600182018054600181600116156101000203166002900480601f016020809104026020016040519081016040528092919081815260200182805460018160011615610100020316600290048015610f095780601f10610ede57610100808354040283529160200191610f09565b820191906000526020600020905b815481529060010190602001808311610eec57829003601f168201915b50505050508152602001600282018054600181600116156101000203166002900480601f016020809104026020016040519081016040528092919081815260200182805460018160011615610100020316600290048015610fab5780601f10610f8057610100808354040283529160200191610fab565b820191906000526020600020905b815481529060010190602001808311610f8e57829003601f168201915b50505050508152602001600382018054600181600116156101000203166002900480601f01602080910402602001604051908101604052809291908181526020018280546001816001161561010002031660029004801561104d5780601f106110225761010080835404028352916020019161104d565b820191906000526020600020905b81548152906001019060200180831161103057829003601f168201915b5050505050815260200160048201548152602001600582018054600181600116156101000203166002900480601f0160208091040260200160405190810160405280929190818152602001828054600181600116156101000203166002900480156110f95780601f106110ce576101008083540402835291602001916110f9565b820191906000526020600020905b8154815290600101906020018083116110dc57829003601f168201915b50505050508152602001600682018054600181600116156101000203166002900480601f01602080910402602001604051908101604052809291908181526020018280546001816001161561010002031660029004801561119b5780601f106111705761010080835404028352916020019161119b565b820191906000526020600020905b81548152906001019060200180831161117e57829003601f168201915b50505050508152602001600782018054600181600116156101000203166002900480601f01602080910402602001604051908101604052809291908181526020018280546001816001161561010002031660029004801561123d5780601f106112125761010080835404028352916020019161123d565b820191906000526020600020905b81548152906001019060200180831161122057829003601f168201915b505050505081526020016008820154815260200160098201548152602001600a8201548152602001600b820160009054906101000a900460ff1615151515815250509050611287565b5b919050565b600060405160200161129d90612cea565b60405160208183030381529060405280519060200120836040516020016112c49190612cbe565b60405160208183030381529060405280519060200120141561133d576000600160008473ffffffffffffffffffffffffffffffffffffffff1673ffffffffffffffffffffffffffffffffffffffff16815260200190815260200160002060090154111561133457600190506113ed565b600090506113ed565b60405160200161134c90612cd5565b60405160208183030381529060405280519060200120836040516020016113739190612cbe565b6040516020818303038152906040528051906020012014156113ec576000600260008473ffffffffffffffffffffffffffffffffffffffff1673ffffffffffffffffffffffffffffffffffffffff1681526020019081526020016000206003015411156113e357600190506113ed565b600090506113ed565b5b92915050565b6001602052806000526040600020600091509050806000018054600181600116156101000203166002900480601f01602080910402602001604051908101604052809291908181526020018280546001816001161561010002031660029004801561149f5780601f106114745761010080835404028352916020019161149f565b820191906000526020600020905b81548152906001019060200180831161148257829003601f168201915b505050505090806001018054600181600116156101000203166002900480601f01602080910402602001604051908101604052809291908181526020018280546001816001161561010002031660029004801561153d5780601f106115125761010080835404028352916020019161153d565b820191906000526020600020905b81548152906001019060200180831161152057829003601f168201915b505050505090806002018054600181600116156101000203166002900480601f0160208091040260200160405190810160405280929190818152602001828054600181600116156101000203166002900480156115db5780601f106115b0576101008083540402835291602001916115db565b820191906000526020600020905b8154815290600101906020018083116115be57829003601f168201915b505050505090806003018054600181600116156101000203166002900480601f0160208091040260200160405190810160405280929190818152602001828054600181600116156101000203166002900480156116795780601f1061164e57610100808354040283529160200191611679565b820191906000526020600020905b81548152906001019060200180831161165c57829003601f168201915b505050505090806004015490806005018054600181600116156101000203166002900480601f01602080910402602001604051908101604052809291908181526020018280546001816001161561010002031660029004801561171d5780601f106116f25761010080835404028352916020019161171d565b820191906000526020600020905b81548152906001019060200180831161170057829003601f168201915b505050505090806006018054600181600116156101000203166002900480601f0160208091040260200160405190810160405280929190818152602001828054600181600116156101000203166002900480156117bb5780601f10611790576101008083540402835291602001916117bb565b820191906000526020600020905b81548152906001019060200180831161179e57829003601f168201915b505050505090806007018054600181600116156101000203166002900480601f0160208091040260200160405190810160405280929190818152602001828054600181600116156101000203166002900480156118595780601f1061182e57610100808354040283529160200191611859565b820191906000526020600020905b81548152906001019060200180831161183c57829003601f168201915b50505050509080600801549080600901549080600a01549080600b0160009054906101000a900460ff1690508c565b6002602052806000526040600020600091509050806000018054600181600116156101000203166002900480601f0160208091040260200160405190810160405280929190818152602001828054600181600116156101000203166002900480156119345780601f1061190957610100808354040283529160200191611934565b820191906000526020600020905b81548152906001019060200180831161191757829003601f168201915b505050505090806001018054600181600116156101000203166002900480601f0160208091040260200160405190810160405280929190818152602001828054600181600116156101000203166002900480156119d25780601f106119a7576101008083540402835291602001916119d2565b820191906000526020600020905b8154815290600101906020018083116119b557829003601f168201915b505050505090806002018054600181600116156101000203166002900480601f016020809104026020016040519081016040528092919081815260200182805460018160011615610100020316600290048015611a705780601f10611a4557610100808354040283529160200191611a70565b820191906000526020600020905b815481529060010190602001808311611a5357829003601f168201915b505050505090806003015490806004018054600181600116156101000203166002900480601f016020809104026020016040519081016040528092919081815260200182805460018160011615610100020316600290048015611b145780601f10611ae957610100808354040283529160200191611b14565b820191906000526020600020905b815481529060010190602001808311611af757829003601f168201915b505050505090806005018054600181600116156101000203166002900480601f016020809104026020016040519081016040528092919081815260200182805460018160011615610100020316600290048015611bb25780601f10611b8757610100808354040283529160200191611bb2565b820191906000526020600020905b815481529060010190602001808311611b9557829003601f168201915b505050505090806006015490806007018054600181600116156101000203166002900480601f016020809104026020016040519081016040528092919081815260200182805460018160011615610100020316600290048015611c565780601f10611c2b57610100808354040283529160200191611c56565b820191906000526020600020905b815481529060010190602001808311611c3957829003601f168201915b505050505090806008018054600181600116156101000203166002900480601f016020809104026020016040519081016040528092919081815260200182805460018160011615610100020316600290048015611cf45780601f10611cc957610100808354040283529160200191611cf4565b820191906000526020600020905b815481529060010190602001808311611cd757829003601f168201915b50505050509080600901549080600a0160009054906101000a900460ff1690508b565b60008060009054906101000a900473ffffffffffffffffffffffffffffffffffffffff1673ffffffffffffffffffffffffffffffffffffffff163373ffffffffffffffffffffffffffffffffffffffff1614611da8576040517f08c379a0000000000000000000000000000000000000000000000000000000008152600401611d9f90612f3c565b60405180910390fd5b6000600160008473ffffffffffffffffffffffffffffffffffffffff1673ffffffffffffffffffffffffffffffffffffffff1681526020019081526020016000206009015411611e2d576040517f08c379a0000000000000000000000000000000000000000000000000000000008152600401611e2490612f5c565b60405180910390fd5b60018060008473ffffffffffffffffffffffffffffffffffffffff1673ffffffffffffffffffffffffffffffffffffffff168152602001908152602001600020600b0160006101000a81548160ff021916908315150217905550919050565b6000604051602001611e9d90612cea565b6040516020818303038152906040528051906020012083604051602001611ec49190612cbe565b604051602081830303815290604052805190602001201415611f9c576000600160008473ffffffffffffffffffffffffffffffffffffffff1673ffffffffffffffffffffffffffffffffffffffff16815260200190815260200160002060090154118015611f85575060011515600160008473ffffffffffffffffffffffffffffffffffffffff1673ffffffffffffffffffffffffffffffffffffffff168152602001908152602001600020600b0160009054906101000a900460ff161515145b15611f9357600190506120ab565b600090506120ab565b604051602001611fab90612cd5565b6040516020818303038152906040528051906020012083604051602001611fd29190612cbe565b6040516020818303038152906040528051906020012014156120aa576000600260008473ffffffffffffffffffffffffffffffffffffffff1673ffffffffffffffffffffffffffffffffffffffff16815260200190815260200160002060030154118015612093575060011515600260008473ffffffffffffffffffffffffffffffffffffffff1673ffffffffffffffffffffffffffffffffffffffff168152602001908152602001600020600a0160009054906101000a900460ff161515145b156120a157600190506120ab565b600090506120ab565b5b92915050565b604051806101600160405280606081526020016060815260200160608152602001600081526020016060815260200160608152602001600081526020016060815260200160608152602001600081526020016000151581525090565b828054600181600116156101000203166002900490600052602060002090601f016020900481019282601f1061214e57805160ff191683800117855561217c565b8280016001018555821561217c579182015b8281111561217b578251825591602001919060010190612160565b5b50905061218991906121f0565b5090565b60405180610180016040528060608152602001606081526020016060815260200160608152602001600081526020016060815260200160608152602001606081526020016000815260200160008152602001600081526020016000151581525090565b61221291905b8082111561220e5760008160009055506001016121f6565b5090565b90565b60008135905061222481613123565b92915050565b6000813590506122398161313a565b92915050565b600082601f83011261225057600080fd5b813561226361225e82612fed565b612fc0565b9150808252602083016020830185838301111561227f57600080fd5b61228a8382846130d0565b50505092915050565b600082601f8301126122a457600080fd5b81356122b76122b282613019565b612fc0565b915080825260208301602083018583830111156122d357600080fd5b6122de8382846130d0565b50505092915050565b600061018082840312156122fa57600080fd5b612305610180612fc0565b9050600082013567ffffffffffffffff81111561232157600080fd5b61232d8482850161223f565b600083015250602082013567ffffffffffffffff81111561234d57600080fd5b6123598482850161223f565b602083015250604082013567ffffffffffffffff81111561237957600080fd5b6123858482850161223f565b604083015250606082013567ffffffffffffffff8111156123a557600080fd5b6123b18482850161223f565b60608301525060806123c58482850161265d565b60808301525060a082013567ffffffffffffffff8111156123e557600080fd5b6123f18482850161223f565b60a08301525060c082013567ffffffffffffffff81111561241157600080fd5b61241d8482850161223f565b60c08301525060e082013567ffffffffffffffff81111561243d57600080fd5b6124498482850161223f565b60e08301525061010061245e8482850161265d565b610100830152506101206124748482850161265d565b6101208301525061014061248a8482850161265d565b610140830152506101606124a08482850161222a565b6101608301525092915050565b600061016082840312156124c057600080fd5b6124cb610160612fc0565b9050600082013567ffffffffffffffff8111156124e757600080fd5b6124f38482850161223f565b600083015250602082013567ffffffffffffffff81111561251357600080fd5b61251f8482850161223f565b602083015250604082013567ffffffffffffffff81111561253f57600080fd5b61254b8482850161223f565b604083015250606061255f8482850161265d565b606083015250608082013567ffffffffffffffff81111561257f57600080fd5b61258b8482850161223f565b60808301525060a082013567ffffffffffffffff8111156125ab57600080fd5b6125b78482850161223f565b60a08301525060c06125cb8482850161265d565b60c08301525060e082013567ffffffffffffffff8111156125eb57600080fd5b6125f78482850161223f565b60e08301525061010082013567ffffffffffffffff81111561261857600080fd5b6126248482850161223f565b6101008301525061012061263a8482850161265d565b610120830152506101406126508482850161222a565b6101408301525092915050565b60008135905061266c81613151565b92915050565b60006020828403121561268457600080fd5b600061269284828501612215565b91505092915050565b600080604083850312156126ae57600080fd5b600083013567ffffffffffffffff8111156126c857600080fd5b6126d485828601612293565b92505060206126e585828601612215565b9150509250929050565b60006020828403121561270157600080fd5b600082013567ffffffffffffffff81111561271b57600080fd5b612727848285016122e7565b91505092915050565b60006020828403121561274257600080fd5b600082013567ffffffffffffffff81111561275c57600080fd5b612768848285016124ad565b91505092915050565b61277a81613088565b82525050565b6127898161309a565b82525050565b6127988161309a565b82525050565b60006127a982613050565b6127b3818561307d565b93506127c38185602086016130df565b80840191505092915050565b60006127da82613045565b6127e4818561305b565b93506127f48185602086016130df565b6127fd81613112565b840191505092915050565b600061281382613045565b61281d818561306c565b935061282d8185602086016130df565b61283681613112565b840191505092915050565b600061284e60278361306c565b91507f4e6f2070687973696369616e2065786973747320756e6465722074686973206160008301527f64647265737321000000000000000000000000000000000000000000000000006020830152604082019050919050565b60006128b4603e8361306c565b91507f4f6e6c79207468652076657269667920696e737469747574696f6e206861732060008301527f74686520726967687420746f207665726966792070687973696369616e2100006020830152604082019050919050565b600061291a603c8361306c565b91507f4f6e6c79207468652076657269667920696e737469747574696f6e206861732060008301527f74686520726967687420746f2076657269667920696e737572656421000000006020830152604082019050919050565b600061298060098361307d565b91507f70687973696369616e00000000000000000000000000000000000000000000006000830152600982019050919050565b60006129c060258361306c565b91507f4e6f20696e73757265642065786973747320756e64657220746869732061646460008301527f72657373210000000000000000000000000000000000000000000000000000006020830152604082019050919050565b6000612a2660078361307d565b91507f696e7375726564000000000000000000000000000000000000000000000000006000830152600782019050919050565b6000610180830160008301518482036000860152612a7782826127cf565b91505060208301518482036020860152612a9182826127cf565b91505060408301518482036040860152612aab82826127cf565b91505060608301518482036060860152612ac582826127cf565b9150506080830151612ada6080860182612ca0565b5060a083015184820360a0860152612af282826127cf565b91505060c083015184820360c0860152612b0c82826127cf565b91505060e083015184820360e0860152612b2682826127cf565b915050610100830151612b3d610100860182612ca0565b50610120830151612b52610120860182612ca0565b50610140830151612b67610140860182612ca0565b50610160830151612b7c610160860182612780565b508091505092915050565b6000610160830160008301518482036000860152612ba582826127cf565b91505060208301518482036020860152612bbf82826127cf565b91505060408301518482036040860152612bd982826127cf565b9150506060830151612bee6060860182612ca0565b5060808301518482036080860152612c0682826127cf565b91505060a083015184820360a0860152612c2082826127cf565b91505060c0830151612c3560c0860182612ca0565b5060e083015184820360e0860152612c4d82826127cf565b915050610100830151848203610100860152612c6982826127cf565b915050610120830151612c80610120860182612ca0565b50610140830151612c95610140860182612780565b508091505092915050565b612ca9816130c6565b82525050565b612cb8816130c6565b82525050565b6000612cca828461279e565b915081905092915050565b6000612ce082612973565b9150819050919050565b6000612cf582612a19565b9150819050919050565b6000602082019050612d146000830184612771565b92915050565b6000602082019050612d2f600083018461278f565b92915050565b6000610180820190508181036000830152612d50818f612808565b90508181036020830152612d64818e612808565b90508181036040830152612d78818d612808565b90508181036060830152612d8c818c612808565b9050612d9b608083018b612caf565b81810360a0830152612dad818a612808565b905081810360c0830152612dc18189612808565b905081810360e0830152612dd58188612808565b9050612de5610100830187612caf565b612df3610120830186612caf565b612e01610140830185612caf565b612e0f61016083018461278f565b9d9c50505050505050505050505050565b6000610160820190508181036000830152612e3b818e612808565b90508181036020830152612e4f818d612808565b90508181036040830152612e63818c612808565b9050612e72606083018b612caf565b8181036080830152612e84818a612808565b905081810360a0830152612e988189612808565b9050612ea760c0830188612caf565b81810360e0830152612eb98187612808565b9050818103610100830152612ece8186612808565b9050612ede610120830185612caf565b612eec61014083018461278f565b9c9b505050505050505050505050565b60006020820190508181036000830152612f1581612841565b9050919050565b60006020820190508181036000830152612f35816128a7565b9050919050565b60006020820190508181036000830152612f558161290d565b9050919050565b60006020820190508181036000830152612f75816129b3565b9050919050565b60006020820190508181036000830152612f968184612a59565b905092915050565b60006020820190508181036000830152612fb88184612b87565b905092915050565b6000604051905081810181811067ffffffffffffffff82111715612fe357600080fd5b8060405250919050565b600067ffffffffffffffff82111561300457600080fd5b601f19601f8301169050602081019050919050565b600067ffffffffffffffff82111561303057600080fd5b601f19601f8301169050602081019050919050565b600081519050919050565b600081519050919050565b600082825260208201905092915050565b600082825260208201905092915050565b600081905092915050565b6000613093826130a6565b9050919050565b60008115159050919050565b600073ffffffffffffffffffffffffffffffffffffffff82169050919050565b6000819050919050565b82818337600083830152505050565b60005b838110156130fd5780820151818401526020810190506130e2565b8381111561310c576000848401525b50505050565b6000601f19601f8301169050919050565b61312c81613088565b811461313757600080fd5b50565b6131438161309a565b811461314e57600080fd5b50565b61315a816130c6565b811461316557600080fd5b5056fea365627a7a72315820b3316b2b56679d5aabcff2dd6c691c4142b2f50fb5c20ea64e3f04027bb6eec66c6578706572696d656e74616cf564736f6c63430005100040",
  "source": "// SPDX-License-Identifier: MIT\n\n// Defining the solidity version that is used and allowing experimental functions to allow using structs as datatype within the function call\npragma solidity >=0.4.21 <0.7.0;\npragma experimental ABIEncoderV2;\n\ncontract User {\n    address public verifying_institution;\n\n    constructor () public {\n        verifying_institution = msg.sender;\n    }\n\n    // Defining datatype insured to store all necessary data related to the insured\n    struct Insured {\n        string surname;\n        string name;\n        string street;\n        string street_number;\n        uint post_code;\n        string city;\n\n        string birth_date;\n\n        string insurance;\n        uint insurance_number;\n        uint insured_number;\n        uint insured_status;\n\n        bool verified;\n    }\n\n    // Defining datatype physician to store all necessary data related to the physician\n    struct Physician {\n        string job_title;\n        string surname;\n        string name;\n        uint physician_number;\n\n        string street;\n        string street_number;\n        uint post_code;\n        string city;\n        string telephone_number; \n        uint business_number;\n\n        bool verified;\n    }\n\n    // Insured Number mapped on the related insured object with all data of the insured\n    mapping(address => Insured) public insureds;\n\n    // Physician Number mapped on the related physician object with all data of the physician\n    mapping(address => Physician) public physicians;\n\n    // Function to add a new Insured\n    function addNewInsured(Insured memory insured_)  public{\n        insureds[msg.sender] = Insured(insured_.surname, insured_.name, insured_.street, insured_.street_number, insured_.post_code, insured_.city, insured_.birth_date, insured_.insurance, insured_.insurance_number, insured_.insured_number, insured_.insured_status, false);\n    }\n\n    // From the address of the veryifying_institution every insured can be verified\n    function verifyInsured(address public_key) public returns (bool){\n        require(msg.sender == verifying_institution, \"Only the verify institution has the right to verify insured!\");\n        require(insureds[public_key].insured_number > 0, \"No insured exists under this address!\");\n        insureds[public_key].verified = true;\n    }\n\n    // Function returns true, if insured with the insured_number_ exists\n    function getInsured(address public_key) public view returns(Insured memory){\n        if(insureds[public_key].insured_number > 0){\n            return insureds[public_key];\n        } \n    }\n\n    // Function to add a new Physician\n    function addNewPhysician(Physician memory physician_) public{\n        physicians[msg.sender] = Physician(physician_.job_title, physician_.surname, physician_.name, physician_.physician_number, physician_.street, physician_.street_number, physician_.post_code, physician_.city, physician_.telephone_number, physician_.business_number, false);\n    }\n\n    // From the address of the veryifying_institution every insured can be verified\n    function verifyPhysician(address public_key) public returns (bool){\n        require(msg.sender == verifying_institution, \"Only the verify institution has the right to verify physician!\");\n        require(physicians[public_key].physician_number > 0, \"No physician exists under this address!\");\n        physicians[public_key].verified = true;\n    }\n\n    // Function returns true, if insured with the physician_number_ exists\n    function getPhysician(address public_key) public view returns(Physician memory){\n        if(physicians[public_key].physician_number > 0){\n            return physicians[public_key];\n        } \n    }\n\n    // Checks if an insured exists under the given public_key and if he is verified\n    function checkVerification(string memory role, address public_key) public view returns (bool){\n        if(keccak256(abi.encodePacked(role)) == keccak256(abi.encodePacked('insured'))){\n            if(insureds[public_key].insured_number > 0 && insureds[public_key].verified == true){\n                return true;\n            } else {\n                return false;\n            }\n        } else if (keccak256(abi.encodePacked(role)) == keccak256(abi.encodePacked('physician'))){\n            if(physicians[public_key].physician_number > 0 && physicians[public_key].verified == true){\n                return true;\n            } else {\n                return false;\n            }\n        }\n    }\n\n    function checkExistence(string memory role, address public_key) public view returns (bool){\n        if(keccak256(abi.encodePacked(role)) == keccak256(abi.encodePacked('insured'))){\n            if(insureds[public_key].insured_number >0){\n                return true;\n            } else {\n                return false;\n            }\n        } else if (keccak256(abi.encodePacked(role)) == keccak256(abi.encodePacked('physician'))){\n            if(physicians[public_key].physician_number >0){\n                return true;\n            } else {\n                return false;\n            }\n        }\n    }\n}",
  "sourcePath": "/Users/valentin/Documents/Programmdaten/Visual_Studio/5_Semester/Integrationsseminar/blockchain_e_prescription/contracts/User.sol",
  "compiler": {
    "name": "solc",
    "version": "0.5.16+commit.9c3226ce.Emscripten.clang"
  },
  "schemaVersion": "3.3.2",
  "updatedAt": "2020-12-28T19:41:28.233Z",
  "networkType": "ethereum",
  "devdoc": {
    "methods": {}
  },
  "userdoc": {
    "methods": {}
  }
}