{
  "contractName": "User",
  "abi": [
    {
      "constant": false,
      "inputs": [
        {
          "internalType": "string",
          "name": "surname_",
          "type": "string"
        },
        {
          "internalType": "string",
          "name": "name_",
          "type": "string"
        },
        {
          "internalType": "string",
          "name": "street_",
          "type": "string"
        },
        {
          "internalType": "string",
          "name": "street_number_",
          "type": "string"
        },
        {
          "internalType": "uint256",
          "name": "post_code_",
          "type": "uint256"
        },
        {
          "internalType": "string",
          "name": "city_",
          "type": "string"
        },
        {
          "internalType": "string",
          "name": "birth_date_",
          "type": "string"
        }
      ],
      "name": "addNewUser",
      "outputs": [],
      "payable": false,
      "stateMutability": "nonpayable",
      "type": "function"
    }
  ],
  "bytecode": "0x608060405234801561001057600080fd5b5061062f806100206000396000f3fe608060405234801561001057600080fd5b506004361061002b5760003560e01c8063dc4e832a14610030575b600080fd5b6103e6600480360360e081101561004657600080fd5b810190808035906020019064010000000081111561006357600080fd5b82018360208201111561007557600080fd5b8035906020019184600183028401116401000000008311171561009757600080fd5b91908080601f016020809104026020016040519081016040528093929190818152602001838380828437600081840152601f19601f820116905080830192505050505050509192919290803590602001906401000000008111156100fa57600080fd5b82018360208201111561010c57600080fd5b8035906020019184600183028401116401000000008311171561012e57600080fd5b91908080601f016020809104026020016040519081016040528093929190818152602001838380828437600081840152601f19601f8201169050808301925050505050505091929192908035906020019064010000000081111561019157600080fd5b8201836020820111156101a357600080fd5b803590602001918460018302840111640100000000831117156101c557600080fd5b91908080601f016020809104026020016040519081016040528093929190818152602001838380828437600081840152601f19601f8201169050808301925050505050505091929192908035906020019064010000000081111561022857600080fd5b82018360208201111561023a57600080fd5b8035906020019184600183028401116401000000008311171561025c57600080fd5b91908080601f016020809104026020016040519081016040528093929190818152602001838380828437600081840152601f19601f82011690508083019250505050505050919291929080359060200190929190803590602001906401000000008111156102c957600080fd5b8201836020820111156102db57600080fd5b803590602001918460018302840111640100000000831117156102fd57600080fd5b91908080601f016020809104026020016040519081016040528093929190818152602001838380828437600081840152601f19601f8201169050808301925050505050505091929192908035906020019064010000000081111561036057600080fd5b82018360208201111561037257600080fd5b8035906020019184600183028401116401000000008311171561039457600080fd5b91908080601f016020809104026020016040519081016040528093929190818152602001838380828437600081840152601f19601f8201169050808301925050505050505091929192905050506103e8565b005b6103f0610518565b6040518060e0016040528089815260200188815260200187815260200186815260200185815260200184815260200183815250905060008190806001815401808255809150509060018203906000526020600020906007020160009091929091909150600082015181600001908051906020019061046f929190610555565b50602082015181600101908051906020019061048c929190610555565b5060408201518160020190805190602001906104a9929190610555565b5060608201518160030190805190602001906104c6929190610555565b506080820151816004015560a08201518160050190805190602001906104ed929190610555565b5060c082015181600601908051906020019061050a929190610555565b505050505050505050505050565b6040518060e00160405280606081526020016060815260200160608152602001606081526020016000815260200160608152602001606081525090565b828054600181600116156101000203166002900490600052602060002090601f016020900481019282601f1061059657805160ff19168380011785556105c4565b828001600101855582156105c4579182015b828111156105c35782518255916020019190600101906105a8565b5b5090506105d191906105d5565b5090565b6105f791905b808211156105f35760008160009055506001016105db565b5090565b9056fea265627a7a72315820ce2a8c8b81d0c49eb75206706e9235e0f482645fbdff23c55dd09cf682884b6064736f6c63430005100032",
  "source": "// SPDX-License-Identifier: MIT\npragma solidity >=0.4.21 <0.7.0;\n\ncontract User {\n\n    struct Insured {\n        string surname;\n        string name;\n        string street;\n        string street_number;\n        uint post_code;\n        string city;\n        string birth_date;\n    }\n\n    Insured[] registeredInsured;\n\n    function addNewUser(string memory surname_, string memory name_, string memory street_, string memory street_number_, uint post_code_, string memory city_, string memory birth_date_)  public{\n\n        Insured memory insured_ = Insured(\n            {\n                surname: surname_,\n                name: name_,\n                street: street_,\n                street_number: street_number_,\n                post_code: post_code_,\n                city: city_,\n                birth_date : birth_date_\n            }\n        );\n\n        registeredInsured.push(insured_);\n    }\n\n}",
  "sourcePath": "/Users/valentin/Documents/Programmdaten/Visual_Studio/5_Semester/Integrationsseminar/blockchain_e_prescription/contracts/User.sol",
  "compiler": {
    "name": "solc",
    "version": "0.5.16+commit.9c3226ce.Emscripten.clang"
  },
  "schemaVersion": "3.3.2",
  "updatedAt": "2020-12-17T21:41:48.961Z",
  "networkType": "ethereum",
  "devdoc": {
    "methods": {}
  },
  "userdoc": {
    "methods": {}
  }
}