{
  "contractName": "User",
  "abi": [
    {
      "inputs": [],
      "payable": false,
      "stateMutability": "nonpayable",
      "type": "constructor"
    },
    {
      "constant": true,
      "inputs": [
        {
          "internalType": "address",
          "name": "",
          "type": "address"
        }
      ],
      "name": "insureds",
      "outputs": [
        {
          "internalType": "string",
          "name": "surname",
          "type": "string"
        },
        {
          "internalType": "string",
          "name": "name",
          "type": "string"
        },
        {
          "internalType": "string",
          "name": "street",
          "type": "string"
        },
        {
          "internalType": "string",
          "name": "street_number",
          "type": "string"
        },
        {
          "internalType": "uint256",
          "name": "post_code",
          "type": "uint256"
        },
        {
          "internalType": "string",
          "name": "city",
          "type": "string"
        },
        {
          "internalType": "string",
          "name": "birth_date",
          "type": "string"
        },
        {
          "internalType": "string",
          "name": "insurance",
          "type": "string"
        },
        {
          "internalType": "uint256",
          "name": "insurance_number",
          "type": "uint256"
        },
        {
          "internalType": "uint256",
          "name": "insured_number",
          "type": "uint256"
        },
        {
          "internalType": "uint256",
          "name": "insured_status",
          "type": "uint256"
        },
        {
          "internalType": "bool",
          "name": "verified",
          "type": "bool"
        }
      ],
      "payable": false,
      "stateMutability": "view",
      "type": "function"
    },
    {
      "constant": true,
      "inputs": [
        {
          "internalType": "address",
          "name": "",
          "type": "address"
        }
      ],
      "name": "physicians",
      "outputs": [
        {
          "internalType": "string",
          "name": "job_title",
          "type": "string"
        },
        {
          "internalType": "string",
          "name": "surname",
          "type": "string"
        },
        {
          "internalType": "string",
          "name": "name",
          "type": "string"
        },
        {
          "internalType": "uint256",
          "name": "physician_number",
          "type": "uint256"
        },
        {
          "internalType": "string",
          "name": "street",
          "type": "string"
        },
        {
          "internalType": "string",
          "name": "street_number",
          "type": "string"
        },
        {
          "internalType": "uint256",
          "name": "post_code",
          "type": "uint256"
        },
        {
          "internalType": "string",
          "name": "city",
          "type": "string"
        },
        {
          "internalType": "string",
          "name": "telephone_number",
          "type": "string"
        },
        {
          "internalType": "uint256",
          "name": "business_number",
          "type": "uint256"
        },
        {
          "internalType": "bool",
          "name": "verified",
          "type": "bool"
        }
      ],
      "payable": false,
      "stateMutability": "view",
      "type": "function"
    },
    {
      "constant": true,
      "inputs": [],
      "name": "verifying_institution",
      "outputs": [
        {
          "internalType": "address",
          "name": "",
          "type": "address"
        }
      ],
      "payable": false,
      "stateMutability": "view",
      "type": "function"
    },
    {
      "constant": false,
      "inputs": [
        {
          "components": [
            {
              "internalType": "string",
              "name": "surname",
              "type": "string"
            },
            {
              "internalType": "string",
              "name": "name",
              "type": "string"
            },
            {
              "internalType": "string",
              "name": "street",
              "type": "string"
            },
            {
              "internalType": "string",
              "name": "street_number",
              "type": "string"
            },
            {
              "internalType": "uint256",
              "name": "post_code",
              "type": "uint256"
            },
            {
              "internalType": "string",
              "name": "city",
              "type": "string"
            },
            {
              "internalType": "string",
              "name": "birth_date",
              "type": "string"
            },
            {
              "internalType": "string",
              "name": "insurance",
              "type": "string"
            },
            {
              "internalType": "uint256",
              "name": "insurance_number",
              "type": "uint256"
            },
            {
              "internalType": "uint256",
              "name": "insured_number",
              "type": "uint256"
            },
            {
              "internalType": "uint256",
              "name": "insured_status",
              "type": "uint256"
            },
            {
              "internalType": "bool",
              "name": "verified",
              "type": "bool"
            }
          ],
          "internalType": "struct User.Insured",
          "name": "insured_",
          "type": "tuple"
        }
      ],
      "name": "addNewInsured",
      "outputs": [],
      "payable": false,
      "stateMutability": "nonpayable",
      "type": "function"
    },
    {
      "constant": false,
      "inputs": [
        {
          "internalType": "address",
          "name": "public_key",
          "type": "address"
        }
      ],
      "name": "verifyInsured",
      "outputs": [
        {
          "internalType": "bool",
          "name": "",
          "type": "bool"
        }
      ],
      "payable": false,
      "stateMutability": "nonpayable",
      "type": "function"
    },
    {
      "constant": true,
      "inputs": [
        {
          "internalType": "address",
          "name": "public_key",
          "type": "address"
        }
      ],
      "name": "getInsured",
      "outputs": [
        {
          "components": [
            {
              "internalType": "string",
              "name": "surname",
              "type": "string"
            },
            {
              "internalType": "string",
              "name": "name",
              "type": "string"
            },
            {
              "internalType": "string",
              "name": "street",
              "type": "string"
            },
            {
              "internalType": "string",
              "name": "street_number",
              "type": "string"
            },
            {
              "internalType": "uint256",
              "name": "post_code",
              "type": "uint256"
            },
            {
              "internalType": "string",
              "name": "city",
              "type": "string"
            },
            {
              "internalType": "string",
              "name": "birth_date",
              "type": "string"
            },
            {
              "internalType": "string",
              "name": "insurance",
              "type": "string"
            },
            {
              "internalType": "uint256",
              "name": "insurance_number",
              "type": "uint256"
            },
            {
              "internalType": "uint256",
              "name": "insured_number",
              "type": "uint256"
            },
            {
              "internalType": "uint256",
              "name": "insured_status",
              "type": "uint256"
            },
            {
              "internalType": "bool",
              "name": "verified",
              "type": "bool"
            }
          ],
          "internalType": "struct User.Insured",
          "name": "",
          "type": "tuple"
        }
      ],
      "payable": false,
      "stateMutability": "view",
      "type": "function"
    },
    {
      "constant": false,
      "inputs": [
        {
          "components": [
            {
              "internalType": "string",
              "name": "job_title",
              "type": "string"
            },
            {
              "internalType": "string",
              "name": "surname",
              "type": "string"
            },
            {
              "internalType": "string",
              "name": "name",
              "type": "string"
            },
            {
              "internalType": "uint256",
              "name": "physician_number",
              "type": "uint256"
            },
            {
              "internalType": "string",
              "name": "street",
              "type": "string"
            },
            {
              "internalType": "string",
              "name": "street_number",
              "type": "string"
            },
            {
              "internalType": "uint256",
              "name": "post_code",
              "type": "uint256"
            },
            {
              "internalType": "string",
              "name": "city",
              "type": "string"
            },
            {
              "internalType": "string",
              "name": "telephone_number",
              "type": "string"
            },
            {
              "internalType": "uint256",
              "name": "business_number",
              "type": "uint256"
            },
            {
              "internalType": "bool",
              "name": "verified",
              "type": "bool"
            }
          ],
          "internalType": "struct User.Physician",
          "name": "physician_",
          "type": "tuple"
        }
      ],
      "name": "addNewPhysician",
      "outputs": [],
      "payable": false,
      "stateMutability": "nonpayable",
      "type": "function"
    },
    {
      "constant": false,
      "inputs": [
        {
          "internalType": "address",
          "name": "public_key",
          "type": "address"
        }
      ],
      "name": "verifyPhysician",
      "outputs": [
        {
          "internalType": "bool",
          "name": "",
          "type": "bool"
        }
      ],
      "payable": false,
      "stateMutability": "nonpayable",
      "type": "function"
    },
    {
      "constant": true,
      "inputs": [
        {
          "internalType": "address",
          "name": "public_key",
          "type": "address"
        }
      ],
      "name": "getPhysician",
      "outputs": [
        {
          "components": [
            {
              "internalType": "string",
              "name": "job_title",
              "type": "string"
            },
            {
              "internalType": "string",
              "name": "surname",
              "type": "string"
            },
            {
              "internalType": "string",
              "name": "name",
              "type": "string"
            },
            {
              "internalType": "uint256",
              "name": "physician_number",
              "type": "uint256"
            },
            {
              "internalType": "string",
              "name": "street",
              "type": "string"
            },
            {
              "internalType": "string",
              "name": "street_number",
              "type": "string"
            },
            {
              "internalType": "uint256",
              "name": "post_code",
              "type": "uint256"
            },
            {
              "internalType": "string",
              "name": "city",
              "type": "string"
            },
            {
              "internalType": "string",
              "name": "telephone_number",
              "type": "string"
            },
            {
              "internalType": "uint256",
              "name": "business_number",
              "type": "uint256"
            },
            {
              "internalType": "bool",
              "name": "verified",
              "type": "bool"
            }
          ],
          "internalType": "struct User.Physician",
          "name": "",
          "type": "tuple"
        }
      ],
      "payable": false,
      "stateMutability": "view",
      "type": "function"
    },
    {
      "constant": true,
      "inputs": [
        {
          "internalType": "address",
          "name": "public_key",
          "type": "address"
        }
      ],
      "name": "checkInsuredVerification",
      "outputs": [
        {
          "internalType": "bool",
          "name": "",
          "type": "bool"
        }
      ],
      "payable": false,
      "stateMutability": "view",
      "type": "function"
    },
    {
      "constant": true,
      "inputs": [
        {
          "internalType": "address",
          "name": "public_key",
          "type": "address"
        }
      ],
      "name": "checkPhysicianVerification",
      "outputs": [
        {
          "internalType": "bool",
          "name": "",
          "type": "bool"
        }
      ],
      "payable": false,
      "stateMutability": "view",
      "type": "function"
    }
  ],
  "bytecode": "0x608060405234801561001057600080fd5b50336000806101000a81548173ffffffffffffffffffffffffffffffffffffffff021916908373ffffffffffffffffffffffffffffffffffffffff160217905550612dbf806100606000396000f3fe608060405234801561001057600080fd5b50600436106100a95760003560e01c806381eceeb71161007157806381eceeb714610176578063c11dd80814610194578063c2b85314146101c4578063c863b9e5146101f4578063e669845a1461022f578063f5860dfc14610269576100a9565b80630ee60c57146100ae5780631ee952ad146100de57806327b52abc1461010e5780634b7b98421461013e5780636e98f9f31461015a575b600080fd5b6100c860048036036100c3919081019061240e565b610299565b6040516100d59190612970565b60405180910390f35b6100f860048036036100f3919081019061240e565b61040f565b6040516101059190612bf4565b60405180910390f35b6101286004803603610123919081019061240e565b610961565b6040516101359190612970565b60405180910390f35b61015860048036036101539190810190612437565b610a1f565b005b610174600480360361016f9190810190612478565b610bff565b005b61017e610dc9565b60405161018b9190612955565b60405180910390f35b6101ae60048036036101a9919081019061240e565b610dee565b6040516101bb9190612bd2565b60405180910390f35b6101de60048036036101d9919081019061240e565b61134a565b6040516101eb9190612970565b60405180910390f35b61020e6004803603610209919081019061240e565b611408565b6040516102269c9b9a9998979695949392919061298b565b60405180910390f35b6102496004803603610244919081019061240e565b61189d565b6040516102609b9a99989796959493929190612a76565b60405180910390f35b610283600480360361027e919081019061240e565b611d2c565b6040516102909190612970565b60405180910390f35b60008060009054906101000a900473ffffffffffffffffffffffffffffffffffffffff1673ffffffffffffffffffffffffffffffffffffffff163373ffffffffffffffffffffffffffffffffffffffff161461032a576040517f08c379a000000000000000000000000000000000000000000000000000000000815260040161032190612b72565b60405180910390fd5b6000600260008473ffffffffffffffffffffffffffffffffffffffff1673ffffffffffffffffffffffffffffffffffffffff16815260200190815260200160002060030154116103af576040517f08c379a00000000000000000000000000000000000000000000000000000000081526004016103a690612b52565b60405180910390fd5b6001600260008473ffffffffffffffffffffffffffffffffffffffff1673ffffffffffffffffffffffffffffffffffffffff168152602001908152602001600020600a0160006101000a81548160ff021916908315150217905550919050565b610417611ea1565b6000600260008473ffffffffffffffffffffffffffffffffffffffff1673ffffffffffffffffffffffffffffffffffffffff16815260200190815260200160002060030154111561095b57600260008373ffffffffffffffffffffffffffffffffffffffff1673ffffffffffffffffffffffffffffffffffffffff16815260200190815260200160002060405180610160016040529081600082018054600181600116156101000203166002900480601f0160208091040260200160405190810160405280929190818152602001828054600181600116156101000203166002900480156105465780601f1061051b57610100808354040283529160200191610546565b820191906000526020600020905b81548152906001019060200180831161052957829003601f168201915b50505050508152602001600182018054600181600116156101000203166002900480601f0160208091040260200160405190810160405280929190818152602001828054600181600116156101000203166002900480156105e85780601f106105bd576101008083540402835291602001916105e8565b820191906000526020600020905b8154815290600101906020018083116105cb57829003601f168201915b50505050508152602001600282018054600181600116156101000203166002900480601f01602080910402602001604051908101604052809291908181526020018280546001816001161561010002031660029004801561068a5780601f1061065f5761010080835404028352916020019161068a565b820191906000526020600020905b81548152906001019060200180831161066d57829003601f168201915b5050505050815260200160038201548152602001600482018054600181600116156101000203166002900480601f0160208091040260200160405190810160405280929190818152602001828054600181600116156101000203166002900480156107365780601f1061070b57610100808354040283529160200191610736565b820191906000526020600020905b81548152906001019060200180831161071957829003601f168201915b50505050508152602001600582018054600181600116156101000203166002900480601f0160208091040260200160405190810160405280929190818152602001828054600181600116156101000203166002900480156107d85780601f106107ad576101008083540402835291602001916107d8565b820191906000526020600020905b8154815290600101906020018083116107bb57829003601f168201915b5050505050815260200160068201548152602001600782018054600181600116156101000203166002900480601f0160208091040260200160405190810160405280929190818152602001828054600181600116156101000203166002900480156108845780601f1061085957610100808354040283529160200191610884565b820191906000526020600020905b81548152906001019060200180831161086757829003601f168201915b50505050508152602001600882018054600181600116156101000203166002900480601f0160208091040260200160405190810160405280929190818152602001828054600181600116156101000203166002900480156109265780601f106108fb57610100808354040283529160200191610926565b820191906000526020600020905b81548152906001019060200180831161090957829003601f168201915b5050505050815260200160098201548152602001600a820160009054906101000a900460ff161515151581525050905061095c565b5b919050565b600080600160008473ffffffffffffffffffffffffffffffffffffffff1673ffffffffffffffffffffffffffffffffffffffff16815260200190815260200160002060090154118015610a07575060011515600160008473ffffffffffffffffffffffffffffffffffffffff1673ffffffffffffffffffffffffffffffffffffffff168152602001908152602001600020600b0160009054906101000a900460ff161515145b15610a155760019050610a1a565b600090505b919050565b60405180610180016040528082600001518152602001826020015181526020018260400151815260200182606001518152602001826080015181526020018260a0015181526020018260c0015181526020018260e00151815260200182610100015181526020018261012001518152602001826101400151815260200160001515815250600160003373ffffffffffffffffffffffffffffffffffffffff1673ffffffffffffffffffffffffffffffffffffffff1681526020019081526020016000206000820151816000019080519060200190610afe929190611efd565b506020820151816001019080519060200190610b1b929190611efd565b506040820151816002019080519060200190610b38929190611efd565b506060820151816003019080519060200190610b55929190611efd565b506080820151816004015560a0820151816005019080519060200190610b7c929190611efd565b5060c0820151816006019080519060200190610b99929190611efd565b5060e0820151816007019080519060200190610bb6929190611efd565b506101008201518160080155610120820151816009015561014082015181600a015561016082015181600b0160006101000a81548160ff02191690831515021790555090505050565b60405180610160016040528082600001518152602001826020015181526020018260400151815260200182606001518152602001826080015181526020018260a0015181526020018260c0015181526020018260e0015181526020018261010001518152602001826101200151815260200160001515815250600260003373ffffffffffffffffffffffffffffffffffffffff1673ffffffffffffffffffffffffffffffffffffffff1681526020019081526020016000206000820151816000019080519060200190610cd3929190611efd565b506020820151816001019080519060200190610cf0929190611efd565b506040820151816002019080519060200190610d0d929190611efd565b50606082015181600301556080820151816004019080519060200190610d34929190611efd565b5060a0820151816005019080519060200190610d51929190611efd565b5060c0820151816006015560e0820151816007019080519060200190610d78929190611efd565b50610100820151816008019080519060200190610d96929190611efd565b50610120820151816009015561014082015181600a0160006101000a81548160ff02191690831515021790555090505050565b6000809054906101000a900473ffffffffffffffffffffffffffffffffffffffff1681565b610df6611f7d565b6000600160008473ffffffffffffffffffffffffffffffffffffffff1673ffffffffffffffffffffffffffffffffffffffff16815260200190815260200160002060090154111561134457600160008373ffffffffffffffffffffffffffffffffffffffff1673ffffffffffffffffffffffffffffffffffffffff16815260200190815260200160002060405180610180016040529081600082018054600181600116156101000203166002900480601f016020809104026020016040519081016040528092919081815260200182805460018160011615610100020316600290048015610f255780601f10610efa57610100808354040283529160200191610f25565b820191906000526020600020905b815481529060010190602001808311610f0857829003601f168201915b50505050508152602001600182018054600181600116156101000203166002900480601f016020809104026020016040519081016040528092919081815260200182805460018160011615610100020316600290048015610fc75780601f10610f9c57610100808354040283529160200191610fc7565b820191906000526020600020905b815481529060010190602001808311610faa57829003601f168201915b50505050508152602001600282018054600181600116156101000203166002900480601f0160208091040260200160405190810160405280929190818152602001828054600181600116156101000203166002900480156110695780601f1061103e57610100808354040283529160200191611069565b820191906000526020600020905b81548152906001019060200180831161104c57829003601f168201915b50505050508152602001600382018054600181600116156101000203166002900480601f01602080910402602001604051908101604052809291908181526020018280546001816001161561010002031660029004801561110b5780601f106110e05761010080835404028352916020019161110b565b820191906000526020600020905b8154815290600101906020018083116110ee57829003601f168201915b5050505050815260200160048201548152602001600582018054600181600116156101000203166002900480601f0160208091040260200160405190810160405280929190818152602001828054600181600116156101000203166002900480156111b75780601f1061118c576101008083540402835291602001916111b7565b820191906000526020600020905b81548152906001019060200180831161119a57829003601f168201915b50505050508152602001600682018054600181600116156101000203166002900480601f0160208091040260200160405190810160405280929190818152602001828054600181600116156101000203166002900480156112595780601f1061122e57610100808354040283529160200191611259565b820191906000526020600020905b81548152906001019060200180831161123c57829003601f168201915b50505050508152602001600782018054600181600116156101000203166002900480601f0160208091040260200160405190810160405280929190818152602001828054600181600116156101000203166002900480156112fb5780601f106112d0576101008083540402835291602001916112fb565b820191906000526020600020905b8154815290600101906020018083116112de57829003601f168201915b505050505081526020016008820154815260200160098201548152602001600a8201548152602001600b820160009054906101000a900460ff1615151515815250509050611345565b5b919050565b600080600260008473ffffffffffffffffffffffffffffffffffffffff1673ffffffffffffffffffffffffffffffffffffffff168152602001908152602001600020600301541180156113f0575060011515600260008473ffffffffffffffffffffffffffffffffffffffff1673ffffffffffffffffffffffffffffffffffffffff168152602001908152602001600020600a0160009054906101000a900460ff161515145b156113fe5760019050611403565b600090505b919050565b6001602052806000526040600020600091509050806000018054600181600116156101000203166002900480601f0160208091040260200160405190810160405280929190818152602001828054600181600116156101000203166002900480156114b45780601f10611489576101008083540402835291602001916114b4565b820191906000526020600020905b81548152906001019060200180831161149757829003601f168201915b505050505090806001018054600181600116156101000203166002900480601f0160208091040260200160405190810160405280929190818152602001828054600181600116156101000203166002900480156115525780601f1061152757610100808354040283529160200191611552565b820191906000526020600020905b81548152906001019060200180831161153557829003601f168201915b505050505090806002018054600181600116156101000203166002900480601f0160208091040260200160405190810160405280929190818152602001828054600181600116156101000203166002900480156115f05780601f106115c5576101008083540402835291602001916115f0565b820191906000526020600020905b8154815290600101906020018083116115d357829003601f168201915b505050505090806003018054600181600116156101000203166002900480601f01602080910402602001604051908101604052809291908181526020018280546001816001161561010002031660029004801561168e5780601f106116635761010080835404028352916020019161168e565b820191906000526020600020905b81548152906001019060200180831161167157829003601f168201915b505050505090806004015490806005018054600181600116156101000203166002900480601f0160208091040260200160405190810160405280929190818152602001828054600181600116156101000203166002900480156117325780601f1061170757610100808354040283529160200191611732565b820191906000526020600020905b81548152906001019060200180831161171557829003601f168201915b505050505090806006018054600181600116156101000203166002900480601f0160208091040260200160405190810160405280929190818152602001828054600181600116156101000203166002900480156117d05780601f106117a5576101008083540402835291602001916117d0565b820191906000526020600020905b8154815290600101906020018083116117b357829003601f168201915b505050505090806007018054600181600116156101000203166002900480601f01602080910402602001604051908101604052809291908181526020018280546001816001161561010002031660029004801561186e5780601f106118435761010080835404028352916020019161186e565b820191906000526020600020905b81548152906001019060200180831161185157829003601f168201915b50505050509080600801549080600901549080600a01549080600b0160009054906101000a900460ff1690508c565b6002602052806000526040600020600091509050806000018054600181600116156101000203166002900480601f0160208091040260200160405190810160405280929190818152602001828054600181600116156101000203166002900480156119495780601f1061191e57610100808354040283529160200191611949565b820191906000526020600020905b81548152906001019060200180831161192c57829003601f168201915b505050505090806001018054600181600116156101000203166002900480601f0160208091040260200160405190810160405280929190818152602001828054600181600116156101000203166002900480156119e75780601f106119bc576101008083540402835291602001916119e7565b820191906000526020600020905b8154815290600101906020018083116119ca57829003601f168201915b505050505090806002018054600181600116156101000203166002900480601f016020809104026020016040519081016040528092919081815260200182805460018160011615610100020316600290048015611a855780601f10611a5a57610100808354040283529160200191611a85565b820191906000526020600020905b815481529060010190602001808311611a6857829003601f168201915b505050505090806003015490806004018054600181600116156101000203166002900480601f016020809104026020016040519081016040528092919081815260200182805460018160011615610100020316600290048015611b295780601f10611afe57610100808354040283529160200191611b29565b820191906000526020600020905b815481529060010190602001808311611b0c57829003601f168201915b505050505090806005018054600181600116156101000203166002900480601f016020809104026020016040519081016040528092919081815260200182805460018160011615610100020316600290048015611bc75780601f10611b9c57610100808354040283529160200191611bc7565b820191906000526020600020905b815481529060010190602001808311611baa57829003601f168201915b505050505090806006015490806007018054600181600116156101000203166002900480601f016020809104026020016040519081016040528092919081815260200182805460018160011615610100020316600290048015611c6b5780601f10611c4057610100808354040283529160200191611c6b565b820191906000526020600020905b815481529060010190602001808311611c4e57829003601f168201915b505050505090806008018054600181600116156101000203166002900480601f016020809104026020016040519081016040528092919081815260200182805460018160011615610100020316600290048015611d095780601f10611cde57610100808354040283529160200191611d09565b820191906000526020600020905b815481529060010190602001808311611cec57829003601f168201915b50505050509080600901549080600a0160009054906101000a900460ff1690508b565b60008060009054906101000a900473ffffffffffffffffffffffffffffffffffffffff1673ffffffffffffffffffffffffffffffffffffffff163373ffffffffffffffffffffffffffffffffffffffff1614611dbd576040517f08c379a0000000000000000000000000000000000000000000000000000000008152600401611db490612b92565b60405180910390fd5b6000600160008473ffffffffffffffffffffffffffffffffffffffff1673ffffffffffffffffffffffffffffffffffffffff1681526020019081526020016000206009015411611e42576040517f08c379a0000000000000000000000000000000000000000000000000000000008152600401611e3990612bb2565b60405180910390fd5b60018060008473ffffffffffffffffffffffffffffffffffffffff1673ffffffffffffffffffffffffffffffffffffffff168152602001908152602001600020600b0160006101000a81548160ff021916908315150217905550919050565b604051806101600160405280606081526020016060815260200160608152602001600081526020016060815260200160608152602001600081526020016060815260200160608152602001600081526020016000151581525090565b828054600181600116156101000203166002900490600052602060002090601f016020900481019282601f10611f3e57805160ff1916838001178555611f6c565b82800160010185558215611f6c579182015b82811115611f6b578251825591602001919060010190611f50565b5b509050611f799190611fe0565b5090565b60405180610180016040528060608152602001606081526020016060815260200160608152602001600081526020016060815260200160608152602001606081526020016000815260200160008152602001600081526020016000151581525090565b61200291905b80821115611ffe576000816000905550600101611fe6565b5090565b90565b60008135905061201481612d37565b92915050565b60008135905061202981612d4e565b92915050565b600082601f83011261204057600080fd5b813561205361204e82612c43565b612c16565b9150808252602083016020830185838301111561206f57600080fd5b61207a838284612ce4565b50505092915050565b6000610180828403121561209657600080fd5b6120a1610180612c16565b9050600082013567ffffffffffffffff8111156120bd57600080fd5b6120c98482850161202f565b600083015250602082013567ffffffffffffffff8111156120e957600080fd5b6120f58482850161202f565b602083015250604082013567ffffffffffffffff81111561211557600080fd5b6121218482850161202f565b604083015250606082013567ffffffffffffffff81111561214157600080fd5b61214d8482850161202f565b6060830152506080612161848285016123f9565b60808301525060a082013567ffffffffffffffff81111561218157600080fd5b61218d8482850161202f565b60a08301525060c082013567ffffffffffffffff8111156121ad57600080fd5b6121b98482850161202f565b60c08301525060e082013567ffffffffffffffff8111156121d957600080fd5b6121e58482850161202f565b60e0830152506101006121fa848285016123f9565b61010083015250610120612210848285016123f9565b61012083015250610140612226848285016123f9565b6101408301525061016061223c8482850161201a565b6101608301525092915050565b6000610160828403121561225c57600080fd5b612267610160612c16565b9050600082013567ffffffffffffffff81111561228357600080fd5b61228f8482850161202f565b600083015250602082013567ffffffffffffffff8111156122af57600080fd5b6122bb8482850161202f565b602083015250604082013567ffffffffffffffff8111156122db57600080fd5b6122e78482850161202f565b60408301525060606122fb848285016123f9565b606083015250608082013567ffffffffffffffff81111561231b57600080fd5b6123278482850161202f565b60808301525060a082013567ffffffffffffffff81111561234757600080fd5b6123538482850161202f565b60a08301525060c0612367848285016123f9565b60c08301525060e082013567ffffffffffffffff81111561238757600080fd5b6123938482850161202f565b60e08301525061010082013567ffffffffffffffff8111156123b457600080fd5b6123c08482850161202f565b610100830152506101206123d6848285016123f9565b610120830152506101406123ec8482850161201a565b6101408301525092915050565b60008135905061240881612d65565b92915050565b60006020828403121561242057600080fd5b600061242e84828501612005565b91505092915050565b60006020828403121561244957600080fd5b600082013567ffffffffffffffff81111561246357600080fd5b61246f84828501612083565b91505092915050565b60006020828403121561248a57600080fd5b600082013567ffffffffffffffff8111156124a457600080fd5b6124b084828501612249565b91505092915050565b6124c281612c9c565b82525050565b6124d181612cae565b82525050565b6124e081612cae565b82525050565b60006124f182612c6f565b6124fb8185612c7a565b935061250b818560208601612cf3565b61251481612d26565b840191505092915050565b600061252a82612c6f565b6125348185612c8b565b9350612544818560208601612cf3565b61254d81612d26565b840191505092915050565b6000612565602783612c8b565b91507f4e6f2070687973696369616e2065786973747320756e6465722074686973206160008301527f64647265737321000000000000000000000000000000000000000000000000006020830152604082019050919050565b60006125cb603e83612c8b565b91507f4f6e6c79207468652076657269667920696e737469747574696f6e206861732060008301527f74686520726967687420746f207665726966792070687973696369616e2100006020830152604082019050919050565b6000612631603c83612c8b565b91507f4f6e6c79207468652076657269667920696e737469747574696f6e206861732060008301527f74686520726967687420746f2076657269667920696e737572656421000000006020830152604082019050919050565b6000612697602583612c8b565b91507f4e6f20696e73757265642065786973747320756e64657220746869732061646460008301527f72657373210000000000000000000000000000000000000000000000000000006020830152604082019050919050565b600061018083016000830151848203600086015261270e82826124e6565b9150506020830151848203602086015261272882826124e6565b9150506040830151848203604086015261274282826124e6565b9150506060830151848203606086015261275c82826124e6565b91505060808301516127716080860182612937565b5060a083015184820360a086015261278982826124e6565b91505060c083015184820360c08601526127a382826124e6565b91505060e083015184820360e08601526127bd82826124e6565b9150506101008301516127d4610100860182612937565b506101208301516127e9610120860182612937565b506101408301516127fe610140860182612937565b506101608301516128136101608601826124c8565b508091505092915050565b600061016083016000830151848203600086015261283c82826124e6565b9150506020830151848203602086015261285682826124e6565b9150506040830151848203604086015261287082826124e6565b91505060608301516128856060860182612937565b506080830151848203608086015261289d82826124e6565b91505060a083015184820360a08601526128b782826124e6565b91505060c08301516128cc60c0860182612937565b5060e083015184820360e08601526128e482826124e6565b91505061010083015184820361010086015261290082826124e6565b915050610120830151612917610120860182612937565b5061014083015161292c6101408601826124c8565b508091505092915050565b61294081612cda565b82525050565b61294f81612cda565b82525050565b600060208201905061296a60008301846124b9565b92915050565b600060208201905061298560008301846124d7565b92915050565b60006101808201905081810360008301526129a6818f61251f565b905081810360208301526129ba818e61251f565b905081810360408301526129ce818d61251f565b905081810360608301526129e2818c61251f565b90506129f1608083018b612946565b81810360a0830152612a03818a61251f565b905081810360c0830152612a17818961251f565b905081810360e0830152612a2b818861251f565b9050612a3b610100830187612946565b612a49610120830186612946565b612a57610140830185612946565b612a656101608301846124d7565b9d9c50505050505050505050505050565b6000610160820190508181036000830152612a91818e61251f565b90508181036020830152612aa5818d61251f565b90508181036040830152612ab9818c61251f565b9050612ac8606083018b612946565b8181036080830152612ada818a61251f565b905081810360a0830152612aee818961251f565b9050612afd60c0830188612946565b81810360e0830152612b0f818761251f565b9050818103610100830152612b24818661251f565b9050612b34610120830185612946565b612b426101408301846124d7565b9c9b505050505050505050505050565b60006020820190508181036000830152612b6b81612558565b9050919050565b60006020820190508181036000830152612b8b816125be565b9050919050565b60006020820190508181036000830152612bab81612624565b9050919050565b60006020820190508181036000830152612bcb8161268a565b9050919050565b60006020820190508181036000830152612bec81846126f0565b905092915050565b60006020820190508181036000830152612c0e818461281e565b905092915050565b6000604051905081810181811067ffffffffffffffff82111715612c3957600080fd5b8060405250919050565b600067ffffffffffffffff821115612c5a57600080fd5b601f19601f8301169050602081019050919050565b600081519050919050565b600082825260208201905092915050565b600082825260208201905092915050565b6000612ca782612cba565b9050919050565b60008115159050919050565b600073ffffffffffffffffffffffffffffffffffffffff82169050919050565b6000819050919050565b82818337600083830152505050565b60005b83811015612d11578082015181840152602081019050612cf6565b83811115612d20576000848401525b50505050565b6000601f19601f8301169050919050565b612d4081612c9c565b8114612d4b57600080fd5b50565b612d5781612cae565b8114612d6257600080fd5b50565b612d6e81612cda565b8114612d7957600080fd5b5056fea365627a7a72315820aa9890e8e984f41ca6f1a8f8a76d379d621e08693abe762dea4989e6b7e4179e6c6578706572696d656e74616cf564736f6c63430005100040",
  "source": "// SPDX-License-Identifier: MIT\n\n// Defining the solidity version that is used and allowing experimental functions to allow using structs as datatype within the function call\npragma solidity >=0.4.21 <0.7.0;\npragma experimental ABIEncoderV2;\n\ncontract User {\n    address public verifying_institution;\n\n    constructor () public {\n        verifying_institution = msg.sender;\n    }\n\n    // Defining datatype insured to store all necessary data related to the insured\n    struct Insured {\n        string surname;\n        string name;\n        string street;\n        string street_number;\n        uint post_code;\n        string city;\n\n        string birth_date;\n\n        string insurance;\n        uint insurance_number;\n        uint insured_number;\n        uint insured_status;\n\n        bool verified;\n    }\n\n    // Defining datatype physician to store all necessary data related to the physician\n    struct Physician {\n        string job_title;\n        string surname;\n        string name;\n        uint physician_number;\n\n        string street;\n        string street_number;\n        uint post_code;\n        string city;\n        string telephone_number; \n        uint business_number;\n\n        bool verified;\n    }\n\n    // Insured Number mapped on the related insured object with all data of the insured\n    mapping(address => Insured) public insureds;\n\n    // Physician Number mapped on the related physician object with all data of the physician\n    mapping(address => Physician) public physicians;\n\n    // Function to add a new Insured\n    function addNewInsured(Insured memory insured_)  public{\n        insureds[msg.sender] = Insured(insured_.surname, insured_.name, insured_.street, insured_.street_number, insured_.post_code, insured_.city, insured_.birth_date, insured_.insurance, insured_.insurance_number, insured_.insured_number, insured_.insured_status, false);\n    }\n\n    // From the address of the veryifying_institution every insured can be verified\n    function verifyInsured(address public_key) public returns (bool){\n        require(msg.sender == verifying_institution, \"Only the verify institution has the right to verify insured!\");\n        require(insureds[public_key].insured_number > 0, \"No insured exists under this address!\");\n        insureds[public_key].verified = true;\n    }\n\n    // Function returns true, if insured with the insured_number_ exists\n    function getInsured(address public_key) public view returns(Insured memory){\n        if(insureds[public_key].insured_number > 0){\n            return insureds[public_key];\n        } \n    }\n\n    // Function to add a new Physician\n    function addNewPhysician(Physician memory physician_) public{\n        physicians[msg.sender] = Physician(physician_.job_title, physician_.surname, physician_.name, physician_.physician_number, physician_.street, physician_.street_number, physician_.post_code, physician_.city, physician_.telephone_number, physician_.business_number, false);\n    }\n\n    // From the address of the veryifying_institution every insured can be verified\n    function verifyPhysician(address public_key) public returns (bool){\n        require(msg.sender == verifying_institution, \"Only the verify institution has the right to verify physician!\");\n        require(physicians[public_key].physician_number > 0, \"No physician exists under this address!\");\n        physicians[public_key].verified = true;\n    }\n\n    // Function returns true, if insured with the physician_number_ exists\n    function getPhysician(address public_key) public view returns(Physician memory){\n        if(physicians[public_key].physician_number > 0){\n            return physicians[public_key];\n        } \n    }\n\n    // Checks if an insured exists under the given public_key and if he is verified\n    function checkInsuredVerification(address public_key) public view returns (bool){\n        if(insureds[public_key].insured_number > 0 && insureds[public_key].verified == true){\n            return true;\n        } else {\n            return false;\n        }\n    }\n\n    // Checks if an physisician exists under the given public_key and if he is verified\n    function checkPhysicianVerification(address public_key) public view returns (bool){\n        if(physicians[public_key].physician_number > 0 && physicians[public_key].verified == true){\n            return true;\n        } else {\n            return false;\n        }\n    }\n}",
  "sourcePath": "/Users/valentin/Documents/Programmdaten/Visual_Studio/5_Semester/Integrationsseminar/blockchain_e_prescription/contracts/User.sol",
  "compiler": {
    "name": "solc",
    "version": "0.5.16+commit.9c3226ce.Emscripten.clang"
  },
  "schemaVersion": "3.3.2",
  "updatedAt": "2020-12-28T10:25:44.836Z",
  "networkType": "ethereum",
  "devdoc": {
    "methods": {}
  },
  "userdoc": {
    "methods": {}
  }
}