{
  "contractName": "User",
  "abi": [
    {
      "constant": true,
      "inputs": [
        {
          "internalType": "address",
          "name": "",
          "type": "address"
        }
      ],
      "name": "insureds",
      "outputs": [
        {
          "internalType": "string",
          "name": "surname",
          "type": "string"
        },
        {
          "internalType": "string",
          "name": "name",
          "type": "string"
        },
        {
          "internalType": "string",
          "name": "street",
          "type": "string"
        },
        {
          "internalType": "string",
          "name": "street_number",
          "type": "string"
        },
        {
          "internalType": "uint256",
          "name": "post_code",
          "type": "uint256"
        },
        {
          "internalType": "string",
          "name": "city",
          "type": "string"
        },
        {
          "internalType": "string",
          "name": "birth_date",
          "type": "string"
        },
        {
          "internalType": "string",
          "name": "insurance",
          "type": "string"
        },
        {
          "internalType": "uint256",
          "name": "insurance_number",
          "type": "uint256"
        },
        {
          "internalType": "uint256",
          "name": "insured_number",
          "type": "uint256"
        },
        {
          "internalType": "uint256",
          "name": "insured_status",
          "type": "uint256"
        }
      ],
      "payable": false,
      "stateMutability": "view",
      "type": "function"
    },
    {
      "constant": true,
      "inputs": [
        {
          "internalType": "uint256",
          "name": "",
          "type": "uint256"
        }
      ],
      "name": "physicians",
      "outputs": [
        {
          "internalType": "uint256",
          "name": "business_number",
          "type": "uint256"
        },
        {
          "internalType": "string",
          "name": "job_title",
          "type": "string"
        },
        {
          "internalType": "string",
          "name": "surname",
          "type": "string"
        },
        {
          "internalType": "string",
          "name": "name",
          "type": "string"
        },
        {
          "internalType": "string",
          "name": "street",
          "type": "string"
        },
        {
          "internalType": "string",
          "name": "street_number",
          "type": "string"
        },
        {
          "internalType": "uint256",
          "name": "post_code",
          "type": "uint256"
        },
        {
          "internalType": "string",
          "name": "city",
          "type": "string"
        },
        {
          "internalType": "string",
          "name": "telephone_number",
          "type": "string"
        }
      ],
      "payable": false,
      "stateMutability": "view",
      "type": "function"
    },
    {
      "constant": false,
      "inputs": [
        {
          "components": [
            {
              "internalType": "string",
              "name": "surname",
              "type": "string"
            },
            {
              "internalType": "string",
              "name": "name",
              "type": "string"
            },
            {
              "internalType": "string",
              "name": "street",
              "type": "string"
            },
            {
              "internalType": "string",
              "name": "street_number",
              "type": "string"
            },
            {
              "internalType": "uint256",
              "name": "post_code",
              "type": "uint256"
            },
            {
              "internalType": "string",
              "name": "city",
              "type": "string"
            },
            {
              "internalType": "string",
              "name": "birth_date",
              "type": "string"
            },
            {
              "internalType": "string",
              "name": "insurance",
              "type": "string"
            },
            {
              "internalType": "uint256",
              "name": "insurance_number",
              "type": "uint256"
            },
            {
              "internalType": "uint256",
              "name": "insured_number",
              "type": "uint256"
            },
            {
              "internalType": "uint256",
              "name": "insured_status",
              "type": "uint256"
            }
          ],
          "internalType": "struct User.Insured",
          "name": "insured_",
          "type": "tuple"
        }
      ],
      "name": "addNewInsured",
      "outputs": [],
      "payable": false,
      "stateMutability": "nonpayable",
      "type": "function"
    },
    {
      "constant": false,
      "inputs": [
        {
          "internalType": "uint256",
          "name": "physician_number_",
          "type": "uint256"
        },
        {
          "components": [
            {
              "internalType": "uint256",
              "name": "business_number",
              "type": "uint256"
            },
            {
              "internalType": "string",
              "name": "job_title",
              "type": "string"
            },
            {
              "internalType": "string",
              "name": "surname",
              "type": "string"
            },
            {
              "internalType": "string",
              "name": "name",
              "type": "string"
            },
            {
              "internalType": "string",
              "name": "street",
              "type": "string"
            },
            {
              "internalType": "string",
              "name": "street_number",
              "type": "string"
            },
            {
              "internalType": "uint256",
              "name": "post_code",
              "type": "uint256"
            },
            {
              "internalType": "string",
              "name": "city",
              "type": "string"
            },
            {
              "internalType": "string",
              "name": "telephone_number",
              "type": "string"
            }
          ],
          "internalType": "struct User.Physician",
          "name": "physician_",
          "type": "tuple"
        }
      ],
      "name": "addNewPhysician",
      "outputs": [],
      "payable": false,
      "stateMutability": "nonpayable",
      "type": "function"
    },
    {
      "constant": true,
      "inputs": [
        {
          "internalType": "address",
          "name": "public_key",
          "type": "address"
        }
      ],
      "name": "checkInsuredExistance",
      "outputs": [
        {
          "internalType": "bool",
          "name": "",
          "type": "bool"
        }
      ],
      "payable": false,
      "stateMutability": "view",
      "type": "function"
    },
    {
      "constant": true,
      "inputs": [
        {
          "internalType": "uint256",
          "name": "physician_number_",
          "type": "uint256"
        }
      ],
      "name": "checkPhysicianExistance",
      "outputs": [
        {
          "internalType": "bool",
          "name": "",
          "type": "bool"
        }
      ],
      "payable": false,
      "stateMutability": "view",
      "type": "function"
    }
  ],
  "bytecode": "0x608060405234801561001057600080fd5b506116d9806100206000396000f3fe608060405234801561001057600080fd5b50600436106100625760003560e01c8063016b85bd1461006757806345b0288314610083578063a178fda5146100b3578063c863b9e5146100cf578063dfb8981514610109578063e0a3f8bf14610139575b600080fd5b610081600480360361007c91908101906112f8565b610171565b005b61009d600480360361009891908101906112cf565b6102d0565b6040516100aa91906113a3565b60405180910390f35b6100cd60048036036100c8919081019061128e565b610303565b005b6100e960048036036100e49190810190611265565b6104b8565b6040516101009b9a999897969594939291906113be565b60405180910390f35b610123600480360361011e9190810190611265565b61093a565b60405161013091906113a3565b60405180910390f35b610153600480360361014e91908101906112cf565b610998565b6040516101689998979695949392919061149a565b60405180910390f35b60405180610120016040528082600001518152602001826020015181526020018260400151815260200182606001518152602001826080015181526020018260a0015181526020018260c0015181526020018260e0015181526020018261010001518152506001600084815260200190815260200160002060008201518160000155602082015181600101908051906020019061020f929190610e0e565b50604082015181600201908051906020019061022c929190610e0e565b506060820151816003019080519060200190610249929190610e0e565b506080820151816004019080519060200190610266929190610e0e565b5060a0820151816005019080519060200190610283929190610e0e565b5060c0820151816006015560e08201518160070190805190602001906102aa929190610e0e565b506101008201518160080190805190602001906102c8929190610e0e565b509050505050565b600080600160008481526020019081526020016000206000015411156102f957600190506102fe565b600090505b919050565b60405180610160016040528082600001518152602001826020015181526020018260400151815260200182606001518152602001826080015181526020018260a0015181526020018260c0015181526020018260e001518152602001826101000151815260200182610120015181526020018261014001518152506000803373ffffffffffffffffffffffffffffffffffffffff1673ffffffffffffffffffffffffffffffffffffffff16815260200190815260200160002060008201518160000190805190602001906103d8929190610e0e565b5060208201518160010190805190602001906103f5929190610e0e565b506040820151816002019080519060200190610412929190610e0e565b50606082015181600301908051906020019061042f929190610e0e565b506080820151816004015560a0820151816005019080519060200190610456929190610e0e565b5060c0820151816006019080519060200190610473929190610e0e565b5060e0820151816007019080519060200190610490929190610e0e565b506101008201518160080155610120820151816009015561014082015181600a015590505050565b6000602052806000526040600020600091509050806000018054600181600116156101000203166002900480601f0160208091040260200160405190810160405280929190818152602001828054600181600116156101000203166002900480156105645780601f1061053957610100808354040283529160200191610564565b820191906000526020600020905b81548152906001019060200180831161054757829003601f168201915b505050505090806001018054600181600116156101000203166002900480601f0160208091040260200160405190810160405280929190818152602001828054600181600116156101000203166002900480156106025780601f106105d757610100808354040283529160200191610602565b820191906000526020600020905b8154815290600101906020018083116105e557829003601f168201915b505050505090806002018054600181600116156101000203166002900480601f0160208091040260200160405190810160405280929190818152602001828054600181600116156101000203166002900480156106a05780601f10610675576101008083540402835291602001916106a0565b820191906000526020600020905b81548152906001019060200180831161068357829003601f168201915b505050505090806003018054600181600116156101000203166002900480601f01602080910402602001604051908101604052809291908181526020018280546001816001161561010002031660029004801561073e5780601f106107135761010080835404028352916020019161073e565b820191906000526020600020905b81548152906001019060200180831161072157829003601f168201915b505050505090806004015490806005018054600181600116156101000203166002900480601f0160208091040260200160405190810160405280929190818152602001828054600181600116156101000203166002900480156107e25780601f106107b7576101008083540402835291602001916107e2565b820191906000526020600020905b8154815290600101906020018083116107c557829003601f168201915b505050505090806006018054600181600116156101000203166002900480601f0160208091040260200160405190810160405280929190818152602001828054600181600116156101000203166002900480156108805780601f1061085557610100808354040283529160200191610880565b820191906000526020600020905b81548152906001019060200180831161086357829003601f168201915b505050505090806007018054600181600116156101000203166002900480601f01602080910402602001604051908101604052809291908181526020018280546001816001161561010002031660029004801561091e5780601f106108f35761010080835404028352916020019161091e565b820191906000526020600020905b81548152906001019060200180831161090157829003601f168201915b50505050509080600801549080600901549080600a015490508b565b6000806000808473ffffffffffffffffffffffffffffffffffffffff1673ffffffffffffffffffffffffffffffffffffffff16815260200190815260200160002060080154111561098e5760019050610993565b600090505b919050565b6001602052806000526040600020600091509050806000015490806001018054600181600116156101000203166002900480601f016020809104026020016040519081016040528092919081815260200182805460018160011615610100020316600290048015610a4a5780601f10610a1f57610100808354040283529160200191610a4a565b820191906000526020600020905b815481529060010190602001808311610a2d57829003601f168201915b505050505090806002018054600181600116156101000203166002900480601f016020809104026020016040519081016040528092919081815260200182805460018160011615610100020316600290048015610ae85780601f10610abd57610100808354040283529160200191610ae8565b820191906000526020600020905b815481529060010190602001808311610acb57829003601f168201915b505050505090806003018054600181600116156101000203166002900480601f016020809104026020016040519081016040528092919081815260200182805460018160011615610100020316600290048015610b865780601f10610b5b57610100808354040283529160200191610b86565b820191906000526020600020905b815481529060010190602001808311610b6957829003601f168201915b505050505090806004018054600181600116156101000203166002900480601f016020809104026020016040519081016040528092919081815260200182805460018160011615610100020316600290048015610c245780601f10610bf957610100808354040283529160200191610c24565b820191906000526020600020905b815481529060010190602001808311610c0757829003601f168201915b505050505090806005018054600181600116156101000203166002900480601f016020809104026020016040519081016040528092919081815260200182805460018160011615610100020316600290048015610cc25780601f10610c9757610100808354040283529160200191610cc2565b820191906000526020600020905b815481529060010190602001808311610ca557829003601f168201915b505050505090806006015490806007018054600181600116156101000203166002900480601f016020809104026020016040519081016040528092919081815260200182805460018160011615610100020316600290048015610d665780601f10610d3b57610100808354040283529160200191610d66565b820191906000526020600020905b815481529060010190602001808311610d4957829003601f168201915b505050505090806008018054600181600116156101000203166002900480601f016020809104026020016040519081016040528092919081815260200182805460018160011615610100020316600290048015610e045780601f10610dd957610100808354040283529160200191610e04565b820191906000526020600020905b815481529060010190602001808311610de757829003601f168201915b5050505050905089565b828054600181600116156101000203166002900490600052602060002090601f016020900481019282601f10610e4f57805160ff1916838001178555610e7d565b82800160010185558215610e7d579182015b82811115610e7c578251825591602001919060010190610e61565b5b509050610e8a9190610e8e565b5090565b610eb091905b80821115610eac576000816000905550600101610e94565b5090565b90565b600081359050610ec281611668565b92915050565b600082601f830112610ed957600080fd5b8135610eec610ee782611585565b611558565b91508082526020830160208301858383011115610f0857600080fd5b610f13838284611615565b50505092915050565b60006101608284031215610f2f57600080fd5b610f3a610160611558565b9050600082013567ffffffffffffffff811115610f5657600080fd5b610f6284828501610ec8565b600083015250602082013567ffffffffffffffff811115610f8257600080fd5b610f8e84828501610ec8565b602083015250604082013567ffffffffffffffff811115610fae57600080fd5b610fba84828501610ec8565b604083015250606082013567ffffffffffffffff811115610fda57600080fd5b610fe684828501610ec8565b6060830152506080610ffa84828501611250565b60808301525060a082013567ffffffffffffffff81111561101a57600080fd5b61102684828501610ec8565b60a08301525060c082013567ffffffffffffffff81111561104657600080fd5b61105284828501610ec8565b60c08301525060e082013567ffffffffffffffff81111561107257600080fd5b61107e84828501610ec8565b60e08301525061010061109384828501611250565b610100830152506101206110a984828501611250565b610120830152506101406110bf84828501611250565b6101408301525092915050565b600061012082840312156110df57600080fd5b6110ea610120611558565b905060006110fa84828501611250565b600083015250602082013567ffffffffffffffff81111561111a57600080fd5b61112684828501610ec8565b602083015250604082013567ffffffffffffffff81111561114657600080fd5b61115284828501610ec8565b604083015250606082013567ffffffffffffffff81111561117257600080fd5b61117e84828501610ec8565b606083015250608082013567ffffffffffffffff81111561119e57600080fd5b6111aa84828501610ec8565b60808301525060a082013567ffffffffffffffff8111156111ca57600080fd5b6111d684828501610ec8565b60a08301525060c06111ea84828501611250565b60c08301525060e082013567ffffffffffffffff81111561120a57600080fd5b61121684828501610ec8565b60e08301525061010082013567ffffffffffffffff81111561123757600080fd5b61124384828501610ec8565b6101008301525092915050565b60008135905061125f8161167f565b92915050565b60006020828403121561127757600080fd5b600061128584828501610eb3565b91505092915050565b6000602082840312156112a057600080fd5b600082013567ffffffffffffffff8111156112ba57600080fd5b6112c684828501610f1c565b91505092915050565b6000602082840312156112e157600080fd5b60006112ef84828501611250565b91505092915050565b6000806040838503121561130b57600080fd5b600061131985828601611250565b925050602083013567ffffffffffffffff81111561133657600080fd5b611342858286016110cc565b9150509250929050565b611355816115df565b82525050565b6000611366826115b1565b61137081856115bc565b9350611380818560208601611624565b61138981611657565b840191505092915050565b61139d8161160b565b82525050565b60006020820190506113b8600083018461134c565b92915050565b60006101608201905081810360008301526113d9818e61135b565b905081810360208301526113ed818d61135b565b90508181036040830152611401818c61135b565b90508181036060830152611415818b61135b565b9050611424608083018a611394565b81810360a0830152611436818961135b565b905081810360c083015261144a818861135b565b905081810360e083015261145e818761135b565b905061146e610100830186611394565b61147c610120830185611394565b61148a610140830184611394565b9c9b505050505050505050505050565b6000610120820190506114b0600083018c611394565b81810360208301526114c2818b61135b565b905081810360408301526114d6818a61135b565b905081810360608301526114ea818961135b565b905081810360808301526114fe818861135b565b905081810360a0830152611512818761135b565b905061152160c0830186611394565b81810360e0830152611533818561135b565b9050818103610100830152611548818461135b565b90509a9950505050505050505050565b6000604051905081810181811067ffffffffffffffff8211171561157b57600080fd5b8060405250919050565b600067ffffffffffffffff82111561159c57600080fd5b601f19601f8301169050602081019050919050565b600081519050919050565b600082825260208201905092915050565b60006115d8826115eb565b9050919050565b60008115159050919050565b600073ffffffffffffffffffffffffffffffffffffffff82169050919050565b6000819050919050565b82818337600083830152505050565b60005b83811015611642578082015181840152602081019050611627565b83811115611651576000848401525b50505050565b6000601f19601f8301169050919050565b611671816115cd565b811461167c57600080fd5b50565b6116888161160b565b811461169357600080fd5b5056fea365627a7a72315820fe0f337edaff6612bd68353c20db0e46397a99b6288a1c810d07fb065422ad8d6c6578706572696d656e74616cf564736f6c63430005100040",
  "source": "// SPDX-License-Identifier: MIT\n\n// Defining the solidity version that is used and allowing experimental functions to allow using structs as datatype within the function call\npragma solidity >=0.4.21 <0.7.0;\npragma experimental ABIEncoderV2;\n\ncontract User {\n\n    // Defining datatype insured to store all necessary data related to the insured\n    struct Insured {\n        string surname;\n        string name;\n        string street;\n        string street_number;\n        uint post_code;\n        string city;\n\n        string birth_date;\n\n        string insurance;\n        uint insurance_number;\n        uint insured_number;\n        uint insured_status;\n    }\n\n    // Defining datatype physician to store all necessary data related to the physician\n    struct Physician {\n        uint business_number;\n\n        string job_title;\n        string surname;\n        string name;\n\n        string street;\n        string street_number;\n        uint post_code;\n        string city;\n\n        string telephone_number; \n    }\n\n    // Insured Number mapped on the related insured object with all data of the insured\n    mapping(address => Insured) public insureds;\n\n    // Physician Number mapped on the related physician object with all data of the physician\n    mapping(uint => Physician) public physicians;\n\n    // Function to add a new Insured\n    function addNewInsured(Insured memory insured_)  public{\n        insureds[msg.sender] = Insured(insured_.surname, insured_.name, insured_.street, insured_.street_number, insured_.post_code, insured_.city, insured_.birth_date, insured_.insurance, insured_.insurance_number, insured_.insured_number, insured_.insured_status);\n    }\n\n    // Function to add a new Physician\n    function addNewPhysician(uint physician_number_, Physician memory physician_) public{\n        physicians[physician_number_] = Physician(physician_.business_number, physician_.job_title, physician_.surname, physician_.name, physician_.street, physician_.street_number, physician_.post_code, physician_.city, physician_.telephone_number);\n    }\n\n    // Function returns true, if insured with the insured_number_ exists\n    function checkInsuredExistance(address public_key) public view returns(bool){\n        if(insureds[public_key].insurance_number > 0){\n            return true;\n        } else {\n            return false;\n        }\n    }\n\n    // Function returns true, if insured with the physician_number_ exists\n    function checkPhysicianExistance(uint physician_number_) public view returns(bool){\n        if(physicians[physician_number_].business_number > 0){\n            return true;\n        } else {\n            return false;\n        }\n    }\n}",
  "sourcePath": "/Users/valentin/Documents/Programmdaten/Visual_Studio/5_Semester/Integrationsseminar/blockchain_e_prescription/contracts/User.sol",
  "compiler": {
    "name": "solc",
    "version": "0.5.16+commit.9c3226ce.Emscripten.clang"
  },
  "schemaVersion": "3.3.2",
  "updatedAt": "2020-12-27T07:17:17.076Z",
  "networkType": "ethereum",
  "devdoc": {
    "methods": {}
  },
  "userdoc": {
    "methods": {}
  }
}