{
  "contractName": "User",
  "abi": [
    {
      "inputs": [],
      "payable": false,
      "stateMutability": "nonpayable",
      "type": "constructor"
    },
    {
      "constant": true,
      "inputs": [
        {
          "internalType": "address",
          "name": "",
          "type": "address"
        }
      ],
      "name": "insureds",
      "outputs": [
        {
          "internalType": "string",
          "name": "surname",
          "type": "string"
        },
        {
          "internalType": "string",
          "name": "name",
          "type": "string"
        },
        {
          "internalType": "string",
          "name": "street",
          "type": "string"
        },
        {
          "internalType": "string",
          "name": "street_number",
          "type": "string"
        },
        {
          "internalType": "uint256",
          "name": "post_code",
          "type": "uint256"
        },
        {
          "internalType": "string",
          "name": "city",
          "type": "string"
        },
        {
          "internalType": "string",
          "name": "birth_date",
          "type": "string"
        },
        {
          "internalType": "string",
          "name": "insurance",
          "type": "string"
        },
        {
          "internalType": "uint256",
          "name": "insurance_number",
          "type": "uint256"
        },
        {
          "internalType": "uint256",
          "name": "insured_number",
          "type": "uint256"
        },
        {
          "internalType": "uint256",
          "name": "insured_status",
          "type": "uint256"
        },
        {
          "internalType": "bool",
          "name": "verified",
          "type": "bool"
        }
      ],
      "payable": false,
      "stateMutability": "view",
      "type": "function"
    },
    {
      "constant": true,
      "inputs": [
        {
          "internalType": "address",
          "name": "",
          "type": "address"
        }
      ],
      "name": "pharmacists",
      "outputs": [
        {
          "internalType": "uint256",
          "name": "pharmacy_number",
          "type": "uint256"
        },
        {
          "internalType": "string",
          "name": "name",
          "type": "string"
        },
        {
          "internalType": "bool",
          "name": "verified",
          "type": "bool"
        }
      ],
      "payable": false,
      "stateMutability": "view",
      "type": "function"
    },
    {
      "constant": true,
      "inputs": [
        {
          "internalType": "address",
          "name": "",
          "type": "address"
        }
      ],
      "name": "physicians",
      "outputs": [
        {
          "internalType": "string",
          "name": "job_title",
          "type": "string"
        },
        {
          "internalType": "string",
          "name": "surname",
          "type": "string"
        },
        {
          "internalType": "string",
          "name": "name",
          "type": "string"
        },
        {
          "internalType": "uint256",
          "name": "physician_number",
          "type": "uint256"
        },
        {
          "internalType": "string",
          "name": "street",
          "type": "string"
        },
        {
          "internalType": "string",
          "name": "street_number",
          "type": "string"
        },
        {
          "internalType": "uint256",
          "name": "post_code",
          "type": "uint256"
        },
        {
          "internalType": "string",
          "name": "city",
          "type": "string"
        },
        {
          "internalType": "string",
          "name": "telephone_number",
          "type": "string"
        },
        {
          "internalType": "uint256",
          "name": "business_number",
          "type": "uint256"
        },
        {
          "internalType": "bool",
          "name": "verified",
          "type": "bool"
        }
      ],
      "payable": false,
      "stateMutability": "view",
      "type": "function"
    },
    {
      "constant": true,
      "inputs": [],
      "name": "verifying_institution",
      "outputs": [
        {
          "internalType": "address",
          "name": "",
          "type": "address"
        }
      ],
      "payable": false,
      "stateMutability": "view",
      "type": "function"
    },
    {
      "constant": false,
      "inputs": [
        {
          "components": [
            {
              "internalType": "string",
              "name": "surname",
              "type": "string"
            },
            {
              "internalType": "string",
              "name": "name",
              "type": "string"
            },
            {
              "internalType": "string",
              "name": "street",
              "type": "string"
            },
            {
              "internalType": "string",
              "name": "street_number",
              "type": "string"
            },
            {
              "internalType": "uint256",
              "name": "post_code",
              "type": "uint256"
            },
            {
              "internalType": "string",
              "name": "city",
              "type": "string"
            },
            {
              "internalType": "string",
              "name": "birth_date",
              "type": "string"
            },
            {
              "internalType": "string",
              "name": "insurance",
              "type": "string"
            },
            {
              "internalType": "uint256",
              "name": "insurance_number",
              "type": "uint256"
            },
            {
              "internalType": "uint256",
              "name": "insured_number",
              "type": "uint256"
            },
            {
              "internalType": "uint256",
              "name": "insured_status",
              "type": "uint256"
            },
            {
              "internalType": "bool",
              "name": "verified",
              "type": "bool"
            }
          ],
          "internalType": "struct User.Insured",
          "name": "insured_",
          "type": "tuple"
        }
      ],
      "name": "addNewInsured",
      "outputs": [],
      "payable": false,
      "stateMutability": "nonpayable",
      "type": "function"
    },
    {
      "constant": false,
      "inputs": [
        {
          "internalType": "address",
          "name": "public_key",
          "type": "address"
        }
      ],
      "name": "verifyInsured",
      "outputs": [
        {
          "internalType": "bool",
          "name": "",
          "type": "bool"
        }
      ],
      "payable": false,
      "stateMutability": "nonpayable",
      "type": "function"
    },
    {
      "constant": true,
      "inputs": [
        {
          "internalType": "address",
          "name": "public_key",
          "type": "address"
        }
      ],
      "name": "getInsured",
      "outputs": [
        {
          "components": [
            {
              "internalType": "string",
              "name": "surname",
              "type": "string"
            },
            {
              "internalType": "string",
              "name": "name",
              "type": "string"
            },
            {
              "internalType": "string",
              "name": "street",
              "type": "string"
            },
            {
              "internalType": "string",
              "name": "street_number",
              "type": "string"
            },
            {
              "internalType": "uint256",
              "name": "post_code",
              "type": "uint256"
            },
            {
              "internalType": "string",
              "name": "city",
              "type": "string"
            },
            {
              "internalType": "string",
              "name": "birth_date",
              "type": "string"
            },
            {
              "internalType": "string",
              "name": "insurance",
              "type": "string"
            },
            {
              "internalType": "uint256",
              "name": "insurance_number",
              "type": "uint256"
            },
            {
              "internalType": "uint256",
              "name": "insured_number",
              "type": "uint256"
            },
            {
              "internalType": "uint256",
              "name": "insured_status",
              "type": "uint256"
            },
            {
              "internalType": "bool",
              "name": "verified",
              "type": "bool"
            }
          ],
          "internalType": "struct User.Insured",
          "name": "",
          "type": "tuple"
        }
      ],
      "payable": false,
      "stateMutability": "view",
      "type": "function"
    },
    {
      "constant": false,
      "inputs": [
        {
          "components": [
            {
              "internalType": "string",
              "name": "job_title",
              "type": "string"
            },
            {
              "internalType": "string",
              "name": "surname",
              "type": "string"
            },
            {
              "internalType": "string",
              "name": "name",
              "type": "string"
            },
            {
              "internalType": "uint256",
              "name": "physician_number",
              "type": "uint256"
            },
            {
              "internalType": "string",
              "name": "street",
              "type": "string"
            },
            {
              "internalType": "string",
              "name": "street_number",
              "type": "string"
            },
            {
              "internalType": "uint256",
              "name": "post_code",
              "type": "uint256"
            },
            {
              "internalType": "string",
              "name": "city",
              "type": "string"
            },
            {
              "internalType": "string",
              "name": "telephone_number",
              "type": "string"
            },
            {
              "internalType": "uint256",
              "name": "business_number",
              "type": "uint256"
            },
            {
              "internalType": "bool",
              "name": "verified",
              "type": "bool"
            }
          ],
          "internalType": "struct User.Physician",
          "name": "physician_",
          "type": "tuple"
        }
      ],
      "name": "addNewPhysician",
      "outputs": [],
      "payable": false,
      "stateMutability": "nonpayable",
      "type": "function"
    },
    {
      "constant": false,
      "inputs": [
        {
          "internalType": "address",
          "name": "public_key",
          "type": "address"
        }
      ],
      "name": "verifyPhysician",
      "outputs": [
        {
          "internalType": "bool",
          "name": "",
          "type": "bool"
        }
      ],
      "payable": false,
      "stateMutability": "nonpayable",
      "type": "function"
    },
    {
      "constant": true,
      "inputs": [
        {
          "internalType": "address",
          "name": "public_key",
          "type": "address"
        }
      ],
      "name": "getPhysician",
      "outputs": [
        {
          "components": [
            {
              "internalType": "string",
              "name": "job_title",
              "type": "string"
            },
            {
              "internalType": "string",
              "name": "surname",
              "type": "string"
            },
            {
              "internalType": "string",
              "name": "name",
              "type": "string"
            },
            {
              "internalType": "uint256",
              "name": "physician_number",
              "type": "uint256"
            },
            {
              "internalType": "string",
              "name": "street",
              "type": "string"
            },
            {
              "internalType": "string",
              "name": "street_number",
              "type": "string"
            },
            {
              "internalType": "uint256",
              "name": "post_code",
              "type": "uint256"
            },
            {
              "internalType": "string",
              "name": "city",
              "type": "string"
            },
            {
              "internalType": "string",
              "name": "telephone_number",
              "type": "string"
            },
            {
              "internalType": "uint256",
              "name": "business_number",
              "type": "uint256"
            },
            {
              "internalType": "bool",
              "name": "verified",
              "type": "bool"
            }
          ],
          "internalType": "struct User.Physician",
          "name": "",
          "type": "tuple"
        }
      ],
      "payable": false,
      "stateMutability": "view",
      "type": "function"
    },
    {
      "constant": false,
      "inputs": [
        {
          "components": [
            {
              "internalType": "uint256",
              "name": "pharmacy_number",
              "type": "uint256"
            },
            {
              "internalType": "string",
              "name": "name",
              "type": "string"
            },
            {
              "internalType": "bool",
              "name": "verified",
              "type": "bool"
            }
          ],
          "internalType": "struct User.Pharmacist",
          "name": "pharmacist_",
          "type": "tuple"
        }
      ],
      "name": "addNewPharmacist",
      "outputs": [],
      "payable": false,
      "stateMutability": "nonpayable",
      "type": "function"
    },
    {
      "constant": false,
      "inputs": [
        {
          "internalType": "address",
          "name": "public_key",
          "type": "address"
        }
      ],
      "name": "verifyPharmacist",
      "outputs": [
        {
          "internalType": "bool",
          "name": "",
          "type": "bool"
        }
      ],
      "payable": false,
      "stateMutability": "nonpayable",
      "type": "function"
    },
    {
      "constant": true,
      "inputs": [
        {
          "internalType": "address",
          "name": "public_key",
          "type": "address"
        }
      ],
      "name": "getPharmacist",
      "outputs": [
        {
          "components": [
            {
              "internalType": "uint256",
              "name": "pharmacy_number",
              "type": "uint256"
            },
            {
              "internalType": "string",
              "name": "name",
              "type": "string"
            },
            {
              "internalType": "bool",
              "name": "verified",
              "type": "bool"
            }
          ],
          "internalType": "struct User.Pharmacist",
          "name": "",
          "type": "tuple"
        }
      ],
      "payable": false,
      "stateMutability": "view",
      "type": "function"
    },
    {
      "constant": true,
      "inputs": [
        {
          "internalType": "string",
          "name": "role",
          "type": "string"
        },
        {
          "internalType": "address",
          "name": "public_key",
          "type": "address"
        }
      ],
      "name": "checkVerification",
      "outputs": [
        {
          "internalType": "bool",
          "name": "",
          "type": "bool"
        }
      ],
      "payable": false,
      "stateMutability": "view",
      "type": "function"
    },
    {
      "constant": true,
      "inputs": [
        {
          "internalType": "string",
          "name": "role",
          "type": "string"
        },
        {
          "internalType": "address",
          "name": "public_key",
          "type": "address"
        }
      ],
      "name": "checkExistence",
      "outputs": [
        {
          "internalType": "bool",
          "name": "",
          "type": "bool"
        }
      ],
      "payable": false,
      "stateMutability": "view",
      "type": "function"
    }
  ],
  "bytecode": "0x608060405234801561001057600080fd5b50336000806101000a81548173ffffffffffffffffffffffffffffffffffffffff021916908373ffffffffffffffffffffffffffffffffffffffff160217905550613bb7806100606000396000f3fe608060405234801561001057600080fd5b50600436106100f55760003560e01c806381eceeb711610097578063c863b9e511610066578063c863b9e5146102be578063e669845a146102f9578063f5860dfc14610333578063f7350e6014610363576100f5565b806381eceeb71461021057806384efc52f1461022e578063b04f35351461025e578063c11dd8081461028e576100f5565b8063462c6d13116100d3578063462c6d131461018c5780634b7b9842146101bc5780636e98f9f3146101d85780637338bcf5146101f4576100f5565b80630ee60c57146100fa5780631abf575a1461012a5780631ee952ad1461015c575b600080fd5b610114600480360361010f9190810190612e2c565b610393565b6040516101219190613686565b60405180910390f35b610144600480360361013f9190810190612e2c565b610509565b6040516101539392919061398e565b60405180910390f35b61017660048036036101719190810190612e2c565b6105d8565b604051610183919061396c565b60405180910390f35b6101a660048036036101a19190810190612e2c565b610b2a565b6040516101b39190613686565b60405180910390f35b6101d660048036036101d19190810190612ea9565b610ca0565b005b6101f260048036036101ed9190810190612f2b565b610e80565b005b61020e60048036036102099190810190612eea565b61104a565b005b6102186110fc565b604051610225919061366b565b60405180910390f35b61024860048036036102439190810190612e2c565b611121565b604051610255919061394a565b60405180910390f35b61027860048036036102739190810190612e55565b611292565b6040516102859190613686565b60405180910390f35b6102a860048036036102a39190810190612e2c565b6114a8565b6040516102b59190613928565b60405180910390f35b6102d860048036036102d39190810190612e2c565b611a04565b6040516102f09c9b9a999897969594939291906136a1565b60405180910390f35b610313600480360361030e9190810190612e2c565b611e99565b60405161032a9b9a9998979695949392919061378c565b60405180910390f35b61034d60048036036103489190810190612e2c565b612328565b60405161035a9190613686565b60405180910390f35b61037d60048036036103789190810190612e55565b61249d565b60405161038a9190613686565b60405180910390f35b60008060009054906101000a900473ffffffffffffffffffffffffffffffffffffffff1673ffffffffffffffffffffffffffffffffffffffff163373ffffffffffffffffffffffffffffffffffffffff1614610424576040517f08c379a000000000000000000000000000000000000000000000000000000000815260040161041b90613888565b60405180910390fd5b6000600260008473ffffffffffffffffffffffffffffffffffffffff1673ffffffffffffffffffffffffffffffffffffffff16815260200190815260200160002060030154116104a9576040517f08c379a00000000000000000000000000000000000000000000000000000000081526004016104a090613868565b60405180910390fd5b6001600260008473ffffffffffffffffffffffffffffffffffffffff1673ffffffffffffffffffffffffffffffffffffffff168152602001908152602001600020600a0160006101000a81548160ff021916908315150217905550919050565b6003602052806000526040600020600091509050806000015490806001018054600181600116156101000203166002900480601f0160208091040260200160405190810160405280929190818152602001828054600181600116156101000203166002900480156105bb5780601f10610590576101008083540402835291602001916105bb565b820191906000526020600020905b81548152906001019060200180831161059e57829003601f168201915b5050505050908060020160009054906101000a900460ff16905083565b6105e06127d0565b6000600260008473ffffffffffffffffffffffffffffffffffffffff1673ffffffffffffffffffffffffffffffffffffffff168152602001908152602001600020600301541115610b2457600260008373ffffffffffffffffffffffffffffffffffffffff1673ffffffffffffffffffffffffffffffffffffffff16815260200190815260200160002060405180610160016040529081600082018054600181600116156101000203166002900480601f01602080910402602001604051908101604052809291908181526020018280546001816001161561010002031660029004801561070f5780601f106106e45761010080835404028352916020019161070f565b820191906000526020600020905b8154815290600101906020018083116106f257829003601f168201915b50505050508152602001600182018054600181600116156101000203166002900480601f0160208091040260200160405190810160405280929190818152602001828054600181600116156101000203166002900480156107b15780601f10610786576101008083540402835291602001916107b1565b820191906000526020600020905b81548152906001019060200180831161079457829003601f168201915b50505050508152602001600282018054600181600116156101000203166002900480601f0160208091040260200160405190810160405280929190818152602001828054600181600116156101000203166002900480156108535780601f1061082857610100808354040283529160200191610853565b820191906000526020600020905b81548152906001019060200180831161083657829003601f168201915b5050505050815260200160038201548152602001600482018054600181600116156101000203166002900480601f0160208091040260200160405190810160405280929190818152602001828054600181600116156101000203166002900480156108ff5780601f106108d4576101008083540402835291602001916108ff565b820191906000526020600020905b8154815290600101906020018083116108e257829003601f168201915b50505050508152602001600582018054600181600116156101000203166002900480601f0160208091040260200160405190810160405280929190818152602001828054600181600116156101000203166002900480156109a15780601f10610976576101008083540402835291602001916109a1565b820191906000526020600020905b81548152906001019060200180831161098457829003601f168201915b5050505050815260200160068201548152602001600782018054600181600116156101000203166002900480601f016020809104026020016040519081016040528092919081815260200182805460018160011615610100020316600290048015610a4d5780601f10610a2257610100808354040283529160200191610a4d565b820191906000526020600020905b815481529060010190602001808311610a3057829003601f168201915b50505050508152602001600882018054600181600116156101000203166002900480601f016020809104026020016040519081016040528092919081815260200182805460018160011615610100020316600290048015610aef5780601f10610ac457610100808354040283529160200191610aef565b820191906000526020600020905b815481529060010190602001808311610ad257829003601f168201915b5050505050815260200160098201548152602001600a820160009054906101000a900460ff1615151515815250509050610b25565b5b919050565b60008060009054906101000a900473ffffffffffffffffffffffffffffffffffffffff1673ffffffffffffffffffffffffffffffffffffffff163373ffffffffffffffffffffffffffffffffffffffff1614610bbb576040517f08c379a0000000000000000000000000000000000000000000000000000000008152600401610bb290613908565b60405180910390fd5b6000600360008473ffffffffffffffffffffffffffffffffffffffff1673ffffffffffffffffffffffffffffffffffffffff1681526020019081526020016000206000015411610c40576040517f08c379a0000000000000000000000000000000000000000000000000000000008152600401610c37906138c8565b60405180910390fd5b6001600360008473ffffffffffffffffffffffffffffffffffffffff1673ffffffffffffffffffffffffffffffffffffffff16815260200190815260200160002060020160006101000a81548160ff021916908315150217905550919050565b60405180610180016040528082600001518152602001826020015181526020018260400151815260200182606001518152602001826080015181526020018260a0015181526020018260c0015181526020018260e00151815260200182610100015181526020018261012001518152602001826101400151815260200160001515815250600160003373ffffffffffffffffffffffffffffffffffffffff1673ffffffffffffffffffffffffffffffffffffffff1681526020019081526020016000206000820151816000019080519060200190610d7f92919061282c565b506020820151816001019080519060200190610d9c92919061282c565b506040820151816002019080519060200190610db992919061282c565b506060820151816003019080519060200190610dd692919061282c565b506080820151816004015560a0820151816005019080519060200190610dfd92919061282c565b5060c0820151816006019080519060200190610e1a92919061282c565b5060e0820151816007019080519060200190610e3792919061282c565b506101008201518160080155610120820151816009015561014082015181600a015561016082015181600b0160006101000a81548160ff02191690831515021790555090505050565b60405180610160016040528082600001518152602001826020015181526020018260400151815260200182606001518152602001826080015181526020018260a0015181526020018260c0015181526020018260e0015181526020018261010001518152602001826101200151815260200160001515815250600260003373ffffffffffffffffffffffffffffffffffffffff1673ffffffffffffffffffffffffffffffffffffffff1681526020019081526020016000206000820151816000019080519060200190610f5492919061282c565b506020820151816001019080519060200190610f7192919061282c565b506040820151816002019080519060200190610f8e92919061282c565b50606082015181600301556080820151816004019080519060200190610fb592919061282c565b5060a0820151816005019080519060200190610fd292919061282c565b5060c0820151816006015560e0820151816007019080519060200190610ff992919061282c565b5061010082015181600801908051906020019061101792919061282c565b50610120820151816009015561014082015181600a0160006101000a81548160ff02191690831515021790555090505050565b6040518060600160405280826000015181526020018260200151815260200160001515815250600360003373ffffffffffffffffffffffffffffffffffffffff1673ffffffffffffffffffffffffffffffffffffffff1681526020019081526020016000206000820151816000015560208201518160010190805190602001906110d592919061282c565b5060408201518160020160006101000a81548160ff02191690831515021790555090505050565b6000809054906101000a900473ffffffffffffffffffffffffffffffffffffffff1681565b6111296128ac565b6000600360008473ffffffffffffffffffffffffffffffffffffffff1673ffffffffffffffffffffffffffffffffffffffff16815260200190815260200160002060000154111561128c57600360008373ffffffffffffffffffffffffffffffffffffffff1673ffffffffffffffffffffffffffffffffffffffff16815260200190815260200160002060405180606001604052908160008201548152602001600182018054600181600116156101000203166002900480601f0160208091040260200160405190810160405280929190818152602001828054600181600116156101000203166002900480156112615780601f1061123657610100808354040283529160200191611261565b820191906000526020600020905b81548152906001019060200180831161124457829003601f168201915b505050505081526020016002820160009054906101000a900460ff161515151581525050905061128d565b5b919050565b60006040516020016112a390613656565b60405160208183030381529060405280519060200120836040516020016112ca9190613615565b604051602081830303815290604052805190602001201415611343576000600160008473ffffffffffffffffffffffffffffffffffffffff1673ffffffffffffffffffffffffffffffffffffffff16815260200190815260200160002060090154111561133a57600190506114a2565b600090506114a2565b60405160200161135290613641565b60405160208183030381529060405280519060200120836040516020016113799190613615565b6040516020818303038152906040528051906020012014156113f2576000600260008473ffffffffffffffffffffffffffffffffffffffff1673ffffffffffffffffffffffffffffffffffffffff1681526020019081526020016000206003015411156113e957600190506114a2565b600090506114a2565b6040516020016114019061362c565b60405160208183030381529060405280519060200120836040516020016114289190613615565b6040516020818303038152906040528051906020012014156114a1576000600360008473ffffffffffffffffffffffffffffffffffffffff1673ffffffffffffffffffffffffffffffffffffffff16815260200190815260200160002060000154111561149857600190506114a2565b600090506114a2565b5b92915050565b6114b06128cf565b6000600160008473ffffffffffffffffffffffffffffffffffffffff1673ffffffffffffffffffffffffffffffffffffffff1681526020019081526020016000206009015411156119fe57600160008373ffffffffffffffffffffffffffffffffffffffff1673ffffffffffffffffffffffffffffffffffffffff16815260200190815260200160002060405180610180016040529081600082018054600181600116156101000203166002900480601f0160208091040260200160405190810160405280929190818152602001828054600181600116156101000203166002900480156115df5780601f106115b4576101008083540402835291602001916115df565b820191906000526020600020905b8154815290600101906020018083116115c257829003601f168201915b50505050508152602001600182018054600181600116156101000203166002900480601f0160208091040260200160405190810160405280929190818152602001828054600181600116156101000203166002900480156116815780601f1061165657610100808354040283529160200191611681565b820191906000526020600020905b81548152906001019060200180831161166457829003601f168201915b50505050508152602001600282018054600181600116156101000203166002900480601f0160208091040260200160405190810160405280929190818152602001828054600181600116156101000203166002900480156117235780601f106116f857610100808354040283529160200191611723565b820191906000526020600020905b81548152906001019060200180831161170657829003601f168201915b50505050508152602001600382018054600181600116156101000203166002900480601f0160208091040260200160405190810160405280929190818152602001828054600181600116156101000203166002900480156117c55780601f1061179a576101008083540402835291602001916117c5565b820191906000526020600020905b8154815290600101906020018083116117a857829003601f168201915b5050505050815260200160048201548152602001600582018054600181600116156101000203166002900480601f0160208091040260200160405190810160405280929190818152602001828054600181600116156101000203166002900480156118715780601f1061184657610100808354040283529160200191611871565b820191906000526020600020905b81548152906001019060200180831161185457829003601f168201915b50505050508152602001600682018054600181600116156101000203166002900480601f0160208091040260200160405190810160405280929190818152602001828054600181600116156101000203166002900480156119135780601f106118e857610100808354040283529160200191611913565b820191906000526020600020905b8154815290600101906020018083116118f657829003601f168201915b50505050508152602001600782018054600181600116156101000203166002900480601f0160208091040260200160405190810160405280929190818152602001828054600181600116156101000203166002900480156119b55780601f1061198a576101008083540402835291602001916119b5565b820191906000526020600020905b81548152906001019060200180831161199857829003601f168201915b505050505081526020016008820154815260200160098201548152602001600a8201548152602001600b820160009054906101000a900460ff16151515158152505090506119ff565b5b919050565b6001602052806000526040600020600091509050806000018054600181600116156101000203166002900480601f016020809104026020016040519081016040528092919081815260200182805460018160011615610100020316600290048015611ab05780601f10611a8557610100808354040283529160200191611ab0565b820191906000526020600020905b815481529060010190602001808311611a9357829003601f168201915b505050505090806001018054600181600116156101000203166002900480601f016020809104026020016040519081016040528092919081815260200182805460018160011615610100020316600290048015611b4e5780601f10611b2357610100808354040283529160200191611b4e565b820191906000526020600020905b815481529060010190602001808311611b3157829003601f168201915b505050505090806002018054600181600116156101000203166002900480601f016020809104026020016040519081016040528092919081815260200182805460018160011615610100020316600290048015611bec5780601f10611bc157610100808354040283529160200191611bec565b820191906000526020600020905b815481529060010190602001808311611bcf57829003601f168201915b505050505090806003018054600181600116156101000203166002900480601f016020809104026020016040519081016040528092919081815260200182805460018160011615610100020316600290048015611c8a5780601f10611c5f57610100808354040283529160200191611c8a565b820191906000526020600020905b815481529060010190602001808311611c6d57829003601f168201915b505050505090806004015490806005018054600181600116156101000203166002900480601f016020809104026020016040519081016040528092919081815260200182805460018160011615610100020316600290048015611d2e5780601f10611d0357610100808354040283529160200191611d2e565b820191906000526020600020905b815481529060010190602001808311611d1157829003601f168201915b505050505090806006018054600181600116156101000203166002900480601f016020809104026020016040519081016040528092919081815260200182805460018160011615610100020316600290048015611dcc5780601f10611da157610100808354040283529160200191611dcc565b820191906000526020600020905b815481529060010190602001808311611daf57829003601f168201915b505050505090806007018054600181600116156101000203166002900480601f016020809104026020016040519081016040528092919081815260200182805460018160011615610100020316600290048015611e6a5780601f10611e3f57610100808354040283529160200191611e6a565b820191906000526020600020905b815481529060010190602001808311611e4d57829003601f168201915b50505050509080600801549080600901549080600a01549080600b0160009054906101000a900460ff1690508c565b6002602052806000526040600020600091509050806000018054600181600116156101000203166002900480601f016020809104026020016040519081016040528092919081815260200182805460018160011615610100020316600290048015611f455780601f10611f1a57610100808354040283529160200191611f45565b820191906000526020600020905b815481529060010190602001808311611f2857829003601f168201915b505050505090806001018054600181600116156101000203166002900480601f016020809104026020016040519081016040528092919081815260200182805460018160011615610100020316600290048015611fe35780601f10611fb857610100808354040283529160200191611fe3565b820191906000526020600020905b815481529060010190602001808311611fc657829003601f168201915b505050505090806002018054600181600116156101000203166002900480601f0160208091040260200160405190810160405280929190818152602001828054600181600116156101000203166002900480156120815780601f1061205657610100808354040283529160200191612081565b820191906000526020600020905b81548152906001019060200180831161206457829003601f168201915b505050505090806003015490806004018054600181600116156101000203166002900480601f0160208091040260200160405190810160405280929190818152602001828054600181600116156101000203166002900480156121255780601f106120fa57610100808354040283529160200191612125565b820191906000526020600020905b81548152906001019060200180831161210857829003601f168201915b505050505090806005018054600181600116156101000203166002900480601f0160208091040260200160405190810160405280929190818152602001828054600181600116156101000203166002900480156121c35780601f10612198576101008083540402835291602001916121c3565b820191906000526020600020905b8154815290600101906020018083116121a657829003601f168201915b505050505090806006015490806007018054600181600116156101000203166002900480601f0160208091040260200160405190810160405280929190818152602001828054600181600116156101000203166002900480156122675780601f1061223c57610100808354040283529160200191612267565b820191906000526020600020905b81548152906001019060200180831161224a57829003601f168201915b505050505090806008018054600181600116156101000203166002900480601f0160208091040260200160405190810160405280929190818152602001828054600181600116156101000203166002900480156123055780601f106122da57610100808354040283529160200191612305565b820191906000526020600020905b8154815290600101906020018083116122e857829003601f168201915b50505050509080600901549080600a0160009054906101000a900460ff1690508b565b60008060009054906101000a900473ffffffffffffffffffffffffffffffffffffffff1673ffffffffffffffffffffffffffffffffffffffff163373ffffffffffffffffffffffffffffffffffffffff16146123b9576040517f08c379a00000000000000000000000000000000000000000000000000000000081526004016123b0906138a8565b60405180910390fd5b6000600160008473ffffffffffffffffffffffffffffffffffffffff1673ffffffffffffffffffffffffffffffffffffffff168152602001908152602001600020600901541161243e576040517f08c379a0000000000000000000000000000000000000000000000000000000008152600401612435906138e8565b60405180910390fd5b60018060008473ffffffffffffffffffffffffffffffffffffffff1673ffffffffffffffffffffffffffffffffffffffff168152602001908152602001600020600b0160006101000a81548160ff021916908315150217905550919050565b60006040516020016124ae90613656565b60405160208183030381529060405280519060200120836040516020016124d59190613615565b6040516020818303038152906040528051906020012014156125ad576000600160008473ffffffffffffffffffffffffffffffffffffffff1673ffffffffffffffffffffffffffffffffffffffff16815260200190815260200160002060090154118015612596575060011515600160008473ffffffffffffffffffffffffffffffffffffffff1673ffffffffffffffffffffffffffffffffffffffff168152602001908152602001600020600b0160009054906101000a900460ff161515145b156125a457600190506127ca565b600090506127ca565b6040516020016125bc90613641565b60405160208183030381529060405280519060200120836040516020016125e39190613615565b6040516020818303038152906040528051906020012014156126bb576000600260008473ffffffffffffffffffffffffffffffffffffffff1673ffffffffffffffffffffffffffffffffffffffff168152602001908152602001600020600301541180156126a4575060011515600260008473ffffffffffffffffffffffffffffffffffffffff1673ffffffffffffffffffffffffffffffffffffffff168152602001908152602001600020600a0160009054906101000a900460ff161515145b156126b257600190506127ca565b600090506127ca565b6040516020016126ca9061362c565b60405160208183030381529060405280519060200120836040516020016126f19190613615565b6040516020818303038152906040528051906020012014156127c9576000600360008473ffffffffffffffffffffffffffffffffffffffff1673ffffffffffffffffffffffffffffffffffffffff168152602001908152602001600020600001541180156127b2575060011515600360008473ffffffffffffffffffffffffffffffffffffffff1673ffffffffffffffffffffffffffffffffffffffff16815260200190815260200160002060020160009054906101000a900460ff161515145b156127c057600190506127ca565b600090506127ca565b5b92915050565b604051806101600160405280606081526020016060815260200160608152602001600081526020016060815260200160608152602001600081526020016060815260200160608152602001600081526020016000151581525090565b828054600181600116156101000203166002900490600052602060002090601f016020900481019282601f1061286d57805160ff191683800117855561289b565b8280016001018555821561289b579182015b8281111561289a57825182559160200191906001019061287f565b5b5090506128a89190612932565b5090565b604051806060016040528060008152602001606081526020016000151581525090565b60405180610180016040528060608152602001606081526020016060815260200160608152602001600081526020016060815260200160608152602001606081526020016000815260200160008152602001600081526020016000151581525090565b61295491905b80821115612950576000816000905550600101612938565b5090565b90565b60008135905061296681613b2f565b92915050565b60008135905061297b81613b46565b92915050565b600082601f83011261299257600080fd5b81356129a56129a0826139f9565b6139cc565b915080825260208301602083018583830111156129c157600080fd5b6129cc838284613adc565b50505092915050565b600082601f8301126129e657600080fd5b81356129f96129f482613a25565b6139cc565b91508082526020830160208301858383011115612a1557600080fd5b612a20838284613adc565b50505092915050565b60006101808284031215612a3c57600080fd5b612a476101806139cc565b9050600082013567ffffffffffffffff811115612a6357600080fd5b612a6f84828501612981565b600083015250602082013567ffffffffffffffff811115612a8f57600080fd5b612a9b84828501612981565b602083015250604082013567ffffffffffffffff811115612abb57600080fd5b612ac784828501612981565b604083015250606082013567ffffffffffffffff811115612ae757600080fd5b612af384828501612981565b6060830152506080612b0784828501612e17565b60808301525060a082013567ffffffffffffffff811115612b2757600080fd5b612b3384828501612981565b60a08301525060c082013567ffffffffffffffff811115612b5357600080fd5b612b5f84828501612981565b60c08301525060e082013567ffffffffffffffff811115612b7f57600080fd5b612b8b84828501612981565b60e083015250610100612ba084828501612e17565b61010083015250610120612bb684828501612e17565b61012083015250610140612bcc84828501612e17565b61014083015250610160612be28482850161296c565b6101608301525092915050565b600060608284031215612c0157600080fd5b612c0b60606139cc565b90506000612c1b84828501612e17565b600083015250602082013567ffffffffffffffff811115612c3b57600080fd5b612c4784828501612981565b6020830152506040612c5b8482850161296c565b60408301525092915050565b60006101608284031215612c7a57600080fd5b612c856101606139cc565b9050600082013567ffffffffffffffff811115612ca157600080fd5b612cad84828501612981565b600083015250602082013567ffffffffffffffff811115612ccd57600080fd5b612cd984828501612981565b602083015250604082013567ffffffffffffffff811115612cf957600080fd5b612d0584828501612981565b6040830152506060612d1984828501612e17565b606083015250608082013567ffffffffffffffff811115612d3957600080fd5b612d4584828501612981565b60808301525060a082013567ffffffffffffffff811115612d6557600080fd5b612d7184828501612981565b60a08301525060c0612d8584828501612e17565b60c08301525060e082013567ffffffffffffffff811115612da557600080fd5b612db184828501612981565b60e08301525061010082013567ffffffffffffffff811115612dd257600080fd5b612dde84828501612981565b61010083015250610120612df484828501612e17565b61012083015250610140612e0a8482850161296c565b6101408301525092915050565b600081359050612e2681613b5d565b92915050565b600060208284031215612e3e57600080fd5b6000612e4c84828501612957565b91505092915050565b60008060408385031215612e6857600080fd5b600083013567ffffffffffffffff811115612e8257600080fd5b612e8e858286016129d5565b9250506020612e9f85828601612957565b9150509250929050565b600060208284031215612ebb57600080fd5b600082013567ffffffffffffffff811115612ed557600080fd5b612ee184828501612a29565b91505092915050565b600060208284031215612efc57600080fd5b600082013567ffffffffffffffff811115612f1657600080fd5b612f2284828501612bef565b91505092915050565b600060208284031215612f3d57600080fd5b600082013567ffffffffffffffff811115612f5757600080fd5b612f6384828501612c67565b91505092915050565b612f7581613a94565b82525050565b612f8481613aa6565b82525050565b612f9381613aa6565b82525050565b6000612fa482613a5c565b612fae8185613a89565b9350612fbe818560208601613aeb565b80840191505092915050565b6000612fd582613a51565b612fdf8185613a67565b9350612fef818560208601613aeb565b612ff881613b1e565b840191505092915050565b600061300e82613a51565b6130188185613a78565b9350613028818560208601613aeb565b61303181613b1e565b840191505092915050565b6000613049602783613a78565b91507f4e6f2070687973696369616e2065786973747320756e6465722074686973206160008301527f64647265737321000000000000000000000000000000000000000000000000006020830152604082019050919050565b60006130af600a83613a89565b91507f706861726d6163697374000000000000000000000000000000000000000000006000830152600a82019050919050565b60006130ef603e83613a78565b91507f4f6e6c79207468652076657269667920696e737469747574696f6e206861732060008301527f74686520726967687420746f207665726966792070687973696369616e2100006020830152604082019050919050565b6000613155603c83613a78565b91507f4f6e6c79207468652076657269667920696e737469747574696f6e206861732060008301527f74686520726967687420746f2076657269667920696e737572656421000000006020830152604082019050919050565b60006131bb602883613a78565b91507f4e6f20706861726d61636973742065786973747320756e64657220746869732060008301527f61646472657373210000000000000000000000000000000000000000000000006020830152604082019050919050565b6000613221600983613a89565b91507f70687973696369616e00000000000000000000000000000000000000000000006000830152600982019050919050565b6000613261602583613a78565b91507f4e6f20696e73757265642065786973747320756e64657220746869732061646460008301527f72657373210000000000000000000000000000000000000000000000000000006020830152604082019050919050565b60006132c7603f83613a78565b91507f4f6e6c79207468652076657269667920696e737469747574696f6e206861732060008301527f74686520726967687420746f2076657269667920706861726d616369737421006020830152604082019050919050565b600061332d600783613a89565b91507f696e7375726564000000000000000000000000000000000000000000000000006000830152600782019050919050565b600061018083016000830151848203600086015261337e8282612fca565b915050602083015184820360208601526133988282612fca565b915050604083015184820360408601526133b28282612fca565b915050606083015184820360608601526133cc8282612fca565b91505060808301516133e160808601826135f7565b5060a083015184820360a08601526133f98282612fca565b91505060c083015184820360c08601526134138282612fca565b91505060e083015184820360e086015261342d8282612fca565b9150506101008301516134446101008601826135f7565b506101208301516134596101208601826135f7565b5061014083015161346e6101408601826135f7565b50610160830151613483610160860182612f7b565b508091505092915050565b60006060830160008301516134a660008601826135f7565b50602083015184820360208601526134be8282612fca565b91505060408301516134d36040860182612f7b565b508091505092915050565b60006101608301600083015184820360008601526134fc8282612fca565b915050602083015184820360208601526135168282612fca565b915050604083015184820360408601526135308282612fca565b915050606083015161354560608601826135f7565b506080830151848203608086015261355d8282612fca565b91505060a083015184820360a08601526135778282612fca565b91505060c083015161358c60c08601826135f7565b5060e083015184820360e08601526135a48282612fca565b9150506101008301518482036101008601526135c08282612fca565b9150506101208301516135d76101208601826135f7565b506101408301516135ec610140860182612f7b565b508091505092915050565b61360081613ad2565b82525050565b61360f81613ad2565b82525050565b60006136218284612f99565b915081905092915050565b6000613637826130a2565b9150819050919050565b600061364c82613214565b9150819050919050565b600061366182613320565b9150819050919050565b60006020820190506136806000830184612f6c565b92915050565b600060208201905061369b6000830184612f8a565b92915050565b60006101808201905081810360008301526136bc818f613003565b905081810360208301526136d0818e613003565b905081810360408301526136e4818d613003565b905081810360608301526136f8818c613003565b9050613707608083018b613606565b81810360a0830152613719818a613003565b905081810360c083015261372d8189613003565b905081810360e08301526137418188613003565b9050613751610100830187613606565b61375f610120830186613606565b61376d610140830185613606565b61377b610160830184612f8a565b9d9c50505050505050505050505050565b60006101608201905081810360008301526137a7818e613003565b905081810360208301526137bb818d613003565b905081810360408301526137cf818c613003565b90506137de606083018b613606565b81810360808301526137f0818a613003565b905081810360a08301526138048189613003565b905061381360c0830188613606565b81810360e08301526138258187613003565b905081810361010083015261383a8186613003565b905061384a610120830185613606565b613858610140830184612f8a565b9c9b505050505050505050505050565b600060208201905081810360008301526138818161303c565b9050919050565b600060208201905081810360008301526138a1816130e2565b9050919050565b600060208201905081810360008301526138c181613148565b9050919050565b600060208201905081810360008301526138e1816131ae565b9050919050565b6000602082019050818103600083015261390181613254565b9050919050565b60006020820190508181036000830152613921816132ba565b9050919050565b600060208201905081810360008301526139428184613360565b905092915050565b60006020820190508181036000830152613964818461348e565b905092915050565b6000602082019050818103600083015261398681846134de565b905092915050565b60006060820190506139a36000830186613606565b81810360208301526139b58185613003565b90506139c46040830184612f8a565b949350505050565b6000604051905081810181811067ffffffffffffffff821117156139ef57600080fd5b8060405250919050565b600067ffffffffffffffff821115613a1057600080fd5b601f19601f8301169050602081019050919050565b600067ffffffffffffffff821115613a3c57600080fd5b601f19601f8301169050602081019050919050565b600081519050919050565b600081519050919050565b600082825260208201905092915050565b600082825260208201905092915050565b600081905092915050565b6000613a9f82613ab2565b9050919050565b60008115159050919050565b600073ffffffffffffffffffffffffffffffffffffffff82169050919050565b6000819050919050565b82818337600083830152505050565b60005b83811015613b09578082015181840152602081019050613aee565b83811115613b18576000848401525b50505050565b6000601f19601f8301169050919050565b613b3881613a94565b8114613b4357600080fd5b50565b613b4f81613aa6565b8114613b5a57600080fd5b50565b613b6681613ad2565b8114613b7157600080fd5b5056fea365627a7a723158201efde81f48e8c8bfb9b7b3cb22acd54b7f3817faa0a3d54d6a58fd6136a8c8fe6c6578706572696d656e74616cf564736f6c63430005100040",
  "source": "// SPDX-License-Identifier: MIT\n\n// Defining the solidity version that is used and allowing experimental functions to allow using structs as datatype within the function call\npragma solidity >=0.4.21 <0.7.0;\npragma experimental ABIEncoderV2;\n\ncontract User {\n    address public verifying_institution;\n\n    constructor () public {\n        verifying_institution = msg.sender;\n    }\n\n    // Defining datatype insured to store all necessary data related to the insured\n    struct Insured {\n        string surname;\n        string name;\n        string street;\n        string street_number;\n        uint post_code;\n        string city;\n\n        string birth_date;\n\n        string insurance;\n        uint insurance_number;\n        uint insured_number;\n        uint insured_status;\n\n        bool verified;\n    }\n\n    // Defining datatype physician to store all necessary data related to the physician\n    struct Physician {\n        string job_title;\n        string surname;\n        string name;\n        uint physician_number;\n\n        string street;\n        string street_number;\n        uint post_code;\n        string city;\n        string telephone_number; \n        uint business_number;\n\n        bool verified;\n    }\n\n    // Defining datatype pharmacist to store all necessary data related to the pharmacist\n    struct Pharmacist {\n        uint pharmacy_number;\n        string name;\n\n        bool verified;\n    }\n\n\n\n    // Insured Number mapped on the related insured object with all data of the insured\n    mapping(address => Insured) public insureds;\n\n    // Physician Number mapped on the related physician object with all data of the physician\n    mapping(address => Physician) public physicians;\n\n    // Pharmacist Number mapped on the related pharmacist object with all data of the pharmacist\n    mapping(address => Pharmacist) public pharmacists;\n\n\n\n    // Function to add a new Insured\n    function addNewInsured(Insured memory insured_)  public{\n        insureds[msg.sender] = Insured(insured_.surname, insured_.name, insured_.street, insured_.street_number, insured_.post_code, insured_.city, insured_.birth_date, insured_.insurance, insured_.insurance_number, insured_.insured_number, insured_.insured_status, false);\n    }\n\n    // From the address of the veryifying_institution every insured can be verified\n    function verifyInsured(address public_key) public returns (bool){\n        require(msg.sender == verifying_institution, \"Only the verify institution has the right to verify insured!\");\n        require(insureds[public_key].insured_number > 0, \"No insured exists under this address!\");\n        insureds[public_key].verified = true;\n    }\n\n    // Function returns true, if insured with the public_key exists\n    function getInsured(address public_key) public view returns(Insured memory){\n        if(insureds[public_key].insured_number > 0){\n            return insureds[public_key];\n        } \n    }\n\n\n\n    // Function to add a new Physician\n    function addNewPhysician(Physician memory physician_) public{\n        physicians[msg.sender] = Physician(physician_.job_title, physician_.surname, physician_.name, physician_.physician_number, physician_.street, physician_.street_number, physician_.post_code, physician_.city, physician_.telephone_number, physician_.business_number, false);\n    }\n\n    // From the address of the veryifying_institution every physician can be verified\n    function verifyPhysician(address public_key) public returns (bool){\n        require(msg.sender == verifying_institution, \"Only the verify institution has the right to verify physician!\");\n        require(physicians[public_key].physician_number > 0, \"No physician exists under this address!\");\n        physicians[public_key].verified = true;\n    }\n\n    // Function returns true, if physician with the public_key exists\n    function getPhysician(address public_key) public view returns(Physician memory){\n        if(physicians[public_key].physician_number > 0){\n            return physicians[public_key];\n        } \n    }\n\n\n\n    // Function to add a new Physician\n    function addNewPharmacist(Pharmacist memory pharmacist_) public{\n        pharmacists[msg.sender] = Pharmacist(pharmacist_.pharmacy_number, pharmacist_.name, false);\n    }\n\n    // From the address of the veryifying_institution every pharmacist can be verified\n    function verifyPharmacist(address public_key) public returns (bool){\n        require(msg.sender == verifying_institution, \"Only the verify institution has the right to verify pharmacist!\");\n        require(pharmacists[public_key].pharmacy_number > 0, \"No pharmacist exists under this address!\");\n        pharmacists[public_key].verified = true;\n    }\n\n    // Function returns true, if pharmacist with the public_key exists\n    function getPharmacist(address public_key) public view returns(Pharmacist memory){\n        if(pharmacists[public_key].pharmacy_number > 0){\n            return pharmacists[public_key];\n        } \n    }\n\n    // Checks if an user exists under the given public_key and if he's is verified\n    function checkVerification(string memory role, address public_key) public view returns (bool){\n        if(keccak256(abi.encodePacked(role)) == keccak256(abi.encodePacked('insured'))){\n            if(insureds[public_key].insured_number > 0 && insureds[public_key].verified == true){\n                return true;\n            } else {\n                return false;\n            }\n        } else if (keccak256(abi.encodePacked(role)) == keccak256(abi.encodePacked('physician'))){\n            if(physicians[public_key].physician_number > 0 && physicians[public_key].verified == true){\n                return true;\n            } else {\n                return false;\n            }\n        } else if (keccak256(abi.encodePacked(role)) == keccak256(abi.encodePacked('pharmacist'))){\n            if(pharmacists[public_key].pharmacy_number >0 && pharmacists[public_key].verified == true){\n                return true;\n            } else {\n                return false;\n            }\n        }\n    }\n\n    // Checks if an user exists under the given public_key\n    function checkExistence(string memory role, address public_key) public view returns (bool){\n        if(keccak256(abi.encodePacked(role)) == keccak256(abi.encodePacked('insured'))){\n            if(insureds[public_key].insured_number >0){\n                return true;\n            } else {\n                return false;\n            }\n        } else if (keccak256(abi.encodePacked(role)) == keccak256(abi.encodePacked('physician'))){\n            if(physicians[public_key].physician_number >0){\n                return true;\n            } else {\n                return false;\n            }\n        } else if (keccak256(abi.encodePacked(role)) == keccak256(abi.encodePacked('pharmacist'))){\n            if(pharmacists[public_key].pharmacy_number >0){\n                return true;\n            } else {\n                return false;\n            }\n        }\n    }\n}",
  "sourcePath": "/Users/valentin/Documents/Programmdaten/Visual_Studio/5_Semester/Integrationsseminar/blockchain_e_prescription/contracts/User.sol",
  "compiler": {
    "name": "solc",
    "version": "0.5.16+commit.9c3226ce.Emscripten.clang"
  },
  "schemaVersion": "3.3.2",
  "updatedAt": "2020-12-30T19:56:22.861Z",
  "networkType": "ethereum",
  "devdoc": {
    "methods": {}
  },
  "userdoc": {
    "methods": {}
  }
}