{
  "contractName": "User",
  "abi": [
    {
      "inputs": [],
      "payable": false,
      "stateMutability": "nonpayable",
      "type": "constructor"
    },
    {
      "constant": true,
      "inputs": [
        {
          "internalType": "address",
          "name": "",
          "type": "address"
        }
      ],
      "name": "insureds",
      "outputs": [
        {
          "internalType": "string",
          "name": "surname",
          "type": "string"
        },
        {
          "internalType": "string",
          "name": "name",
          "type": "string"
        },
        {
          "internalType": "string",
          "name": "street",
          "type": "string"
        },
        {
          "internalType": "string",
          "name": "street_number",
          "type": "string"
        },
        {
          "internalType": "uint256",
          "name": "post_code",
          "type": "uint256"
        },
        {
          "internalType": "string",
          "name": "city",
          "type": "string"
        },
        {
          "internalType": "string",
          "name": "birth_date",
          "type": "string"
        },
        {
          "internalType": "string",
          "name": "insurance",
          "type": "string"
        },
        {
          "internalType": "uint256",
          "name": "insurance_number",
          "type": "uint256"
        },
        {
          "internalType": "uint256",
          "name": "insured_number",
          "type": "uint256"
        },
        {
          "internalType": "uint256",
          "name": "insured_status",
          "type": "uint256"
        },
        {
          "internalType": "bool",
          "name": "verified",
          "type": "bool"
        }
      ],
      "payable": false,
      "stateMutability": "view",
      "type": "function"
    },
    {
      "constant": true,
      "inputs": [
        {
          "internalType": "address",
          "name": "",
          "type": "address"
        }
      ],
      "name": "physicians",
      "outputs": [
        {
          "internalType": "string",
          "name": "job_title",
          "type": "string"
        },
        {
          "internalType": "string",
          "name": "surname",
          "type": "string"
        },
        {
          "internalType": "string",
          "name": "name",
          "type": "string"
        },
        {
          "internalType": "uint256",
          "name": "physician_number",
          "type": "uint256"
        },
        {
          "internalType": "string",
          "name": "street",
          "type": "string"
        },
        {
          "internalType": "string",
          "name": "street_number",
          "type": "string"
        },
        {
          "internalType": "uint256",
          "name": "post_code",
          "type": "uint256"
        },
        {
          "internalType": "string",
          "name": "city",
          "type": "string"
        },
        {
          "internalType": "string",
          "name": "telephone_number",
          "type": "string"
        },
        {
          "internalType": "uint256",
          "name": "business_number",
          "type": "uint256"
        },
        {
          "internalType": "bool",
          "name": "verified",
          "type": "bool"
        }
      ],
      "payable": false,
      "stateMutability": "view",
      "type": "function"
    },
    {
      "constant": true,
      "inputs": [],
      "name": "verifying_institution",
      "outputs": [
        {
          "internalType": "address",
          "name": "",
          "type": "address"
        }
      ],
      "payable": false,
      "stateMutability": "view",
      "type": "function"
    },
    {
      "constant": false,
      "inputs": [
        {
          "components": [
            {
              "internalType": "string",
              "name": "surname",
              "type": "string"
            },
            {
              "internalType": "string",
              "name": "name",
              "type": "string"
            },
            {
              "internalType": "string",
              "name": "street",
              "type": "string"
            },
            {
              "internalType": "string",
              "name": "street_number",
              "type": "string"
            },
            {
              "internalType": "uint256",
              "name": "post_code",
              "type": "uint256"
            },
            {
              "internalType": "string",
              "name": "city",
              "type": "string"
            },
            {
              "internalType": "string",
              "name": "birth_date",
              "type": "string"
            },
            {
              "internalType": "string",
              "name": "insurance",
              "type": "string"
            },
            {
              "internalType": "uint256",
              "name": "insurance_number",
              "type": "uint256"
            },
            {
              "internalType": "uint256",
              "name": "insured_number",
              "type": "uint256"
            },
            {
              "internalType": "uint256",
              "name": "insured_status",
              "type": "uint256"
            },
            {
              "internalType": "bool",
              "name": "verified",
              "type": "bool"
            }
          ],
          "internalType": "struct User.Insured",
          "name": "insured_",
          "type": "tuple"
        }
      ],
      "name": "addNewInsured",
      "outputs": [],
      "payable": false,
      "stateMutability": "nonpayable",
      "type": "function"
    },
    {
      "constant": false,
      "inputs": [
        {
          "internalType": "address",
          "name": "public_key",
          "type": "address"
        }
      ],
      "name": "verifyInsured",
      "outputs": [
        {
          "internalType": "bool",
          "name": "",
          "type": "bool"
        }
      ],
      "payable": false,
      "stateMutability": "nonpayable",
      "type": "function"
    },
    {
      "constant": true,
      "inputs": [
        {
          "internalType": "address",
          "name": "public_key",
          "type": "address"
        }
      ],
      "name": "getInsured",
      "outputs": [
        {
          "components": [
            {
              "internalType": "string",
              "name": "surname",
              "type": "string"
            },
            {
              "internalType": "string",
              "name": "name",
              "type": "string"
            },
            {
              "internalType": "string",
              "name": "street",
              "type": "string"
            },
            {
              "internalType": "string",
              "name": "street_number",
              "type": "string"
            },
            {
              "internalType": "uint256",
              "name": "post_code",
              "type": "uint256"
            },
            {
              "internalType": "string",
              "name": "city",
              "type": "string"
            },
            {
              "internalType": "string",
              "name": "birth_date",
              "type": "string"
            },
            {
              "internalType": "string",
              "name": "insurance",
              "type": "string"
            },
            {
              "internalType": "uint256",
              "name": "insurance_number",
              "type": "uint256"
            },
            {
              "internalType": "uint256",
              "name": "insured_number",
              "type": "uint256"
            },
            {
              "internalType": "uint256",
              "name": "insured_status",
              "type": "uint256"
            },
            {
              "internalType": "bool",
              "name": "verified",
              "type": "bool"
            }
          ],
          "internalType": "struct User.Insured",
          "name": "",
          "type": "tuple"
        }
      ],
      "payable": false,
      "stateMutability": "view",
      "type": "function"
    },
    {
      "constant": false,
      "inputs": [
        {
          "components": [
            {
              "internalType": "string",
              "name": "job_title",
              "type": "string"
            },
            {
              "internalType": "string",
              "name": "surname",
              "type": "string"
            },
            {
              "internalType": "string",
              "name": "name",
              "type": "string"
            },
            {
              "internalType": "uint256",
              "name": "physician_number",
              "type": "uint256"
            },
            {
              "internalType": "string",
              "name": "street",
              "type": "string"
            },
            {
              "internalType": "string",
              "name": "street_number",
              "type": "string"
            },
            {
              "internalType": "uint256",
              "name": "post_code",
              "type": "uint256"
            },
            {
              "internalType": "string",
              "name": "city",
              "type": "string"
            },
            {
              "internalType": "string",
              "name": "telephone_number",
              "type": "string"
            },
            {
              "internalType": "uint256",
              "name": "business_number",
              "type": "uint256"
            },
            {
              "internalType": "bool",
              "name": "verified",
              "type": "bool"
            }
          ],
          "internalType": "struct User.Physician",
          "name": "physician_",
          "type": "tuple"
        }
      ],
      "name": "addNewPhysician",
      "outputs": [],
      "payable": false,
      "stateMutability": "nonpayable",
      "type": "function"
    },
    {
      "constant": false,
      "inputs": [
        {
          "internalType": "address",
          "name": "public_key",
          "type": "address"
        }
      ],
      "name": "verifyPhysician",
      "outputs": [
        {
          "internalType": "bool",
          "name": "",
          "type": "bool"
        }
      ],
      "payable": false,
      "stateMutability": "nonpayable",
      "type": "function"
    },
    {
      "constant": true,
      "inputs": [
        {
          "internalType": "address",
          "name": "public_key",
          "type": "address"
        }
      ],
      "name": "getPhysician",
      "outputs": [
        {
          "components": [
            {
              "internalType": "string",
              "name": "job_title",
              "type": "string"
            },
            {
              "internalType": "string",
              "name": "surname",
              "type": "string"
            },
            {
              "internalType": "string",
              "name": "name",
              "type": "string"
            },
            {
              "internalType": "uint256",
              "name": "physician_number",
              "type": "uint256"
            },
            {
              "internalType": "string",
              "name": "street",
              "type": "string"
            },
            {
              "internalType": "string",
              "name": "street_number",
              "type": "string"
            },
            {
              "internalType": "uint256",
              "name": "post_code",
              "type": "uint256"
            },
            {
              "internalType": "string",
              "name": "city",
              "type": "string"
            },
            {
              "internalType": "string",
              "name": "telephone_number",
              "type": "string"
            },
            {
              "internalType": "uint256",
              "name": "business_number",
              "type": "uint256"
            },
            {
              "internalType": "bool",
              "name": "verified",
              "type": "bool"
            }
          ],
          "internalType": "struct User.Physician",
          "name": "",
          "type": "tuple"
        }
      ],
      "payable": false,
      "stateMutability": "view",
      "type": "function"
    }
  ],
  "bytecode": "0x608060405234801561001057600080fd5b50336000806101000a81548173ffffffffffffffffffffffffffffffffffffffff021916908373ffffffffffffffffffffffffffffffffffffffff160217905550612bcd806100606000396000f3fe608060405234801561001057600080fd5b50600436106100935760003560e01c806381eceeb71161006657806381eceeb714610130578063c11dd8081461014e578063c863b9e51461017e578063e669845a146101b9578063f5860dfc146101f357610093565b80630ee60c57146100985780631ee952ad146100c85780634b7b9842146100f85780636e98f9f314610114575b600080fd5b6100b260048036036100ad919081019061221c565b610223565b6040516100bf919061277e565b60405180910390f35b6100e260048036036100dd919081019061221c565b610399565b6040516100ef9190612a02565b60405180910390f35b610112600480360361010d9190810190612245565b6108eb565b005b61012e60048036036101299190810190612286565b610acb565b005b610138610c95565b6040516101459190612763565b60405180910390f35b6101686004803603610163919081019061221c565b610cba565b60405161017591906129e0565b60405180910390f35b6101986004803603610193919081019061221c565b611216565b6040516101b09c9b9a99989796959493929190612799565b60405180910390f35b6101d360048036036101ce919081019061221c565b6116ab565b6040516101ea9b9a99989796959493929190612884565b60405180910390f35b61020d6004803603610208919081019061221c565b611b3a565b60405161021a919061277e565b60405180910390f35b60008060009054906101000a900473ffffffffffffffffffffffffffffffffffffffff1673ffffffffffffffffffffffffffffffffffffffff163373ffffffffffffffffffffffffffffffffffffffff16146102b4576040517f08c379a00000000000000000000000000000000000000000000000000000000081526004016102ab90612980565b60405180910390fd5b6000600260008473ffffffffffffffffffffffffffffffffffffffff1673ffffffffffffffffffffffffffffffffffffffff1681526020019081526020016000206003015411610339576040517f08c379a000000000000000000000000000000000000000000000000000000000815260040161033090612960565b60405180910390fd5b6001600260008473ffffffffffffffffffffffffffffffffffffffff1673ffffffffffffffffffffffffffffffffffffffff168152602001908152602001600020600a0160006101000a81548160ff021916908315150217905550919050565b6103a1611caf565b6000600260008473ffffffffffffffffffffffffffffffffffffffff1673ffffffffffffffffffffffffffffffffffffffff1681526020019081526020016000206003015411156108e557600260008373ffffffffffffffffffffffffffffffffffffffff1673ffffffffffffffffffffffffffffffffffffffff16815260200190815260200160002060405180610160016040529081600082018054600181600116156101000203166002900480601f0160208091040260200160405190810160405280929190818152602001828054600181600116156101000203166002900480156104d05780601f106104a5576101008083540402835291602001916104d0565b820191906000526020600020905b8154815290600101906020018083116104b357829003601f168201915b50505050508152602001600182018054600181600116156101000203166002900480601f0160208091040260200160405190810160405280929190818152602001828054600181600116156101000203166002900480156105725780601f1061054757610100808354040283529160200191610572565b820191906000526020600020905b81548152906001019060200180831161055557829003601f168201915b50505050508152602001600282018054600181600116156101000203166002900480601f0160208091040260200160405190810160405280929190818152602001828054600181600116156101000203166002900480156106145780601f106105e957610100808354040283529160200191610614565b820191906000526020600020905b8154815290600101906020018083116105f757829003601f168201915b5050505050815260200160038201548152602001600482018054600181600116156101000203166002900480601f0160208091040260200160405190810160405280929190818152602001828054600181600116156101000203166002900480156106c05780601f10610695576101008083540402835291602001916106c0565b820191906000526020600020905b8154815290600101906020018083116106a357829003601f168201915b50505050508152602001600582018054600181600116156101000203166002900480601f0160208091040260200160405190810160405280929190818152602001828054600181600116156101000203166002900480156107625780601f1061073757610100808354040283529160200191610762565b820191906000526020600020905b81548152906001019060200180831161074557829003601f168201915b5050505050815260200160068201548152602001600782018054600181600116156101000203166002900480601f01602080910402602001604051908101604052809291908181526020018280546001816001161561010002031660029004801561080e5780601f106107e35761010080835404028352916020019161080e565b820191906000526020600020905b8154815290600101906020018083116107f157829003601f168201915b50505050508152602001600882018054600181600116156101000203166002900480601f0160208091040260200160405190810160405280929190818152602001828054600181600116156101000203166002900480156108b05780601f10610885576101008083540402835291602001916108b0565b820191906000526020600020905b81548152906001019060200180831161089357829003601f168201915b5050505050815260200160098201548152602001600a820160009054906101000a900460ff16151515158152505090506108e6565b5b919050565b60405180610180016040528082600001518152602001826020015181526020018260400151815260200182606001518152602001826080015181526020018260a0015181526020018260c0015181526020018260e00151815260200182610100015181526020018261012001518152602001826101400151815260200160001515815250600160003373ffffffffffffffffffffffffffffffffffffffff1673ffffffffffffffffffffffffffffffffffffffff16815260200190815260200160002060008201518160000190805190602001906109ca929190611d0b565b5060208201518160010190805190602001906109e7929190611d0b565b506040820151816002019080519060200190610a04929190611d0b565b506060820151816003019080519060200190610a21929190611d0b565b506080820151816004015560a0820151816005019080519060200190610a48929190611d0b565b5060c0820151816006019080519060200190610a65929190611d0b565b5060e0820151816007019080519060200190610a82929190611d0b565b506101008201518160080155610120820151816009015561014082015181600a015561016082015181600b0160006101000a81548160ff02191690831515021790555090505050565b60405180610160016040528082600001518152602001826020015181526020018260400151815260200182606001518152602001826080015181526020018260a0015181526020018260c0015181526020018260e0015181526020018261010001518152602001826101200151815260200160001515815250600260003373ffffffffffffffffffffffffffffffffffffffff1673ffffffffffffffffffffffffffffffffffffffff1681526020019081526020016000206000820151816000019080519060200190610b9f929190611d0b565b506020820151816001019080519060200190610bbc929190611d0b565b506040820151816002019080519060200190610bd9929190611d0b565b50606082015181600301556080820151816004019080519060200190610c00929190611d0b565b5060a0820151816005019080519060200190610c1d929190611d0b565b5060c0820151816006015560e0820151816007019080519060200190610c44929190611d0b565b50610100820151816008019080519060200190610c62929190611d0b565b50610120820151816009015561014082015181600a0160006101000a81548160ff02191690831515021790555090505050565b6000809054906101000a900473ffffffffffffffffffffffffffffffffffffffff1681565b610cc2611d8b565b6000600160008473ffffffffffffffffffffffffffffffffffffffff1673ffffffffffffffffffffffffffffffffffffffff16815260200190815260200160002060090154111561121057600160008373ffffffffffffffffffffffffffffffffffffffff1673ffffffffffffffffffffffffffffffffffffffff16815260200190815260200160002060405180610180016040529081600082018054600181600116156101000203166002900480601f016020809104026020016040519081016040528092919081815260200182805460018160011615610100020316600290048015610df15780601f10610dc657610100808354040283529160200191610df1565b820191906000526020600020905b815481529060010190602001808311610dd457829003601f168201915b50505050508152602001600182018054600181600116156101000203166002900480601f016020809104026020016040519081016040528092919081815260200182805460018160011615610100020316600290048015610e935780601f10610e6857610100808354040283529160200191610e93565b820191906000526020600020905b815481529060010190602001808311610e7657829003601f168201915b50505050508152602001600282018054600181600116156101000203166002900480601f016020809104026020016040519081016040528092919081815260200182805460018160011615610100020316600290048015610f355780601f10610f0a57610100808354040283529160200191610f35565b820191906000526020600020905b815481529060010190602001808311610f1857829003601f168201915b50505050508152602001600382018054600181600116156101000203166002900480601f016020809104026020016040519081016040528092919081815260200182805460018160011615610100020316600290048015610fd75780601f10610fac57610100808354040283529160200191610fd7565b820191906000526020600020905b815481529060010190602001808311610fba57829003601f168201915b5050505050815260200160048201548152602001600582018054600181600116156101000203166002900480601f0160208091040260200160405190810160405280929190818152602001828054600181600116156101000203166002900480156110835780601f1061105857610100808354040283529160200191611083565b820191906000526020600020905b81548152906001019060200180831161106657829003601f168201915b50505050508152602001600682018054600181600116156101000203166002900480601f0160208091040260200160405190810160405280929190818152602001828054600181600116156101000203166002900480156111255780601f106110fa57610100808354040283529160200191611125565b820191906000526020600020905b81548152906001019060200180831161110857829003601f168201915b50505050508152602001600782018054600181600116156101000203166002900480601f0160208091040260200160405190810160405280929190818152602001828054600181600116156101000203166002900480156111c75780601f1061119c576101008083540402835291602001916111c7565b820191906000526020600020905b8154815290600101906020018083116111aa57829003601f168201915b505050505081526020016008820154815260200160098201548152602001600a8201548152602001600b820160009054906101000a900460ff1615151515815250509050611211565b5b919050565b6001602052806000526040600020600091509050806000018054600181600116156101000203166002900480601f0160208091040260200160405190810160405280929190818152602001828054600181600116156101000203166002900480156112c25780601f10611297576101008083540402835291602001916112c2565b820191906000526020600020905b8154815290600101906020018083116112a557829003601f168201915b505050505090806001018054600181600116156101000203166002900480601f0160208091040260200160405190810160405280929190818152602001828054600181600116156101000203166002900480156113605780601f1061133557610100808354040283529160200191611360565b820191906000526020600020905b81548152906001019060200180831161134357829003601f168201915b505050505090806002018054600181600116156101000203166002900480601f0160208091040260200160405190810160405280929190818152602001828054600181600116156101000203166002900480156113fe5780601f106113d3576101008083540402835291602001916113fe565b820191906000526020600020905b8154815290600101906020018083116113e157829003601f168201915b505050505090806003018054600181600116156101000203166002900480601f01602080910402602001604051908101604052809291908181526020018280546001816001161561010002031660029004801561149c5780601f106114715761010080835404028352916020019161149c565b820191906000526020600020905b81548152906001019060200180831161147f57829003601f168201915b505050505090806004015490806005018054600181600116156101000203166002900480601f0160208091040260200160405190810160405280929190818152602001828054600181600116156101000203166002900480156115405780601f1061151557610100808354040283529160200191611540565b820191906000526020600020905b81548152906001019060200180831161152357829003601f168201915b505050505090806006018054600181600116156101000203166002900480601f0160208091040260200160405190810160405280929190818152602001828054600181600116156101000203166002900480156115de5780601f106115b3576101008083540402835291602001916115de565b820191906000526020600020905b8154815290600101906020018083116115c157829003601f168201915b505050505090806007018054600181600116156101000203166002900480601f01602080910402602001604051908101604052809291908181526020018280546001816001161561010002031660029004801561167c5780601f106116515761010080835404028352916020019161167c565b820191906000526020600020905b81548152906001019060200180831161165f57829003601f168201915b50505050509080600801549080600901549080600a01549080600b0160009054906101000a900460ff1690508c565b6002602052806000526040600020600091509050806000018054600181600116156101000203166002900480601f0160208091040260200160405190810160405280929190818152602001828054600181600116156101000203166002900480156117575780601f1061172c57610100808354040283529160200191611757565b820191906000526020600020905b81548152906001019060200180831161173a57829003601f168201915b505050505090806001018054600181600116156101000203166002900480601f0160208091040260200160405190810160405280929190818152602001828054600181600116156101000203166002900480156117f55780601f106117ca576101008083540402835291602001916117f5565b820191906000526020600020905b8154815290600101906020018083116117d857829003601f168201915b505050505090806002018054600181600116156101000203166002900480601f0160208091040260200160405190810160405280929190818152602001828054600181600116156101000203166002900480156118935780601f1061186857610100808354040283529160200191611893565b820191906000526020600020905b81548152906001019060200180831161187657829003601f168201915b505050505090806003015490806004018054600181600116156101000203166002900480601f0160208091040260200160405190810160405280929190818152602001828054600181600116156101000203166002900480156119375780601f1061190c57610100808354040283529160200191611937565b820191906000526020600020905b81548152906001019060200180831161191a57829003601f168201915b505050505090806005018054600181600116156101000203166002900480601f0160208091040260200160405190810160405280929190818152602001828054600181600116156101000203166002900480156119d55780601f106119aa576101008083540402835291602001916119d5565b820191906000526020600020905b8154815290600101906020018083116119b857829003601f168201915b505050505090806006015490806007018054600181600116156101000203166002900480601f016020809104026020016040519081016040528092919081815260200182805460018160011615610100020316600290048015611a795780601f10611a4e57610100808354040283529160200191611a79565b820191906000526020600020905b815481529060010190602001808311611a5c57829003601f168201915b505050505090806008018054600181600116156101000203166002900480601f016020809104026020016040519081016040528092919081815260200182805460018160011615610100020316600290048015611b175780601f10611aec57610100808354040283529160200191611b17565b820191906000526020600020905b815481529060010190602001808311611afa57829003601f168201915b50505050509080600901549080600a0160009054906101000a900460ff1690508b565b60008060009054906101000a900473ffffffffffffffffffffffffffffffffffffffff1673ffffffffffffffffffffffffffffffffffffffff163373ffffffffffffffffffffffffffffffffffffffff1614611bcb576040517f08c379a0000000000000000000000000000000000000000000000000000000008152600401611bc2906129a0565b60405180910390fd5b6000600160008473ffffffffffffffffffffffffffffffffffffffff1673ffffffffffffffffffffffffffffffffffffffff1681526020019081526020016000206009015411611c50576040517f08c379a0000000000000000000000000000000000000000000000000000000008152600401611c47906129c0565b60405180910390fd5b60018060008473ffffffffffffffffffffffffffffffffffffffff1673ffffffffffffffffffffffffffffffffffffffff168152602001908152602001600020600b0160006101000a81548160ff021916908315150217905550919050565b604051806101600160405280606081526020016060815260200160608152602001600081526020016060815260200160608152602001600081526020016060815260200160608152602001600081526020016000151581525090565b828054600181600116156101000203166002900490600052602060002090601f016020900481019282601f10611d4c57805160ff1916838001178555611d7a565b82800160010185558215611d7a579182015b82811115611d79578251825591602001919060010190611d5e565b5b509050611d879190611dee565b5090565b60405180610180016040528060608152602001606081526020016060815260200160608152602001600081526020016060815260200160608152602001606081526020016000815260200160008152602001600081526020016000151581525090565b611e1091905b80821115611e0c576000816000905550600101611df4565b5090565b90565b600081359050611e2281612b45565b92915050565b600081359050611e3781612b5c565b92915050565b600082601f830112611e4e57600080fd5b8135611e61611e5c82612a51565b612a24565b91508082526020830160208301858383011115611e7d57600080fd5b611e88838284612af2565b50505092915050565b60006101808284031215611ea457600080fd5b611eaf610180612a24565b9050600082013567ffffffffffffffff811115611ecb57600080fd5b611ed784828501611e3d565b600083015250602082013567ffffffffffffffff811115611ef757600080fd5b611f0384828501611e3d565b602083015250604082013567ffffffffffffffff811115611f2357600080fd5b611f2f84828501611e3d565b604083015250606082013567ffffffffffffffff811115611f4f57600080fd5b611f5b84828501611e3d565b6060830152506080611f6f84828501612207565b60808301525060a082013567ffffffffffffffff811115611f8f57600080fd5b611f9b84828501611e3d565b60a08301525060c082013567ffffffffffffffff811115611fbb57600080fd5b611fc784828501611e3d565b60c08301525060e082013567ffffffffffffffff811115611fe757600080fd5b611ff384828501611e3d565b60e08301525061010061200884828501612207565b6101008301525061012061201e84828501612207565b6101208301525061014061203484828501612207565b6101408301525061016061204a84828501611e28565b6101608301525092915050565b6000610160828403121561206a57600080fd5b612075610160612a24565b9050600082013567ffffffffffffffff81111561209157600080fd5b61209d84828501611e3d565b600083015250602082013567ffffffffffffffff8111156120bd57600080fd5b6120c984828501611e3d565b602083015250604082013567ffffffffffffffff8111156120e957600080fd5b6120f584828501611e3d565b604083015250606061210984828501612207565b606083015250608082013567ffffffffffffffff81111561212957600080fd5b61213584828501611e3d565b60808301525060a082013567ffffffffffffffff81111561215557600080fd5b61216184828501611e3d565b60a08301525060c061217584828501612207565b60c08301525060e082013567ffffffffffffffff81111561219557600080fd5b6121a184828501611e3d565b60e08301525061010082013567ffffffffffffffff8111156121c257600080fd5b6121ce84828501611e3d565b610100830152506101206121e484828501612207565b610120830152506101406121fa84828501611e28565b6101408301525092915050565b60008135905061221681612b73565b92915050565b60006020828403121561222e57600080fd5b600061223c84828501611e13565b91505092915050565b60006020828403121561225757600080fd5b600082013567ffffffffffffffff81111561227157600080fd5b61227d84828501611e91565b91505092915050565b60006020828403121561229857600080fd5b600082013567ffffffffffffffff8111156122b257600080fd5b6122be84828501612057565b91505092915050565b6122d081612aaa565b82525050565b6122df81612abc565b82525050565b6122ee81612abc565b82525050565b60006122ff82612a7d565b6123098185612a88565b9350612319818560208601612b01565b61232281612b34565b840191505092915050565b600061233882612a7d565b6123428185612a99565b9350612352818560208601612b01565b61235b81612b34565b840191505092915050565b6000612373602783612a99565b91507f4e6f2070687973696369616e2065786973747320756e6465722074686973206160008301527f64647265737321000000000000000000000000000000000000000000000000006020830152604082019050919050565b60006123d9603e83612a99565b91507f4f6e6c79207468652076657269667920696e737469747574696f6e206861732060008301527f74686520726967687420746f207665726966792070687973696369616e2100006020830152604082019050919050565b600061243f603c83612a99565b91507f4f6e6c79207468652076657269667920696e737469747574696f6e206861732060008301527f74686520726967687420746f2076657269667920696e737572656421000000006020830152604082019050919050565b60006124a5602583612a99565b91507f4e6f20696e73757265642065786973747320756e64657220746869732061646460008301527f72657373210000000000000000000000000000000000000000000000000000006020830152604082019050919050565b600061018083016000830151848203600086015261251c82826122f4565b9150506020830151848203602086015261253682826122f4565b9150506040830151848203604086015261255082826122f4565b9150506060830151848203606086015261256a82826122f4565b915050608083015161257f6080860182612745565b5060a083015184820360a086015261259782826122f4565b91505060c083015184820360c08601526125b182826122f4565b91505060e083015184820360e08601526125cb82826122f4565b9150506101008301516125e2610100860182612745565b506101208301516125f7610120860182612745565b5061014083015161260c610140860182612745565b506101608301516126216101608601826122d6565b508091505092915050565b600061016083016000830151848203600086015261264a82826122f4565b9150506020830151848203602086015261266482826122f4565b9150506040830151848203604086015261267e82826122f4565b91505060608301516126936060860182612745565b50608083015184820360808601526126ab82826122f4565b91505060a083015184820360a08601526126c582826122f4565b91505060c08301516126da60c0860182612745565b5060e083015184820360e08601526126f282826122f4565b91505061010083015184820361010086015261270e82826122f4565b915050610120830151612725610120860182612745565b5061014083015161273a6101408601826122d6565b508091505092915050565b61274e81612ae8565b82525050565b61275d81612ae8565b82525050565b600060208201905061277860008301846122c7565b92915050565b600060208201905061279360008301846122e5565b92915050565b60006101808201905081810360008301526127b4818f61232d565b905081810360208301526127c8818e61232d565b905081810360408301526127dc818d61232d565b905081810360608301526127f0818c61232d565b90506127ff608083018b612754565b81810360a0830152612811818a61232d565b905081810360c0830152612825818961232d565b905081810360e0830152612839818861232d565b9050612849610100830187612754565b612857610120830186612754565b612865610140830185612754565b6128736101608301846122e5565b9d9c50505050505050505050505050565b600061016082019050818103600083015261289f818e61232d565b905081810360208301526128b3818d61232d565b905081810360408301526128c7818c61232d565b90506128d6606083018b612754565b81810360808301526128e8818a61232d565b905081810360a08301526128fc818961232d565b905061290b60c0830188612754565b81810360e083015261291d818761232d565b9050818103610100830152612932818661232d565b9050612942610120830185612754565b6129506101408301846122e5565b9c9b505050505050505050505050565b6000602082019050818103600083015261297981612366565b9050919050565b60006020820190508181036000830152612999816123cc565b9050919050565b600060208201905081810360008301526129b981612432565b9050919050565b600060208201905081810360008301526129d981612498565b9050919050565b600060208201905081810360008301526129fa81846124fe565b905092915050565b60006020820190508181036000830152612a1c818461262c565b905092915050565b6000604051905081810181811067ffffffffffffffff82111715612a4757600080fd5b8060405250919050565b600067ffffffffffffffff821115612a6857600080fd5b601f19601f8301169050602081019050919050565b600081519050919050565b600082825260208201905092915050565b600082825260208201905092915050565b6000612ab582612ac8565b9050919050565b60008115159050919050565b600073ffffffffffffffffffffffffffffffffffffffff82169050919050565b6000819050919050565b82818337600083830152505050565b60005b83811015612b1f578082015181840152602081019050612b04565b83811115612b2e576000848401525b50505050565b6000601f19601f8301169050919050565b612b4e81612aaa565b8114612b5957600080fd5b50565b612b6581612abc565b8114612b7057600080fd5b50565b612b7c81612ae8565b8114612b8757600080fd5b5056fea365627a7a7231582023d3ceddedb43af686b619306ab3c6a8e95c73c843a7cb1f6d338fa0fb7621c86c6578706572696d656e74616cf564736f6c63430005100040",
  "source": "// SPDX-License-Identifier: MIT\n\n// Defining the solidity version that is used and allowing experimental functions to allow using structs as datatype within the function call\npragma solidity >=0.4.21 <0.7.0;\npragma experimental ABIEncoderV2;\n\ncontract User {\n    address public verifying_institution;\n\n    constructor () public {\n        verifying_institution = msg.sender;\n    }\n\n    // Defining datatype insured to store all necessary data related to the insured\n    struct Insured {\n        string surname;\n        string name;\n        string street;\n        string street_number;\n        uint post_code;\n        string city;\n\n        string birth_date;\n\n        string insurance;\n        uint insurance_number;\n        uint insured_number;\n        uint insured_status;\n\n        bool verified;\n    }\n\n    // Defining datatype physician to store all necessary data related to the physician\n    struct Physician {\n        string job_title;\n        string surname;\n        string name;\n        uint physician_number;\n\n        string street;\n        string street_number;\n        uint post_code;\n        string city;\n        string telephone_number; \n        uint business_number;\n\n        bool verified;\n    }\n\n    // Insured Number mapped on the related insured object with all data of the insured\n    mapping(address => Insured) public insureds;\n\n    // Physician Number mapped on the related physician object with all data of the physician\n    mapping(address => Physician) public physicians;\n\n    // Function to add a new Insured\n    function addNewInsured(Insured memory insured_)  public{\n        insureds[msg.sender] = Insured(insured_.surname, insured_.name, insured_.street, insured_.street_number, insured_.post_code, insured_.city, insured_.birth_date, insured_.insurance, insured_.insurance_number, insured_.insured_number, insured_.insured_status, false);\n    }\n\n    // From the address of the veryifying_institution every insured can be verified\n    function verifyInsured(address public_key) public returns (bool){\n        require(msg.sender == verifying_institution, \"Only the verify institution has the right to verify insured!\");\n        require(insureds[public_key].insured_number > 0, \"No insured exists under this address!\");\n        insureds[public_key].verified = true;\n    }\n\n    // Function returns true, if insured with the insured_number_ exists\n    function getInsured(address public_key) public view returns(Insured memory){\n        if(insureds[public_key].insured_number > 0){\n            return insureds[public_key];\n        } \n    }\n\n    // Function to add a new Physician\n    function addNewPhysician(Physician memory physician_) public{\n        physicians[msg.sender] = Physician(physician_.job_title, physician_.surname, physician_.name, physician_.physician_number, physician_.street, physician_.street_number, physician_.post_code, physician_.city, physician_.telephone_number, physician_.business_number, false);\n    }\n\n    // From the address of the veryifying_institution every insured can be verified\n    function verifyPhysician(address public_key) public returns (bool){\n        require(msg.sender == verifying_institution, \"Only the verify institution has the right to verify physician!\");\n        require(physicians[public_key].physician_number > 0, \"No physician exists under this address!\");\n        physicians[public_key].verified = true;\n    }\n\n    // Function returns true, if insured with the physician_number_ exists\n    function getPhysician(address public_key) public view returns(Physician memory){\n        if(physicians[public_key].physician_number > 0){\n            return physicians[public_key];\n        } \n    }\n}",
  "sourcePath": "/Users/valentin/Documents/Programmdaten/Visual_Studio/5_Semester/Integrationsseminar/blockchain_e_prescription/contracts/User.sol",
  "compiler": {
    "name": "solc",
    "version": "0.5.16+commit.9c3226ce.Emscripten.clang"
  },
  "schemaVersion": "3.3.2",
  "updatedAt": "2020-12-27T10:17:22.638Z",
  "networkType": "ethereum",
  "devdoc": {
    "methods": {}
  },
  "userdoc": {
    "methods": {}
  }
}